{
  "_format": "hh-sol-artifact-1",
  "contractName": "AuctionHouse",
  "sourceName": "contracts/zora/AuctionHouse.sol",
  "abi": [
    {
      "inputs": [
        {
          "internalType": "address",
          "name": "_weth",
          "type": "address"
        }
      ],
      "stateMutability": "nonpayable",
      "type": "constructor"
    },
    {
      "anonymous": false,
      "inputs": [
        {
          "indexed": true,
          "internalType": "uint256",
          "name": "auctionId",
          "type": "uint256"
        },
        {
          "indexed": true,
          "internalType": "uint256",
          "name": "tokenId",
          "type": "uint256"
        },
        {
          "indexed": true,
          "internalType": "address",
          "name": "tokenContract",
          "type": "address"
        },
        {
          "indexed": false,
          "internalType": "bool",
          "name": "approved",
          "type": "bool"
        }
      ],
      "name": "AuctionApprovalUpdated",
      "type": "event"
    },
    {
      "anonymous": false,
      "inputs": [
        {
          "indexed": true,
          "internalType": "uint256",
          "name": "auctionId",
          "type": "uint256"
        },
        {
          "indexed": true,
          "internalType": "uint256",
          "name": "tokenId",
          "type": "uint256"
        },
        {
          "indexed": true,
          "internalType": "address",
          "name": "tokenContract",
          "type": "address"
        },
        {
          "indexed": false,
          "internalType": "address",
          "name": "sender",
          "type": "address"
        },
        {
          "indexed": false,
          "internalType": "uint256",
          "name": "value",
          "type": "uint256"
        },
        {
          "indexed": false,
          "internalType": "bool",
          "name": "firstBid",
          "type": "bool"
        },
        {
          "indexed": false,
          "internalType": "bool",
          "name": "extended",
          "type": "bool"
        }
      ],
      "name": "AuctionBid",
      "type": "event"
    },
    {
      "anonymous": false,
      "inputs": [
        {
          "indexed": true,
          "internalType": "uint256",
          "name": "auctionId",
          "type": "uint256"
        },
        {
          "indexed": true,
          "internalType": "uint256",
          "name": "tokenId",
          "type": "uint256"
        },
        {
          "indexed": true,
          "internalType": "address",
          "name": "tokenContract",
          "type": "address"
        },
        {
          "indexed": false,
          "internalType": "address",
          "name": "tokenOwner",
          "type": "address"
        }
      ],
      "name": "AuctionCanceled",
      "type": "event"
    },
    {
      "anonymous": false,
      "inputs": [
        {
          "indexed": true,
          "internalType": "uint256",
          "name": "auctionId",
          "type": "uint256"
        },
        {
          "indexed": true,
          "internalType": "uint256",
          "name": "tokenId",
          "type": "uint256"
        },
        {
          "indexed": true,
          "internalType": "address",
          "name": "tokenContract",
          "type": "address"
        },
        {
          "indexed": false,
          "internalType": "uint256",
          "name": "duration",
          "type": "uint256"
        },
        {
          "indexed": false,
          "internalType": "uint256",
          "name": "reservePrice",
          "type": "uint256"
        },
        {
          "indexed": false,
          "internalType": "address",
          "name": "tokenOwner",
          "type": "address"
        },
        {
          "indexed": false,
          "internalType": "address",
          "name": "curator",
          "type": "address"
        },
        {
          "indexed": false,
          "internalType": "uint8",
          "name": "curatorFeePercentage",
          "type": "uint8"
        },
        {
          "indexed": false,
          "internalType": "address",
          "name": "auctionCurrency",
          "type": "address"
        }
      ],
      "name": "AuctionCreated",
      "type": "event"
    },
    {
      "anonymous": false,
      "inputs": [
        {
          "indexed": true,
          "internalType": "uint256",
          "name": "auctionId",
          "type": "uint256"
        },
        {
          "indexed": true,
          "internalType": "uint256",
          "name": "tokenId",
          "type": "uint256"
        },
        {
          "indexed": true,
          "internalType": "address",
          "name": "tokenContract",
          "type": "address"
        },
        {
          "indexed": false,
          "internalType": "uint256",
          "name": "duration",
          "type": "uint256"
        }
      ],
      "name": "AuctionDurationExtended",
      "type": "event"
    },
    {
      "anonymous": false,
      "inputs": [
        {
          "indexed": true,
          "internalType": "uint256",
          "name": "auctionId",
          "type": "uint256"
        },
        {
          "indexed": true,
          "internalType": "uint256",
          "name": "tokenId",
          "type": "uint256"
        },
        {
          "indexed": true,
          "internalType": "address",
          "name": "tokenContract",
          "type": "address"
        },
        {
          "indexed": false,
          "internalType": "address",
          "name": "tokenOwner",
          "type": "address"
        },
        {
          "indexed": false,
          "internalType": "address",
          "name": "curator",
          "type": "address"
        },
        {
          "indexed": false,
          "internalType": "address",
          "name": "winner",
          "type": "address"
        },
        {
          "indexed": false,
          "internalType": "uint256",
          "name": "amount",
          "type": "uint256"
        },
        {
          "indexed": false,
          "internalType": "uint256",
          "name": "curatorFee",
          "type": "uint256"
        },
        {
          "indexed": false,
          "internalType": "address",
          "name": "auctionCurrency",
          "type": "address"
        }
      ],
      "name": "AuctionEnded",
      "type": "event"
    },
    {
      "anonymous": false,
      "inputs": [
        {
          "indexed": true,
          "internalType": "uint256",
          "name": "auctionId",
          "type": "uint256"
        },
        {
          "indexed": true,
          "internalType": "uint256",
          "name": "tokenId",
          "type": "uint256"
        },
        {
          "indexed": true,
          "internalType": "address",
          "name": "tokenContract",
          "type": "address"
        },
        {
          "indexed": false,
          "internalType": "uint256",
          "name": "reservePrice",
          "type": "uint256"
        }
      ],
      "name": "AuctionReservePriceUpdated",
      "type": "event"
    },
    {
      "stateMutability": "payable",
      "type": "fallback"
    },
    {
      "inputs": [
        {
          "internalType": "uint256",
          "name": "",
          "type": "uint256"
        }
      ],
      "name": "auctions",
      "outputs": [
        {
          "internalType": "uint256",
          "name": "tokenId",
          "type": "uint256"
        },
        {
          "internalType": "address",
          "name": "tokenContract",
          "type": "address"
        },
        {
          "internalType": "bool",
          "name": "approved",
          "type": "bool"
        },
        {
          "internalType": "uint256",
          "name": "amount",
          "type": "uint256"
        },
        {
          "internalType": "uint256",
          "name": "duration",
          "type": "uint256"
        },
        {
          "internalType": "uint256",
          "name": "firstBidTime",
          "type": "uint256"
        },
        {
          "internalType": "uint256",
          "name": "reservePrice",
          "type": "uint256"
        },
        {
          "internalType": "uint8",
          "name": "curatorFeePercentage",
          "type": "uint8"
        },
        {
          "internalType": "address",
          "name": "tokenOwner",
          "type": "address"
        },
        {
          "internalType": "address payable",
          "name": "bidder",
          "type": "address"
        },
        {
          "internalType": "address payable",
          "name": "curator",
          "type": "address"
        },
        {
          "internalType": "address",
          "name": "auctionCurrency",
          "type": "address"
        }
      ],
      "stateMutability": "view",
      "type": "function"
    },
    {
      "inputs": [
        {
          "internalType": "uint256",
          "name": "auctionId",
          "type": "uint256"
        }
      ],
      "name": "cancelAuction",
      "outputs": [],
      "stateMutability": "nonpayable",
      "type": "function"
    },
    {
      "inputs": [
        {
          "internalType": "uint256",
          "name": "tokenId",
          "type": "uint256"
        },
        {
          "internalType": "address",
          "name": "tokenContract",
          "type": "address"
        },
        {
          "internalType": "uint256",
          "name": "duration",
          "type": "uint256"
        },
        {
          "internalType": "uint256",
          "name": "reservePrice",
          "type": "uint256"
        },
        {
          "internalType": "address payable",
          "name": "curator",
          "type": "address"
        },
        {
          "internalType": "uint8",
          "name": "curatorFeePercentage",
          "type": "uint8"
        },
        {
          "internalType": "address",
          "name": "auctionCurrency",
          "type": "address"
        }
      ],
      "name": "createAuction",
      "outputs": [
        {
          "internalType": "uint256",
          "name": "",
          "type": "uint256"
        }
      ],
      "stateMutability": "nonpayable",
      "type": "function"
    },
    {
      "inputs": [
        {
          "internalType": "uint256",
          "name": "auctionId",
          "type": "uint256"
        },
        {
          "internalType": "uint256",
          "name": "amount",
          "type": "uint256"
        }
      ],
      "name": "createBid",
      "outputs": [],
      "stateMutability": "payable",
      "type": "function"
    },
    {
      "inputs": [
        {
          "internalType": "uint256",
          "name": "auctionId",
          "type": "uint256"
        }
      ],
      "name": "endAuction",
      "outputs": [],
      "stateMutability": "nonpayable",
      "type": "function"
    },
    {
      "inputs": [],
      "name": "minBidIncrementPercentage",
      "outputs": [
        {
          "internalType": "uint8",
          "name": "",
          "type": "uint8"
        }
      ],
      "stateMutability": "view",
      "type": "function"
    },
    {
      "inputs": [
        {
          "internalType": "uint256",
          "name": "auctionId",
          "type": "uint256"
        },
        {
          "internalType": "bool",
          "name": "approved",
          "type": "bool"
        }
      ],
      "name": "setAuctionApproval",
      "outputs": [],
      "stateMutability": "nonpayable",
      "type": "function"
    },
    {
      "inputs": [
        {
          "internalType": "uint256",
          "name": "auctionId",
          "type": "uint256"
        },
        {
          "internalType": "uint256",
          "name": "reservePrice",
          "type": "uint256"
        }
      ],
      "name": "setAuctionReservePrice",
      "outputs": [],
      "stateMutability": "nonpayable",
      "type": "function"
    },
    {
      "inputs": [],
      "name": "timeBuffer",
      "outputs": [
        {
          "internalType": "uint256",
          "name": "",
          "type": "uint256"
        }
      ],
      "stateMutability": "view",
      "type": "function"
    },
    {
      "inputs": [],
      "name": "wethAddress",
      "outputs": [
        {
          "internalType": "address",
          "name": "",
          "type": "address"
        }
      ],
      "stateMutability": "view",
      "type": "function"
    },
    {
      "stateMutability": "payable",
      "type": "receive"
    }
  ],
  "bytecode": "0x60806040523480156200001157600080fd5b50604051620043b8380380620043b88339818101604052810190620000379190620000c3565b600160008190555080600260016101000a81548173ffffffffffffffffffffffffffffffffffffffff021916908373ffffffffffffffffffffffffffffffffffffffff1602179055506103846001819055506005600260006101000a81548160ff021916908360ff160217905550506200013d565b600081519050620000bd8162000123565b92915050565b600060208284031215620000d657600080fd5b6000620000e684828501620000ac565b91505092915050565b6000620000fc8262000103565b9050919050565b600073ffffffffffffffffffffffffffffffffffffffff82169050919050565b6200012e81620000ef565b81146200013a57600080fd5b50565b61426b806200014d6000396000f3fe6080604052600436106100955760003560e01c8063973ddb4a11610059578063973ddb4a146101a0578063b296024d146101c9578063b7751c71146101f4578063b9a2de3a14610210578063ec91f2a4146102395761009c565b80634f0e0ef31461009e578063571a26a0146100c95780636f8a41e11461011157806375e9249f1461013a57806396b5a755146101775761009c565b3661009c57005b005b3480156100aa57600080fd5b506100b3610264565b6040516100c0919061344a565b60405180910390f35b3480156100d557600080fd5b506100f060048036038101906100eb9190612f19565b61028a565b6040516101089c9b9a999897969594939291906138b5565b60405180910390f35b34801561011d57600080fd5b5061013860048036038101906101339190613045565b6103a4565b005b34801561014657600080fd5b50610161600480360381019061015c9190612f6b565b610612565b60405161016e919061389a565b60405180910390f35b34801561018357600080fd5b5061019e60048036038101906101999190612f19565b610e26565b005b3480156101ac57600080fd5b506101c760048036038101906101c29190613009565b61103b565b005b3480156101d557600080fd5b506101de611190565b6040516101eb91906139d0565b60405180910390f35b61020e60048036038101906102099190613045565b6111a3565b005b34801561021c57600080fd5b5061023760048036038101906102329190612f19565b611897565b005b34801561024557600080fd5b5061024e6120bb565b60405161025b919061389a565b60405180910390f35b600260019054906101000a900473ffffffffffffffffffffffffffffffffffffffff1681565b60036020528060005260406000206000915090508060000154908060010160009054906101000a900473ffffffffffffffffffffffffffffffffffffffff16908060010160149054906101000a900460ff16908060020154908060030154908060040154908060050154908060060160009054906101000a900460ff16908060060160019054906101000a900473ffffffffffffffffffffffffffffffffffffffff16908060070160009054906101000a900473ffffffffffffffffffffffffffffffffffffffff16908060080160009054906101000a900473ffffffffffffffffffffffffffffffffffffffff16908060090160009054906101000a900473ffffffffffffffffffffffffffffffffffffffff1690508c565b816103ae816120c1565b6103ed576040517f08c379a00000000000000000000000000000000000000000000000000000000081526004016103e49061371a565b60405180910390fd5b6003600084815260200190815260200160002060080160009054906101000a900473ffffffffffffffffffffffffffffffffffffffff1673ffffffffffffffffffffffffffffffffffffffff163373ffffffffffffffffffffffffffffffffffffffff1614806104be57506003600084815260200190815260200160002060060160019054906101000a900473ffffffffffffffffffffffffffffffffffffffff1673ffffffffffffffffffffffffffffffffffffffff163373ffffffffffffffffffffffffffffffffffffffff16145b6104fd576040517f08c379a00000000000000000000000000000000000000000000000000000000081526004016104f49061375a565b60405180910390fd5b6000600360008581526020019081526020016000206004015414610556576040517f08c379a000000000000000000000000000000000000000000000000000000000815260040161054d906136da565b60405180910390fd5b8160036000858152602001908152602001600020600501819055506003600084815260200190815260200160002060010160009054906101000a900473ffffffffffffffffffffffffffffffffffffffff1673ffffffffffffffffffffffffffffffffffffffff166003600085815260200190815260200160002060000154847f01e6a465ec1edd582d333147c7b7edf5998164f2cf2269dcb9c93d46c67bd31785604051610605919061389a565b60405180910390a4505050565b60006002600054141561065a576040517f08c379a00000000000000000000000000000000000000000000000000000000081526004016106519061381a565b60405180910390fd5b60026000819055508673ffffffffffffffffffffffffffffffffffffffff166301ffc9a76380ac58cd60e01b6040518263ffffffff1660e01b81526004016106a291906135bd565b60206040518083038186803b1580156106ba57600080fd5b505afa1580156106ce573d6000803e3d6000fd5b505050506040513d601f19601f820116820180604052508101906106f29190612ef0565b8061078957508673ffffffffffffffffffffffffffffffffffffffff166301ffc9a76380ac58cd60e01b6040518263ffffffff1660e01b815260040161073891906135bd565b60206040518083038186803b15801561075057600080fd5b505afa158015610764573d6000803e3d6000fd5b505050506040513d601f19601f820116820180604052508101906107889190612ef0565b5b6107c8576040517f08c379a00000000000000000000000000000000000000000000000000000000081526004016107bf9061385a565b60405180910390fd5b60648360ff161061080e576040517f08c379a0000000000000000000000000000000000000000000000000000000008152600401610805906137da565b60405180910390fd5b60008773ffffffffffffffffffffffffffffffffffffffff16636352211e8a6040518263ffffffff1660e01b8152600401610849919061389a565b60206040518083038186803b15801561086157600080fd5b505afa158015610875573d6000803e3d6000fd5b505050506040513d601f19601f820116820180604052508101906108999190612ec7565b90508773ffffffffffffffffffffffffffffffffffffffff1663081812fc8a6040518263ffffffff1660e01b81526004016108d4919061389a565b60206040518083038186803b1580156108ec57600080fd5b505afa158015610900573d6000803e3d6000fd5b505050506040513d601f19601f820116820180604052508101906109249190612ec7565b73ffffffffffffffffffffffffffffffffffffffff163373ffffffffffffffffffffffffffffffffffffffff16148061098857508073ffffffffffffffffffffffffffffffffffffffff163373ffffffffffffffffffffffffffffffffffffffff16145b6109c7576040517f08c379a00000000000000000000000000000000000000000000000000000000081526004016109be906137fa565b60405180910390fd5b60006109d36004612130565b90506040518061018001604052808b81526020018a73ffffffffffffffffffffffffffffffffffffffff16815260200160001515815260200160008152602001898152602001600081526020018881526020018660ff1681526020018373ffffffffffffffffffffffffffffffffffffffff168152602001600073ffffffffffffffffffffffffffffffffffffffff1681526020018773ffffffffffffffffffffffffffffffffffffffff1681526020018573ffffffffffffffffffffffffffffffffffffffff16815250600360008381526020019081526020016000206000820151816000015560208201518160010160006101000a81548173ffffffffffffffffffffffffffffffffffffffff021916908373ffffffffffffffffffffffffffffffffffffffff16021790555060408201518160010160146101000a81548160ff021916908315150217905550606082015181600201556080820151816003015560a0820151816004015560c0820151816005015560e08201518160060160006101000a81548160ff021916908360ff1602179055506101008201518160060160016101000a81548173ffffffffffffffffffffffffffffffffffffffff021916908373ffffffffffffffffffffffffffffffffffffffff1602179055506101208201518160070160006101000a81548173ffffffffffffffffffffffffffffffffffffffff021916908373ffffffffffffffffffffffffffffffffffffffff1602179055506101408201518160080160006101000a81548173ffffffffffffffffffffffffffffffffffffffff021916908373ffffffffffffffffffffffffffffffffffffffff1602179055506101608201518160090160006101000a81548173ffffffffffffffffffffffffffffffffffffffff021916908373ffffffffffffffffffffffffffffffffffffffff1602179055509050508873ffffffffffffffffffffffffffffffffffffffff166323b872dd83308d6040518463ffffffff1660e01b8152600401610ccb939291906134fd565b600060405180830381600087803b158015610ce557600080fd5b505af1158015610cf9573d6000803e3d6000fd5b50505050610d07600461213e565b8873ffffffffffffffffffffffffffffffffffffffff168a827f38c0b9047bd28fac9f420b967f6caf4a6260ba09d18940a9a502578a480c09008b8b878c8c8c604051610d599695949392919061396f565b60405180910390a4600073ffffffffffffffffffffffffffffffffffffffff166003600083815260200190815260200160002060080160009054906101000a900473ffffffffffffffffffffffffffffffffffffffff1673ffffffffffffffffffffffffffffffffffffffff161480610dfd57508173ffffffffffffffffffffffffffffffffffffffff168673ffffffffffffffffffffffffffffffffffffffff16145b15610e0e57610e0d816001612154565b5b80925050506001600081905550979650505050505050565b60026000541415610e6c576040517f08c379a0000000000000000000000000000000000000000000000000000000008152600401610e639061381a565b60405180910390fd5b600260008190555080610e7e816120c1565b610ebd576040517f08c379a0000000000000000000000000000000000000000000000000000000008152600401610eb49061371a565b60405180910390fd5b3373ffffffffffffffffffffffffffffffffffffffff166003600084815260200190815260200160002060060160019054906101000a900473ffffffffffffffffffffffffffffffffffffffff1673ffffffffffffffffffffffffffffffffffffffff161480610f8e57503373ffffffffffffffffffffffffffffffffffffffff166003600084815260200190815260200160002060080160009054906101000a900473ffffffffffffffffffffffffffffffffffffffff1673ffffffffffffffffffffffffffffffffffffffff16145b610fcd576040517f08c379a0000000000000000000000000000000000000000000000000000000008152600401610fc49061367a565b60405180910390fd5b6000600360008481526020019081526020016000206004015414611026576040517f08c379a000000000000000000000000000000000000000000000000000000000815260040161101d906135fa565b60405180910390fd5b61102f82612222565b50600160008190555050565b81611045816120c1565b611084576040517f08c379a000000000000000000000000000000000000000000000000000000000815260040161107b9061371a565b60405180910390fd5b6003600084815260200190815260200160002060080160009054906101000a900473ffffffffffffffffffffffffffffffffffffffff1673ffffffffffffffffffffffffffffffffffffffff163373ffffffffffffffffffffffffffffffffffffffff1614611128576040517f08c379a000000000000000000000000000000000000000000000000000000000815260040161111f9061361a565b60405180910390fd5b6000600360008581526020019081526020016000206004015414611181576040517f08c379a0000000000000000000000000000000000000000000000000000000008152600401611178906136da565b60405180910390fd5b61118b8383612154565b505050565b600260009054906101000a900460ff1681565b816111ad816120c1565b6111ec576040517f08c379a00000000000000000000000000000000000000000000000000000000081526004016111e39061371a565b60405180910390fd5b60026000541415611232576040517f08c379a00000000000000000000000000000000000000000000000000000000081526004016112299061381a565b60405180910390fd5b600260008190555060006003600085815260200190815260200160002060070160009054906101000a900473ffffffffffffffffffffffffffffffffffffffff1690506003600085815260200190815260200160002060010160149054906101000a900460ff166112d8576040517f08c379a00000000000000000000000000000000000000000000000000000000081526004016112cf906136ba565b60405180910390fd5b60006003600086815260200190815260200160002060040154148061133a5750611337600360008681526020019081526020016000206003015460036000878152602001908152602001600020600401546124e190919063ffffffff16565b42105b611379576040517f08c379a00000000000000000000000000000000000000000000000000000000081526004016113709061383a565b60405180910390fd5b60036000858152602001908152602001600020600501548310156113d2576040517f08c379a00000000000000000000000000000000000000000000000000000000081526004016113c99061369a565b60405180910390fd5b6114486114236064611415600260009054906101000a900460ff1660ff16600360008a8152602001908152602001600020600201546124f790919063ffffffff16565b61250d90919063ffffffff16565b60036000878152602001908152602001600020600201546124e190919063ffffffff16565b83101561148a576040517f08c379a0000000000000000000000000000000000000000000000000000000008152600401611481906136fa565b60405180910390fd5b6000600360008681526020019081526020016000206004015414156114c957426003600086815260200190815260200160002060040181905550611556565b600073ffffffffffffffffffffffffffffffffffffffff168173ffffffffffffffffffffffffffffffffffffffff1614611555576115548160036000878152602001908152602001600020600201546003600088815260200190815260200160002060090160009054906101000a900473ffffffffffffffffffffffffffffffffffffffff16612523565b5b5b611596836003600087815260200190815260200160002060090160009054906101000a900473ffffffffffffffffffffffffffffffffffffffff166126fa565b826003600086815260200190815260200160002060020181905550336003600086815260200190815260200160002060070160006101000a81548173ffffffffffffffffffffffffffffffffffffffff021916908373ffffffffffffffffffffffffffffffffffffffff160217905550600060015461165c4261164e600360008a815260200190815260200160002060030154600360008b8152602001908152602001600020600401546124e190919063ffffffff16565b6129a190919063ffffffff16565b10156116fe576000600360008781526020019081526020016000206003015490506116de6116cf6116be426116b085600360008d8152602001908152602001600020600401546124e190919063ffffffff16565b6129a190919063ffffffff16565b6001546129a190919063ffffffff16565b826124e190919063ffffffff16565b600360008881526020019081526020016000206003018190555060019150505b6003600086815260200190815260200160002060010160009054906101000a900473ffffffffffffffffffffffffffffffffffffffff1673ffffffffffffffffffffffffffffffffffffffff166003600087815260200190815260200160002060000154867fda6b779568630ce5e5658b317174df474d5b335541ed9471bd8424a017f3be6d3388600073ffffffffffffffffffffffffffffffffffffffff168873ffffffffffffffffffffffffffffffffffffffff1614876040516117c7949392919061355d565b60405180910390a48015611888576003600086815260200190815260200160002060010160009054906101000a900473ffffffffffffffffffffffffffffffffffffffff1673ffffffffffffffffffffffffffffffffffffffff166003600087815260200190815260200160002060000154867f55cf2b31608fbe49fa31cd0285b6b6cce46f56d26c8c59980a2af5a0ffbdd5db600360008a81526020019081526020016000206003015460405161187f919061389a565b60405180910390a45b50506001600081905550505050565b806118a1816120c1565b6118e0576040517f08c379a00000000000000000000000000000000000000000000000000000000081526004016118d79061371a565b60405180910390fd5b60026000541415611926576040517f08c379a000000000000000000000000000000000000000000000000000000000815260040161191d9061381a565b60405180910390fd5b6002600081905550600060036000848152602001908152602001600020600401541415611988576040517f08c379a000000000000000000000000000000000000000000000000000000000815260040161197f9061365a565b60405180910390fd5b6119c7600360008481526020019081526020016000206003015460036000858152602001908152602001600020600401546124e190919063ffffffff16565b421015611a09576040517f08c379a0000000000000000000000000000000000000000000000000000000008152600401611a00906137ba565b60405180910390fd5b60008073ffffffffffffffffffffffffffffffffffffffff166003600085815260200190815260200160002060090160009054906101000a900473ffffffffffffffffffffffffffffffffffffffff1673ffffffffffffffffffffffffffffffffffffffff1614611ab0576003600084815260200190815260200160002060090160009054906101000a900473ffffffffffffffffffffffffffffffffffffffff16611ad4565b600260019054906101000a900473ffffffffffffffffffffffffffffffffffffffff165b9050600080600360008681526020019081526020016000206002015490506003600086815260200190815260200160002060010160009054906101000a900473ffffffffffffffffffffffffffffffffffffffff1673ffffffffffffffffffffffffffffffffffffffff166342842e0e306003600089815260200190815260200160002060070160009054906101000a900473ffffffffffffffffffffffffffffffffffffffff16600360008a8152602001908152602001600020600001546040518463ffffffff1660e01b8152600401611bb1939291906134c6565b600060405180830381600087803b158015611bcb57600080fd5b505af1925050508015611bdc575060015b611c7e57611c6d6003600087815260200190815260200160002060070160009054906101000a900473ffffffffffffffffffffffffffffffffffffffff1660036000888152602001908152602001600020600201546003600089815260200190815260200160002060090160009054906101000a900473ffffffffffffffffffffffffffffffffffffffff16612523565b611c7685612222565b5050506120af565b600073ffffffffffffffffffffffffffffffffffffffff166003600087815260200190815260200160002060080160009054906101000a900473ffffffffffffffffffffffffffffffffffffffff1673ffffffffffffffffffffffffffffffffffffffff1614611dc357611d346064611d266003600089815260200190815260200160002060060160009054906101000a900460ff1660ff16846124f790919063ffffffff16565b61250d90919063ffffffff16565b9150611d4982826129a190919063ffffffff16565b9050611dc26003600087815260200190815260200160002060080160009054906101000a900473ffffffffffffffffffffffffffffffffffffffff16836003600089815260200190815260200160002060090160009054906101000a900473ffffffffffffffffffffffffffffffffffffffff16612523565b5b611e3a6003600087815260200190815260200160002060060160019054906101000a900473ffffffffffffffffffffffffffffffffffffffff16826003600089815260200190815260200160002060090160009054906101000a900473ffffffffffffffffffffffffffffffffffffffff16612523565b6003600086815260200190815260200160002060010160009054906101000a900473ffffffffffffffffffffffffffffffffffffffff1673ffffffffffffffffffffffffffffffffffffffff166003600087815260200190815260200160002060000154867f4f35fb3ea0081b3ccbe8df613cab0f9e1694d50a025e0aa09b88a86a3d07c2de600360008a815260200190815260200160002060060160019054906101000a900473ffffffffffffffffffffffffffffffffffffffff16600360008b815260200190815260200160002060080160009054906101000a900473ffffffffffffffffffffffffffffffffffffffff16600360008c815260200190815260200160002060070160009054906101000a900473ffffffffffffffffffffffffffffffffffffffff1687898b604051611f7a96959493929190613465565b60405180910390a4600360008681526020019081526020016000206000808201600090556001820160006101000a81549073ffffffffffffffffffffffffffffffffffffffff02191690556001820160146101000a81549060ff021916905560028201600090556003820160009055600482016000905560058201600090556006820160006101000a81549060ff02191690556006820160016101000a81549073ffffffffffffffffffffffffffffffffffffffff02191690556007820160006101000a81549073ffffffffffffffffffffffffffffffffffffffff02191690556008820160006101000a81549073ffffffffffffffffffffffffffffffffffffffff02191690556009820160006101000a81549073ffffffffffffffffffffffffffffffffffffffff021916905550505050505b60016000819055505050565b60015481565b60008073ffffffffffffffffffffffffffffffffffffffff166003600084815260200190815260200160002060060160019054906101000a900473ffffffffffffffffffffffffffffffffffffffff1673ffffffffffffffffffffffffffffffffffffffff1614159050919050565b600081600001549050919050565b6001816000016000828254019250508190555050565b806003600084815260200190815260200160002060010160146101000a81548160ff0219169083151502179055506003600083815260200190815260200160002060010160009054906101000a900473ffffffffffffffffffffffffffffffffffffffff1673ffffffffffffffffffffffffffffffffffffffff166003600084815260200190815260200160002060000154837fec35d321ab4972475f131e184c0c0fe52c5a58a29d74f7db2969af2f6dd93a1f8460405161221691906135a2565b60405180910390a45050565b60006003600083815260200190815260200160002060060160019054906101000a900473ffffffffffffffffffffffffffffffffffffffff1690506003600083815260200190815260200160002060010160009054906101000a900473ffffffffffffffffffffffffffffffffffffffff1673ffffffffffffffffffffffffffffffffffffffff166342842e0e308360036000878152602001908152602001600020600001546040518463ffffffff1660e01b81526004016122e6939291906134fd565b600060405180830381600087803b15801561230057600080fd5b505af1158015612314573d6000803e3d6000fd5b505050506003600083815260200190815260200160002060010160009054906101000a900473ffffffffffffffffffffffffffffffffffffffff1673ffffffffffffffffffffffffffffffffffffffff166003600084815260200190815260200160002060000154837f6091afcbe8514686c43b167ca4f1b03e24446d29d8490d496e438f8a2c763439846040516123ac919061344a565b60405180910390a4600360008381526020019081526020016000206000808201600090556001820160006101000a81549073ffffffffffffffffffffffffffffffffffffffff02191690556001820160146101000a81549060ff021916905560028201600090556003820160009055600482016000905560058201600090556006820160006101000a81549060ff02191690556006820160016101000a81549073ffffffffffffffffffffffffffffffffffffffff02191690556007820160006101000a81549073ffffffffffffffffffffffffffffffffffffffff02191690556008820160006101000a81549073ffffffffffffffffffffffffffffffffffffffff02191690556009820160006101000a81549073ffffffffffffffffffffffffffffffffffffffff021916905550505050565b600081836124ef9190613a1d565b905092915050565b600081836125059190613aa4565b905092915050565b6000818361251b9190613a73565b905092915050565b600073ffffffffffffffffffffffffffffffffffffffff168173ffffffffffffffffffffffffffffffffffffffff1614156126c957600260019054906101000a900473ffffffffffffffffffffffffffffffffffffffff1673ffffffffffffffffffffffffffffffffffffffff16632e1a7d4d836040518263ffffffff1660e01b81526004016125b3919061389a565b600060405180830381600087803b1580156125cd57600080fd5b505af11580156125e1573d6000803e3d6000fd5b505050506125ef83836129b7565b6126c457600260019054906101000a900473ffffffffffffffffffffffffffffffffffffffff1673ffffffffffffffffffffffffffffffffffffffff1663d0e30db0836040518263ffffffff1660e01b81526004016000604051808303818588803b15801561265d57600080fd5b505af1158015612671573d6000803e3d6000fd5b50505050506126c38383600260019054906101000a900473ffffffffffffffffffffffffffffffffffffffff1673ffffffffffffffffffffffffffffffffffffffff16612aa39092919063ffffffff16565b5b6126f5565b6126f483838373ffffffffffffffffffffffffffffffffffffffff16612aa39092919063ffffffff16565b5b505050565b600073ffffffffffffffffffffffffffffffffffffffff168173ffffffffffffffffffffffffffffffffffffffff1614156127f957813414612771576040517f08c379a00000000000000000000000000000000000000000000000000000000081526004016127689061373a565b60405180910390fd5b600260019054906101000a900473ffffffffffffffffffffffffffffffffffffffff1673ffffffffffffffffffffffffffffffffffffffff1663d0e30db0836040518263ffffffff1660e01b81526004016000604051808303818588803b1580156127db57600080fd5b505af11580156127ef573d6000803e3d6000fd5b505050505061299d565b600081905060008173ffffffffffffffffffffffffffffffffffffffff166370a08231306040518263ffffffff1660e01b8152600401612839919061344a565b60206040518083038186803b15801561285157600080fd5b505afa158015612865573d6000803e3d6000fd5b505050506040513d601f19601f820116820180604052508101906128899190612f42565b90506128b83330868573ffffffffffffffffffffffffffffffffffffffff16612b29909392919063ffffffff16565b60008273ffffffffffffffffffffffffffffffffffffffff166370a08231306040518263ffffffff1660e01b81526004016128f3919061344a565b60206040518083038186803b15801561290b57600080fd5b505afa15801561291f573d6000803e3d6000fd5b505050506040513d601f19601f820116820180604052508101906129439190612f42565b90508061295986846124e190919063ffffffff16565b14612999576040517f08c379a00000000000000000000000000000000000000000000000000000000081526004016129909061387a565b60405180910390fd5b5050505b5050565b600081836129af9190613afe565b905092915050565b6000808373ffffffffffffffffffffffffffffffffffffffff1683600067ffffffffffffffff811115612a13577f4e487b7100000000000000000000000000000000000000000000000000000000600052604160045260246000fd5b6040519080825280601f01601f191660200182016040528015612a455781602001600182028036833780820191505090505b50604051612a539190613433565b60006040518083038185875af1925050503d8060008114612a90576040519150601f19603f3d011682016040523d82523d6000602084013e612a95565b606091505b505090508091505092915050565b612b248363a9059cbb60e01b8484604051602401612ac2929190613534565b604051602081830303815290604052907bffffffffffffffffffffffffffffffffffffffffffffffffffffffff19166020820180517bffffffffffffffffffffffffffffffffffffffffffffffffffffffff8381831617835250505050612bb2565b505050565b612bac846323b872dd60e01b858585604051602401612b4a939291906134fd565b604051602081830303815290604052907bffffffffffffffffffffffffffffffffffffffffffffffffffffffff19166020820180517bffffffffffffffffffffffffffffffffffffffffffffffffffffffff8381831617835250505050612bb2565b50505050565b6000612c14826040518060400160405280602081526020017f5361666545524332303a206c6f772d6c6576656c2063616c6c206661696c65648152508573ffffffffffffffffffffffffffffffffffffffff16612c799092919063ffffffff16565b9050600081511115612c745780806020019051810190612c349190612ef0565b612c73576040517f08c379a0000000000000000000000000000000000000000000000000000000008152600401612c6a9061379a565b60405180910390fd5b5b505050565b6060612c888484600085612c91565b90509392505050565b606082471015612cd6576040517f08c379a0000000000000000000000000000000000000000000000000000000008152600401612ccd9061363a565b60405180910390fd5b612cdf85612da5565b612d1e576040517f08c379a0000000000000000000000000000000000000000000000000000000008152600401612d159061377a565b60405180910390fd5b6000808673ffffffffffffffffffffffffffffffffffffffff168587604051612d479190613433565b60006040518083038185875af1925050503d8060008114612d84576040519150601f19603f3d011682016040523d82523d6000602084013e612d89565b606091505b5091509150612d99828286612db8565b92505050949350505050565b600080823b905060008111915050919050565b60608315612dc857829050612e18565b600083511115612ddb5782518084602001fd5b816040517f08c379a0000000000000000000000000000000000000000000000000000000008152600401612e0f91906135d8565b60405180910390fd5b9392505050565b600081359050612e2e816141c2565b92915050565b600081519050612e43816141c2565b92915050565b600081359050612e58816141d9565b92915050565b600081359050612e6d816141f0565b92915050565b600081519050612e82816141f0565b92915050565b600081359050612e9781614207565b92915050565b600081519050612eac81614207565b92915050565b600081359050612ec18161421e565b92915050565b600060208284031215612ed957600080fd5b6000612ee784828501612e34565b91505092915050565b600060208284031215612f0257600080fd5b6000612f1084828501612e73565b91505092915050565b600060208284031215612f2b57600080fd5b6000612f3984828501612e88565b91505092915050565b600060208284031215612f5457600080fd5b6000612f6284828501612e9d565b91505092915050565b600080600080600080600060e0888a031215612f8657600080fd5b6000612f948a828b01612e88565b9750506020612fa58a828b01612e1f565b9650506040612fb68a828b01612e88565b9550506060612fc78a828b01612e88565b9450506080612fd88a828b01612e49565b93505060a0612fe98a828b01612eb2565b92505060c0612ffa8a828b01612e1f565b91505092959891949750929550565b6000806040838503121561301c57600080fd5b600061302a85828601612e88565b925050602061303b85828601612e5e565b9150509250929050565b6000806040838503121561305857600080fd5b600061306685828601612e88565b925050602061307785828601612e88565b9150509250929050565b61308a81613bc5565b82525050565b61309981613b44565b82525050565b6130a881613b32565b82525050565b6130b781613b56565b82525050565b6130c681613b62565b82525050565b60006130d7826139eb565b6130e18185613a01565b93506130f1818560208601613bfb565b80840191505092915050565b6000613108826139f6565b6131128185613a0c565b9350613122818560208601613bfb565b61312b81613c8c565b840191505092915050565b6000613143602783613a0c565b915061314e82613c9d565b604082019050919050565b6000613166601783613a0c565b915061317182613cec565b602082019050919050565b6000613189602683613a0c565b915061319482613d15565b604082019050919050565b60006131ac601483613a0c565b91506131b782613d64565b602082019050919050565b60006131cf603083613a0c565b91506131da82613d8d565b604082019050919050565b60006131f2601f83613a0c565b91506131fd82613ddc565b602082019050919050565b6000613215602383613a0c565b915061322082613e05565b604082019050919050565b6000613238601b83613a0c565b915061324382613e54565b602082019050919050565b600061325b604083613a0c565b915061326682613e7d565b604082019050919050565b600061327e601583613a0c565b915061328982613ecc565b602082019050919050565b60006132a1603283613a0c565b91506132ac82613ef5565b604082019050919050565b60006132c4602683613a0c565b91506132cf82613f44565b604082019050919050565b60006132e7601d83613a0c565b91506132f282613f93565b602082019050919050565b600061330a602a83613a0c565b915061331582613fbc565b604082019050919050565b600061332d601883613a0c565b91506133388261400b565b602082019050919050565b6000613350602a83613a0c565b915061335b82614034565b604082019050919050565b6000613373602d83613a0c565b915061337e82614083565b604082019050919050565b6000613396601f83613a0c565b91506133a1826140d2565b602082019050919050565b60006133b9600f83613a0c565b91506133c4826140fb565b602082019050919050565b60006133dc602f83613a0c565b91506133e782614124565b604082019050919050565b60006133ff603483613a0c565b915061340a82614173565b604082019050919050565b61341e81613bae565b82525050565b61342d81613bb8565b82525050565b600061343f82846130cc565b915081905092915050565b600060208201905061345f600083018461309f565b92915050565b600060c08201905061347a600083018961309f565b6134876020830188613081565b6134946040830187613081565b6134a16060830186613415565b6134ae6080830185613415565b6134bb60a083018461309f565b979650505050505050565b60006060820190506134db600083018661309f565b6134e86020830185613081565b6134f56040830184613415565b949350505050565b6000606082019050613512600083018661309f565b61351f602083018561309f565b61352c6040830184613415565b949350505050565b6000604082019050613549600083018561309f565b6135566020830184613415565b9392505050565b6000608082019050613572600083018761309f565b61357f6020830186613415565b61358c60408301856130ae565b61359960608301846130ae565b95945050505050565b60006020820190506135b760008301846130ae565b92915050565b60006020820190506135d260008301846130bd565b92915050565b600060208201905081810360008301526135f281846130fd565b905092915050565b6000602082019050818103600083015261361381613136565b9050919050565b6000602082019050818103600083015261363381613159565b9050919050565b600060208201905081810360008301526136538161317c565b9050919050565b600060208201905081810360008301526136738161319f565b9050919050565b60006020820190508181036000830152613693816131c2565b9050919050565b600060208201905081810360008301526136b3816131e5565b9050919050565b600060208201905081810360008301526136d381613208565b9050919050565b600060208201905081810360008301526136f38161322b565b9050919050565b600060208201905081810360008301526137138161324e565b9050919050565b6000602082019050818103600083015261373381613271565b9050919050565b6000602082019050818103600083015261375381613294565b9050919050565b60006020820190508181036000830152613773816132b7565b9050919050565b60006020820190508181036000830152613793816132da565b9050919050565b600060208201905081810360008301526137b3816132fd565b9050919050565b600060208201905081810360008301526137d381613320565b9050919050565b600060208201905081810360008301526137f381613343565b9050919050565b6000602082019050818103600083015261381381613366565b9050919050565b6000602082019050818103600083015261383381613389565b9050919050565b60006020820190508181036000830152613853816133ac565b9050919050565b60006020820190508181036000830152613873816133cf565b9050919050565b60006020820190508181036000830152613893816133f2565b9050919050565b60006020820190506138af6000830184613415565b92915050565b6000610180820190506138cb600083018f613415565b6138d8602083018e61309f565b6138e5604083018d6130ae565b6138f2606083018c613415565b6138ff608083018b613415565b61390c60a083018a613415565b61391960c0830189613415565b61392660e0830188613424565b61393461010083018761309f565b613942610120830186613090565b613950610140830185613090565b61395e61016083018461309f565b9d9c50505050505050505050505050565b600060c0820190506139846000830189613415565b6139916020830188613415565b61399e604083018761309f565b6139ab6060830186613081565b6139b86080830185613424565b6139c560a083018461309f565b979650505050505050565b60006020820190506139e56000830184613424565b92915050565b600081519050919050565b600081519050919050565b600081905092915050565b600082825260208201905092915050565b6000613a2882613bae565b9150613a3383613bae565b9250827fffffffffffffffffffffffffffffffffffffffffffffffffffffffffffffffff03821115613a6857613a67613c2e565b5b828201905092915050565b6000613a7e82613bae565b9150613a8983613bae565b925082613a9957613a98613c5d565b5b828204905092915050565b6000613aaf82613bae565b9150613aba83613bae565b9250817fffffffffffffffffffffffffffffffffffffffffffffffffffffffffffffffff0483118215151615613af357613af2613c2e565b5b828202905092915050565b6000613b0982613bae565b9150613b1483613bae565b925082821015613b2757613b26613c2e565b5b828203905092915050565b6000613b3d82613b8e565b9050919050565b6000613b4f82613b8e565b9050919050565b60008115159050919050565b60007fffffffff0000000000000000000000000000000000000000000000000000000082169050919050565b600073ffffffffffffffffffffffffffffffffffffffff82169050919050565b6000819050919050565b600060ff82169050919050565b6000613bd082613bd7565b9050919050565b6000613be282613be9565b9050919050565b6000613bf482613b8e565b9050919050565b60005b83811015613c19578082015181840152602081019050613bfe565b83811115613c28576000848401525b50505050565b7f4e487b7100000000000000000000000000000000000000000000000000000000600052601160045260246000fd5b7f4e487b7100000000000000000000000000000000000000000000000000000000600052601260045260246000fd5b6000601f19601f8301169050919050565b7f43616e27742063616e63656c20616e2061756374696f6e206f6e63652069742760008201527f7320626567756e00000000000000000000000000000000000000000000000000602082015250565b7f4d7573742062652061756374696f6e2063757261746f72000000000000000000600082015250565b7f416464726573733a20696e73756666696369656e742062616c616e636520666f60008201527f722063616c6c0000000000000000000000000000000000000000000000000000602082015250565b7f41756374696f6e206861736e277420626567756e000000000000000000000000600082015250565b7f43616e206f6e6c792062652063616c6c65642062792061756374696f6e20637260008201527f6561746f72206f722063757261746f7200000000000000000000000000000000602082015250565b7f4d7573742073656e64206174206c656173742072657365727665507269636500600082015250565b7f41756374696f6e206d75737420626520617070726f766564206279206375726160008201527f746f720000000000000000000000000000000000000000000000000000000000602082015250565b7f41756374696f6e2068617320616c726561647920737461727465640000000000600082015250565b7f4d7573742073656e64206d6f7265207468616e206c617374206269642062792060008201527f6d696e426964496e6372656d656e7450657263656e7461676520616d6f756e74602082015250565b7f41756374696f6e20646f65736e27742065786973740000000000000000000000600082015250565b7f53656e74204554482056616c756520646f6573206e6f74206d6174636820737060008201527f656369666965642062696420616d6f756e740000000000000000000000000000602082015250565b7f4d7573742062652061756374696f6e2063757261746f72206f7220746f6b656e60008201527f206f776e65720000000000000000000000000000000000000000000000000000602082015250565b7f416464726573733a2063616c6c20746f206e6f6e2d636f6e7472616374000000600082015250565b7f5361666545524332303a204552433230206f7065726174696f6e20646964206e60008201527f6f74207375636365656400000000000000000000000000000000000000000000602082015250565b7f41756374696f6e206861736e277420636f6d706c657465640000000000000000600082015250565b7f63757261746f7246656550657263656e74616765206d757374206265206c657360008201527f73207468616e2031303000000000000000000000000000000000000000000000602082015250565b7f43616c6c6572206d75737420626520617070726f766564206f72206f776e657260008201527f20666f7220746f6b656e20696400000000000000000000000000000000000000602082015250565b7f5265656e7472616e637947756172643a207265656e7472616e742063616c6c00600082015250565b7f41756374696f6e20657870697265640000000000000000000000000000000000600082015250565b7f746f6b656e436f6e747261637420646f6573206e6f7420737570706f7274204560008201527f524337323120696e746572666163650000000000000000000000000000000000602082015250565b7f546f6b656e207472616e736665722063616c6c20646964206e6f74207472616e60008201527f7366657220657870656374656420616d6f756e74000000000000000000000000602082015250565b6141cb81613b32565b81146141d657600080fd5b50565b6141e281613b44565b81146141ed57600080fd5b50565b6141f981613b56565b811461420457600080fd5b50565b61421081613bae565b811461421b57600080fd5b50565b61422781613bb8565b811461423257600080fd5b5056fea2646970667358221220cba2502b221b81ebbfc72b56275b4af888d6b7e48e8f5dce294a03a97d0eac6164736f6c63430008040033",
  "linkReferences": {},
  "deployedLinkReferences": {}
}