{
  "_format": "hh-sol-artifact-1",
  "contractName": "AuctionHouse",
  "sourceName": "contracts/zora/AuctionHouse.sol",
  "abi": [
    {
      "inputs": [
        {
          "internalType": "address",
          "name": "_weth",
          "type": "address"
        }
      ],
      "stateMutability": "nonpayable",
      "type": "constructor"
    },
    {
      "anonymous": false,
      "inputs": [
        {
          "indexed": true,
          "internalType": "uint256",
          "name": "auctionId",
          "type": "uint256"
        },
        {
          "indexed": true,
          "internalType": "uint256",
          "name": "tokenId",
          "type": "uint256"
        },
        {
          "indexed": true,
          "internalType": "address",
          "name": "tokenContract",
          "type": "address"
        },
        {
          "indexed": false,
          "internalType": "bool",
          "name": "approved",
          "type": "bool"
        }
      ],
      "name": "AuctionApprovalUpdated",
      "type": "event"
    },
    {
      "anonymous": false,
      "inputs": [
        {
          "indexed": true,
          "internalType": "uint256",
          "name": "auctionId",
          "type": "uint256"
        },
        {
          "indexed": true,
          "internalType": "uint256",
          "name": "tokenId",
          "type": "uint256"
        },
        {
          "indexed": true,
          "internalType": "address",
          "name": "tokenContract",
          "type": "address"
        },
        {
          "indexed": false,
          "internalType": "address",
          "name": "sender",
          "type": "address"
        },
        {
          "indexed": false,
          "internalType": "uint256",
          "name": "value",
          "type": "uint256"
        },
        {
          "indexed": false,
          "internalType": "bool",
          "name": "firstBid",
          "type": "bool"
        },
        {
          "indexed": false,
          "internalType": "bool",
          "name": "extended",
          "type": "bool"
        }
      ],
      "name": "AuctionBid",
      "type": "event"
    },
    {
      "anonymous": false,
      "inputs": [
        {
          "indexed": true,
          "internalType": "uint256",
          "name": "auctionId",
          "type": "uint256"
        },
        {
          "indexed": true,
          "internalType": "uint256",
          "name": "tokenId",
          "type": "uint256"
        },
        {
          "indexed": true,
          "internalType": "address",
          "name": "tokenContract",
          "type": "address"
        },
        {
          "indexed": false,
          "internalType": "address",
          "name": "tokenOwner",
          "type": "address"
        }
      ],
      "name": "AuctionCanceled",
      "type": "event"
    },
    {
      "anonymous": false,
      "inputs": [
        {
          "indexed": true,
          "internalType": "uint256",
          "name": "auctionId",
          "type": "uint256"
        },
        {
          "indexed": true,
          "internalType": "uint256",
          "name": "tokenId",
          "type": "uint256"
        },
        {
          "indexed": true,
          "internalType": "address",
          "name": "tokenContract",
          "type": "address"
        },
        {
          "indexed": false,
          "internalType": "uint256",
          "name": "duration",
          "type": "uint256"
        },
        {
          "indexed": false,
          "internalType": "uint256",
          "name": "reservePrice",
          "type": "uint256"
        },
        {
          "indexed": false,
          "internalType": "address",
          "name": "tokenOwner",
          "type": "address"
        },
        {
          "indexed": false,
          "internalType": "address",
          "name": "curator",
          "type": "address"
        },
        {
          "indexed": false,
          "internalType": "uint8",
          "name": "curatorFeePercentage",
          "type": "uint8"
        },
        {
          "indexed": false,
          "internalType": "address",
          "name": "auctionCurrency",
          "type": "address"
        }
      ],
      "name": "AuctionCreated",
      "type": "event"
    },
    {
      "anonymous": false,
      "inputs": [
        {
          "indexed": true,
          "internalType": "uint256",
          "name": "auctionId",
          "type": "uint256"
        },
        {
          "indexed": true,
          "internalType": "uint256",
          "name": "tokenId",
          "type": "uint256"
        },
        {
          "indexed": true,
          "internalType": "address",
          "name": "tokenContract",
          "type": "address"
        },
        {
          "indexed": false,
          "internalType": "uint256",
          "name": "duration",
          "type": "uint256"
        }
      ],
      "name": "AuctionDurationExtended",
      "type": "event"
    },
    {
      "anonymous": false,
      "inputs": [
        {
          "indexed": true,
          "internalType": "uint256",
          "name": "auctionId",
          "type": "uint256"
        },
        {
          "indexed": true,
          "internalType": "uint256",
          "name": "tokenId",
          "type": "uint256"
        },
        {
          "indexed": true,
          "internalType": "address",
          "name": "tokenContract",
          "type": "address"
        },
        {
          "indexed": false,
          "internalType": "address",
          "name": "tokenOwner",
          "type": "address"
        },
        {
          "indexed": false,
          "internalType": "address",
          "name": "curator",
          "type": "address"
        },
        {
          "indexed": false,
          "internalType": "address",
          "name": "winner",
          "type": "address"
        },
        {
          "indexed": false,
          "internalType": "uint256",
          "name": "amount",
          "type": "uint256"
        },
        {
          "indexed": false,
          "internalType": "uint256",
          "name": "curatorFee",
          "type": "uint256"
        },
        {
          "indexed": false,
          "internalType": "address",
          "name": "auctionCurrency",
          "type": "address"
        }
      ],
      "name": "AuctionEnded",
      "type": "event"
    },
    {
      "anonymous": false,
      "inputs": [
        {
          "indexed": true,
          "internalType": "uint256",
          "name": "auctionId",
          "type": "uint256"
        },
        {
          "indexed": true,
          "internalType": "uint256",
          "name": "tokenId",
          "type": "uint256"
        },
        {
          "indexed": true,
          "internalType": "address",
          "name": "tokenContract",
          "type": "address"
        },
        {
          "indexed": false,
          "internalType": "uint256",
          "name": "reservePrice",
          "type": "uint256"
        }
      ],
      "name": "AuctionReservePriceUpdated",
      "type": "event"
    },
    {
      "stateMutability": "payable",
      "type": "fallback"
    },
    {
      "inputs": [
        {
          "internalType": "uint256",
          "name": "",
          "type": "uint256"
        }
      ],
      "name": "auctions",
      "outputs": [
        {
          "internalType": "uint256",
          "name": "tokenId",
          "type": "uint256"
        },
        {
          "internalType": "address",
          "name": "tokenContract",
          "type": "address"
        },
        {
          "internalType": "bool",
          "name": "approved",
          "type": "bool"
        },
        {
          "internalType": "uint256",
          "name": "amount",
          "type": "uint256"
        },
        {
          "internalType": "uint256",
          "name": "duration",
          "type": "uint256"
        },
        {
          "internalType": "uint256",
          "name": "firstBidTime",
          "type": "uint256"
        },
        {
          "internalType": "uint256",
          "name": "reservePrice",
          "type": "uint256"
        },
        {
          "internalType": "uint8",
          "name": "curatorFeePercentage",
          "type": "uint8"
        },
        {
          "internalType": "address",
          "name": "tokenOwner",
          "type": "address"
        },
        {
          "internalType": "address payable",
          "name": "bidder",
          "type": "address"
        },
        {
          "internalType": "address payable",
          "name": "curator",
          "type": "address"
        },
        {
          "internalType": "address",
          "name": "auctionCurrency",
          "type": "address"
        }
      ],
      "stateMutability": "view",
      "type": "function"
    },
    {
      "inputs": [
        {
          "internalType": "uint256",
          "name": "auctionId",
          "type": "uint256"
        }
      ],
      "name": "cancelAuction",
      "outputs": [],
      "stateMutability": "nonpayable",
      "type": "function"
    },
    {
      "inputs": [
        {
          "internalType": "uint256",
          "name": "tokenId",
          "type": "uint256"
        },
        {
          "internalType": "address",
          "name": "tokenContract",
          "type": "address"
        },
        {
          "internalType": "uint256",
          "name": "duration",
          "type": "uint256"
        },
        {
          "internalType": "uint256",
          "name": "reservePrice",
          "type": "uint256"
        },
        {
          "internalType": "address payable",
          "name": "curator",
          "type": "address"
        },
        {
          "internalType": "uint8",
          "name": "curatorFeePercentage",
          "type": "uint8"
        },
        {
          "internalType": "address",
          "name": "auctionCurrency",
          "type": "address"
        }
      ],
      "name": "createAuction",
      "outputs": [
        {
          "internalType": "uint256",
          "name": "",
          "type": "uint256"
        }
      ],
      "stateMutability": "nonpayable",
      "type": "function"
    },
    {
      "inputs": [
        {
          "internalType": "uint256",
          "name": "auctionId",
          "type": "uint256"
        },
        {
          "internalType": "uint256",
          "name": "amount",
          "type": "uint256"
        }
      ],
      "name": "createBid",
      "outputs": [],
      "stateMutability": "payable",
      "type": "function"
    },
    {
      "inputs": [
        {
          "internalType": "uint256",
          "name": "auctionId",
          "type": "uint256"
        }
      ],
      "name": "endAuction",
      "outputs": [],
      "stateMutability": "nonpayable",
      "type": "function"
    },
    {
      "inputs": [],
      "name": "minBidIncrementPercentage",
      "outputs": [
        {
          "internalType": "uint8",
          "name": "",
          "type": "uint8"
        }
      ],
      "stateMutability": "view",
      "type": "function"
    },
    {
      "inputs": [
        {
          "internalType": "uint256",
          "name": "auctionId",
          "type": "uint256"
        },
        {
          "internalType": "bool",
          "name": "approved",
          "type": "bool"
        }
      ],
      "name": "setAuctionApproval",
      "outputs": [],
      "stateMutability": "nonpayable",
      "type": "function"
    },
    {
      "inputs": [
        {
          "internalType": "uint256",
          "name": "auctionId",
          "type": "uint256"
        },
        {
          "internalType": "uint256",
          "name": "reservePrice",
          "type": "uint256"
        }
      ],
      "name": "setAuctionReservePrice",
      "outputs": [],
      "stateMutability": "nonpayable",
      "type": "function"
    },
    {
      "inputs": [],
      "name": "timeBuffer",
      "outputs": [
        {
          "internalType": "uint256",
          "name": "",
          "type": "uint256"
        }
      ],
      "stateMutability": "view",
      "type": "function"
    },
    {
      "inputs": [],
      "name": "wethAddress",
      "outputs": [
        {
          "internalType": "address",
          "name": "",
          "type": "address"
        }
      ],
      "stateMutability": "view",
      "type": "function"
    },
    {
      "stateMutability": "payable",
      "type": "receive"
    }
  ],
  "bytecode": "0x60806040523480156200001157600080fd5b50604051620044ec380380620044ec8339818101604052810190620000379190620000c3565b600160008190555080600260016101000a81548173ffffffffffffffffffffffffffffffffffffffff021916908373ffffffffffffffffffffffffffffffffffffffff1602179055506103846001819055506005600260006101000a81548160ff021916908360ff160217905550506200013d565b600081519050620000bd8162000123565b92915050565b600060208284031215620000d657600080fd5b6000620000e684828501620000ac565b91505092915050565b6000620000fc8262000103565b9050919050565b600073ffffffffffffffffffffffffffffffffffffffff82169050919050565b6200012e81620000ef565b81146200013a57600080fd5b50565b61439f806200014d6000396000f3fe6080604052600436106100955760003560e01c8063973ddb4a11610059578063973ddb4a146101a0578063b296024d146101c9578063b7751c71146101f4578063b9a2de3a14610210578063ec91f2a4146102395761009c565b80634f0e0ef31461009e578063571a26a0146100c95780636f8a41e11461011157806375e9249f1461013a57806396b5a755146101775761009c565b3661009c57005b005b3480156100aa57600080fd5b506100b3610264565b6040516100c0919061354e565b60405180910390f35b3480156100d557600080fd5b506100f060048036038101906100eb919061301d565b61028a565b6040516101089c9b9a999897969594939291906139e9565b60405180910390f35b34801561011d57600080fd5b5061013860048036038101906101339190613149565b6103a4565b005b34801561014657600080fd5b50610161600480360381019061015c919061306f565b610612565b60405161016e91906139ce565b60405180910390f35b34801561018357600080fd5b5061019e6004803603810190610199919061301d565b610e65565b005b3480156101ac57600080fd5b506101c760048036038101906101c2919061310d565b61107a565b005b3480156101d557600080fd5b506101de6111cf565b6040516101eb9190613b04565b60405180910390f35b61020e60048036038101906102099190613149565b6111e2565b005b34801561021c57600080fd5b506102376004803603810190610232919061301d565b6118d6565b005b34801561024557600080fd5b5061024e6120fa565b60405161025b91906139ce565b60405180910390f35b600260019054906101000a900473ffffffffffffffffffffffffffffffffffffffff1681565b60036020528060005260406000206000915090508060000154908060010160009054906101000a900473ffffffffffffffffffffffffffffffffffffffff16908060010160149054906101000a900460ff16908060020154908060030154908060040154908060050154908060060160009054906101000a900460ff16908060060160019054906101000a900473ffffffffffffffffffffffffffffffffffffffff16908060070160009054906101000a900473ffffffffffffffffffffffffffffffffffffffff16908060080160009054906101000a900473ffffffffffffffffffffffffffffffffffffffff16908060090160009054906101000a900473ffffffffffffffffffffffffffffffffffffffff1690508c565b816103ae81612100565b6103ed576040517f08c379a00000000000000000000000000000000000000000000000000000000081526004016103e49061384e565b60405180910390fd5b6003600084815260200190815260200160002060080160009054906101000a900473ffffffffffffffffffffffffffffffffffffffff1673ffffffffffffffffffffffffffffffffffffffff163373ffffffffffffffffffffffffffffffffffffffff1614806104be57506003600084815260200190815260200160002060060160019054906101000a900473ffffffffffffffffffffffffffffffffffffffff1673ffffffffffffffffffffffffffffffffffffffff163373ffffffffffffffffffffffffffffffffffffffff16145b6104fd576040517f08c379a00000000000000000000000000000000000000000000000000000000081526004016104f49061388e565b60405180910390fd5b6000600360008581526020019081526020016000206004015414610556576040517f08c379a000000000000000000000000000000000000000000000000000000000815260040161054d9061380e565b60405180910390fd5b8160036000858152602001908152602001600020600501819055506003600084815260200190815260200160002060010160009054906101000a900473ffffffffffffffffffffffffffffffffffffffff1673ffffffffffffffffffffffffffffffffffffffff166003600085815260200190815260200160002060000154847f01e6a465ec1edd582d333147c7b7edf5998164f2cf2269dcb9c93d46c67bd3178560405161060591906139ce565b60405180910390a4505050565b60006002600054141561065a576040517f08c379a00000000000000000000000000000000000000000000000000000000081526004016106519061394e565b60405180910390fd5b60026000819055508673ffffffffffffffffffffffffffffffffffffffff166301ffc9a76380ac58cd60e01b6040518263ffffffff1660e01b81526004016106a291906136c1565b60206040518083038186803b1580156106ba57600080fd5b505afa1580156106ce573d6000803e3d6000fd5b505050506040513d601f19601f820116820180604052508101906106f29190612ff4565b8061078957508673ffffffffffffffffffffffffffffffffffffffff166301ffc9a76380ac58cd60e01b6040518263ffffffff1660e01b815260040161073891906136c1565b60206040518083038186803b15801561075057600080fd5b505afa158015610764573d6000803e3d6000fd5b505050506040513d601f19601f820116820180604052508101906107889190612ff4565b5b6107c8576040517f08c379a00000000000000000000000000000000000000000000000000000000081526004016107bf9061398e565b60405180910390fd5b60648360ff161061080e576040517f08c379a00000000000000000000000000000000000000000000000000000000081526004016108059061390e565b60405180910390fd5b60008773ffffffffffffffffffffffffffffffffffffffff16636352211e8a6040518263ffffffff1660e01b815260040161084991906139ce565b60206040518083038186803b15801561086157600080fd5b505afa158015610875573d6000803e3d6000fd5b505050506040513d601f19601f820116820180604052508101906108999190612fcb565b90508773ffffffffffffffffffffffffffffffffffffffff1663081812fc8a6040518263ffffffff1660e01b81526004016108d491906139ce565b60206040518083038186803b1580156108ec57600080fd5b505afa158015610900573d6000803e3d6000fd5b505050506040513d601f19601f820116820180604052508101906109249190612fcb565b73ffffffffffffffffffffffffffffffffffffffff163373ffffffffffffffffffffffffffffffffffffffff16148061098857508073ffffffffffffffffffffffffffffffffffffffff163373ffffffffffffffffffffffffffffffffffffffff16145b6109c7576040517f08c379a00000000000000000000000000000000000000000000000000000000081526004016109be9061392e565b60405180910390fd5b60006109d3600461216f565b90506040518061018001604052808b81526020018a73ffffffffffffffffffffffffffffffffffffffff16815260200160001515815260200160008152602001898152602001600081526020018881526020018660ff1681526020018373ffffffffffffffffffffffffffffffffffffffff168152602001600073ffffffffffffffffffffffffffffffffffffffff1681526020018773ffffffffffffffffffffffffffffffffffffffff1681526020018573ffffffffffffffffffffffffffffffffffffffff16815250600360008381526020019081526020016000206000820151816000015560208201518160010160006101000a81548173ffffffffffffffffffffffffffffffffffffffff021916908373ffffffffffffffffffffffffffffffffffffffff16021790555060408201518160010160146101000a81548160ff021916908315150217905550606082015181600201556080820151816003015560a0820151816004015560c0820151816005015560e08201518160060160006101000a81548160ff021916908360ff1602179055506101008201518160060160016101000a81548173ffffffffffffffffffffffffffffffffffffffff021916908373ffffffffffffffffffffffffffffffffffffffff1602179055506101208201518160070160006101000a81548173ffffffffffffffffffffffffffffffffffffffff021916908373ffffffffffffffffffffffffffffffffffffffff1602179055506101408201518160080160006101000a81548173ffffffffffffffffffffffffffffffffffffffff021916908373ffffffffffffffffffffffffffffffffffffffff1602179055506101608201518160090160006101000a81548173ffffffffffffffffffffffffffffffffffffffff021916908373ffffffffffffffffffffffffffffffffffffffff1602179055509050508873ffffffffffffffffffffffffffffffffffffffff166323b872dd83308d6040518463ffffffff1660e01b8152600401610ccb93929190613601565b600060405180830381600087803b158015610ce557600080fd5b505af1158015610cf9573d6000803e3d6000fd5b50505050610d07600461217d565b8873ffffffffffffffffffffffffffffffffffffffff168a827f38c0b9047bd28fac9f420b967f6caf4a6260ba09d18940a9a502578a480c09008b8b878c8c8c604051610d5996959493929190613aa3565b60405180910390a4600073ffffffffffffffffffffffffffffffffffffffff166003600083815260200190815260200160002060080160009054906101000a900473ffffffffffffffffffffffffffffffffffffffff1673ffffffffffffffffffffffffffffffffffffffff161480610dfd57508173ffffffffffffffffffffffffffffffffffffffff168673ffffffffffffffffffffffffffffffffffffffff16145b15610e0e57610e0d816001612193565b5b610e4d6040518060400160405280601281526020017f41756374696f6e2063726561746564202573000000000000000000000000000081525082612261565b80925050506001600081905550979650505050505050565b60026000541415610eab576040517f08c379a0000000000000000000000000000000000000000000000000000000008152600401610ea29061394e565b60405180910390fd5b600260008190555080610ebd81612100565b610efc576040517f08c379a0000000000000000000000000000000000000000000000000000000008152600401610ef39061384e565b60405180910390fd5b3373ffffffffffffffffffffffffffffffffffffffff166003600084815260200190815260200160002060060160019054906101000a900473ffffffffffffffffffffffffffffffffffffffff1673ffffffffffffffffffffffffffffffffffffffff161480610fcd57503373ffffffffffffffffffffffffffffffffffffffff166003600084815260200190815260200160002060080160009054906101000a900473ffffffffffffffffffffffffffffffffffffffff1673ffffffffffffffffffffffffffffffffffffffff16145b61100c576040517f08c379a0000000000000000000000000000000000000000000000000000000008152600401611003906137ae565b60405180910390fd5b6000600360008481526020019081526020016000206004015414611065576040517f08c379a000000000000000000000000000000000000000000000000000000000815260040161105c9061372e565b60405180910390fd5b61106e826122fd565b50600160008190555050565b8161108481612100565b6110c3576040517f08c379a00000000000000000000000000000000000000000000000000000000081526004016110ba9061384e565b60405180910390fd5b6003600084815260200190815260200160002060080160009054906101000a900473ffffffffffffffffffffffffffffffffffffffff1673ffffffffffffffffffffffffffffffffffffffff163373ffffffffffffffffffffffffffffffffffffffff1614611167576040517f08c379a000000000000000000000000000000000000000000000000000000000815260040161115e9061374e565b60405180910390fd5b60006003600085815260200190815260200160002060040154146111c0576040517f08c379a00000000000000000000000000000000000000000000000000000000081526004016111b79061380e565b60405180910390fd5b6111ca8383612193565b505050565b600260009054906101000a900460ff1681565b816111ec81612100565b61122b576040517f08c379a00000000000000000000000000000000000000000000000000000000081526004016112229061384e565b60405180910390fd5b60026000541415611271576040517f08c379a00000000000000000000000000000000000000000000000000000000081526004016112689061394e565b60405180910390fd5b600260008190555060006003600085815260200190815260200160002060070160009054906101000a900473ffffffffffffffffffffffffffffffffffffffff1690506003600085815260200190815260200160002060010160149054906101000a900460ff16611317576040517f08c379a000000000000000000000000000000000000000000000000000000000815260040161130e906137ee565b60405180910390fd5b6000600360008681526020019081526020016000206004015414806113795750611376600360008681526020019081526020016000206003015460036000878152602001908152602001600020600401546125bc90919063ffffffff16565b42105b6113b8576040517f08c379a00000000000000000000000000000000000000000000000000000000081526004016113af9061396e565b60405180910390fd5b6003600085815260200190815260200160002060050154831015611411576040517f08c379a0000000000000000000000000000000000000000000000000000000008152600401611408906137ce565b60405180910390fd5b6114876114626064611454600260009054906101000a900460ff1660ff16600360008a8152602001908152602001600020600201546125d290919063ffffffff16565b6125e890919063ffffffff16565b60036000878152602001908152602001600020600201546125bc90919063ffffffff16565b8310156114c9576040517f08c379a00000000000000000000000000000000000000000000000000000000081526004016114c09061382e565b60405180910390fd5b60006003600086815260200190815260200160002060040154141561150857426003600086815260200190815260200160002060040181905550611595565b600073ffffffffffffffffffffffffffffffffffffffff168173ffffffffffffffffffffffffffffffffffffffff1614611594576115938160036000878152602001908152602001600020600201546003600088815260200190815260200160002060090160009054906101000a900473ffffffffffffffffffffffffffffffffffffffff166125fe565b5b5b6115d5836003600087815260200190815260200160002060090160009054906101000a900473ffffffffffffffffffffffffffffffffffffffff166127d5565b826003600086815260200190815260200160002060020181905550336003600086815260200190815260200160002060070160006101000a81548173ffffffffffffffffffffffffffffffffffffffff021916908373ffffffffffffffffffffffffffffffffffffffff160217905550600060015461169b4261168d600360008a815260200190815260200160002060030154600360008b8152602001908152602001600020600401546125bc90919063ffffffff16565b612a7c90919063ffffffff16565b101561173d5760006003600087815260200190815260200160002060030154905061171d61170e6116fd426116ef85600360008d8152602001908152602001600020600401546125bc90919063ffffffff16565b612a7c90919063ffffffff16565b600154612a7c90919063ffffffff16565b826125bc90919063ffffffff16565b600360008881526020019081526020016000206003018190555060019150505b6003600086815260200190815260200160002060010160009054906101000a900473ffffffffffffffffffffffffffffffffffffffff1673ffffffffffffffffffffffffffffffffffffffff166003600087815260200190815260200160002060000154867fda6b779568630ce5e5658b317174df474d5b335541ed9471bd8424a017f3be6d3388600073ffffffffffffffffffffffffffffffffffffffff168873ffffffffffffffffffffffffffffffffffffffff1614876040516118069493929190613661565b60405180910390a480156118c7576003600086815260200190815260200160002060010160009054906101000a900473ffffffffffffffffffffffffffffffffffffffff1673ffffffffffffffffffffffffffffffffffffffff166003600087815260200190815260200160002060000154867f55cf2b31608fbe49fa31cd0285b6b6cce46f56d26c8c59980a2af5a0ffbdd5db600360008a8152602001908152602001600020600301546040516118be91906139ce565b60405180910390a45b50506001600081905550505050565b806118e081612100565b61191f576040517f08c379a00000000000000000000000000000000000000000000000000000000081526004016119169061384e565b60405180910390fd5b60026000541415611965576040517f08c379a000000000000000000000000000000000000000000000000000000000815260040161195c9061394e565b60405180910390fd5b60026000819055506000600360008481526020019081526020016000206004015414156119c7576040517f08c379a00000000000000000000000000000000000000000000000000000000081526004016119be9061378e565b60405180910390fd5b611a06600360008481526020019081526020016000206003015460036000858152602001908152602001600020600401546125bc90919063ffffffff16565b421015611a48576040517f08c379a0000000000000000000000000000000000000000000000000000000008152600401611a3f906138ee565b60405180910390fd5b60008073ffffffffffffffffffffffffffffffffffffffff166003600085815260200190815260200160002060090160009054906101000a900473ffffffffffffffffffffffffffffffffffffffff1673ffffffffffffffffffffffffffffffffffffffff1614611aef576003600084815260200190815260200160002060090160009054906101000a900473ffffffffffffffffffffffffffffffffffffffff16611b13565b600260019054906101000a900473ffffffffffffffffffffffffffffffffffffffff165b9050600080600360008681526020019081526020016000206002015490506003600086815260200190815260200160002060010160009054906101000a900473ffffffffffffffffffffffffffffffffffffffff1673ffffffffffffffffffffffffffffffffffffffff166342842e0e306003600089815260200190815260200160002060070160009054906101000a900473ffffffffffffffffffffffffffffffffffffffff16600360008a8152602001908152602001600020600001546040518463ffffffff1660e01b8152600401611bf0939291906135ca565b600060405180830381600087803b158015611c0a57600080fd5b505af1925050508015611c1b575060015b611cbd57611cac6003600087815260200190815260200160002060070160009054906101000a900473ffffffffffffffffffffffffffffffffffffffff1660036000888152602001908152602001600020600201546003600089815260200190815260200160002060090160009054906101000a900473ffffffffffffffffffffffffffffffffffffffff166125fe565b611cb5856122fd565b5050506120ee565b600073ffffffffffffffffffffffffffffffffffffffff166003600087815260200190815260200160002060080160009054906101000a900473ffffffffffffffffffffffffffffffffffffffff1673ffffffffffffffffffffffffffffffffffffffff1614611e0257611d736064611d656003600089815260200190815260200160002060060160009054906101000a900460ff1660ff16846125d290919063ffffffff16565b6125e890919063ffffffff16565b9150611d888282612a7c90919063ffffffff16565b9050611e016003600087815260200190815260200160002060080160009054906101000a900473ffffffffffffffffffffffffffffffffffffffff16836003600089815260200190815260200160002060090160009054906101000a900473ffffffffffffffffffffffffffffffffffffffff166125fe565b5b611e796003600087815260200190815260200160002060060160019054906101000a900473ffffffffffffffffffffffffffffffffffffffff16826003600089815260200190815260200160002060090160009054906101000a900473ffffffffffffffffffffffffffffffffffffffff166125fe565b6003600086815260200190815260200160002060010160009054906101000a900473ffffffffffffffffffffffffffffffffffffffff1673ffffffffffffffffffffffffffffffffffffffff166003600087815260200190815260200160002060000154867f4f35fb3ea0081b3ccbe8df613cab0f9e1694d50a025e0aa09b88a86a3d07c2de600360008a815260200190815260200160002060060160019054906101000a900473ffffffffffffffffffffffffffffffffffffffff16600360008b815260200190815260200160002060080160009054906101000a900473ffffffffffffffffffffffffffffffffffffffff16600360008c815260200190815260200160002060070160009054906101000a900473ffffffffffffffffffffffffffffffffffffffff1687898b604051611fb996959493929190613569565b60405180910390a4600360008681526020019081526020016000206000808201600090556001820160006101000a81549073ffffffffffffffffffffffffffffffffffffffff02191690556001820160146101000a81549060ff021916905560028201600090556003820160009055600482016000905560058201600090556006820160006101000a81549060ff02191690556006820160016101000a81549073ffffffffffffffffffffffffffffffffffffffff02191690556007820160006101000a81549073ffffffffffffffffffffffffffffffffffffffff02191690556008820160006101000a81549073ffffffffffffffffffffffffffffffffffffffff02191690556009820160006101000a81549073ffffffffffffffffffffffffffffffffffffffff021916905550505050505b60016000819055505050565b60015481565b60008073ffffffffffffffffffffffffffffffffffffffff166003600084815260200190815260200160002060060160019054906101000a900473ffffffffffffffffffffffffffffffffffffffff1673ffffffffffffffffffffffffffffffffffffffff1614159050919050565b600081600001549050919050565b6001816000016000828254019250508190555050565b806003600084815260200190815260200160002060010160146101000a81548160ff0219169083151502179055506003600083815260200190815260200160002060010160009054906101000a900473ffffffffffffffffffffffffffffffffffffffff1673ffffffffffffffffffffffffffffffffffffffff166003600084815260200190815260200160002060000154837fec35d321ab4972475f131e184c0c0fe52c5a58a29d74f7db2969af2f6dd93a1f8460405161225591906136a6565b60405180910390a45050565b6122f982826040516024016122779291906136fe565b6040516020818303038152906040527f9710a9d0000000000000000000000000000000000000000000000000000000007bffffffffffffffffffffffffffffffffffffffffffffffffffffffff19166020820180517bffffffffffffffffffffffffffffffffffffffffffffffffffffffff8381831617835250505050612a92565b5050565b60006003600083815260200190815260200160002060060160019054906101000a900473ffffffffffffffffffffffffffffffffffffffff1690506003600083815260200190815260200160002060010160009054906101000a900473ffffffffffffffffffffffffffffffffffffffff1673ffffffffffffffffffffffffffffffffffffffff166342842e0e308360036000878152602001908152602001600020600001546040518463ffffffff1660e01b81526004016123c193929190613601565b600060405180830381600087803b1580156123db57600080fd5b505af11580156123ef573d6000803e3d6000fd5b505050506003600083815260200190815260200160002060010160009054906101000a900473ffffffffffffffffffffffffffffffffffffffff1673ffffffffffffffffffffffffffffffffffffffff166003600084815260200190815260200160002060000154837f6091afcbe8514686c43b167ca4f1b03e24446d29d8490d496e438f8a2c76343984604051612487919061354e565b60405180910390a4600360008381526020019081526020016000206000808201600090556001820160006101000a81549073ffffffffffffffffffffffffffffffffffffffff02191690556001820160146101000a81549060ff021916905560028201600090556003820160009055600482016000905560058201600090556006820160006101000a81549060ff02191690556006820160016101000a81549073ffffffffffffffffffffffffffffffffffffffff02191690556007820160006101000a81549073ffffffffffffffffffffffffffffffffffffffff02191690556008820160006101000a81549073ffffffffffffffffffffffffffffffffffffffff02191690556009820160006101000a81549073ffffffffffffffffffffffffffffffffffffffff021916905550505050565b600081836125ca9190613b51565b905092915050565b600081836125e09190613bd8565b905092915050565b600081836125f69190613ba7565b905092915050565b600073ffffffffffffffffffffffffffffffffffffffff168173ffffffffffffffffffffffffffffffffffffffff1614156127a457600260019054906101000a900473ffffffffffffffffffffffffffffffffffffffff1673ffffffffffffffffffffffffffffffffffffffff16632e1a7d4d836040518263ffffffff1660e01b815260040161268e91906139ce565b600060405180830381600087803b1580156126a857600080fd5b505af11580156126bc573d6000803e3d6000fd5b505050506126ca8383612abb565b61279f57600260019054906101000a900473ffffffffffffffffffffffffffffffffffffffff1673ffffffffffffffffffffffffffffffffffffffff1663d0e30db0836040518263ffffffff1660e01b81526004016000604051808303818588803b15801561273857600080fd5b505af115801561274c573d6000803e3d6000fd5b505050505061279e8383600260019054906101000a900473ffffffffffffffffffffffffffffffffffffffff1673ffffffffffffffffffffffffffffffffffffffff16612ba79092919063ffffffff16565b5b6127d0565b6127cf83838373ffffffffffffffffffffffffffffffffffffffff16612ba79092919063ffffffff16565b5b505050565b600073ffffffffffffffffffffffffffffffffffffffff168173ffffffffffffffffffffffffffffffffffffffff1614156128d45781341461284c576040517f08c379a00000000000000000000000000000000000000000000000000000000081526004016128439061386e565b60405180910390fd5b600260019054906101000a900473ffffffffffffffffffffffffffffffffffffffff1673ffffffffffffffffffffffffffffffffffffffff1663d0e30db0836040518263ffffffff1660e01b81526004016000604051808303818588803b1580156128b657600080fd5b505af11580156128ca573d6000803e3d6000fd5b5050505050612a78565b600081905060008173ffffffffffffffffffffffffffffffffffffffff166370a08231306040518263ffffffff1660e01b8152600401612914919061354e565b60206040518083038186803b15801561292c57600080fd5b505afa158015612940573d6000803e3d6000fd5b505050506040513d601f19601f820116820180604052508101906129649190613046565b90506129933330868573ffffffffffffffffffffffffffffffffffffffff16612c2d909392919063ffffffff16565b60008273ffffffffffffffffffffffffffffffffffffffff166370a08231306040518263ffffffff1660e01b81526004016129ce919061354e565b60206040518083038186803b1580156129e657600080fd5b505afa1580156129fa573d6000803e3d6000fd5b505050506040513d601f19601f82011682018060405250810190612a1e9190613046565b905080612a3486846125bc90919063ffffffff16565b14612a74576040517f08c379a0000000000000000000000000000000000000000000000000000000008152600401612a6b906139ae565b60405180910390fd5b5050505b5050565b60008183612a8a9190613c32565b905092915050565b60008151905060006a636f6e736f6c652e6c6f679050602083016000808483855afa5050505050565b6000808373ffffffffffffffffffffffffffffffffffffffff1683600067ffffffffffffffff811115612b17577f4e487b7100000000000000000000000000000000000000000000000000000000600052604160045260246000fd5b6040519080825280601f01601f191660200182016040528015612b495781602001600182028036833780820191505090505b50604051612b579190613537565b60006040518083038185875af1925050503d8060008114612b94576040519150601f19603f3d011682016040523d82523d6000602084013e612b99565b606091505b505090508091505092915050565b612c288363a9059cbb60e01b8484604051602401612bc6929190613638565b604051602081830303815290604052907bffffffffffffffffffffffffffffffffffffffffffffffffffffffff19166020820180517bffffffffffffffffffffffffffffffffffffffffffffffffffffffff8381831617835250505050612cb6565b505050565b612cb0846323b872dd60e01b858585604051602401612c4e93929190613601565b604051602081830303815290604052907bffffffffffffffffffffffffffffffffffffffffffffffffffffffff19166020820180517bffffffffffffffffffffffffffffffffffffffffffffffffffffffff8381831617835250505050612cb6565b50505050565b6000612d18826040518060400160405280602081526020017f5361666545524332303a206c6f772d6c6576656c2063616c6c206661696c65648152508573ffffffffffffffffffffffffffffffffffffffff16612d7d9092919063ffffffff16565b9050600081511115612d785780806020019051810190612d389190612ff4565b612d77576040517f08c379a0000000000000000000000000000000000000000000000000000000008152600401612d6e906138ce565b60405180910390fd5b5b505050565b6060612d8c8484600085612d95565b90509392505050565b606082471015612dda576040517f08c379a0000000000000000000000000000000000000000000000000000000008152600401612dd19061376e565b60405180910390fd5b612de385612ea9565b612e22576040517f08c379a0000000000000000000000000000000000000000000000000000000008152600401612e19906138ae565b60405180910390fd5b6000808673ffffffffffffffffffffffffffffffffffffffff168587604051612e4b9190613537565b60006040518083038185875af1925050503d8060008114612e88576040519150601f19603f3d011682016040523d82523d6000602084013e612e8d565b606091505b5091509150612e9d828286612ebc565b92505050949350505050565b600080823b905060008111915050919050565b60608315612ecc57829050612f1c565b600083511115612edf5782518084602001fd5b816040517f08c379a0000000000000000000000000000000000000000000000000000000008152600401612f1391906136dc565b60405180910390fd5b9392505050565b600081359050612f32816142f6565b92915050565b600081519050612f47816142f6565b92915050565b600081359050612f5c8161430d565b92915050565b600081359050612f7181614324565b92915050565b600081519050612f8681614324565b92915050565b600081359050612f9b8161433b565b92915050565b600081519050612fb08161433b565b92915050565b600081359050612fc581614352565b92915050565b600060208284031215612fdd57600080fd5b6000612feb84828501612f38565b91505092915050565b60006020828403121561300657600080fd5b600061301484828501612f77565b91505092915050565b60006020828403121561302f57600080fd5b600061303d84828501612f8c565b91505092915050565b60006020828403121561305857600080fd5b600061306684828501612fa1565b91505092915050565b600080600080600080600060e0888a03121561308a57600080fd5b60006130988a828b01612f8c565b97505060206130a98a828b01612f23565b96505060406130ba8a828b01612f8c565b95505060606130cb8a828b01612f8c565b94505060806130dc8a828b01612f4d565b93505060a06130ed8a828b01612fb6565b92505060c06130fe8a828b01612f23565b91505092959891949750929550565b6000806040838503121561312057600080fd5b600061312e85828601612f8c565b925050602061313f85828601612f62565b9150509250929050565b6000806040838503121561315c57600080fd5b600061316a85828601612f8c565b925050602061317b85828601612f8c565b9150509250929050565b61318e81613cf9565b82525050565b61319d81613c78565b82525050565b6131ac81613c66565b82525050565b6131bb81613c8a565b82525050565b6131ca81613c96565b82525050565b60006131db82613b1f565b6131e58185613b35565b93506131f5818560208601613d2f565b80840191505092915050565b600061320c82613b2a565b6132168185613b40565b9350613226818560208601613d2f565b61322f81613dc0565b840191505092915050565b6000613247602783613b40565b915061325282613dd1565b604082019050919050565b600061326a601783613b40565b915061327582613e20565b602082019050919050565b600061328d602683613b40565b915061329882613e49565b604082019050919050565b60006132b0601483613b40565b91506132bb82613e98565b602082019050919050565b60006132d3603083613b40565b91506132de82613ec1565b604082019050919050565b60006132f6601f83613b40565b915061330182613f10565b602082019050919050565b6000613319602383613b40565b915061332482613f39565b604082019050919050565b600061333c601b83613b40565b915061334782613f88565b602082019050919050565b600061335f604083613b40565b915061336a82613fb1565b604082019050919050565b6000613382601583613b40565b915061338d82614000565b602082019050919050565b60006133a5603283613b40565b91506133b082614029565b604082019050919050565b60006133c8602683613b40565b91506133d382614078565b604082019050919050565b60006133eb601d83613b40565b91506133f6826140c7565b602082019050919050565b600061340e602a83613b40565b9150613419826140f0565b604082019050919050565b6000613431601883613b40565b915061343c8261413f565b602082019050919050565b6000613454602a83613b40565b915061345f82614168565b604082019050919050565b6000613477602d83613b40565b9150613482826141b7565b604082019050919050565b600061349a601f83613b40565b91506134a582614206565b602082019050919050565b60006134bd600f83613b40565b91506134c88261422f565b602082019050919050565b60006134e0602f83613b40565b91506134eb82614258565b604082019050919050565b6000613503603483613b40565b915061350e826142a7565b604082019050919050565b61352281613ce2565b82525050565b61353181613cec565b82525050565b600061354382846131d0565b915081905092915050565b600060208201905061356360008301846131a3565b92915050565b600060c08201905061357e60008301896131a3565b61358b6020830188613185565b6135986040830187613185565b6135a56060830186613519565b6135b26080830185613519565b6135bf60a08301846131a3565b979650505050505050565b60006060820190506135df60008301866131a3565b6135ec6020830185613185565b6135f96040830184613519565b949350505050565b600060608201905061361660008301866131a3565b61362360208301856131a3565b6136306040830184613519565b949350505050565b600060408201905061364d60008301856131a3565b61365a6020830184613519565b9392505050565b600060808201905061367660008301876131a3565b6136836020830186613519565b61369060408301856131b2565b61369d60608301846131b2565b95945050505050565b60006020820190506136bb60008301846131b2565b92915050565b60006020820190506136d660008301846131c1565b92915050565b600060208201905081810360008301526136f68184613201565b905092915050565b600060408201905081810360008301526137188185613201565b90506137276020830184613519565b9392505050565b600060208201905081810360008301526137478161323a565b9050919050565b600060208201905081810360008301526137678161325d565b9050919050565b6000602082019050818103600083015261378781613280565b9050919050565b600060208201905081810360008301526137a7816132a3565b9050919050565b600060208201905081810360008301526137c7816132c6565b9050919050565b600060208201905081810360008301526137e7816132e9565b9050919050565b600060208201905081810360008301526138078161330c565b9050919050565b600060208201905081810360008301526138278161332f565b9050919050565b6000602082019050818103600083015261384781613352565b9050919050565b6000602082019050818103600083015261386781613375565b9050919050565b6000602082019050818103600083015261388781613398565b9050919050565b600060208201905081810360008301526138a7816133bb565b9050919050565b600060208201905081810360008301526138c7816133de565b9050919050565b600060208201905081810360008301526138e781613401565b9050919050565b6000602082019050818103600083015261390781613424565b9050919050565b6000602082019050818103600083015261392781613447565b9050919050565b600060208201905081810360008301526139478161346a565b9050919050565b600060208201905081810360008301526139678161348d565b9050919050565b60006020820190508181036000830152613987816134b0565b9050919050565b600060208201905081810360008301526139a7816134d3565b9050919050565b600060208201905081810360008301526139c7816134f6565b9050919050565b60006020820190506139e36000830184613519565b92915050565b6000610180820190506139ff600083018f613519565b613a0c602083018e6131a3565b613a19604083018d6131b2565b613a26606083018c613519565b613a33608083018b613519565b613a4060a083018a613519565b613a4d60c0830189613519565b613a5a60e0830188613528565b613a686101008301876131a3565b613a76610120830186613194565b613a84610140830185613194565b613a926101608301846131a3565b9d9c50505050505050505050505050565b600060c082019050613ab86000830189613519565b613ac56020830188613519565b613ad260408301876131a3565b613adf6060830186613185565b613aec6080830185613528565b613af960a08301846131a3565b979650505050505050565b6000602082019050613b196000830184613528565b92915050565b600081519050919050565b600081519050919050565b600081905092915050565b600082825260208201905092915050565b6000613b5c82613ce2565b9150613b6783613ce2565b9250827fffffffffffffffffffffffffffffffffffffffffffffffffffffffffffffffff03821115613b9c57613b9b613d62565b5b828201905092915050565b6000613bb282613ce2565b9150613bbd83613ce2565b925082613bcd57613bcc613d91565b5b828204905092915050565b6000613be382613ce2565b9150613bee83613ce2565b9250817fffffffffffffffffffffffffffffffffffffffffffffffffffffffffffffffff0483118215151615613c2757613c26613d62565b5b828202905092915050565b6000613c3d82613ce2565b9150613c4883613ce2565b925082821015613c5b57613c5a613d62565b5b828203905092915050565b6000613c7182613cc2565b9050919050565b6000613c8382613cc2565b9050919050565b60008115159050919050565b60007fffffffff0000000000000000000000000000000000000000000000000000000082169050919050565b600073ffffffffffffffffffffffffffffffffffffffff82169050919050565b6000819050919050565b600060ff82169050919050565b6000613d0482613d0b565b9050919050565b6000613d1682613d1d565b9050919050565b6000613d2882613cc2565b9050919050565b60005b83811015613d4d578082015181840152602081019050613d32565b83811115613d5c576000848401525b50505050565b7f4e487b7100000000000000000000000000000000000000000000000000000000600052601160045260246000fd5b7f4e487b7100000000000000000000000000000000000000000000000000000000600052601260045260246000fd5b6000601f19601f8301169050919050565b7f43616e27742063616e63656c20616e2061756374696f6e206f6e63652069742760008201527f7320626567756e00000000000000000000000000000000000000000000000000602082015250565b7f4d7573742062652061756374696f6e2063757261746f72000000000000000000600082015250565b7f416464726573733a20696e73756666696369656e742062616c616e636520666f60008201527f722063616c6c0000000000000000000000000000000000000000000000000000602082015250565b7f41756374696f6e206861736e277420626567756e000000000000000000000000600082015250565b7f43616e206f6e6c792062652063616c6c65642062792061756374696f6e20637260008201527f6561746f72206f722063757261746f7200000000000000000000000000000000602082015250565b7f4d7573742073656e64206174206c656173742072657365727665507269636500600082015250565b7f41756374696f6e206d75737420626520617070726f766564206279206375726160008201527f746f720000000000000000000000000000000000000000000000000000000000602082015250565b7f41756374696f6e2068617320616c726561647920737461727465640000000000600082015250565b7f4d7573742073656e64206d6f7265207468616e206c617374206269642062792060008201527f6d696e426964496e6372656d656e7450657263656e7461676520616d6f756e74602082015250565b7f41756374696f6e20646f65736e27742065786973740000000000000000000000600082015250565b7f53656e74204554482056616c756520646f6573206e6f74206d6174636820737060008201527f656369666965642062696420616d6f756e740000000000000000000000000000602082015250565b7f4d7573742062652061756374696f6e2063757261746f72206f7220746f6b656e60008201527f206f776e65720000000000000000000000000000000000000000000000000000602082015250565b7f416464726573733a2063616c6c20746f206e6f6e2d636f6e7472616374000000600082015250565b7f5361666545524332303a204552433230206f7065726174696f6e20646964206e60008201527f6f74207375636365656400000000000000000000000000000000000000000000602082015250565b7f41756374696f6e206861736e277420636f6d706c657465640000000000000000600082015250565b7f63757261746f7246656550657263656e74616765206d757374206265206c657360008201527f73207468616e2031303000000000000000000000000000000000000000000000602082015250565b7f43616c6c6572206d75737420626520617070726f766564206f72206f776e657260008201527f20666f7220746f6b656e20696400000000000000000000000000000000000000602082015250565b7f5265656e7472616e637947756172643a207265656e7472616e742063616c6c00600082015250565b7f41756374696f6e20657870697265640000000000000000000000000000000000600082015250565b7f746f6b656e436f6e747261637420646f6573206e6f7420737570706f7274204560008201527f524337323120696e746572666163650000000000000000000000000000000000602082015250565b7f546f6b656e207472616e736665722063616c6c20646964206e6f74207472616e60008201527f7366657220657870656374656420616d6f756e74000000000000000000000000602082015250565b6142ff81613c66565b811461430a57600080fd5b50565b61431681613c78565b811461432157600080fd5b50565b61432d81613c8a565b811461433857600080fd5b50565b61434481613ce2565b811461434f57600080fd5b50565b61435b81613cec565b811461436657600080fd5b5056fea26469706673582212200bb52c3763eedd0ac0b29df770635bdd710451e0ba328a73655eee53d28136e364736f6c63430008040033",
  "linkReferences": {},
  "deployedLinkReferences": {}
}