{
  "_format": "hh-sol-artifact-1",
  "contractName": "AuctionHouse",
  "sourceName": "contracts/zora/AuctionHouse.sol",
  "abi": [
    {
      "anonymous": false,
      "inputs": [
        {
          "indexed": false,
          "internalType": "address",
          "name": "previousAdmin",
          "type": "address"
        },
        {
          "indexed": false,
          "internalType": "address",
          "name": "newAdmin",
          "type": "address"
        }
      ],
      "name": "AdminChanged",
      "type": "event"
    },
    {
      "anonymous": false,
      "inputs": [
        {
          "indexed": true,
          "internalType": "uint256",
          "name": "auctionId",
          "type": "uint256"
        },
        {
          "indexed": true,
          "internalType": "uint256",
          "name": "tokenId",
          "type": "uint256"
        },
        {
          "indexed": true,
          "internalType": "address",
          "name": "tokenContract",
          "type": "address"
        },
        {
          "indexed": false,
          "internalType": "bool",
          "name": "approved",
          "type": "bool"
        }
      ],
      "name": "AuctionApprovalUpdated",
      "type": "event"
    },
    {
      "anonymous": false,
      "inputs": [
        {
          "indexed": true,
          "internalType": "uint256",
          "name": "auctionId",
          "type": "uint256"
        },
        {
          "indexed": true,
          "internalType": "uint256",
          "name": "tokenId",
          "type": "uint256"
        },
        {
          "indexed": true,
          "internalType": "address",
          "name": "tokenContract",
          "type": "address"
        },
        {
          "indexed": false,
          "internalType": "address",
          "name": "sender",
          "type": "address"
        },
        {
          "indexed": false,
          "internalType": "uint256",
          "name": "value",
          "type": "uint256"
        },
        {
          "indexed": false,
          "internalType": "bool",
          "name": "firstBid",
          "type": "bool"
        },
        {
          "indexed": false,
          "internalType": "bool",
          "name": "extended",
          "type": "bool"
        }
      ],
      "name": "AuctionBid",
      "type": "event"
    },
    {
      "anonymous": false,
      "inputs": [
        {
          "indexed": true,
          "internalType": "uint256",
          "name": "auctionId",
          "type": "uint256"
        },
        {
          "indexed": true,
          "internalType": "uint256",
          "name": "tokenId",
          "type": "uint256"
        },
        {
          "indexed": true,
          "internalType": "address",
          "name": "tokenContract",
          "type": "address"
        },
        {
          "indexed": false,
          "internalType": "address",
          "name": "tokenOwner",
          "type": "address"
        }
      ],
      "name": "AuctionCanceled",
      "type": "event"
    },
    {
      "anonymous": false,
      "inputs": [
        {
          "indexed": true,
          "internalType": "uint256",
          "name": "auctionId",
          "type": "uint256"
        },
        {
          "indexed": true,
          "internalType": "uint256",
          "name": "tokenId",
          "type": "uint256"
        },
        {
          "indexed": true,
          "internalType": "address",
          "name": "tokenContract",
          "type": "address"
        },
        {
          "indexed": false,
          "internalType": "uint256",
          "name": "duration",
          "type": "uint256"
        },
        {
          "indexed": false,
          "internalType": "uint256",
          "name": "reservePrice",
          "type": "uint256"
        },
        {
          "indexed": false,
          "internalType": "address",
          "name": "tokenOwner",
          "type": "address"
        },
        {
          "indexed": false,
          "internalType": "address",
          "name": "curator",
          "type": "address"
        },
        {
          "indexed": false,
          "internalType": "uint8",
          "name": "curatorFeePercentage",
          "type": "uint8"
        },
        {
          "indexed": false,
          "internalType": "address",
          "name": "auctionCurrency",
          "type": "address"
        }
      ],
      "name": "AuctionCreated",
      "type": "event"
    },
    {
      "anonymous": false,
      "inputs": [
        {
          "indexed": true,
          "internalType": "uint256",
          "name": "auctionId",
          "type": "uint256"
        },
        {
          "indexed": true,
          "internalType": "uint256",
          "name": "tokenId",
          "type": "uint256"
        },
        {
          "indexed": true,
          "internalType": "address",
          "name": "tokenContract",
          "type": "address"
        },
        {
          "indexed": false,
          "internalType": "uint256",
          "name": "duration",
          "type": "uint256"
        }
      ],
      "name": "AuctionDurationExtended",
      "type": "event"
    },
    {
      "anonymous": false,
      "inputs": [
        {
          "indexed": true,
          "internalType": "uint256",
          "name": "auctionId",
          "type": "uint256"
        },
        {
          "indexed": true,
          "internalType": "uint256",
          "name": "tokenId",
          "type": "uint256"
        },
        {
          "indexed": true,
          "internalType": "address",
          "name": "tokenContract",
          "type": "address"
        },
        {
          "indexed": false,
          "internalType": "address",
          "name": "tokenOwner",
          "type": "address"
        },
        {
          "indexed": false,
          "internalType": "address",
          "name": "curator",
          "type": "address"
        },
        {
          "indexed": false,
          "internalType": "address",
          "name": "winner",
          "type": "address"
        },
        {
          "indexed": false,
          "internalType": "uint256",
          "name": "amount",
          "type": "uint256"
        },
        {
          "indexed": false,
          "internalType": "uint256",
          "name": "curatorFee",
          "type": "uint256"
        },
        {
          "indexed": false,
          "internalType": "address",
          "name": "auctionCurrency",
          "type": "address"
        }
      ],
      "name": "AuctionEnded",
      "type": "event"
    },
    {
      "anonymous": false,
      "inputs": [
        {
          "indexed": true,
          "internalType": "uint256",
          "name": "auctionId",
          "type": "uint256"
        },
        {
          "indexed": true,
          "internalType": "uint256",
          "name": "tokenId",
          "type": "uint256"
        },
        {
          "indexed": true,
          "internalType": "address",
          "name": "tokenContract",
          "type": "address"
        },
        {
          "indexed": false,
          "internalType": "uint256",
          "name": "reservePrice",
          "type": "uint256"
        }
      ],
      "name": "AuctionReservePriceUpdated",
      "type": "event"
    },
    {
      "anonymous": false,
      "inputs": [
        {
          "indexed": true,
          "internalType": "address",
          "name": "beacon",
          "type": "address"
        }
      ],
      "name": "BeaconUpgraded",
      "type": "event"
    },
    {
      "anonymous": false,
      "inputs": [
        {
          "indexed": true,
          "internalType": "bytes32",
          "name": "role",
          "type": "bytes32"
        },
        {
          "indexed": true,
          "internalType": "bytes32",
          "name": "previousAdminRole",
          "type": "bytes32"
        },
        {
          "indexed": true,
          "internalType": "bytes32",
          "name": "newAdminRole",
          "type": "bytes32"
        }
      ],
      "name": "RoleAdminChanged",
      "type": "event"
    },
    {
      "anonymous": false,
      "inputs": [
        {
          "indexed": true,
          "internalType": "bytes32",
          "name": "role",
          "type": "bytes32"
        },
        {
          "indexed": true,
          "internalType": "address",
          "name": "account",
          "type": "address"
        },
        {
          "indexed": true,
          "internalType": "address",
          "name": "sender",
          "type": "address"
        }
      ],
      "name": "RoleGranted",
      "type": "event"
    },
    {
      "anonymous": false,
      "inputs": [
        {
          "indexed": true,
          "internalType": "bytes32",
          "name": "role",
          "type": "bytes32"
        },
        {
          "indexed": true,
          "internalType": "address",
          "name": "account",
          "type": "address"
        },
        {
          "indexed": true,
          "internalType": "address",
          "name": "sender",
          "type": "address"
        }
      ],
      "name": "RoleRevoked",
      "type": "event"
    },
    {
      "anonymous": false,
      "inputs": [
        {
          "indexed": true,
          "internalType": "address",
          "name": "implementation",
          "type": "address"
        }
      ],
      "name": "Upgraded",
      "type": "event"
    },
    {
      "stateMutability": "payable",
      "type": "fallback"
    },
    {
      "inputs": [],
      "name": "DEFAULT_ADMIN_ROLE",
      "outputs": [
        {
          "internalType": "bytes32",
          "name": "",
          "type": "bytes32"
        }
      ],
      "stateMutability": "view",
      "type": "function"
    },
    {
      "inputs": [],
      "name": "INTERFACE_ID_721",
      "outputs": [
        {
          "internalType": "bytes4",
          "name": "",
          "type": "bytes4"
        }
      ],
      "stateMutability": "view",
      "type": "function"
    },
    {
      "inputs": [],
      "name": "UPGRADER_ROLE",
      "outputs": [
        {
          "internalType": "bytes32",
          "name": "",
          "type": "bytes32"
        }
      ],
      "stateMutability": "view",
      "type": "function"
    },
    {
      "inputs": [
        {
          "internalType": "uint256",
          "name": "",
          "type": "uint256"
        }
      ],
      "name": "auctions",
      "outputs": [
        {
          "internalType": "uint256",
          "name": "tokenId",
          "type": "uint256"
        },
        {
          "internalType": "address",
          "name": "tokenContract",
          "type": "address"
        },
        {
          "internalType": "bool",
          "name": "approved",
          "type": "bool"
        },
        {
          "internalType": "uint256",
          "name": "amount",
          "type": "uint256"
        },
        {
          "internalType": "uint256",
          "name": "duration",
          "type": "uint256"
        },
        {
          "internalType": "uint256",
          "name": "firstBidTime",
          "type": "uint256"
        },
        {
          "internalType": "uint256",
          "name": "reservePrice",
          "type": "uint256"
        },
        {
          "internalType": "uint8",
          "name": "curatorFeePercentage",
          "type": "uint8"
        },
        {
          "internalType": "address",
          "name": "tokenOwner",
          "type": "address"
        },
        {
          "internalType": "address payable",
          "name": "bidder",
          "type": "address"
        },
        {
          "internalType": "address payable",
          "name": "curator",
          "type": "address"
        },
        {
          "internalType": "address",
          "name": "auctionCurrency",
          "type": "address"
        }
      ],
      "stateMutability": "view",
      "type": "function"
    },
    {
      "inputs": [
        {
          "internalType": "uint256",
          "name": "auctionId",
          "type": "uint256"
        }
      ],
      "name": "cancelAuction",
      "outputs": [],
      "stateMutability": "nonpayable",
      "type": "function"
    },
    {
      "inputs": [
        {
          "internalType": "uint256",
          "name": "tokenId",
          "type": "uint256"
        },
        {
          "internalType": "address",
          "name": "tokenContract",
          "type": "address"
        },
        {
          "internalType": "uint256",
          "name": "duration",
          "type": "uint256"
        },
        {
          "internalType": "uint256",
          "name": "reservePrice",
          "type": "uint256"
        },
        {
          "internalType": "address payable",
          "name": "curator",
          "type": "address"
        },
        {
          "internalType": "uint8",
          "name": "curatorFeePercentage",
          "type": "uint8"
        },
        {
          "internalType": "address",
          "name": "auctionCurrency",
          "type": "address"
        }
      ],
      "name": "createAuction",
      "outputs": [
        {
          "internalType": "uint256",
          "name": "",
          "type": "uint256"
        }
      ],
      "stateMutability": "nonpayable",
      "type": "function"
    },
    {
      "inputs": [
        {
          "internalType": "uint256",
          "name": "auctionId",
          "type": "uint256"
        },
        {
          "internalType": "uint256",
          "name": "amount",
          "type": "uint256"
        }
      ],
      "name": "createBid",
      "outputs": [],
      "stateMutability": "payable",
      "type": "function"
    },
    {
      "inputs": [
        {
          "internalType": "uint256",
          "name": "auctionId",
          "type": "uint256"
        }
      ],
      "name": "endAuction",
      "outputs": [],
      "stateMutability": "nonpayable",
      "type": "function"
    },
    {
      "inputs": [
        {
          "internalType": "bytes32",
          "name": "role",
          "type": "bytes32"
        }
      ],
      "name": "getRoleAdmin",
      "outputs": [
        {
          "internalType": "bytes32",
          "name": "",
          "type": "bytes32"
        }
      ],
      "stateMutability": "view",
      "type": "function"
    },
    {
      "inputs": [
        {
          "internalType": "bytes32",
          "name": "role",
          "type": "bytes32"
        },
        {
          "internalType": "address",
          "name": "account",
          "type": "address"
        }
      ],
      "name": "grantRole",
      "outputs": [],
      "stateMutability": "nonpayable",
      "type": "function"
    },
    {
      "inputs": [
        {
          "internalType": "bytes32",
          "name": "role",
          "type": "bytes32"
        },
        {
          "internalType": "address",
          "name": "account",
          "type": "address"
        }
      ],
      "name": "hasRole",
      "outputs": [
        {
          "internalType": "bool",
          "name": "",
          "type": "bool"
        }
      ],
      "stateMutability": "view",
      "type": "function"
    },
    {
      "inputs": [
        {
          "internalType": "address",
          "name": "_weth",
          "type": "address"
        }
      ],
      "name": "initialize",
      "outputs": [],
      "stateMutability": "nonpayable",
      "type": "function"
    },
    {
      "inputs": [],
      "name": "minBidIncrementPercentage",
      "outputs": [
        {
          "internalType": "uint8",
          "name": "",
          "type": "uint8"
        }
      ],
      "stateMutability": "view",
      "type": "function"
    },
    {
      "inputs": [
        {
          "internalType": "bytes32",
          "name": "role",
          "type": "bytes32"
        },
        {
          "internalType": "address",
          "name": "account",
          "type": "address"
        }
      ],
      "name": "renounceRole",
      "outputs": [],
      "stateMutability": "nonpayable",
      "type": "function"
    },
    {
      "inputs": [
        {
          "internalType": "bytes32",
          "name": "role",
          "type": "bytes32"
        },
        {
          "internalType": "address",
          "name": "account",
          "type": "address"
        }
      ],
      "name": "revokeRole",
      "outputs": [],
      "stateMutability": "nonpayable",
      "type": "function"
    },
    {
      "inputs": [
        {
          "internalType": "uint256",
          "name": "auctionId",
          "type": "uint256"
        },
        {
          "internalType": "bool",
          "name": "approved",
          "type": "bool"
        }
      ],
      "name": "setAuctionApproval",
      "outputs": [],
      "stateMutability": "nonpayable",
      "type": "function"
    },
    {
      "inputs": [
        {
          "internalType": "uint256",
          "name": "auctionId",
          "type": "uint256"
        },
        {
          "internalType": "uint256",
          "name": "reservePrice",
          "type": "uint256"
        }
      ],
      "name": "setAuctionReservePrice",
      "outputs": [],
      "stateMutability": "nonpayable",
      "type": "function"
    },
    {
      "inputs": [
        {
          "internalType": "bytes4",
          "name": "interfaceId",
          "type": "bytes4"
        }
      ],
      "name": "supportsInterface",
      "outputs": [
        {
          "internalType": "bool",
          "name": "",
          "type": "bool"
        }
      ],
      "stateMutability": "view",
      "type": "function"
    },
    {
      "inputs": [],
      "name": "timeBuffer",
      "outputs": [
        {
          "internalType": "uint256",
          "name": "",
          "type": "uint256"
        }
      ],
      "stateMutability": "view",
      "type": "function"
    },
    {
      "inputs": [
        {
          "internalType": "address",
          "name": "newImplementation",
          "type": "address"
        }
      ],
      "name": "upgradeTo",
      "outputs": [],
      "stateMutability": "nonpayable",
      "type": "function"
    },
    {
      "inputs": [
        {
          "internalType": "address",
          "name": "newImplementation",
          "type": "address"
        },
        {
          "internalType": "bytes",
          "name": "data",
          "type": "bytes"
        }
      ],
      "name": "upgradeToAndCall",
      "outputs": [],
      "stateMutability": "payable",
      "type": "function"
    },
    {
      "inputs": [],
      "name": "wethAddress",
      "outputs": [
        {
          "internalType": "address",
          "name": "",
          "type": "address"
        }
      ],
      "stateMutability": "view",
      "type": "function"
    },
    {
      "stateMutability": "payable",
      "type": "receive"
    }
  ],
  "bytecode": "0x60a06040523060601b60805234801561001757600080fd5b5060805160601c61332e61004b600039600081816105c5015281816106050152818161068e01526106ce015261332e6000f3fe6080604052600436106101065760003560e01c806301ffc9a71461010f578063248a9ca3146101445780632f2ff15d1461017257806336568abe146101925780633659cfe6146101b25780634f0e0ef3146101d25780634f1ef28614610205578063571a26a0146102185780636f8a41e11461031357806375e9249f1461033357806391d148541461035357806396b5a75514610373578063973ddb4a14610393578063a217fddf146103b3578063b296024d146103c8578063b7751c71146103f5578063b9a2de3a14610408578063c4d66de814610428578063d547741f14610448578063dd957c9414610468578063ec91f2a414610490578063f72c0d8b146104a757005b3661010d57005b005b34801561011b57600080fd5b5061012f61012a366004612e05565b6104c9565b60405190151581526020015b60405180910390f35b34801561015057600080fd5b5061016461015f366004612dbe565b610500565b60405190815260200161013b565b34801561017e57600080fd5b5061010d61018d366004612dd6565b610515565b34801561019e57600080fd5b5061010d6101ad366004612dd6565b610537565b3480156101be57600080fd5b5061010d6101cd366004612cac565b6105ba565b3480156101de57600080fd5b5061012e546101f89061010090046001600160a01b031681565b60405161013b9190612f94565b61010d610213366004612ce4565b610683565b34801561022457600080fd5b506102a2610233366004612dbe565b61012f60205260009081526040902080546001820154600283015460038401546004850154600586015460068701546007880154600889015460099099015497986001600160a01b038089169960ff600160a01b909a048a16998516946101009004821693821692821691168c565b604080519c8d526001600160a01b039b8c1660208e0152991515998c019990995260608b019790975260808a019590955260a089019390935260c088019190915260ff1660e0870152841661010086015283166101208501528216610140840152166101608201526101800161013b565b34801561031f57600080fd5b5061010d61032e366004612ee8565b610739565b34801561033f57600080fd5b5061016461034e366004612e45565b610897565b34801561035f57600080fd5b5061012f61036e366004612dd6565b610f63565b34801561037f57600080fd5b5061010d61038e366004612dbe565b610f8e565b34801561039f57600080fd5b5061010d6103ae366004612ec4565b61110a565b3480156103bf57600080fd5b50610164600081565b3480156103d457600080fd5b5061012e546103e39060ff1681565b60405160ff909116815260200161013b565b61010d610403366004612ee8565b6111ce565b34801561041457600080fd5b5061010d610423366004612dbe565b611674565b34801561043457600080fd5b5061010d610443366004612cac565b611a87565b34801561045457600080fd5b5061010d610463366004612dd6565b611b4a565b34801561047457600080fd5b506104836380ac58cd60e01b81565b60405161013b9190612fcc565b34801561049c57600080fd5b5061016461012d5481565b3480156104b357600080fd5b5061016460008051602061329283398151915281565b60006001600160e01b03198216637965db0b60e01b14806104fa57506301ffc9a760e01b6001600160e01b03198316145b92915050565b600090815260fb602052604090206001015490565b61051e82610500565b6105288133611b67565b6105328383611bcb565b505050565b6001600160a01b03811633146105ac5760405162461bcd60e51b815260206004820152602f60248201527f416363657373436f6e74726f6c3a2063616e206f6e6c792072656e6f756e636560448201526e103937b632b9903337b91039b2b63360891b60648201526084015b60405180910390fd5b6105b68282611c51565b5050565b306001600160a01b037f00000000000000000000000000000000000000000000000000000000000000001614156106035760405162461bcd60e51b81526004016105a390613014565b7f00000000000000000000000000000000000000000000000000000000000000006001600160a01b0316610635611cb8565b6001600160a01b03161461065b5760405162461bcd60e51b81526004016105a39061304e565b61066481611cd4565b6040805160008082526020820190925261068091839190611ced565b50565b306001600160a01b037f00000000000000000000000000000000000000000000000000000000000000001614156106cc5760405162461bcd60e51b81526004016105a390613014565b7f00000000000000000000000000000000000000000000000000000000000000006001600160a01b03166106fe611cb8565b6001600160a01b0316146107245760405162461bcd60e51b81526004016105a39061304e565b61072d82611cd4565b6105b682826001611ced565b8161074381611e34565b61075f5760405162461bcd60e51b81526004016105a39061310b565b600083815261012f60205260409020600801546001600160a01b03163314806107a75750600083815261012f602052604090206006015461010090046001600160a01b031633145b6108025760405162461bcd60e51b815260206004820152602660248201527f4d7573742062652061756374696f6e2063757261746f72206f7220746f6b656e6044820152651037bbb732b960d11b60648201526084016105a3565b600083815261012f6020526040902060040154156108325760405162461bcd60e51b81526004016105a3906130d6565b600083815261012f6020908152604091829020600581018590556001810154905492518581526001600160a01b03909116929186917f01e6a465ec1edd582d333147c7b7edf5998164f2cf2269dcb9c93d46c67bd317910160405180910390a4505050565b6000600260015414156108bc5760405162461bcd60e51b81526004016105a39061313a565b60026001556040516301ffc9a760e01b81526001600160a01b038816906301ffc9a7906108f4906380ac58cd60e01b90600401612fcc565b60206040518083038186803b15801561090c57600080fd5b505afa158015610920573d6000803e3d6000fd5b505050506040513d601f19601f820116820180604052508101906109449190612da2565b806109cd57506040516301ffc9a760e01b81526001600160a01b038816906301ffc9a79061097d906380ac58cd60e01b90600401612fcc565b60206040518083038186803b15801561099557600080fd5b505afa1580156109a9573d6000803e3d6000fd5b505050506040513d601f19601f820116820180604052508101906109cd9190612da2565b610a315760405162461bcd60e51b815260206004820152602f60248201527f746f6b656e436f6e747261637420646f6573206e6f7420737570706f7274204560448201526e524337323120696e7465726661636560881b60648201526084016105a3565b60648360ff1610610a975760405162461bcd60e51b815260206004820152602a60248201527f63757261746f7246656550657263656e74616765206d757374206265206c6573604482015269073207468616e203130360b41b60648201526084016105a3565b6040516331a9108f60e11b8152600481018990526000906001600160a01b03891690636352211e9060240160206040518083038186803b158015610ada57600080fd5b505afa158015610aee573d6000803e3d6000fd5b505050506040513d601f19601f82011682018060405250810190610b129190612cc8565b60405163020604bf60e21b8152600481018b90529091506001600160a01b0389169063081812fc9060240160206040518083038186803b158015610b5557600080fd5b505afa158015610b69573d6000803e3d6000fd5b505050506040513d601f19601f82011682018060405250810190610b8d9190612cc8565b6001600160a01b0316336001600160a01b03161480610bb45750336001600160a01b038216145b610c165760405162461bcd60e51b815260206004820152602d60248201527f43616c6c6572206d75737420626520617070726f766564206f72206f776e657260448201526c08199bdc881d1bdad95b881a59609a1b60648201526084016105a3565b6000610c226101305490565b90506040518061018001604052808b81526020018a6001600160a01b0316815260200160001515815260200160008152602001898152602001600081526020018881526020018660ff168152602001836001600160a01b0316815260200160006001600160a01b03168152602001876001600160a01b03168152602001856001600160a01b031681525061012f60008381526020019081526020016000206000820151816000015560208201518160010160006101000a8154816001600160a01b0302191690836001600160a01b0316021790555060408201518160010160146101000a81548160ff021916908315150217905550606082015181600201556080820151816003015560a0820151816004015560c0820151816005015560e08201518160060160006101000a81548160ff021916908360ff1602179055506101008201518160060160016101000a8154816001600160a01b0302191690836001600160a01b031602179055506101208201518160070160006101000a8154816001600160a01b0302191690836001600160a01b031602179055506101408201518160080160006101000a8154816001600160a01b0302191690836001600160a01b031602179055506101608201518160090160006101000a8154816001600160a01b0302191690836001600160a01b03160217905550905050886001600160a01b03166323b872dd83308d6040518463ffffffff1660e01b8152600401610e4b93929190612fa8565b600060405180830381600087803b158015610e6557600080fd5b505af1158015610e79573d6000803e3d6000fd5b50505050610e8c61013080546001019055565b60408051898152602081018990526001600160a01b0384811682840152888116606083015260ff8816608083015286811660a08301529151918b16918c9184917f38c0b9047bd28fac9f420b967f6caf4a6260ba09d18940a9a502578a480c09009181900360c00190a4600081815261012f60205260409020600801546001600160a01b03161580610f2f5750816001600160a01b0316866001600160a01b0316145b80610f425750336001600160a01b038316145b15610f5257610f52816001611e5a565b600180559998505050505050505050565b600091825260fb602090815260408084206001600160a01b0393909316845291905290205460ff1690565b60026001541415610fb15760405162461bcd60e51b81526004016105a39061313a565b600260015580610fc081611e34565b610fdc5760405162461bcd60e51b81526004016105a39061310b565b600082815261012f602052604090206006015461010090046001600160a01b03163314806110245750600082815261012f60205260409020600801546001600160a01b031633145b6110895760405162461bcd60e51b815260206004820152603060248201527f43616e206f6e6c792062652063616c6c65642062792061756374696f6e20637260448201526f32b0ba37b91037b91031bab930ba37b960811b60648201526084016105a3565b600082815261012f6020526040902060040154156110f95760405162461bcd60e51b815260206004820152602760248201527f43616e27742063616e63656c20616e2061756374696f6e206f6e63652069742760448201526639903132b3bab760c91b60648201526084016105a3565b61110282611edc565b505060018055565b8161111481611e34565b6111305760405162461bcd60e51b81526004016105a39061310b565b600083815261012f60205260409020600801546001600160a01b031633146111945760405162461bcd60e51b815260206004820152601760248201527626bab9ba1031329030bab1ba34b7b71031bab930ba37b960491b60448201526064016105a3565b600083815261012f6020526040902060040154156111c45760405162461bcd60e51b81526004016105a3906130d6565b6105328383611e5a565b816111d881611e34565b6111f45760405162461bcd60e51b81526004016105a39061310b565b600260015414156112175760405162461bcd60e51b81526004016105a39061313a565b60026001908155600084815261012f6020526040902060078101549101546001600160a01b0390911690600160a01b900460ff166112a35760405162461bcd60e51b815260206004820152602360248201527f41756374696f6e206d75737420626520617070726f76656420627920637572616044820152623a37b960e91b60648201526084016105a3565b600084815261012f602052604090206004015415806112e35750600084815261012f6020526040902060038101546004909101546112e09161203e565b42105b6113215760405162461bcd60e51b815260206004820152600f60248201526e105d58dd1a5bdb88195e1c1a5c9959608a1b60448201526064016105a3565b600084815261012f60205260409020600501548310156113835760405162461bcd60e51b815260206004820152601f60248201527f4d7573742073656e64206174206c65617374207265736572766550726963650060448201526064016105a3565b61012e54600085815261012f60205260409020600201546113d1916113b8916064916113b2919060ff16612051565b9061205d565b600086815261012f60205260409020600201549061203e565b831015611448576040805162461bcd60e51b81526020600482015260248101919091527f4d7573742073656e64206d6f7265207468616e206c617374206269642062792060448201527f6d696e426964496e6372656d656e7450657263656e7461676520616d6f756e7460648201526084016105a3565b600084815261012f602052604090206004015461147a57600084815261012f60205260409020426004909101556114b7565b6001600160a01b038116156114b757600084815261012f6020526040902060028101546009909101546114b79183916001600160a01b0316612069565b600084815261012f60205260409020600901546114de9084906001600160a01b0316612185565b600084815261012f60205260408120600281018590556007810180546001600160a01b0319163317905561012d546003820154600490920154909161152f914291611529919061203e565b906123f9565b101561159157600085815261012f6020526040902060038101546004909101546115789061157190611567904290611529908661203e565b61012d54906123f9565b829061203e565b600087815261012f602052604090206003015550600190505b600085815261012f60209081526040918290206001810154905483513381529283018890526001600160a01b03868116159484019490945284151560608401529216919087907fda6b779568630ce5e5658b317174df474d5b335541ed9471bd8424a017f3be6d9060800160405180910390a4801561166957600085815261012f60209081526040918290206001810154815460039092015493519384526001600160a01b031692909188917f55cf2b31608fbe49fa31cd0285b6b6cce46f56d26c8c59980a2af5a0ffbdd5db910160405180910390a45b505060018055505050565b8061167e81611e34565b61169a5760405162461bcd60e51b81526004016105a39061310b565b600260015414156116bd5760405162461bcd60e51b81526004016105a39061313a565b6002600155600082815261012f60205260409020600401546117185760405162461bcd60e51b815260206004820152601460248201527320bab1ba34b7b7103430b9b713ba103132b3bab760611b60448201526064016105a3565b600082815261012f60205260409020600381015460049091015461173b9161203e565b4210156117855760405162461bcd60e51b8152602060048201526018602482015277105d58dd1a5bdb881a185cdb89dd0818dbdb5c1b195d195960421b60448201526064016105a3565b600082815261012f60205260408120600901546001600160a01b0316156117c757600083815261012f60205260409020600901546001600160a01b03166117da565b61012e5461010090046001600160a01b03165b600084815261012f602052604080822060028101546001820154600783015492549351632142170760e11b8152959650939490936001600160a01b03908116936342842e0e936118339330939091169190600401612fa8565b600060405180830381600087803b15801561184d57600080fd5b505af192505050801561185e575060015b6118aa57600085815261012f6020526040902060078101546002820154600990920154611899926001600160a01b0392831692909116612069565b6118a285611edc565b505050611102565b600085815261012f60205260409020600801546001600160a01b03161561193457600085815261012f60205260409020600601546118f3906064906113b290849060ff16612051565b91506118ff81836123f9565b600086815261012f602052604090206008810154600990910154919250611934916001600160a01b0391821691859116612069565b600085815261012f60205260409020600681015460099091015461196b916001600160a01b03610100909104811691849116612069565b600085815261012f6020908152604091829020600181015481546006830154600884015460079094015486516001600160a01b03610100909304831681529482169585019590955293841683860152606083018690526080830187905287841660a084015293519216929188917f4f35fb3ea0081b3ccbe8df613cab0f9e1694d50a025e0aa09b88a86a3d07c2de919081900360c00190a450505060009182525061012f60205260408120818155600180820180546001600160a81b031990811690915560028301849055600383018490556004830184905560058301939093556006820180549093169092556007810180546001600160a01b0319908116909155600882018054821690556009909101805490911690558055565b600054610100900460ff1680611aa0575060005460ff16155b611abc5760405162461bcd60e51b81526004016105a390613088565b600054610100900460ff16158015611ade576000805461ffff19166101011790555b61012e8054603c61012d5560ff196001600160a01b03851661010002166001600160a81b0319909116176005179055611b15612405565b611b1d612478565b611b35600080516020613292833981519152336124df565b80156105b6576000805461ff00191690555050565b611b5382610500565b611b5d8133611b67565b6105328383611c51565b611b718282610f63565b6105b657611b89816001600160a01b031660146124e9565b611b948360206124e9565b604051602001611ba5929190612f25565b60408051601f198184030181529082905262461bcd60e51b82526105a391600401612fe1565b611bd58282610f63565b6105b657600082815260fb602090815260408083206001600160a01b03851684529091529020805460ff19166001179055611c0d3390565b6001600160a01b0316816001600160a01b0316837f2f8788117e7eff1d82e926ec794901d17c78024a50270940304540a733656f0d60405160405180910390a45050565b611c5b8282610f63565b156105b657600082815260fb602090815260408083206001600160a01b0385168085529252808320805460ff1916905551339285917ff6391f5c32d9c69d2a47ea670b442974b53935d1edc7fd64eb21e047a839171b9190a45050565b6000805160206132b2833981519152546001600160a01b031690565b6000805160206132928339815191526105b68133611b67565b6000611cf7611cb8565b9050611d02846126ca565b600083511180611d0f5750815b15611d2057611d1e848461275d565b505b7f4910fdfa16fed3260ed0e7147f7cc6da11a60208b5b9406d12a635614ffd9143805460ff16611e2d57805460ff19166001178155604051611d9b908690611d6c908590602401612f94565b60408051601f198184030181529190526020810180516001600160e01b0316631b2ce7f360e11b17905261275d565b50805460ff19168155611dac611cb8565b6001600160a01b0316826001600160a01b031614611e245760405162461bcd60e51b815260206004820152602f60248201527f45524331393637557067726164653a207570677261646520627265616b73206660448201526e75727468657220757067726164657360881b60648201526084016105a3565b611e2d85612848565b5050505050565b600090815261012f602052604090206006015461010090046001600160a01b0316151590565b600082815261012f602052604090819020600181018054841515600160a01b0260ff60a01b1982168117909255915492516001600160a01b039182169190921617919084907fec35d321ab4972475f131e184c0c0fe52c5a58a29d74f7db2969af2f6dd93a1f90611ed090861515815260200190565b60405180910390a45050565b600081815261012f6020526040908190206006810154600182015491549251632142170760e11b81526101009091046001600160a01b03908116939216916342842e0e91611f31913091869190600401612fa8565b600060405180830381600087803b158015611f4b57600080fd5b505af1158015611f5f573d6000803e3d6000fd5b505050600083815261012f6020526040908190206001810154905491516001600160a01b03909116925084907f6091afcbe8514686c43b167ca4f1b03e24446d29d8490d496e438f8a2c76343990611fb8908690612f94565b60405180910390a450600090815261012f602052604081208181556001810180546001600160a81b031990811690915560028201839055600382018390556004820183905560058201929092556006810180549092169091556007810180546001600160a01b031990811690915560088201805482169055600990910180549091169055565b600061204a8284613171565b9392505050565b600061204a82846131a9565b600061204a8284613189565b6001600160a01b0381166121715761012e54604051632e1a7d4d60e01b8152600481018490526101009091046001600160a01b031690632e1a7d4d90602401600060405180830381600087803b1580156120c257600080fd5b505af11580156120d6573d6000803e3d6000fd5b505050506120e48383612888565b6105325761012e60019054906101000a90046001600160a01b03166001600160a01b031663d0e30db0836040518263ffffffff1660e01b81526004016000604051808303818588803b15801561213957600080fd5b505af115801561214d573d6000803e3d6000fd5b505061012e54610532935061010090046001600160a01b03169150859050846128ff565b6105326001600160a01b03821684846128ff565b6001600160a01b03811661226b578134146121fd5760405162461bcd60e51b815260206004820152603260248201527f53656e74204554482056616c756520646f6573206e6f74206d617463682073706044820152711958da599a595908189a5908185b5bdd5b9d60721b60648201526084016105a3565b61012e60019054906101000a90046001600160a01b03166001600160a01b031663d0e30db0836040518263ffffffff1660e01b81526004016000604051808303818588803b15801561224e57600080fd5b505af1158015612262573d6000803e3d6000fd5b50505050505050565b6040516370a0823160e01b815281906000906001600160a01b038316906370a082319061229c903090600401612f94565b60206040518083038186803b1580156122b457600080fd5b505afa1580156122c8573d6000803e3d6000fd5b505050506040513d601f19601f820116820180604052508101906122ec9190612e2d565b90506123036001600160a01b038316333087612962565b6040516370a0823160e01b81526000906001600160a01b038416906370a0823190612332903090600401612f94565b60206040518083038186803b15801561234a57600080fd5b505afa15801561235e573d6000803e3d6000fd5b505050506040513d601f19601f820116820180604052508101906123829190612e2d565b90508061238f838761203e565b14611e2d5760405162461bcd60e51b815260206004820152603460248201527f546f6b656e207472616e736665722063616c6c20646964206e6f74207472616e6044820152731cd9995c88195e1c1958dd195908185b5bdd5b9d60621b60648201526084016105a3565b600061204a82846131c8565b600054610100900460ff168061241e575060005460ff16155b61243a5760405162461bcd60e51b81526004016105a390613088565b600054610100900460ff1615801561245c576000805461ffff19166101011790555b612464612989565b8015610680576000805461ff001916905550565b600054610100900460ff1680612491575060005460ff16155b6124ad5760405162461bcd60e51b81526004016105a390613088565b600054610100900460ff161580156124cf576000805461ffff19166101011790555b6124d76129f8565b6124646129f8565b6105b68282611bcb565b606060006124f88360026131a9565b612503906002613171565b6001600160401b0381111561252857634e487b7160e01b600052604160045260246000fd5b6040519080825280601f01601f191660200182016040528015612552576020820181803683370190505b509050600360fc1b8160008151811061257b57634e487b7160e01b600052603260045260246000fd5b60200101906001600160f81b031916908160001a905350600f60fb1b816001815181106125b857634e487b7160e01b600052603260045260246000fd5b60200101906001600160f81b031916908160001a90535060006125dc8460026131a9565b6125e7906001613171565b90505b600181111561267b576f181899199a1a9b1b9c1cb0b131b232b360811b85600f166010811061262957634e487b7160e01b600052603260045260246000fd5b1a60f81b82828151811061264d57634e487b7160e01b600052603260045260246000fd5b60200101906001600160f81b031916908160001a90535060049490941c936126748161320b565b90506125ea565b50831561204a5760405162461bcd60e51b815260206004820181905260248201527f537472696e67733a20686578206c656e67746820696e73756666696369656e7460448201526064016105a3565b803b61272e5760405162461bcd60e51b815260206004820152602d60248201527f455243313936373a206e657720696d706c656d656e746174696f6e206973206e60448201526c1bdd08184818dbdb9d1c9858dd609a1b60648201526084016105a3565b6000805160206132b283398151915280546001600160a01b0319166001600160a01b0392909216919091179055565b6060823b6127bc5760405162461bcd60e51b815260206004820152602660248201527f416464726573733a2064656c65676174652063616c6c20746f206e6f6e2d636f6044820152651b9d1c9858dd60d21b60648201526084016105a3565b600080846001600160a01b0316846040516127d79190612f09565b600060405180830381855af49150503d8060008114612812576040519150601f19603f3d011682016040523d82523d6000602084013e612817565b606091505b509150915061283f82826040518060600160405280602781526020016132d260279139612a62565b95945050505050565b612851816126ca565b6040516001600160a01b038216907fbc7cd75a20ee27fd9adebab32041f755214dbc6bffa90cc0225b39da2e5c2d3b90600090a250565b60408051600080825260208201928390529182916001600160a01b0386169185916128b291612f09565b60006040518083038185875af1925050503d80600081146128ef576040519150601f19603f3d011682016040523d82523d6000602084013e6128f4565b606091505b509095945050505050565b6040516001600160a01b03831660248201526044810182905261053290849063a9059cbb60e01b906064015b60408051601f198184030181529190526020810180516001600160e01b03166001600160e01b031990931692909217909152612a9b565b612983846323b872dd60e01b85858560405160240161292b93929190612fa8565b50505050565b600054610100900460ff16806129a2575060005460ff16155b6129be5760405162461bcd60e51b81526004016105a390613088565b600054610100900460ff161580156129e0576000805461ffff19166101011790555b600180558015610680576000805461ff001916905550565b600054610100900460ff1680612a11575060005460ff16155b612a2d5760405162461bcd60e51b81526004016105a390613088565b600054610100900460ff16158015612464576000805461ffff19166101011790558015610680576000805461ff001916905550565b60608315612a7157508161204a565b825115612a815782518084602001fd5b8160405162461bcd60e51b81526004016105a39190612fe1565b6000612af0826040518060400160405280602081526020017f5361666545524332303a206c6f772d6c6576656c2063616c6c206661696c6564815250856001600160a01b0316612b6d9092919063ffffffff16565b8051909150156105325780806020019051810190612b0e9190612da2565b6105325760405162461bcd60e51b815260206004820152602a60248201527f5361666545524332303a204552433230206f7065726174696f6e20646964206e6044820152691bdd081cdd58d8d9595960b21b60648201526084016105a3565b6060612b7c8484600085612b84565b949350505050565b606082471015612be55760405162461bcd60e51b815260206004820152602660248201527f416464726573733a20696e73756666696369656e742062616c616e636520666f6044820152651c8818d85b1b60d21b60648201526084016105a3565b843b612c335760405162461bcd60e51b815260206004820152601d60248201527f416464726573733a2063616c6c20746f206e6f6e2d636f6e747261637400000060448201526064016105a3565b600080866001600160a01b03168587604051612c4f9190612f09565b60006040518083038185875af1925050503d8060008114612c8c576040519150601f19603f3d011682016040523d82523d6000602084013e612c91565b606091505b5091509150612ca1828286612a62565b979650505050505050565b600060208284031215612cbd578081fd5b813561204a8161324e565b600060208284031215612cd9578081fd5b815161204a8161324e565b60008060408385031215612cf6578081fd5b8235612d018161324e565b915060208301356001600160401b0380821115612d1c578283fd5b818501915085601f830112612d2f578283fd5b813581811115612d4157612d41613238565b604051601f8201601f19908116603f01168101908382118183101715612d6957612d69613238565b81604052828152886020848701011115612d81578586fd5b82602086016020830137856020848301015280955050505050509250929050565b600060208284031215612db3578081fd5b815161204a81613263565b600060208284031215612dcf578081fd5b5035919050565b60008060408385031215612de8578182fd5b823591506020830135612dfa8161324e565b809150509250929050565b600060208284031215612e16578081fd5b81356001600160e01b03198116811461204a578182fd5b600060208284031215612e3e578081fd5b5051919050565b600080600080600080600060e0888a031215612e5f578283fd5b873596506020880135612e718161324e565b955060408801359450606088013593506080880135612e8f8161324e565b925060a088013560ff81168114612ea4578283fd5b915060c0880135612eb48161324e565b8091505092959891949750929550565b60008060408385031215612ed6578182fd5b823591506020830135612dfa81613263565b60008060408385031215612efa578182fd5b50508035926020909101359150565b60008251612f1b8184602087016131df565b9190910192915050565b76020b1b1b2b9b9a1b7b73a3937b61d1030b1b1b7bab73a1604d1b815260008351612f578160178501602088016131df565b7001034b99036b4b9b9b4b733903937b6329607d1b6017918401918201528351612f888160288401602088016131df565b01602801949350505050565b6001600160a01b0391909116815260200190565b6001600160a01b039384168152919092166020820152604081019190915260600190565b6001600160e01b031991909116815260200190565b60208152600082518060208401526130008160408501602087016131df565b601f01601f19169190910160400192915050565b6020808252602c9082015260008051602061327283398151915260408201526b19195b1959d85d1958d85b1b60a21b606082015260800190565b6020808252602c9082015260008051602061327283398151915260408201526b6163746976652070726f787960a01b606082015260800190565b6020808252602e908201527f496e697469616c697a61626c653a20636f6e747261637420697320616c72656160408201526d191e481a5b9a5d1a585b1a5e995960921b606082015260800190565b6020808252601b908201527a105d58dd1a5bdb881a185cc8185b1c9958591e481cdd185c9d1959602a1b604082015260600190565b602080825260159082015274105d58dd1a5bdb88191bd95cdb89dd08195e1a5cdd605a1b604082015260600190565b6020808252601f908201527f5265656e7472616e637947756172643a207265656e7472616e742063616c6c00604082015260600190565b6000821982111561318457613184613222565b500190565b6000826131a457634e487b7160e01b81526012600452602481fd5b500490565b60008160001904831182151516156131c3576131c3613222565b500290565b6000828210156131da576131da613222565b500390565b60005b838110156131fa5781810151838201526020016131e2565b838111156129835750506000910152565b60008161321a5761321a613222565b506000190190565b634e487b7160e01b600052601160045260246000fd5b634e487b7160e01b600052604160045260246000fd5b6001600160a01b038116811461068057600080fd5b801515811461068057600080fdfe46756e6374696f6e206d7573742062652063616c6c6564207468726f75676820189ab7a9244df0848122154315af71fe140f3db0fe014031783b0946b8c9d2e3360894a13ba1a3210667c828492db98dca3e2076cc3735a920a3ca505d382bbc416464726573733a206c6f772d6c6576656c2064656c65676174652063616c6c206661696c6564a2646970667358221220772c93f5264ffa9e96db27cad88f24796b78d5b54c40c3e27a056c14a614a63164736f6c63430008040033",
  "linkReferences": {},
  "deployedLinkReferences": {}
}