{
  "_format": "hh-sol-artifact-1",
  "contractName": "KaoDao",
  "sourceName": "contracts/KaoDao.sol",
  "abi": [
    {
      "inputs": [
        {
          "internalType": "contract ERC20Votes",
          "name": "_token",
          "type": "address"
        }
      ],
      "stateMutability": "nonpayable",
      "type": "constructor"
    },
    {
      "anonymous": false,
      "inputs": [
        {
          "indexed": false,
          "internalType": "uint256",
          "name": "proposalId",
          "type": "uint256"
        }
      ],
      "name": "ProposalCanceled",
      "type": "event"
    },
    {
      "anonymous": false,
      "inputs": [
        {
          "indexed": false,
          "internalType": "uint256",
          "name": "proposalId",
          "type": "uint256"
        },
        {
          "indexed": false,
          "internalType": "address",
          "name": "proposer",
          "type": "address"
        },
        {
          "indexed": false,
          "internalType": "address[]",
          "name": "targets",
          "type": "address[]"
        },
        {
          "indexed": false,
          "internalType": "uint256[]",
          "name": "values",
          "type": "uint256[]"
        },
        {
          "indexed": false,
          "internalType": "string[]",
          "name": "signatures",
          "type": "string[]"
        },
        {
          "indexed": false,
          "internalType": "bytes[]",
          "name": "calldatas",
          "type": "bytes[]"
        },
        {
          "indexed": false,
          "internalType": "uint256",
          "name": "startBlock",
          "type": "uint256"
        },
        {
          "indexed": false,
          "internalType": "uint256",
          "name": "endBlock",
          "type": "uint256"
        },
        {
          "indexed": false,
          "internalType": "string",
          "name": "description",
          "type": "string"
        }
      ],
      "name": "ProposalCreated",
      "type": "event"
    },
    {
      "anonymous": false,
      "inputs": [
        {
          "indexed": false,
          "internalType": "uint256",
          "name": "proposalId",
          "type": "uint256"
        }
      ],
      "name": "ProposalExecuted",
      "type": "event"
    },
    {
      "anonymous": false,
      "inputs": [
        {
          "indexed": false,
          "internalType": "uint256",
          "name": "oldQuorumNumerator",
          "type": "uint256"
        },
        {
          "indexed": false,
          "internalType": "uint256",
          "name": "newQuorumNumerator",
          "type": "uint256"
        }
      ],
      "name": "QuorumNumeratorUpdated",
      "type": "event"
    },
    {
      "anonymous": false,
      "inputs": [
        {
          "indexed": true,
          "internalType": "address",
          "name": "voter",
          "type": "address"
        },
        {
          "indexed": false,
          "internalType": "uint256",
          "name": "proposalId",
          "type": "uint256"
        },
        {
          "indexed": false,
          "internalType": "uint8",
          "name": "support",
          "type": "uint8"
        },
        {
          "indexed": false,
          "internalType": "uint256",
          "name": "weight",
          "type": "uint256"
        },
        {
          "indexed": false,
          "internalType": "string",
          "name": "reason",
          "type": "string"
        }
      ],
      "name": "VoteCast",
      "type": "event"
    },
    {
      "inputs": [],
      "name": "BALLOT_TYPEHASH",
      "outputs": [
        {
          "internalType": "bytes32",
          "name": "",
          "type": "bytes32"
        }
      ],
      "stateMutability": "view",
      "type": "function"
    },
    {
      "inputs": [],
      "name": "COUNTING_MODE",
      "outputs": [
        {
          "internalType": "string",
          "name": "",
          "type": "string"
        }
      ],
      "stateMutability": "pure",
      "type": "function"
    },
    {
      "inputs": [
        {
          "internalType": "uint256",
          "name": "proposalId",
          "type": "uint256"
        },
        {
          "internalType": "uint8",
          "name": "support",
          "type": "uint8"
        }
      ],
      "name": "castVote",
      "outputs": [
        {
          "internalType": "uint256",
          "name": "",
          "type": "uint256"
        }
      ],
      "stateMutability": "nonpayable",
      "type": "function"
    },
    {
      "inputs": [
        {
          "internalType": "uint256",
          "name": "proposalId",
          "type": "uint256"
        },
        {
          "internalType": "uint8",
          "name": "support",
          "type": "uint8"
        },
        {
          "internalType": "uint8",
          "name": "v",
          "type": "uint8"
        },
        {
          "internalType": "bytes32",
          "name": "r",
          "type": "bytes32"
        },
        {
          "internalType": "bytes32",
          "name": "s",
          "type": "bytes32"
        }
      ],
      "name": "castVoteBySig",
      "outputs": [
        {
          "internalType": "uint256",
          "name": "",
          "type": "uint256"
        }
      ],
      "stateMutability": "nonpayable",
      "type": "function"
    },
    {
      "inputs": [
        {
          "internalType": "uint256",
          "name": "proposalId",
          "type": "uint256"
        },
        {
          "internalType": "uint8",
          "name": "support",
          "type": "uint8"
        },
        {
          "internalType": "string",
          "name": "reason",
          "type": "string"
        }
      ],
      "name": "castVoteWithReason",
      "outputs": [
        {
          "internalType": "uint256",
          "name": "",
          "type": "uint256"
        }
      ],
      "stateMutability": "nonpayable",
      "type": "function"
    },
    {
      "inputs": [
        {
          "internalType": "address[]",
          "name": "targets",
          "type": "address[]"
        },
        {
          "internalType": "uint256[]",
          "name": "values",
          "type": "uint256[]"
        },
        {
          "internalType": "bytes[]",
          "name": "calldatas",
          "type": "bytes[]"
        },
        {
          "internalType": "bytes32",
          "name": "descriptionHash",
          "type": "bytes32"
        }
      ],
      "name": "execute",
      "outputs": [
        {
          "internalType": "uint256",
          "name": "",
          "type": "uint256"
        }
      ],
      "stateMutability": "payable",
      "type": "function"
    },
    {
      "inputs": [
        {
          "internalType": "address",
          "name": "account",
          "type": "address"
        },
        {
          "internalType": "uint256",
          "name": "blockNumber",
          "type": "uint256"
        }
      ],
      "name": "getVotes",
      "outputs": [
        {
          "internalType": "uint256",
          "name": "",
          "type": "uint256"
        }
      ],
      "stateMutability": "view",
      "type": "function"
    },
    {
      "inputs": [
        {
          "internalType": "uint256",
          "name": "proposalId",
          "type": "uint256"
        },
        {
          "internalType": "address",
          "name": "account",
          "type": "address"
        }
      ],
      "name": "hasVoted",
      "outputs": [
        {
          "internalType": "bool",
          "name": "",
          "type": "bool"
        }
      ],
      "stateMutability": "view",
      "type": "function"
    },
    {
      "inputs": [
        {
          "internalType": "address[]",
          "name": "targets",
          "type": "address[]"
        },
        {
          "internalType": "uint256[]",
          "name": "values",
          "type": "uint256[]"
        },
        {
          "internalType": "bytes[]",
          "name": "calldatas",
          "type": "bytes[]"
        },
        {
          "internalType": "bytes32",
          "name": "descriptionHash",
          "type": "bytes32"
        }
      ],
      "name": "hashProposal",
      "outputs": [
        {
          "internalType": "uint256",
          "name": "",
          "type": "uint256"
        }
      ],
      "stateMutability": "pure",
      "type": "function"
    },
    {
      "inputs": [],
      "name": "name",
      "outputs": [
        {
          "internalType": "string",
          "name": "",
          "type": "string"
        }
      ],
      "stateMutability": "view",
      "type": "function"
    },
    {
      "inputs": [
        {
          "internalType": "uint256",
          "name": "proposalId",
          "type": "uint256"
        }
      ],
      "name": "proposalDeadline",
      "outputs": [
        {
          "internalType": "uint256",
          "name": "",
          "type": "uint256"
        }
      ],
      "stateMutability": "view",
      "type": "function"
    },
    {
      "inputs": [
        {
          "internalType": "uint256",
          "name": "proposalId",
          "type": "uint256"
        }
      ],
      "name": "proposalSnapshot",
      "outputs": [
        {
          "internalType": "uint256",
          "name": "",
          "type": "uint256"
        }
      ],
      "stateMutability": "view",
      "type": "function"
    },
    {
      "inputs": [],
      "name": "proposalThreshold",
      "outputs": [
        {
          "internalType": "uint256",
          "name": "",
          "type": "uint256"
        }
      ],
      "stateMutability": "pure",
      "type": "function"
    },
    {
      "inputs": [
        {
          "internalType": "uint256",
          "name": "proposalId",
          "type": "uint256"
        }
      ],
      "name": "proposalVotes",
      "outputs": [
        {
          "internalType": "uint256",
          "name": "againstVotes",
          "type": "uint256"
        },
        {
          "internalType": "uint256",
          "name": "forVotes",
          "type": "uint256"
        },
        {
          "internalType": "uint256",
          "name": "abstainVotes",
          "type": "uint256"
        }
      ],
      "stateMutability": "view",
      "type": "function"
    },
    {
      "inputs": [
        {
          "internalType": "address[]",
          "name": "targets",
          "type": "address[]"
        },
        {
          "internalType": "uint256[]",
          "name": "values",
          "type": "uint256[]"
        },
        {
          "internalType": "bytes[]",
          "name": "calldatas",
          "type": "bytes[]"
        },
        {
          "internalType": "string",
          "name": "description",
          "type": "string"
        }
      ],
      "name": "propose",
      "outputs": [
        {
          "internalType": "uint256",
          "name": "",
          "type": "uint256"
        }
      ],
      "stateMutability": "nonpayable",
      "type": "function"
    },
    {
      "inputs": [
        {
          "internalType": "uint256",
          "name": "blockNumber",
          "type": "uint256"
        }
      ],
      "name": "quorum",
      "outputs": [
        {
          "internalType": "uint256",
          "name": "",
          "type": "uint256"
        }
      ],
      "stateMutability": "view",
      "type": "function"
    },
    {
      "inputs": [],
      "name": "quorumDenominator",
      "outputs": [
        {
          "internalType": "uint256",
          "name": "",
          "type": "uint256"
        }
      ],
      "stateMutability": "view",
      "type": "function"
    },
    {
      "inputs": [],
      "name": "quorumNumerator",
      "outputs": [
        {
          "internalType": "uint256",
          "name": "",
          "type": "uint256"
        }
      ],
      "stateMutability": "view",
      "type": "function"
    },
    {
      "inputs": [
        {
          "internalType": "uint256",
          "name": "proposalId",
          "type": "uint256"
        }
      ],
      "name": "state",
      "outputs": [
        {
          "internalType": "enum IGovernor.ProposalState",
          "name": "",
          "type": "uint8"
        }
      ],
      "stateMutability": "view",
      "type": "function"
    },
    {
      "inputs": [
        {
          "internalType": "bytes4",
          "name": "interfaceId",
          "type": "bytes4"
        }
      ],
      "name": "supportsInterface",
      "outputs": [
        {
          "internalType": "bool",
          "name": "",
          "type": "bool"
        }
      ],
      "stateMutability": "view",
      "type": "function"
    },
    {
      "inputs": [],
      "name": "token",
      "outputs": [
        {
          "internalType": "contract ERC20Votes",
          "name": "",
          "type": "address"
        }
      ],
      "stateMutability": "view",
      "type": "function"
    },
    {
      "inputs": [
        {
          "internalType": "uint256",
          "name": "newQuorumNumerator",
          "type": "uint256"
        }
      ],
      "name": "updateQuorumNumerator",
      "outputs": [],
      "stateMutability": "nonpayable",
      "type": "function"
    },
    {
      "inputs": [],
      "name": "version",
      "outputs": [
        {
          "internalType": "string",
          "name": "",
          "type": "string"
        }
      ],
      "stateMutability": "view",
      "type": "function"
    },
    {
      "inputs": [],
      "name": "votingDelay",
      "outputs": [
        {
          "internalType": "uint256",
          "name": "",
          "type": "uint256"
        }
      ],
      "stateMutability": "pure",
      "type": "function"
    },
    {
      "inputs": [],
      "name": "votingPeriod",
      "outputs": [
        {
          "internalType": "uint256",
          "name": "",
          "type": "uint256"
        }
      ],
      "stateMutability": "pure",
      "type": "function"
    }
  ],
  "bytecode": "0x6101406040523480156200001257600080fd5b50604051620047c9380380620047c9833981810160405281019062000038919062000356565b6005816040518060400160405280600681526020017f4b616f44616f000000000000000000000000000000000000000000000000000081525080620000826200016b60201b60201c565b60008280519060200120905060008280519060200120905060007f8b73c3c69bb8fe3d512ecc4cf759cc79239f7b179b0ffacaa9a75d522b39400f90508260c081815250508160e081815250504660a08181525050620000ea818484620001a860201b60201c565b6080818152505080610100818152505050505050508060009080519060200190620001179291906200028f565b50508073ffffffffffffffffffffffffffffffffffffffff166101208173ffffffffffffffffffffffffffffffffffffffff1660601b81525050506200016381620001e460201b60201c565b5050620005e9565b60606040518060400160405280600181526020017f3100000000000000000000000000000000000000000000000000000000000000815250905090565b60008383834630604051602001620001c5959493929190620003dc565b6040516020818303038152906040528051906020012090509392505050565b620001f46200028660201b60201c565b81111562000239576040517f08c379a0000000000000000000000000000000000000000000000000000000008152600401620002309062000439565b60405180910390fd5b60006003549050816003819055507f0553476bf02ef2726e8ce5ced78d63e26e602e4a2257b1f559418e24b463399781836040516200027a9291906200045b565b60405180910390a15050565b60006064905090565b8280546200029d90620004f5565b90600052602060002090601f016020900481019282620002c157600085556200030d565b82601f10620002dc57805160ff19168380011785556200030d565b828001600101855582156200030d579182015b828111156200030c578251825591602001919060010190620002ef565b5b5090506200031c919062000320565b5090565b5b808211156200033b57600081600090555060010162000321565b5090565b6000815190506200035081620005cf565b92915050565b6000602082840312156200036957600080fd5b600062000379848285016200033f565b91505092915050565b6200038d8162000499565b82525050565b6200039e81620004ad565b82525050565b6000620003b360438362000488565b9150620003c0826200055a565b606082019050919050565b620003d681620004eb565b82525050565b600060a082019050620003f3600083018862000393565b62000402602083018762000393565b62000411604083018662000393565b620004206060830185620003cb565b6200042f608083018462000382565b9695505050505050565b600060208201905081810360008301526200045481620003a4565b9050919050565b6000604082019050620004726000830185620003cb565b620004816020830184620003cb565b9392505050565b600082825260208201905092915050565b6000620004a682620004cb565b9050919050565b6000819050919050565b6000620004c48262000499565b9050919050565b600073ffffffffffffffffffffffffffffffffffffffff82169050919050565b6000819050919050565b600060028204905060018216806200050e57607f821691505b602082108114156200052557620005246200052b565b5b50919050565b7f4e487b7100000000000000000000000000000000000000000000000000000000600052602260045260246000fd5b7f476f7665726e6f72566f74657351756f72756d4672616374696f6e3a2071756f60008201527f72756d4e756d657261746f72206f7665722071756f72756d44656e6f6d696e6160208201527f746f720000000000000000000000000000000000000000000000000000000000604082015250565b620005da81620004b7565b8114620005e657600080fd5b50565b60805160a05160c05160e051610100516101205160601c61417f6200064a60003960008181610fa60152818161157e0152611643015260006117c301526000611805015260006117e40152600061177001526000611798015261417f6000f3fe6080604052600436106101665760003560e01c806356781388116100d1578063c01f9e371161008a578063deaaa7cc11610064578063deaaa7cc146105bd578063eb9019d4146105e8578063f8ce560a14610625578063fc0c546a1461066257610166565b8063c01f9e3714610518578063c59057e414610555578063dd4e2ba51461059257610166565b806356781388146103e05780637b3c71d31461041d5780637d5e81e21461045a57806397c3d33414610497578063a7713a70146104c2578063b58131b0146104ed57610166565b80633932abb1116101235780633932abb1146102945780633bccf4fd146102bf5780633e4f49e6146102fc5780634385963214610339578063544ffc9c1461037657806354fd4d50146103b557610166565b806301ffc9a71461016b57806302a251a3146101a857806306f3f9e6146101d357806306fdde03146101fc5780632656227d146102275780632d63f69314610257575b600080fd5b34801561017757600080fd5b50610192600480360381019061018d9190612810565b61068d565b60405161019f9190613091565b60405180910390f35b3480156101b457600080fd5b506101bd610707565b6040516101ca91906133ee565b60405180910390f35b3480156101df57600080fd5b506101fa60048036038101906101f59190612839565b610711565b005b34801561020857600080fd5b50610211610799565b60405161021e91906131cc565b60405180910390f35b610241600480360381019061023c91906126a2565b61082b565b60405161024e91906133ee565b60405180910390f35b34801561026357600080fd5b5061027e60048036038101906102799190612839565b6109f6565b60405161028b91906133ee565b60405180910390f35b3480156102a057600080fd5b506102a9610a64565b6040516102b691906133ee565b60405180910390f35b3480156102cb57600080fd5b506102e660048036038101906102e1919061296f565b610a6e565b6040516102f391906133ee565b60405180910390f35b34801561030857600080fd5b50610323600480360381019061031e9190612839565b610af8565b60405161033091906131b1565b60405180910390f35b34801561034557600080fd5b50610360600480360381019061035b919061288b565b610cbf565b60405161036d9190613091565b60405180910390f35b34801561038257600080fd5b5061039d60048036038101906103989190612839565b610d2a565b6040516103ac939291906134e2565b60405180910390f35b3480156103c157600080fd5b506103ca610d62565b6040516103d791906131cc565b60405180910390f35b3480156103ec57600080fd5b50610407600480360381019061040291906128c7565b610d9f565b60405161041491906133ee565b60405180910390f35b34801561042957600080fd5b50610444600480360381019061043f9190612903565b610dd0565b60405161045191906133ee565b60405180910390f35b34801561046657600080fd5b50610481600480360381019061047c919061274d565b610e38565b60405161048e91906133ee565b60405180910390f35b3480156104a357600080fd5b506104ac610e50565b6040516104b991906133ee565b60405180910390f35b3480156104ce57600080fd5b506104d7610e59565b6040516104e491906133ee565b60405180910390f35b3480156104f957600080fd5b50610502610e63565b60405161050f91906133ee565b60405180910390f35b34801561052457600080fd5b5061053f600480360381019061053a9190612839565b610e73565b60405161054c91906133ee565b60405180910390f35b34801561056157600080fd5b5061057c600480360381019061057791906126a2565b610ee1565b60405161058991906133ee565b60405180910390f35b34801561059e57600080fd5b506105a7610f1d565b6040516105b491906131cc565b60405180910390f35b3480156105c957600080fd5b506105d2610f5a565b6040516105df91906130ac565b60405180910390f35b3480156105f457600080fd5b5061060f600480360381019061060a9190612666565b610f7e565b60405161061c91906133ee565b60405180910390f35b34801561063157600080fd5b5061064c60048036038101906106479190612839565b610f92565b60405161065991906133ee565b60405180910390f35b34801561066e57600080fd5b50610677610fa4565b6040516106849190613196565b60405180910390f35b60007fbf26d897000000000000000000000000000000000000000000000000000000007bffffffffffffffffffffffffffffffffffffffffffffffffffffffff1916827bffffffffffffffffffffffffffffffffffffffffffffffffffffffff1916148061070057506106ff82610fc8565b5b9050919050565b600061b2fa905090565b610719611032565b73ffffffffffffffffffffffffffffffffffffffff1661073761103a565b73ffffffffffffffffffffffffffffffffffffffff161461078d576040517f08c379a00000000000000000000000000000000000000000000000000000000081526004016107849061320e565b60405180910390fd5b61079681611042565b50565b6060600080546107a890613a42565b80601f01602080910402602001604051908101604052809291908181526020018280546107d490613a42565b80156108215780601f106107f657610100808354040283529160200191610821565b820191906000526020600020905b81548152906001019060200180831161080457829003601f168201915b5050505050905090565b60008061083a86868686610ee1565b9050600061084782610af8565b905060046007811115610883577f4e487b7100000000000000000000000000000000000000000000000000000000600052602160045260246000fd5b8160078111156108bc577f4e487b7100000000000000000000000000000000000000000000000000000000600052602160045260246000fd5b14806109385750600560078111156108fd577f4e487b7100000000000000000000000000000000000000000000000000000000600052602160045260246000fd5b816007811115610936577f4e487b7100000000000000000000000000000000000000000000000000000000600052602160045260246000fd5b145b610977576040517f08c379a000000000000000000000000000000000000000000000000000000000815260040161096e9061336e565b60405180910390fd5b600180600084815260200190815260200160002060020160006101000a81548160ff0219169083151502179055507f712ae1383f79ac853f8d882153778e0260ef8f03b504e2866e0593e04d2b291f826040516109d491906133ee565b60405180910390a16109e982888888886110d7565b8192505050949350505050565b6000610a53600160008481526020019081526020016000206000016040518060200160405290816000820160009054906101000a900467ffffffffffffffff1667ffffffffffffffff1667ffffffffffffffff1681525050611258565b67ffffffffffffffff169050919050565b6000610111905090565b600080610acf610ac77f150214d74d59b7d1e90c73fc22ef3d991dd0a76b046543d4d80ab92d2a50328f8989604051602001610aac9392919061311a565b60405160208183030381529060405280519060200120611266565b868686611280565b9050610aec878288604051806020016040528060008152506112ab565b91505095945050505050565b60008060016000848152602001908152602001600020604051806080016040529081600082016040518060200160405290816000820160009054906101000a900467ffffffffffffffff1667ffffffffffffffff1667ffffffffffffffff16815250508152602001600182016040518060200160405290816000820160009054906101000a900467ffffffffffffffff1667ffffffffffffffff1667ffffffffffffffff168152505081526020016002820160009054906101000a900460ff161515151581526020016002820160019054906101000a900460ff1615151515815250509050806040015115610bf1576007915050610cba565b806060015115610c05576002915050610cba565b610c12816000015161144b565b15610c21576000915050610cba565b610c2e816020015161144b565b15610c3d576001915050610cba565b610c4a8160200151611465565b15610c7f57610c5883611491565b8015610c695750610c68836114d8565b5b610c74576003610c77565b60045b915050610cba565b6040517f08c379a0000000000000000000000000000000000000000000000000000000008152600401610cb19061338e565b60405180910390fd5b919050565b60006002600084815260200190815260200160002060030160008373ffffffffffffffffffffffffffffffffffffffff1673ffffffffffffffffffffffffffffffffffffffff16815260200190815260200160002060009054906101000a900460ff16905092915050565b600080600080600260008681526020019081526020016000209050806000015481600101548260020154935093509350509193909250565b60606040518060400160405280600181526020017f3100000000000000000000000000000000000000000000000000000000000000815250905090565b600080610daa61103a565b9050610dc7848285604051806020016040528060008152506112ab565b91505092915050565b600080610ddb61103a565b9050610e2d86828787878080601f016020809104026020016040519081016040528093929190818152602001838380828437600081840152601f19601f820116905080830192505050505050506112ab565b915050949350505050565b6000610e4685858585611503565b9050949350505050565b60006064905090565b6000600354905090565b6000678ac7230489e80000905090565b6000610ed0600160008481526020019081526020016000206001016040518060200160405290816000820160009054906101000a900467ffffffffffffffff1667ffffffffffffffff1667ffffffffffffffff1681525050611258565b67ffffffffffffffff169050919050565b600084848484604051602001610efa9493929190613037565b6040516020818303038152906040528051906020012060001c9050949350505050565b60606040518060400160405280602081526020017f737570706f72743d627261766f2671756f72756d3d666f722c6162737461696e815250905090565b7f150214d74d59b7d1e90c73fc22ef3d991dd0a76b046543d4d80ab92d2a50328f81565b6000610f8a838361157a565b905092915050565b6000610f9d8261162f565b9050919050565b7f000000000000000000000000000000000000000000000000000000000000000081565b60007f01ffc9a7000000000000000000000000000000000000000000000000000000007bffffffffffffffffffffffffffffffffffffffffffffffffffffffff1916827bffffffffffffffffffffffffffffffffffffffffffffffffffffffff1916149050919050565b600030905090565b600033905090565b61104a610e50565b81111561108c576040517f08c379a00000000000000000000000000000000000000000000000000000000081526004016110839061322e565b60405180910390fd5b60006003549050816003819055507f0553476bf02ef2726e8ce5ced78d63e26e602e4a2257b1f559418e24b463399781836040516110cb9291906134b9565b60405180910390a15050565b600060405180606001604052806027815260200161412360279139905060005b855181101561124f5760008087838151811061113c577f4e487b7100000000000000000000000000000000000000000000000000000000600052603260045260246000fd5b602002602001015173ffffffffffffffffffffffffffffffffffffffff16878481518110611193577f4e487b7100000000000000000000000000000000000000000000000000000000600052603260045260246000fd5b60200260200101518785815181106111d4577f4e487b7100000000000000000000000000000000000000000000000000000000600052603260045260246000fd5b60200260200101516040516111e99190612fc0565b60006040518083038185875af1925050503d8060008114611226576040519150601f19603f3d011682016040523d82523d6000602084013e61122b565b606091505b509150915061123b828286611705565b5050508061124890613aa5565b90506110f7565b50505050505050565b600081600001519050919050565b600061127961127361176c565b8361182f565b9050919050565b600080600061129187878787611862565b9150915061129e8161196f565b8192505050949350505050565b600080600160008781526020019081526020016000209050600160078111156112fd577f4e487b7100000000000000000000000000000000000000000000000000000000600052602160045260246000fd5b61130687610af8565b600781111561133e577f4e487b7100000000000000000000000000000000000000000000000000000000600052602160045260246000fd5b1461137e576040517f08c379a0000000000000000000000000000000000000000000000000000000008152600401611375906132ee565b60405180910390fd5b60006113dc866113cd846000016040518060200160405290816000820160009054906101000a900467ffffffffffffffff1667ffffffffffffffff1667ffffffffffffffff1681525050611258565b67ffffffffffffffff16610f7e565b90506113ea87878784611cc0565b8573ffffffffffffffffffffffffffffffffffffffff167fb8e138887d0aa13bab447e82de9d5c1777041ecd21ca36ba824ff1e6c07ddda4888784886040516114369493929190613519565b60405180910390a28092505050949350505050565b600043826000015167ffffffffffffffff16119050919050565b600061147082611f38565b801561148a575043826000015167ffffffffffffffff1611155b9050919050565b600080600260008481526020019081526020016000209050806002015481600101546114bd91906137b3565b6114ce6114c9856109f6565b610f92565b1115915050919050565b6000806002600084815260200190815260200160002090508060000154816001015411915050919050565b600061150d610e63565b6115233360014361151e91906138d2565b610f7e565b1015611564576040517f08c379a000000000000000000000000000000000000000000000000000000000815260040161155b9061324e565b60405180910390fd5b61157085858585611f52565b9050949350505050565b60007f000000000000000000000000000000000000000000000000000000000000000073ffffffffffffffffffffffffffffffffffffffff16633a46b1a884846040518363ffffffff1660e01b81526004016115d792919061300e565b60206040518083038186803b1580156115ef57600080fd5b505afa158015611603573d6000803e3d6000fd5b505050506040513d601f19601f820116820180604052508101906116279190612862565b905092915050565b6000611639610e50565b611641610e59565b7f000000000000000000000000000000000000000000000000000000000000000073ffffffffffffffffffffffffffffffffffffffff16638e539e8c856040518263ffffffff1660e01b815260040161169a91906133ee565b60206040518083038186803b1580156116b257600080fd5b505afa1580156116c6573d6000803e3d6000fd5b505050506040513d601f19601f820116820180604052508101906116ea9190612862565b6116f49190613878565b6116fe9190613847565b9050919050565b6060831561171557829050611765565b6000835111156117285782518084602001fd5b816040517f08c379a000000000000000000000000000000000000000000000000000000000815260040161175c91906131cc565b60405180910390fd5b9392505050565b60007f00000000000000000000000000000000000000000000000000000000000000004614156117be577f0000000000000000000000000000000000000000000000000000000000000000905061182c565b6118297f00000000000000000000000000000000000000000000000000000000000000007f00000000000000000000000000000000000000000000000000000000000000007f0000000000000000000000000000000000000000000000000000000000000000612218565b90505b90565b60008282604051602001611844929190612fd7565b60405160208183030381529060405280519060200120905092915050565b6000807f7fffffffffffffffffffffffffffffff5d576e7357a4501ddfe92f46681b20a08360001c111561189d576000600391509150611966565b601b8560ff16141580156118b55750601c8560ff1614155b156118c7576000600491509150611966565b6000600187878787604051600081526020016040526040516118ec9493929190613151565b6020604051602081039080840390855afa15801561190e573d6000803e3d6000fd5b505050602060405103519050600073ffffffffffffffffffffffffffffffffffffffff168173ffffffffffffffffffffffffffffffffffffffff16141561195d57600060019250925050611966565b80600092509250505b94509492505050565b600060048111156119a9577f4e487b7100000000000000000000000000000000000000000000000000000000600052602160045260246000fd5b8160048111156119e2577f4e487b7100000000000000000000000000000000000000000000000000000000600052602160045260246000fd5b14156119ed57611cbd565b60016004811115611a27577f4e487b7100000000000000000000000000000000000000000000000000000000600052602160045260246000fd5b816004811115611a60577f4e487b7100000000000000000000000000000000000000000000000000000000600052602160045260246000fd5b1415611aa1576040517f08c379a0000000000000000000000000000000000000000000000000000000008152600401611a98906131ee565b60405180910390fd5b60026004811115611adb577f4e487b7100000000000000000000000000000000000000000000000000000000600052602160045260246000fd5b816004811115611b14577f4e487b7100000000000000000000000000000000000000000000000000000000600052602160045260246000fd5b1415611b55576040517f08c379a0000000000000000000000000000000000000000000000000000000008152600401611b4c9061326e565b60405180910390fd5b60036004811115611b8f577f4e487b7100000000000000000000000000000000000000000000000000000000600052602160045260246000fd5b816004811115611bc8577f4e487b7100000000000000000000000000000000000000000000000000000000600052602160045260246000fd5b1415611c09576040517f08c379a0000000000000000000000000000000000000000000000000000000008152600401611c00906132ae565b60405180910390fd5b600480811115611c42577f4e487b7100000000000000000000000000000000000000000000000000000000600052602160045260246000fd5b816004811115611c7b577f4e487b7100000000000000000000000000000000000000000000000000000000600052602160045260246000fd5b1415611cbc576040517f08c379a0000000000000000000000000000000000000000000000000000000008152600401611cb39061332e565b60405180910390fd5b5b50565b60006002600086815260200190815260200160002090508060030160008573ffffffffffffffffffffffffffffffffffffffff1673ffffffffffffffffffffffffffffffffffffffff16815260200190815260200160002060009054906101000a900460ff1615611d66576040517f08c379a0000000000000000000000000000000000000000000000000000000008152600401611d5d906132ce565b60405180910390fd5b60018160030160008673ffffffffffffffffffffffffffffffffffffffff1673ffffffffffffffffffffffffffffffffffffffff16815260200190815260200160002060006101000a81548160ff02191690831515021790555060006002811115611dfa577f4e487b7100000000000000000000000000000000000000000000000000000000600052602160045260246000fd5b60ff168360ff161415611e275781816000016000828254611e1b91906137b3565b92505081905550611f31565b60016002811115611e61577f4e487b7100000000000000000000000000000000000000000000000000000000600052602160045260246000fd5b60ff168360ff161415611e8e5781816001016000828254611e8291906137b3565b92505081905550611f30565b600280811115611ec7577f4e487b7100000000000000000000000000000000000000000000000000000000600052602160045260246000fd5b60ff168360ff161415611ef45781816002016000828254611ee891906137b3565b92505081905550611f2f565b6040517f08c379a0000000000000000000000000000000000000000000000000000000008152600401611f26906133ae565b60405180910390fd5b5b5b5050505050565b600080826000015167ffffffffffffffff16119050919050565b600080611f688686868680519060200120610ee1565b90508451865114611fae576040517f08c379a0000000000000000000000000000000000000000000000000000000008152600401611fa59061328e565b60405180910390fd5b8351865114611ff2576040517f08c379a0000000000000000000000000000000000000000000000000000000008152600401611fe99061328e565b60405180910390fd5b6000865111612036576040517f08c379a000000000000000000000000000000000000000000000000000000000815260040161202d9061330e565b60405180910390fd5b6000600160008381526020019081526020016000209050612096816000016040518060200160405290816000820160009054906101000a900467ffffffffffffffff1667ffffffffffffffff1667ffffffffffffffff1681525050612252565b6120d5576040517f08c379a00000000000000000000000000000000000000000000000000000000081526004016120cc906133ce565b60405180910390fd5b60006120e76120e2610a64565b61226c565b6120f04361226c565b6120fa9190613809565b9050600061210e612109610707565b61226c565b826121199190613809565b905061213182846000016122c390919063ffffffff16565b61214781846001016122c390919063ffffffff16565b7f7d84a6263ae0d98d3329bd7b46bb4e8d6f98cd35a7adb45c274c8b7fd5ebd5e08461217161103a565b8b8b8d5167ffffffffffffffff8111156121b4577f4e487b7100000000000000000000000000000000000000000000000000000000600052604160045260246000fd5b6040519080825280602002602001820160405280156121e757816020015b60608152602001906001900390816121d25790505b508c88888e60405161220199989796959493929190613409565b60405180910390a183945050505050949350505050565b600083838346306040516020016122339594939291906130c7565b6040516020818303038152906040528051906020012090509392505050565b600080826000015167ffffffffffffffff16149050919050565b600067ffffffffffffffff80168211156122bb576040517f08c379a00000000000000000000000000000000000000000000000000000000081526004016122b29061334e565b60405180910390fd5b819050919050565b808260000160006101000a81548167ffffffffffffffff021916908367ffffffffffffffff1602179055505050565b60006123056123008461358a565b613565565b9050808382526020820190508285602086028201111561232457600080fd5b60005b85811015612354578161233a88826124cc565b845260208401935060208301925050600181019050612327565b5050509392505050565b600061237161236c846135b6565b613565565b9050808382526020820190508285602086028201111561239057600080fd5b60005b858110156123da57813567ffffffffffffffff8111156123b257600080fd5b8086016123bf8982612589565b85526020850194506020840193505050600181019050612393565b5050509392505050565b60006123f76123f2846135e2565b613565565b9050808382526020820190508285602086028201111561241657600080fd5b60005b85811015612446578161242c8882612627565b845260208401935060208301925050600181019050612419565b5050509392505050565b600061246361245e8461360e565b613565565b90508281526020810184848401111561247b57600080fd5b612486848285613a00565b509392505050565b60006124a161249c8461363f565b613565565b9050828152602081018484840111156124b957600080fd5b6124c4848285613a00565b509392505050565b6000813590506124db816140af565b92915050565b600082601f8301126124f257600080fd5b81356125028482602086016122f2565b91505092915050565b600082601f83011261251c57600080fd5b813561252c84826020860161235e565b91505092915050565b600082601f83011261254657600080fd5b81356125568482602086016123e4565b91505092915050565b60008135905061256e816140c6565b92915050565b600081359050612583816140dd565b92915050565b600082601f83011261259a57600080fd5b81356125aa848260208601612450565b91505092915050565b60008083601f8401126125c557600080fd5b8235905067ffffffffffffffff8111156125de57600080fd5b6020830191508360018202830111156125f657600080fd5b9250929050565b600082601f83011261260e57600080fd5b813561261e84826020860161248e565b91505092915050565b600081359050612636816140f4565b92915050565b60008151905061264b816140f4565b92915050565b6000813590506126608161410b565b92915050565b6000806040838503121561267957600080fd5b6000612687858286016124cc565b925050602061269885828601612627565b9150509250929050565b600080600080608085870312156126b857600080fd5b600085013567ffffffffffffffff8111156126d257600080fd5b6126de878288016124e1565b945050602085013567ffffffffffffffff8111156126fb57600080fd5b61270787828801612535565b935050604085013567ffffffffffffffff81111561272457600080fd5b6127308782880161250b565b92505060606127418782880161255f565b91505092959194509250565b6000806000806080858703121561276357600080fd5b600085013567ffffffffffffffff81111561277d57600080fd5b612789878288016124e1565b945050602085013567ffffffffffffffff8111156127a657600080fd5b6127b287828801612535565b935050604085013567ffffffffffffffff8111156127cf57600080fd5b6127db8782880161250b565b925050606085013567ffffffffffffffff8111156127f857600080fd5b612804878288016125fd565b91505092959194509250565b60006020828403121561282257600080fd5b600061283084828501612574565b91505092915050565b60006020828403121561284b57600080fd5b600061285984828501612627565b91505092915050565b60006020828403121561287457600080fd5b60006128828482850161263c565b91505092915050565b6000806040838503121561289e57600080fd5b60006128ac85828601612627565b92505060206128bd858286016124cc565b9150509250929050565b600080604083850312156128da57600080fd5b60006128e885828601612627565b92505060206128f985828601612651565b9150509250929050565b6000806000806060858703121561291957600080fd5b600061292787828801612627565b945050602061293887828801612651565b935050604085013567ffffffffffffffff81111561295557600080fd5b612961878288016125b3565b925092505092959194509250565b600080600080600060a0868803121561298757600080fd5b600061299588828901612627565b95505060206129a688828901612651565b94505060406129b788828901612651565b93505060606129c88882890161255f565b92505060806129d98882890161255f565b9150509295509295909350565b60006129f28383612a3e565b60208301905092915050565b6000612a0a8383612c37565b905092915050565b6000612a1e8383612cbf565b905092915050565b6000612a328383612f84565b60208301905092915050565b612a4781613906565b82525050565b612a5681613906565b82525050565b6000612a67826136b0565b612a718185613726565b9350612a7c83613670565b8060005b83811015612aad578151612a9488826129e6565b9750612a9f836136f2565b925050600181019050612a80565b5085935050505092915050565b6000612ac5826136bb565b612acf8185613737565b935083602082028501612ae185613680565b8060005b85811015612b1d5784840389528151612afe85826129fe565b9450612b09836136ff565b925060208a01995050600181019050612ae5565b50829750879550505050505092915050565b6000612b3a826136c6565b612b448185613748565b935083602082028501612b5685613690565b8060005b85811015612b925784840389528151612b738582612a12565b9450612b7e8361370c565b925060208a01995050600181019050612b5a565b50829750879550505050505092915050565b6000612baf826136d1565b612bb98185613759565b9350612bc4836136a0565b8060005b83811015612bf5578151612bdc8882612a26565b9750612be783613719565b925050600181019050612bc8565b5085935050505092915050565b612c0b81613918565b82525050565b612c1a81613924565b82525050565b612c31612c2c82613924565b613aee565b82525050565b6000612c42826136dc565b612c4c818561376a565b9350612c5c818560208601613a0f565b612c6581613be3565b840191505092915050565b6000612c7b826136dc565b612c85818561377b565b9350612c95818560208601613a0f565b80840191505092915050565b612caa816139b8565b82525050565b612cb9816139dc565b82525050565b6000612cca826136e7565b612cd48185613786565b9350612ce4818560208601613a0f565b612ced81613be3565b840191505092915050565b6000612d03826136e7565b612d0d8185613797565b9350612d1d818560208601613a0f565b612d2681613be3565b840191505092915050565b6000612d3e601883613797565b9150612d4982613bf4565b602082019050919050565b6000612d61601883613797565b9150612d6c82613c1d565b602082019050919050565b6000612d84604383613797565b9150612d8f82613c46565b606082019050919050565b6000612da7604383613797565b9150612db282613cbb565b606082019050919050565b6000612dca601f83613797565b9150612dd582613d30565b602082019050919050565b6000612ded6002836137a8565b9150612df882613d59565b600282019050919050565b6000612e10602183613797565b9150612e1b82613d82565b604082019050919050565b6000612e33602283613797565b9150612e3e82613dd1565b604082019050919050565b6000612e56602783613797565b9150612e6182613e20565b604082019050919050565b6000612e79602383613797565b9150612e8482613e6f565b604082019050919050565b6000612e9c601883613797565b9150612ea782613ebe565b602082019050919050565b6000612ebf602283613797565b9150612eca82613ee7565b604082019050919050565b6000612ee2602683613797565b9150612eed82613f36565b604082019050919050565b6000612f05602183613797565b9150612f1082613f85565b604082019050919050565b6000612f28601d83613797565b9150612f3382613fd4565b602082019050919050565b6000612f4b603583613797565b9150612f5682613ffd565b604082019050919050565b6000612f6e602183613797565b9150612f798261404c565b604082019050919050565b612f8d8161398d565b82525050565b612f9c8161398d565b82525050565b612fab816139ee565b82525050565b612fba816139ab565b82525050565b6000612fcc8284612c70565b915081905092915050565b6000612fe282612de0565b9150612fee8285612c20565b602082019150612ffe8284612c20565b6020820191508190509392505050565b60006040820190506130236000830185612a4d565b6130306020830184612f93565b9392505050565b600060808201905081810360008301526130518187612a5c565b905081810360208301526130658186612ba4565b905081810360408301526130798185612aba565b90506130886060830184612c11565b95945050505050565b60006020820190506130a66000830184612c02565b92915050565b60006020820190506130c16000830184612c11565b92915050565b600060a0820190506130dc6000830188612c11565b6130e96020830187612c11565b6130f66040830186612c11565b6131036060830185612f93565b6131106080830184612a4d565b9695505050505050565b600060608201905061312f6000830186612c11565b61313c6020830185612f93565b6131496040830184612fb1565b949350505050565b60006080820190506131666000830187612c11565b6131736020830186612fb1565b6131806040830185612c11565b61318d6060830184612c11565b95945050505050565b60006020820190506131ab6000830184612ca1565b92915050565b60006020820190506131c66000830184612cb0565b92915050565b600060208201905081810360008301526131e68184612cf8565b905092915050565b6000602082019050818103600083015261320781612d31565b9050919050565b6000602082019050818103600083015261322781612d54565b9050919050565b6000602082019050818103600083015261324781612d77565b9050919050565b6000602082019050818103600083015261326781612d9a565b9050919050565b6000602082019050818103600083015261328781612dbd565b9050919050565b600060208201905081810360008301526132a781612e03565b9050919050565b600060208201905081810360008301526132c781612e26565b9050919050565b600060208201905081810360008301526132e781612e49565b9050919050565b6000602082019050818103600083015261330781612e6c565b9050919050565b6000602082019050818103600083015261332781612e8f565b9050919050565b6000602082019050818103600083015261334781612eb2565b9050919050565b6000602082019050818103600083015261336781612ed5565b9050919050565b6000602082019050818103600083015261338781612ef8565b9050919050565b600060208201905081810360008301526133a781612f1b565b9050919050565b600060208201905081810360008301526133c781612f3e565b9050919050565b600060208201905081810360008301526133e781612f61565b9050919050565b60006020820190506134036000830184612f93565b92915050565b60006101208201905061341f600083018c612f93565b61342c602083018b612a4d565b818103604083015261343e818a612a5c565b905081810360608301526134528189612ba4565b905081810360808301526134668188612b2f565b905081810360a083015261347a8187612aba565b905061348960c0830186612fa2565b61349660e0830185612fa2565b8181036101008301526134a98184612cf8565b90509a9950505050505050505050565b60006040820190506134ce6000830185612f93565b6134db6020830184612f93565b9392505050565b60006060820190506134f76000830186612f93565b6135046020830185612f93565b6135116040830184612f93565b949350505050565b600060808201905061352e6000830187612f93565b61353b6020830186612fb1565b6135486040830185612f93565b818103606083015261355a8184612cf8565b905095945050505050565b600061356f613580565b905061357b8282613a74565b919050565b6000604051905090565b600067ffffffffffffffff8211156135a5576135a4613bb4565b5b602082029050602081019050919050565b600067ffffffffffffffff8211156135d1576135d0613bb4565b5b602082029050602081019050919050565b600067ffffffffffffffff8211156135fd576135fc613bb4565b5b602082029050602081019050919050565b600067ffffffffffffffff82111561362957613628613bb4565b5b61363282613be3565b9050602081019050919050565b600067ffffffffffffffff82111561365a57613659613bb4565b5b61366382613be3565b9050602081019050919050565b6000819050602082019050919050565b6000819050602082019050919050565b6000819050602082019050919050565b6000819050602082019050919050565b600081519050919050565b600081519050919050565b600081519050919050565b600081519050919050565b600081519050919050565b600081519050919050565b6000602082019050919050565b6000602082019050919050565b6000602082019050919050565b6000602082019050919050565b600082825260208201905092915050565b600082825260208201905092915050565b600082825260208201905092915050565b600082825260208201905092915050565b600082825260208201905092915050565b600081905092915050565b600082825260208201905092915050565b600082825260208201905092915050565b600081905092915050565b60006137be8261398d565b91506137c98361398d565b9250827fffffffffffffffffffffffffffffffffffffffffffffffffffffffffffffffff038211156137fe576137fd613af8565b5b828201905092915050565b600061381482613997565b915061381f83613997565b92508267ffffffffffffffff0382111561383c5761383b613af8565b5b828201905092915050565b60006138528261398d565b915061385d8361398d565b92508261386d5761386c613b27565b5b828204905092915050565b60006138838261398d565b915061388e8361398d565b9250817fffffffffffffffffffffffffffffffffffffffffffffffffffffffffffffffff04831182151516156138c7576138c6613af8565b5b828202905092915050565b60006138dd8261398d565b91506138e88361398d565b9250828210156138fb576138fa613af8565b5b828203905092915050565b60006139118261396d565b9050919050565b60008115159050919050565b6000819050919050565b60007fffffffff0000000000000000000000000000000000000000000000000000000082169050919050565b60008190506139688261409b565b919050565b600073ffffffffffffffffffffffffffffffffffffffff82169050919050565b6000819050919050565b600067ffffffffffffffff82169050919050565b600060ff82169050919050565b60006139c3826139ca565b9050919050565b60006139d58261396d565b9050919050565b60006139e78261395a565b9050919050565b60006139f982613997565b9050919050565b82818337600083830152505050565b60005b83811015613a2d578082015181840152602081019050613a12565b83811115613a3c576000848401525b50505050565b60006002820490506001821680613a5a57607f821691505b60208210811415613a6e57613a6d613b85565b5b50919050565b613a7d82613be3565b810181811067ffffffffffffffff82111715613a9c57613a9b613bb4565b5b80604052505050565b6000613ab08261398d565b91507fffffffffffffffffffffffffffffffffffffffffffffffffffffffffffffffff821415613ae357613ae2613af8565b5b600182019050919050565b6000819050919050565b7f4e487b7100000000000000000000000000000000000000000000000000000000600052601160045260246000fd5b7f4e487b7100000000000000000000000000000000000000000000000000000000600052601260045260246000fd5b7f4e487b7100000000000000000000000000000000000000000000000000000000600052602160045260246000fd5b7f4e487b7100000000000000000000000000000000000000000000000000000000600052602260045260246000fd5b7f4e487b7100000000000000000000000000000000000000000000000000000000600052604160045260246000fd5b6000601f19601f8301169050919050565b7f45434453413a20696e76616c6964207369676e61747572650000000000000000600082015250565b7f476f7665726e6f723a206f6e6c79476f7665726e616e63650000000000000000600082015250565b7f476f7665726e6f72566f74657351756f72756d4672616374696f6e3a2071756f60008201527f72756d4e756d657261746f72206f7665722071756f72756d44656e6f6d696e6160208201527f746f720000000000000000000000000000000000000000000000000000000000604082015250565b7f476f7665726e6f72436f6d7061746962696c697479427261766f3a2070726f7060008201527f6f73657220766f7465732062656c6f772070726f706f73616c2074687265736860208201527f6f6c640000000000000000000000000000000000000000000000000000000000604082015250565b7f45434453413a20696e76616c6964207369676e6174757265206c656e67746800600082015250565b7f1901000000000000000000000000000000000000000000000000000000000000600082015250565b7f476f7665726e6f723a20696e76616c69642070726f706f73616c206c656e677460008201527f6800000000000000000000000000000000000000000000000000000000000000602082015250565b7f45434453413a20696e76616c6964207369676e6174757265202773272076616c60008201527f7565000000000000000000000000000000000000000000000000000000000000602082015250565b7f476f7665726e6f72566f74696e6753696d706c653a20766f746520616c72656160008201527f6479206361737400000000000000000000000000000000000000000000000000602082015250565b7f476f7665726e6f723a20766f7465206e6f742063757272656e746c792061637460008201527f6976650000000000000000000000000000000000000000000000000000000000602082015250565b7f476f7665726e6f723a20656d7074792070726f706f73616c0000000000000000600082015250565b7f45434453413a20696e76616c6964207369676e6174757265202776272076616c60008201527f7565000000000000000000000000000000000000000000000000000000000000602082015250565b7f53616665436173743a2076616c756520646f65736e27742066697420696e203660008201527f3420626974730000000000000000000000000000000000000000000000000000602082015250565b7f476f7665726e6f723a2070726f706f73616c206e6f742073756363657373667560008201527f6c00000000000000000000000000000000000000000000000000000000000000602082015250565b7f476f7665726e6f723a20756e6b6e6f776e2070726f706f73616c206964000000600082015250565b7f476f7665726e6f72566f74696e6753696d706c653a20696e76616c696420766160008201527f6c756520666f7220656e756d20566f7465547970650000000000000000000000602082015250565b7f476f7665726e6f723a2070726f706f73616c20616c726561647920657869737460008201527f7300000000000000000000000000000000000000000000000000000000000000602082015250565b600881106140ac576140ab613b56565b5b50565b6140b881613906565b81146140c357600080fd5b50565b6140cf81613924565b81146140da57600080fd5b50565b6140e68161392e565b81146140f157600080fd5b50565b6140fd8161398d565b811461410857600080fd5b50565b614114816139ab565b811461411f57600080fd5b5056fe476f7665726e6f723a2063616c6c20726576657274656420776974686f7574206d657373616765a2646970667358221220125a06ae5286497d884aadddb387aa088d097e2433a49c86e32a7d9fe9703b2064736f6c63430008040033",
  "linkReferences": {},
  "deployedLinkReferences": {}
}