{
  "_format": "hh-sol-artifact-1",
  "contractName": "KaoDao",
  "sourceName": "contracts/KaoDao.sol",
  "abi": [
    {
      "inputs": [
        {
          "internalType": "contract ERC20Votes",
          "name": "_token",
          "type": "address"
        }
      ],
      "stateMutability": "nonpayable",
      "type": "constructor"
    },
    {
      "anonymous": false,
      "inputs": [
        {
          "indexed": false,
          "internalType": "uint256",
          "name": "proposalId",
          "type": "uint256"
        }
      ],
      "name": "ProposalCanceled",
      "type": "event"
    },
    {
      "anonymous": false,
      "inputs": [
        {
          "indexed": false,
          "internalType": "uint256",
          "name": "proposalId",
          "type": "uint256"
        },
        {
          "indexed": false,
          "internalType": "address",
          "name": "proposer",
          "type": "address"
        },
        {
          "indexed": false,
          "internalType": "address[]",
          "name": "targets",
          "type": "address[]"
        },
        {
          "indexed": false,
          "internalType": "uint256[]",
          "name": "values",
          "type": "uint256[]"
        },
        {
          "indexed": false,
          "internalType": "string[]",
          "name": "signatures",
          "type": "string[]"
        },
        {
          "indexed": false,
          "internalType": "bytes[]",
          "name": "calldatas",
          "type": "bytes[]"
        },
        {
          "indexed": false,
          "internalType": "uint256",
          "name": "startBlock",
          "type": "uint256"
        },
        {
          "indexed": false,
          "internalType": "uint256",
          "name": "endBlock",
          "type": "uint256"
        },
        {
          "indexed": false,
          "internalType": "string",
          "name": "description",
          "type": "string"
        }
      ],
      "name": "ProposalCreated",
      "type": "event"
    },
    {
      "anonymous": false,
      "inputs": [
        {
          "indexed": false,
          "internalType": "uint256",
          "name": "proposalId",
          "type": "uint256"
        }
      ],
      "name": "ProposalExecuted",
      "type": "event"
    },
    {
      "anonymous": false,
      "inputs": [
        {
          "indexed": false,
          "internalType": "uint256",
          "name": "oldQuorumNumerator",
          "type": "uint256"
        },
        {
          "indexed": false,
          "internalType": "uint256",
          "name": "newQuorumNumerator",
          "type": "uint256"
        }
      ],
      "name": "QuorumNumeratorUpdated",
      "type": "event"
    },
    {
      "anonymous": false,
      "inputs": [
        {
          "indexed": true,
          "internalType": "bytes32",
          "name": "role",
          "type": "bytes32"
        },
        {
          "indexed": true,
          "internalType": "bytes32",
          "name": "previousAdminRole",
          "type": "bytes32"
        },
        {
          "indexed": true,
          "internalType": "bytes32",
          "name": "newAdminRole",
          "type": "bytes32"
        }
      ],
      "name": "RoleAdminChanged",
      "type": "event"
    },
    {
      "anonymous": false,
      "inputs": [
        {
          "indexed": true,
          "internalType": "bytes32",
          "name": "role",
          "type": "bytes32"
        },
        {
          "indexed": true,
          "internalType": "address",
          "name": "account",
          "type": "address"
        },
        {
          "indexed": true,
          "internalType": "address",
          "name": "sender",
          "type": "address"
        }
      ],
      "name": "RoleGranted",
      "type": "event"
    },
    {
      "anonymous": false,
      "inputs": [
        {
          "indexed": true,
          "internalType": "bytes32",
          "name": "role",
          "type": "bytes32"
        },
        {
          "indexed": true,
          "internalType": "address",
          "name": "account",
          "type": "address"
        },
        {
          "indexed": true,
          "internalType": "address",
          "name": "sender",
          "type": "address"
        }
      ],
      "name": "RoleRevoked",
      "type": "event"
    },
    {
      "anonymous": false,
      "inputs": [
        {
          "indexed": true,
          "internalType": "address",
          "name": "voter",
          "type": "address"
        },
        {
          "indexed": false,
          "internalType": "uint256",
          "name": "proposalId",
          "type": "uint256"
        },
        {
          "indexed": false,
          "internalType": "uint8",
          "name": "support",
          "type": "uint8"
        },
        {
          "indexed": false,
          "internalType": "uint256",
          "name": "weight",
          "type": "uint256"
        },
        {
          "indexed": false,
          "internalType": "string",
          "name": "reason",
          "type": "string"
        }
      ],
      "name": "VoteCast",
      "type": "event"
    },
    {
      "inputs": [],
      "name": "ADDRESS_UPDATER",
      "outputs": [
        {
          "internalType": "bytes32",
          "name": "",
          "type": "bytes32"
        }
      ],
      "stateMutability": "view",
      "type": "function"
    },
    {
      "inputs": [],
      "name": "BALLOT_TYPEHASH",
      "outputs": [
        {
          "internalType": "bytes32",
          "name": "",
          "type": "bytes32"
        }
      ],
      "stateMutability": "view",
      "type": "function"
    },
    {
      "inputs": [],
      "name": "COUNTING_MODE",
      "outputs": [
        {
          "internalType": "string",
          "name": "",
          "type": "string"
        }
      ],
      "stateMutability": "pure",
      "type": "function"
    },
    {
      "inputs": [],
      "name": "DEFAULT_ADMIN_ROLE",
      "outputs": [
        {
          "internalType": "bytes32",
          "name": "",
          "type": "bytes32"
        }
      ],
      "stateMutability": "view",
      "type": "function"
    },
    {
      "inputs": [
        {
          "internalType": "uint256",
          "name": "proposalId",
          "type": "uint256"
        },
        {
          "internalType": "uint8",
          "name": "support",
          "type": "uint8"
        }
      ],
      "name": "castVote",
      "outputs": [
        {
          "internalType": "uint256",
          "name": "",
          "type": "uint256"
        }
      ],
      "stateMutability": "nonpayable",
      "type": "function"
    },
    {
      "inputs": [
        {
          "internalType": "uint256",
          "name": "proposalId",
          "type": "uint256"
        },
        {
          "internalType": "uint8",
          "name": "support",
          "type": "uint8"
        },
        {
          "internalType": "uint8",
          "name": "v",
          "type": "uint8"
        },
        {
          "internalType": "bytes32",
          "name": "r",
          "type": "bytes32"
        },
        {
          "internalType": "bytes32",
          "name": "s",
          "type": "bytes32"
        }
      ],
      "name": "castVoteBySig",
      "outputs": [
        {
          "internalType": "uint256",
          "name": "",
          "type": "uint256"
        }
      ],
      "stateMutability": "nonpayable",
      "type": "function"
    },
    {
      "inputs": [
        {
          "internalType": "uint256",
          "name": "proposalId",
          "type": "uint256"
        },
        {
          "internalType": "uint8",
          "name": "support",
          "type": "uint8"
        },
        {
          "internalType": "string",
          "name": "reason",
          "type": "string"
        }
      ],
      "name": "castVoteWithReason",
      "outputs": [
        {
          "internalType": "uint256",
          "name": "",
          "type": "uint256"
        }
      ],
      "stateMutability": "nonpayable",
      "type": "function"
    },
    {
      "inputs": [
        {
          "internalType": "address[]",
          "name": "targets",
          "type": "address[]"
        },
        {
          "internalType": "uint256[]",
          "name": "values",
          "type": "uint256[]"
        },
        {
          "internalType": "bytes[]",
          "name": "calldatas",
          "type": "bytes[]"
        },
        {
          "internalType": "bytes32",
          "name": "descriptionHash",
          "type": "bytes32"
        }
      ],
      "name": "execute",
      "outputs": [
        {
          "internalType": "uint256",
          "name": "",
          "type": "uint256"
        }
      ],
      "stateMutability": "payable",
      "type": "function"
    },
    {
      "inputs": [
        {
          "internalType": "bytes32",
          "name": "role",
          "type": "bytes32"
        }
      ],
      "name": "getRoleAdmin",
      "outputs": [
        {
          "internalType": "bytes32",
          "name": "",
          "type": "bytes32"
        }
      ],
      "stateMutability": "view",
      "type": "function"
    },
    {
      "inputs": [
        {
          "internalType": "address",
          "name": "account",
          "type": "address"
        },
        {
          "internalType": "uint256",
          "name": "blockNumber",
          "type": "uint256"
        }
      ],
      "name": "getVotes",
      "outputs": [
        {
          "internalType": "uint256",
          "name": "",
          "type": "uint256"
        }
      ],
      "stateMutability": "view",
      "type": "function"
    },
    {
      "inputs": [
        {
          "internalType": "bytes32",
          "name": "role",
          "type": "bytes32"
        },
        {
          "internalType": "address",
          "name": "account",
          "type": "address"
        }
      ],
      "name": "grantRole",
      "outputs": [],
      "stateMutability": "nonpayable",
      "type": "function"
    },
    {
      "inputs": [
        {
          "internalType": "bytes32",
          "name": "role",
          "type": "bytes32"
        },
        {
          "internalType": "address",
          "name": "account",
          "type": "address"
        }
      ],
      "name": "hasRole",
      "outputs": [
        {
          "internalType": "bool",
          "name": "",
          "type": "bool"
        }
      ],
      "stateMutability": "view",
      "type": "function"
    },
    {
      "inputs": [
        {
          "internalType": "uint256",
          "name": "proposalId",
          "type": "uint256"
        },
        {
          "internalType": "address",
          "name": "account",
          "type": "address"
        }
      ],
      "name": "hasVoted",
      "outputs": [
        {
          "internalType": "bool",
          "name": "",
          "type": "bool"
        }
      ],
      "stateMutability": "view",
      "type": "function"
    },
    {
      "inputs": [
        {
          "internalType": "address[]",
          "name": "targets",
          "type": "address[]"
        },
        {
          "internalType": "uint256[]",
          "name": "values",
          "type": "uint256[]"
        },
        {
          "internalType": "bytes[]",
          "name": "calldatas",
          "type": "bytes[]"
        },
        {
          "internalType": "bytes32",
          "name": "descriptionHash",
          "type": "bytes32"
        }
      ],
      "name": "hashProposal",
      "outputs": [
        {
          "internalType": "uint256",
          "name": "",
          "type": "uint256"
        }
      ],
      "stateMutability": "pure",
      "type": "function"
    },
    {
      "inputs": [],
      "name": "name",
      "outputs": [
        {
          "internalType": "string",
          "name": "",
          "type": "string"
        }
      ],
      "stateMutability": "view",
      "type": "function"
    },
    {
      "inputs": [
        {
          "internalType": "uint256",
          "name": "proposalId",
          "type": "uint256"
        }
      ],
      "name": "proposalDeadline",
      "outputs": [
        {
          "internalType": "uint256",
          "name": "",
          "type": "uint256"
        }
      ],
      "stateMutability": "view",
      "type": "function"
    },
    {
      "inputs": [
        {
          "internalType": "uint256",
          "name": "proposalId",
          "type": "uint256"
        }
      ],
      "name": "proposalSnapshot",
      "outputs": [
        {
          "internalType": "uint256",
          "name": "",
          "type": "uint256"
        }
      ],
      "stateMutability": "view",
      "type": "function"
    },
    {
      "inputs": [
        {
          "internalType": "uint256",
          "name": "proposalId",
          "type": "uint256"
        }
      ],
      "name": "proposalVotes",
      "outputs": [
        {
          "internalType": "uint256",
          "name": "againstVotes",
          "type": "uint256"
        },
        {
          "internalType": "uint256",
          "name": "forVotes",
          "type": "uint256"
        },
        {
          "internalType": "uint256",
          "name": "abstainVotes",
          "type": "uint256"
        }
      ],
      "stateMutability": "view",
      "type": "function"
    },
    {
      "inputs": [
        {
          "internalType": "address[]",
          "name": "targets",
          "type": "address[]"
        },
        {
          "internalType": "uint256[]",
          "name": "values",
          "type": "uint256[]"
        },
        {
          "internalType": "bytes[]",
          "name": "calldatas",
          "type": "bytes[]"
        },
        {
          "internalType": "string",
          "name": "description",
          "type": "string"
        }
      ],
      "name": "propose",
      "outputs": [
        {
          "internalType": "uint256",
          "name": "",
          "type": "uint256"
        }
      ],
      "stateMutability": "nonpayable",
      "type": "function"
    },
    {
      "inputs": [
        {
          "internalType": "uint256",
          "name": "blockNumber",
          "type": "uint256"
        }
      ],
      "name": "quorum",
      "outputs": [
        {
          "internalType": "uint256",
          "name": "",
          "type": "uint256"
        }
      ],
      "stateMutability": "view",
      "type": "function"
    },
    {
      "inputs": [],
      "name": "quorumDenominator",
      "outputs": [
        {
          "internalType": "uint256",
          "name": "",
          "type": "uint256"
        }
      ],
      "stateMutability": "view",
      "type": "function"
    },
    {
      "inputs": [],
      "name": "quorumNumerator",
      "outputs": [
        {
          "internalType": "uint256",
          "name": "",
          "type": "uint256"
        }
      ],
      "stateMutability": "view",
      "type": "function"
    },
    {
      "inputs": [
        {
          "internalType": "bytes32",
          "name": "role",
          "type": "bytes32"
        },
        {
          "internalType": "address",
          "name": "account",
          "type": "address"
        }
      ],
      "name": "renounceRole",
      "outputs": [],
      "stateMutability": "nonpayable",
      "type": "function"
    },
    {
      "inputs": [
        {
          "internalType": "bytes32",
          "name": "role",
          "type": "bytes32"
        },
        {
          "internalType": "address",
          "name": "account",
          "type": "address"
        }
      ],
      "name": "revokeRole",
      "outputs": [],
      "stateMutability": "nonpayable",
      "type": "function"
    },
    {
      "inputs": [
        {
          "internalType": "address",
          "name": "kaoMoji",
          "type": "address"
        }
      ],
      "name": "setKaoMojiAddress",
      "outputs": [],
      "stateMutability": "nonpayable",
      "type": "function"
    },
    {
      "inputs": [
        {
          "internalType": "uint256",
          "name": "proposalId",
          "type": "uint256"
        }
      ],
      "name": "state",
      "outputs": [
        {
          "internalType": "enum IGovernor.ProposalState",
          "name": "",
          "type": "uint8"
        }
      ],
      "stateMutability": "view",
      "type": "function"
    },
    {
      "inputs": [
        {
          "internalType": "bytes4",
          "name": "interfaceId",
          "type": "bytes4"
        }
      ],
      "name": "supportsInterface",
      "outputs": [
        {
          "internalType": "bool",
          "name": "",
          "type": "bool"
        }
      ],
      "stateMutability": "view",
      "type": "function"
    },
    {
      "inputs": [],
      "name": "token",
      "outputs": [
        {
          "internalType": "contract ERC20Votes",
          "name": "",
          "type": "address"
        }
      ],
      "stateMutability": "view",
      "type": "function"
    },
    {
      "inputs": [
        {
          "internalType": "uint256",
          "name": "newQuorumNumerator",
          "type": "uint256"
        }
      ],
      "name": "updateQuorumNumerator",
      "outputs": [],
      "stateMutability": "nonpayable",
      "type": "function"
    },
    {
      "inputs": [],
      "name": "version",
      "outputs": [
        {
          "internalType": "string",
          "name": "",
          "type": "string"
        }
      ],
      "stateMutability": "view",
      "type": "function"
    },
    {
      "inputs": [],
      "name": "votingDelay",
      "outputs": [
        {
          "internalType": "uint256",
          "name": "",
          "type": "uint256"
        }
      ],
      "stateMutability": "pure",
      "type": "function"
    },
    {
      "inputs": [],
      "name": "votingPeriod",
      "outputs": [
        {
          "internalType": "uint256",
          "name": "",
          "type": "uint256"
        }
      ],
      "stateMutability": "pure",
      "type": "function"
    }
  ],
  "bytecode": "0x6101406040523480156200001257600080fd5b506040516200579f3803806200579f833981810160405281019062000038919062000503565b6005816040518060400160405280600681526020017f4b616f44616f000000000000000000000000000000000000000000000000000081525080620000826200019d60201b60201c565b60008280519060200120905060008280519060200120905060007f8b73c3c69bb8fe3d512ecc4cf759cc79239f7b179b0ffacaa9a75d522b39400f90508260c081815250508160e081815250504660a08181525050620000ea818484620001da60201b60201c565b6080818152505080610100818152505050505050508060009080519060200190620001179291906200043c565b50508073ffffffffffffffffffffffffffffffffffffffff166101208173ffffffffffffffffffffffffffffffffffffffff1660601b815250505062000163816200021660201b60201c565b50620001967ff0e519adfa92b08162a7a5fb116ac5cc83e9e7105e2ec4ca98c50726b178375c33620002b860201b60201c565b5062000796565b60606040518060400160405280600181526020017f3100000000000000000000000000000000000000000000000000000000000000815250905090565b60008383834630604051602001620001f795949392919062000589565b6040516020818303038152906040528051906020012090509392505050565b62000226620002ce60201b60201c565b8111156200026b576040517f08c379a00000000000000000000000000000000000000000000000000000000081526004016200026290620005e6565b60405180910390fd5b60006003549050816003819055507f0553476bf02ef2726e8ce5ced78d63e26e602e4a2257b1f559418e24b46339978183604051620002ac92919062000608565b60405180910390a15050565b620002ca8282620002d760201b60201c565b5050565b60006064905090565b620002e98282620003c960201b60201c565b620003c55760016004600084815260200190815260200160002060000160008373ffffffffffffffffffffffffffffffffffffffff1673ffffffffffffffffffffffffffffffffffffffff16815260200190815260200160002060006101000a81548160ff0219169083151502179055506200036a6200043460201b60201c565b73ffffffffffffffffffffffffffffffffffffffff168173ffffffffffffffffffffffffffffffffffffffff16837f2f8788117e7eff1d82e926ec794901d17c78024a50270940304540a733656f0d60405160405180910390a45b5050565b60006004600084815260200190815260200160002060000160008373ffffffffffffffffffffffffffffffffffffffff1673ffffffffffffffffffffffffffffffffffffffff16815260200190815260200160002060009054906101000a900460ff16905092915050565b600033905090565b8280546200044a90620006a2565b90600052602060002090601f0160209004810192826200046e5760008555620004ba565b82601f106200048957805160ff1916838001178555620004ba565b82800160010185558215620004ba579182015b82811115620004b95782518255916020019190600101906200049c565b5b509050620004c99190620004cd565b5090565b5b80821115620004e8576000816000905550600101620004ce565b5090565b600081519050620004fd816200077c565b92915050565b6000602082840312156200051657600080fd5b60006200052684828501620004ec565b91505092915050565b6200053a8162000646565b82525050565b6200054b816200065a565b82525050565b60006200056060438362000635565b91506200056d8262000707565b606082019050919050565b620005838162000698565b82525050565b600060a082019050620005a0600083018862000540565b620005af602083018762000540565b620005be604083018662000540565b620005cd606083018562000578565b620005dc60808301846200052f565b9695505050505050565b60006020820190508181036000830152620006018162000551565b9050919050565b60006040820190506200061f600083018562000578565b6200062e602083018462000578565b9392505050565b600082825260208201905092915050565b6000620006538262000678565b9050919050565b6000819050919050565b6000620006718262000646565b9050919050565b600073ffffffffffffffffffffffffffffffffffffffff82169050919050565b6000819050919050565b60006002820490506001821680620006bb57607f821691505b60208210811415620006d257620006d1620006d8565b5b50919050565b7f4e487b7100000000000000000000000000000000000000000000000000000000600052602260045260246000fd5b7f476f7665726e6f72566f74657351756f72756d4672616374696f6e3a2071756f60008201527f72756d4e756d657261746f72206f7665722071756f72756d44656e6f6d696e6160208201527f746f720000000000000000000000000000000000000000000000000000000000604082015250565b620007878162000664565b81146200079357600080fd5b50565b60805160a05160c05160e051610100516101205160601c614fa8620007f76000396000818161149b01528181611f320152611ff7015260006124eb0152600061252d0152600061250c01526000612498015260006124c00152614fa86000f3fe6080604052600436106101e35760003560e01c80637b3c71d311610102578063c01f9e3711610095578063deaaa7cc11610064578063deaaa7cc14610783578063eb9019d4146107ae578063f8ce560a146107eb578063fc0c546a14610828576101e3565b8063c01f9e37146106b5578063c59057e4146106f2578063d547741f1461072f578063dd4e2ba514610758576101e3565b806397c3d334116100d157806397c3d3341461060b578063a217fddf14610636578063a44bda5f14610661578063a7713a701461068a576101e3565b80637b3c71d3146105295780637d5e81e21461056657806387863245146105a357806391d14854146105ce576101e3565b806336568abe1161017a57806343859632116101495780634385963214610445578063544ffc9c1461048257806354fd4d50146104c157806356781388146104ec576101e3565b806336568abe146103775780633932abb1146103a05780633bccf4fd146103cb5780633e4f49e614610408576101e3565b8063248a9ca3116101b6578063248a9ca3146102a45780632656227d146102e15780632d63f693146103115780632f2ff15d1461034e576101e3565b806301ffc9a7146101e857806302a251a31461022557806306f3f9e61461025057806306fdde0314610279575b600080fd5b3480156101f457600080fd5b5061020f600480360381019061020a919061336a565b610853565b60405161021c9190613d28565b60405180910390f35b34801561023157600080fd5b5061023a610865565b6040516102479190614105565b60405180910390f35b34801561025c57600080fd5b5061027760048036038101906102729190613393565b61086e565b005b34801561028557600080fd5b5061028e6108f6565b60405161029b9190613e63565b60405180910390f35b3480156102b057600080fd5b506102cb60048036038101906102c69190613305565b610988565b6040516102d89190613d43565b60405180910390f35b6102fb60048036038101906102f69190613197565b6109a8565b6040516103089190614105565b60405180910390f35b34801561031d57600080fd5b5061033860048036038101906103339190613393565b610b73565b6040516103459190614105565b60405180910390f35b34801561035a57600080fd5b506103756004803603810190610370919061332e565b610be1565b005b34801561038357600080fd5b5061039e6004803603810190610399919061332e565b610c0a565b005b3480156103ac57600080fd5b506103b5610c8d565b6040516103c29190614105565b60405180910390f35b3480156103d757600080fd5b506103f260048036038101906103ed91906134c9565b610c96565b6040516103ff9190614105565b60405180910390f35b34801561041457600080fd5b5061042f600480360381019061042a9190613393565b610d20565b60405161043c9190613e48565b60405180910390f35b34801561045157600080fd5b5061046c600480360381019061046791906133e5565b610ee7565b6040516104799190613d28565b60405180910390f35b34801561048e57600080fd5b506104a960048036038101906104a49190613393565b610f52565b6040516104b8939291906141f9565b60405180910390f35b3480156104cd57600080fd5b506104d6610f8a565b6040516104e39190613e63565b60405180910390f35b3480156104f857600080fd5b50610513600480360381019061050e9190613421565b610fc7565b6040516105209190614105565b60405180910390f35b34801561053557600080fd5b50610550600480360381019061054b919061345d565b610ff8565b60405161055d9190614105565b60405180910390f35b34801561057257600080fd5b5061058d60048036038101906105889190613242565b611060565b60405161059a9190614105565b60405180910390f35b3480156105af57600080fd5b506105b861121f565b6040516105c59190613d43565b60405180910390f35b3480156105da57600080fd5b506105f560048036038101906105f0919061332e565b611243565b6040516106029190613d28565b60405180910390f35b34801561061757600080fd5b506106206112ae565b60405161062d9190614105565b60405180910390f35b34801561064257600080fd5b5061064b6112b7565b6040516106589190613d43565b60405180910390f35b34801561066d57600080fd5b5061068860048036038101906106839190613132565b6112be565b005b34801561069657600080fd5b5061069f611335565b6040516106ac9190614105565b60405180910390f35b3480156106c157600080fd5b506106dc60048036038101906106d79190613393565b61133f565b6040516106e99190614105565b60405180910390f35b3480156106fe57600080fd5b5061071960048036038101906107149190613197565b6113ad565b6040516107269190614105565b60405180910390f35b34801561073b57600080fd5b506107566004803603810190610751919061332e565b6113e9565b005b34801561076457600080fd5b5061076d611412565b60405161077a9190613e63565b60405180910390f35b34801561078f57600080fd5b5061079861144f565b6040516107a59190613d43565b60405180910390f35b3480156107ba57600080fd5b506107d560048036038101906107d0919061315b565b611473565b6040516107e29190614105565b60405180910390f35b3480156107f757600080fd5b50610812600480360381019061080d9190613393565b611487565b60405161081f9190614105565b60405180910390f35b34801561083457600080fd5b5061083d611499565b60405161084a9190613e2d565b60405180910390f35b600061085e826114bd565b9050919050565b60006050905090565b610876611537565b73ffffffffffffffffffffffffffffffffffffffff1661089461153f565b73ffffffffffffffffffffffffffffffffffffffff16146108ea576040517f08c379a00000000000000000000000000000000000000000000000000000000081526004016108e190613ea5565b60405180910390fd5b6108f381611547565b50565b6060600080546109059061474f565b80601f01602080910402602001604051908101604052809291908181526020018280546109319061474f565b801561097e5780601f106109535761010080835404028352916020019161097e565b820191906000526020600020905b81548152906001019060200180831161096157829003601f168201915b5050505050905090565b600060046000838152602001908152602001600020600101549050919050565b6000806109b7868686866113ad565b905060006109c482610d20565b905060046007811115610a00577f4e487b7100000000000000000000000000000000000000000000000000000000600052602160045260246000fd5b816007811115610a39577f4e487b7100000000000000000000000000000000000000000000000000000000600052602160045260246000fd5b1480610ab5575060056007811115610a7a577f4e487b7100000000000000000000000000000000000000000000000000000000600052602160045260246000fd5b816007811115610ab3577f4e487b7100000000000000000000000000000000000000000000000000000000600052602160045260246000fd5b145b610af4576040517f08c379a0000000000000000000000000000000000000000000000000000000008152600401610aeb90614045565b60405180910390fd5b600180600084815260200190815260200160002060020160006101000a81548160ff0219169083151502179055507f712ae1383f79ac853f8d882153778e0260ef8f03b504e2866e0593e04d2b291f82604051610b519190614105565b60405180910390a1610b6682888888886115dc565b8192505050949350505050565b6000610bd0600160008481526020019081526020016000206000016040518060200160405290816000820160009054906101000a900467ffffffffffffffff1667ffffffffffffffff1667ffffffffffffffff168152505061175d565b67ffffffffffffffff169050919050565b610bea82610988565b610bfb81610bf661153f565b61176b565b610c058383611808565b505050565b610c1261153f565b73ffffffffffffffffffffffffffffffffffffffff168173ffffffffffffffffffffffffffffffffffffffff1614610c7f576040517f08c379a0000000000000000000000000000000000000000000000000000000008152600401610c76906140e5565b60405180910390fd5b610c8982826118e9565b5050565b60006014905090565b600080610cf7610cef7f150214d74d59b7d1e90c73fc22ef3d991dd0a76b046543d4d80ab92d2a50328f8989604051602001610cd493929190613db1565b604051602081830303815290604052805190602001206119cb565b8686866119e5565b9050610d1487828860405180602001604052806000815250611a10565b91505095945050505050565b60008060016000848152602001908152602001600020604051806080016040529081600082016040518060200160405290816000820160009054906101000a900467ffffffffffffffff1667ffffffffffffffff1667ffffffffffffffff16815250508152602001600182016040518060200160405290816000820160009054906101000a900467ffffffffffffffff1667ffffffffffffffff1667ffffffffffffffff168152505081526020016002820160009054906101000a900460ff161515151581526020016002820160019054906101000a900460ff1615151515815250509050806040015115610e19576007915050610ee2565b806060015115610e2d576002915050610ee2565b610e3a8160000151611bb0565b15610e49576000915050610ee2565b610e568160200151611bb0565b15610e65576001915050610ee2565b610e728160200151611bca565b15610ea757610e8083611bf6565b8015610e915750610e9083611c3d565b5b610e9c576003610e9f565b60045b915050610ee2565b6040517f08c379a0000000000000000000000000000000000000000000000000000000008152600401610ed990614065565b60405180910390fd5b919050565b60006002600084815260200190815260200160002060030160008373ffffffffffffffffffffffffffffffffffffffff1673ffffffffffffffffffffffffffffffffffffffff16815260200190815260200160002060009054906101000a900460ff16905092915050565b600080600080600260008681526020019081526020016000209050806000015481600101548260020154935093509350509193909250565b60606040518060400160405280600181526020017f3100000000000000000000000000000000000000000000000000000000000000815250905090565b600080610fd261153f565b9050610fef84828560405180602001604052806000815250611a10565b91505092915050565b60008061100361153f565b905061105586828787878080601f016020809104026020016040519081016040528093929190818152602001838380828437600081840152601f19601f82011690508083019250505050505050611a10565b915050949350505050565b600060018551146110a6576040517f08c379a000000000000000000000000000000000000000000000000000000000815260040161109d90613fc5565b60405180910390fd5b600073ffffffffffffffffffffffffffffffffffffffff16600560009054906101000a900473ffffffffffffffffffffffffffffffffffffffff1673ffffffffffffffffffffffffffffffffffffffff161415611138576040517f08c379a000000000000000000000000000000000000000000000000000000000815260040161112f90613f05565b60405180910390fd5b600560009054906101000a900473ffffffffffffffffffffffffffffffffffffffff1673ffffffffffffffffffffffffffffffffffffffff16856000815181106111ab577f4e487b7100000000000000000000000000000000000000000000000000000000600052603260045260246000fd5b602002602001015173ffffffffffffffffffffffffffffffffffffffff1614611209576040517f08c379a0000000000000000000000000000000000000000000000000000000008152600401611200906140c5565b60405180910390fd5b61121585858585611c68565b9050949350505050565b7ff0e519adfa92b08162a7a5fb116ac5cc83e9e7105e2ec4ca98c50726b178375c81565b60006004600084815260200190815260200160002060000160008373ffffffffffffffffffffffffffffffffffffffff1673ffffffffffffffffffffffffffffffffffffffff16815260200190815260200160002060009054906101000a900460ff16905092915050565b60006064905090565b6000801b81565b7ff0e519adfa92b08162a7a5fb116ac5cc83e9e7105e2ec4ca98c50726b178375c6112f0816112eb61153f565b61176b565b81600560006101000a81548173ffffffffffffffffffffffffffffffffffffffff021916908373ffffffffffffffffffffffffffffffffffffffff1602179055505050565b6000600354905090565b600061139c600160008481526020019081526020016000206001016040518060200160405290816000820160009054906101000a900467ffffffffffffffff1667ffffffffffffffff1667ffffffffffffffff168152505061175d565b67ffffffffffffffff169050919050565b6000848484846040516020016113c69493929190613cce565b6040516020818303038152906040528051906020012060001c9050949350505050565b6113f282610988565b611403816113fe61153f565b61176b565b61140d83836118e9565b505050565b60606040518060400160405280602081526020017f737570706f72743d627261766f2671756f72756d3d666f722c6162737461696e815250905090565b7f150214d74d59b7d1e90c73fc22ef3d991dd0a76b046543d4d80ab92d2a50328f81565b600061147f8383611f2e565b905092915050565b600061149282611fe3565b9050919050565b7f000000000000000000000000000000000000000000000000000000000000000081565b60007f7965db0b000000000000000000000000000000000000000000000000000000007bffffffffffffffffffffffffffffffffffffffffffffffffffffffff1916827bffffffffffffffffffffffffffffffffffffffffffffffffffffffff19161480611530575061152f826120b9565b5b9050919050565b600030905090565b600033905090565b61154f6112ae565b811115611591576040517f08c379a000000000000000000000000000000000000000000000000000000000815260040161158890613ee5565b60405180910390fd5b60006003549050816003819055507f0553476bf02ef2726e8ce5ced78d63e26e602e4a2257b1f559418e24b463399781836040516115d09291906141d0565b60405180910390a15050565b6000604051806060016040528060278152602001614f4c60279139905060005b855181101561175457600080878381518110611641577f4e487b7100000000000000000000000000000000000000000000000000000000600052603260045260246000fd5b602002602001015173ffffffffffffffffffffffffffffffffffffffff16878481518110611698577f4e487b7100000000000000000000000000000000000000000000000000000000600052603260045260246000fd5b60200260200101518785815181106116d9577f4e487b7100000000000000000000000000000000000000000000000000000000600052603260045260246000fd5b60200260200101516040516116ee9190613c1d565b60006040518083038185875af1925050503d806000811461172b576040519150601f19603f3d011682016040523d82523d6000602084013e611730565b606091505b5091509150611740828286612133565b5050508061174d906147b2565b90506115fc565b50505050505050565b600081600001519050919050565b6117758282611243565b6118045761179a8173ffffffffffffffffffffffffffffffffffffffff16601461219a565b6117a88360001c602061219a565b6040516020016117b9929190613c6b565b6040516020818303038152906040526040517f08c379a00000000000000000000000000000000000000000000000000000000081526004016117fb9190613e63565b60405180910390fd5b5050565b6118128282611243565b6118e55760016004600084815260200190815260200160002060000160008373ffffffffffffffffffffffffffffffffffffffff1673ffffffffffffffffffffffffffffffffffffffff16815260200190815260200160002060006101000a81548160ff02191690831515021790555061188a61153f565b73ffffffffffffffffffffffffffffffffffffffff168173ffffffffffffffffffffffffffffffffffffffff16837f2f8788117e7eff1d82e926ec794901d17c78024a50270940304540a733656f0d60405160405180910390a45b5050565b6118f38282611243565b156119c75760006004600084815260200190815260200160002060000160008373ffffffffffffffffffffffffffffffffffffffff1673ffffffffffffffffffffffffffffffffffffffff16815260200190815260200160002060006101000a81548160ff02191690831515021790555061196c61153f565b73ffffffffffffffffffffffffffffffffffffffff168173ffffffffffffffffffffffffffffffffffffffff16837ff6391f5c32d9c69d2a47ea670b442974b53935d1edc7fd64eb21e047a839171b60405160405180910390a45b5050565b60006119de6119d8612494565b83612557565b9050919050565b60008060006119f68787878761258a565b91509150611a0381612697565b8192505050949350505050565b60008060016000878152602001908152602001600020905060016007811115611a62577f4e487b7100000000000000000000000000000000000000000000000000000000600052602160045260246000fd5b611a6b87610d20565b6007811115611aa3577f4e487b7100000000000000000000000000000000000000000000000000000000600052602160045260246000fd5b14611ae3576040517f08c379a0000000000000000000000000000000000000000000000000000000008152600401611ada90613fa5565b60405180910390fd5b6000611b4186611b32846000016040518060200160405290816000820160009054906101000a900467ffffffffffffffff1667ffffffffffffffff1667ffffffffffffffff168152505061175d565b67ffffffffffffffff16611473565b9050611b4f878787846129e8565b8573ffffffffffffffffffffffffffffffffffffffff167fb8e138887d0aa13bab447e82de9d5c1777041ecd21ca36ba824ff1e6c07ddda488878488604051611b9b9493929190614230565b60405180910390a28092505050949350505050565b600043826000015167ffffffffffffffff16119050919050565b6000611bd582612c60565b8015611bef575043826000015167ffffffffffffffff1611155b9050919050565b60008060026000848152602001908152602001600020905080600201548160010154611c2291906144ca565b611c33611c2e85610b73565b611487565b1115915050919050565b6000806002600084815260200190815260200160002090508060000154816001015411915050919050565b600080611c7e86868686805190602001206113ad565b90508451865114611cc4576040517f08c379a0000000000000000000000000000000000000000000000000000000008152600401611cbb90613f45565b60405180910390fd5b8351865114611d08576040517f08c379a0000000000000000000000000000000000000000000000000000000008152600401611cff90613f45565b60405180910390fd5b6000865111611d4c576040517f08c379a0000000000000000000000000000000000000000000000000000000008152600401611d4390613fe5565b60405180910390fd5b6000600160008381526020019081526020016000209050611dac816000016040518060200160405290816000820160009054906101000a900467ffffffffffffffff1667ffffffffffffffff1667ffffffffffffffff1681525050612c7a565b611deb576040517f08c379a0000000000000000000000000000000000000000000000000000000008152600401611de2906140a5565b60405180910390fd5b6000611dfd611df8610c8d565b612c94565b611e0643612c94565b611e109190614520565b90506000611e24611e1f610865565b612c94565b82611e2f9190614520565b9050611e478284600001612ceb90919063ffffffff16565b611e5d8184600101612ceb90919063ffffffff16565b7f7d84a6263ae0d98d3329bd7b46bb4e8d6f98cd35a7adb45c274c8b7fd5ebd5e084611e8761153f565b8b8b8d5167ffffffffffffffff811115611eca577f4e487b7100000000000000000000000000000000000000000000000000000000600052604160045260246000fd5b604051908082528060200260200182016040528015611efd57816020015b6060815260200190600190039081611ee85790505b508c88888e604051611f1799989796959493929190614120565b60405180910390a183945050505050949350505050565b60007f000000000000000000000000000000000000000000000000000000000000000073ffffffffffffffffffffffffffffffffffffffff16633a46b1a884846040518363ffffffff1660e01b8152600401611f8b929190613ca5565b60206040518083038186803b158015611fa357600080fd5b505afa158015611fb7573d6000803e3d6000fd5b505050506040513d601f19601f82011682018060405250810190611fdb91906133bc565b905092915050565b6000611fed6112ae565b611ff5611335565b7f000000000000000000000000000000000000000000000000000000000000000073ffffffffffffffffffffffffffffffffffffffff16638e539e8c856040518263ffffffff1660e01b815260040161204e9190614105565b60206040518083038186803b15801561206657600080fd5b505afa15801561207a573d6000803e3d6000fd5b505050506040513d601f19601f8201168201806040525081019061209e91906133bc565b6120a8919061458f565b6120b2919061455e565b9050919050565b60007fbf26d897000000000000000000000000000000000000000000000000000000007bffffffffffffffffffffffffffffffffffffffffffffffffffffffff1916827bffffffffffffffffffffffffffffffffffffffffffffffffffffffff1916148061212c575061212b82612d1a565b5b9050919050565b6060831561214357829050612193565b6000835111156121565782518084602001fd5b816040517f08c379a000000000000000000000000000000000000000000000000000000000815260040161218a9190613e63565b60405180910390fd5b9392505050565b6060600060028360026121ad919061458f565b6121b791906144ca565b67ffffffffffffffff8111156121f6577f4e487b7100000000000000000000000000000000000000000000000000000000600052604160045260246000fd5b6040519080825280601f01601f1916602001820160405280156122285781602001600182028036833780820191505090505b5090507f300000000000000000000000000000000000000000000000000000000000000081600081518110612286577f4e487b7100000000000000000000000000000000000000000000000000000000600052603260045260246000fd5b60200101907effffffffffffffffffffffffffffffffffffffffffffffffffffffffffffff1916908160001a9053507f780000000000000000000000000000000000000000000000000000000000000081600181518110612310577f4e487b7100000000000000000000000000000000000000000000000000000000600052603260045260246000fd5b60200101907effffffffffffffffffffffffffffffffffffffffffffffffffffffffffffff1916908160001a90535060006001846002612350919061458f565b61235a91906144ca565b90505b6001811115612446577f3031323334353637383961626364656600000000000000000000000000000000600f8616601081106123c2577f4e487b7100000000000000000000000000000000000000000000000000000000600052603260045260246000fd5b1a60f81b8282815181106123ff577f4e487b7100000000000000000000000000000000000000000000000000000000600052603260045260246000fd5b60200101907effffffffffffffffffffffffffffffffffffffffffffffffffffffffffffff1916908160001a905350600485901c94508061243f90614725565b905061235d565b506000841461248a576040517f08c379a000000000000000000000000000000000000000000000000000000000815260040161248190613ec5565b60405180910390fd5b8091505092915050565b60007f00000000000000000000000000000000000000000000000000000000000000004614156124e6577f00000000000000000000000000000000000000000000000000000000000000009050612554565b6125517f00000000000000000000000000000000000000000000000000000000000000007f00000000000000000000000000000000000000000000000000000000000000007f0000000000000000000000000000000000000000000000000000000000000000612d84565b90505b90565b6000828260405160200161256c929190613c34565b60405160208183030381529060405280519060200120905092915050565b6000807f7fffffffffffffffffffffffffffffff5d576e7357a4501ddfe92f46681b20a08360001c11156125c557600060039150915061268e565b601b8560ff16141580156125dd5750601c8560ff1614155b156125ef57600060049150915061268e565b6000600187878787604051600081526020016040526040516126149493929190613de8565b6020604051602081039080840390855afa158015612636573d6000803e3d6000fd5b505050602060405103519050600073ffffffffffffffffffffffffffffffffffffffff168173ffffffffffffffffffffffffffffffffffffffff1614156126855760006001925092505061268e565b80600092509250505b94509492505050565b600060048111156126d1577f4e487b7100000000000000000000000000000000000000000000000000000000600052602160045260246000fd5b81600481111561270a577f4e487b7100000000000000000000000000000000000000000000000000000000600052602160045260246000fd5b1415612715576129e5565b6001600481111561274f577f4e487b7100000000000000000000000000000000000000000000000000000000600052602160045260246000fd5b816004811115612788577f4e487b7100000000000000000000000000000000000000000000000000000000600052602160045260246000fd5b14156127c9576040517f08c379a00000000000000000000000000000000000000000000000000000000081526004016127c090613e85565b60405180910390fd5b60026004811115612803577f4e487b7100000000000000000000000000000000000000000000000000000000600052602160045260246000fd5b81600481111561283c577f4e487b7100000000000000000000000000000000000000000000000000000000600052602160045260246000fd5b141561287d576040517f08c379a000000000000000000000000000000000000000000000000000000000815260040161287490613f25565b60405180910390fd5b600360048111156128b7577f4e487b7100000000000000000000000000000000000000000000000000000000600052602160045260246000fd5b8160048111156128f0577f4e487b7100000000000000000000000000000000000000000000000000000000600052602160045260246000fd5b1415612931576040517f08c379a000000000000000000000000000000000000000000000000000000000815260040161292890613f65565b60405180910390fd5b60048081111561296a577f4e487b7100000000000000000000000000000000000000000000000000000000600052602160045260246000fd5b8160048111156129a3577f4e487b7100000000000000000000000000000000000000000000000000000000600052602160045260246000fd5b14156129e4576040517f08c379a00000000000000000000000000000000000000000000000000000000081526004016129db90614005565b60405180910390fd5b5b50565b60006002600086815260200190815260200160002090508060030160008573ffffffffffffffffffffffffffffffffffffffff1673ffffffffffffffffffffffffffffffffffffffff16815260200190815260200160002060009054906101000a900460ff1615612a8e576040517f08c379a0000000000000000000000000000000000000000000000000000000008152600401612a8590613f85565b60405180910390fd5b60018160030160008673ffffffffffffffffffffffffffffffffffffffff1673ffffffffffffffffffffffffffffffffffffffff16815260200190815260200160002060006101000a81548160ff02191690831515021790555060006002811115612b22577f4e487b7100000000000000000000000000000000000000000000000000000000600052602160045260246000fd5b60ff168360ff161415612b4f5781816000016000828254612b4391906144ca565b92505081905550612c59565b60016002811115612b89577f4e487b7100000000000000000000000000000000000000000000000000000000600052602160045260246000fd5b60ff168360ff161415612bb65781816001016000828254612baa91906144ca565b92505081905550612c58565b600280811115612bef577f4e487b7100000000000000000000000000000000000000000000000000000000600052602160045260246000fd5b60ff168360ff161415612c1c5781816002016000828254612c1091906144ca565b92505081905550612c57565b6040517f08c379a0000000000000000000000000000000000000000000000000000000008152600401612c4e90614085565b60405180910390fd5b5b5b5050505050565b600080826000015167ffffffffffffffff16119050919050565b600080826000015167ffffffffffffffff16149050919050565b600067ffffffffffffffff8016821115612ce3576040517f08c379a0000000000000000000000000000000000000000000000000000000008152600401612cda90614025565b60405180910390fd5b819050919050565b808260000160006101000a81548167ffffffffffffffff021916908367ffffffffffffffff1602179055505050565b60007f01ffc9a7000000000000000000000000000000000000000000000000000000007bffffffffffffffffffffffffffffffffffffffffffffffffffffffff1916827bffffffffffffffffffffffffffffffffffffffffffffffffffffffff1916149050919050565b60008383834630604051602001612d9f959493929190613d5e565b6040516020818303038152906040528051906020012090509392505050565b6000612dd1612dcc846142a1565b61427c565b90508083825260208201905082856020860282011115612df057600080fd5b60005b85811015612e205781612e068882612f98565b845260208401935060208301925050600181019050612df3565b5050509392505050565b6000612e3d612e38846142cd565b61427c565b90508083825260208201905082856020860282011115612e5c57600080fd5b60005b85811015612ea657813567ffffffffffffffff811115612e7e57600080fd5b808601612e8b8982613055565b85526020850194506020840193505050600181019050612e5f565b5050509392505050565b6000612ec3612ebe846142f9565b61427c565b90508083825260208201905082856020860282011115612ee257600080fd5b60005b85811015612f125781612ef888826130f3565b845260208401935060208301925050600181019050612ee5565b5050509392505050565b6000612f2f612f2a84614325565b61427c565b905082815260208101848484011115612f4757600080fd5b612f528482856146e3565b509392505050565b6000612f6d612f6884614356565b61427c565b905082815260208101848484011115612f8557600080fd5b612f908482856146e3565b509392505050565b600081359050612fa781614ed8565b92915050565b600082601f830112612fbe57600080fd5b8135612fce848260208601612dbe565b91505092915050565b600082601f830112612fe857600080fd5b8135612ff8848260208601612e2a565b91505092915050565b600082601f83011261301257600080fd5b8135613022848260208601612eb0565b91505092915050565b60008135905061303a81614eef565b92915050565b60008135905061304f81614f06565b92915050565b600082601f83011261306657600080fd5b8135613076848260208601612f1c565b91505092915050565b60008083601f84011261309157600080fd5b8235905067ffffffffffffffff8111156130aa57600080fd5b6020830191508360018202830111156130c257600080fd5b9250929050565b600082601f8301126130da57600080fd5b81356130ea848260208601612f5a565b91505092915050565b60008135905061310281614f1d565b92915050565b60008151905061311781614f1d565b92915050565b60008135905061312c81614f34565b92915050565b60006020828403121561314457600080fd5b600061315284828501612f98565b91505092915050565b6000806040838503121561316e57600080fd5b600061317c85828601612f98565b925050602061318d858286016130f3565b9150509250929050565b600080600080608085870312156131ad57600080fd5b600085013567ffffffffffffffff8111156131c757600080fd5b6131d387828801612fad565b945050602085013567ffffffffffffffff8111156131f057600080fd5b6131fc87828801613001565b935050604085013567ffffffffffffffff81111561321957600080fd5b61322587828801612fd7565b92505060606132368782880161302b565b91505092959194509250565b6000806000806080858703121561325857600080fd5b600085013567ffffffffffffffff81111561327257600080fd5b61327e87828801612fad565b945050602085013567ffffffffffffffff81111561329b57600080fd5b6132a787828801613001565b935050604085013567ffffffffffffffff8111156132c457600080fd5b6132d087828801612fd7565b925050606085013567ffffffffffffffff8111156132ed57600080fd5b6132f9878288016130c9565b91505092959194509250565b60006020828403121561331757600080fd5b60006133258482850161302b565b91505092915050565b6000806040838503121561334157600080fd5b600061334f8582860161302b565b925050602061336085828601612f98565b9150509250929050565b60006020828403121561337c57600080fd5b600061338a84828501613040565b91505092915050565b6000602082840312156133a557600080fd5b60006133b3848285016130f3565b91505092915050565b6000602082840312156133ce57600080fd5b60006133dc84828501613108565b91505092915050565b600080604083850312156133f857600080fd5b6000613406858286016130f3565b925050602061341785828601612f98565b9150509250929050565b6000806040838503121561343457600080fd5b6000613442858286016130f3565b92505060206134538582860161311d565b9150509250929050565b6000806000806060858703121561347357600080fd5b6000613481878288016130f3565b94505060206134928782880161311d565b935050604085013567ffffffffffffffff8111156134af57600080fd5b6134bb8782880161307f565b925092505092959194509250565b600080600080600060a086880312156134e157600080fd5b60006134ef888289016130f3565b95505060206135008882890161311d565b94505060406135118882890161311d565b93505060606135228882890161302b565b92505060806135338882890161302b565b9150509295509295909350565b600061354c8383613598565b60208301905092915050565b60006135648383613791565b905092915050565b60006135788383613819565b905092915050565b600061358c8383613be1565b60208301905092915050565b6135a1816145e9565b82525050565b6135b0816145e9565b82525050565b60006135c1826143c7565b6135cb818561443d565b93506135d683614387565b8060005b838110156136075781516135ee8882613540565b97506135f983614409565b9250506001810190506135da565b5085935050505092915050565b600061361f826143d2565b613629818561444e565b93508360208202850161363b85614397565b8060005b8581101561367757848403895281516136588582613558565b945061366383614416565b925060208a0199505060018101905061363f565b50829750879550505050505092915050565b6000613694826143dd565b61369e818561445f565b9350836020820285016136b0856143a7565b8060005b858110156136ec57848403895281516136cd858261356c565b94506136d883614423565b925060208a019950506001810190506136b4565b50829750879550505050505092915050565b6000613709826143e8565b6137138185614470565b935061371e836143b7565b8060005b8381101561374f5781516137368882613580565b975061374183614430565b925050600181019050613722565b5085935050505092915050565b613765816145fb565b82525050565b61377481614607565b82525050565b61378b61378682614607565b6147fb565b82525050565b600061379c826143f3565b6137a68185614481565b93506137b68185602086016146f2565b6137bf816148f0565b840191505092915050565b60006137d5826143f3565b6137df8185614492565b93506137ef8185602086016146f2565b80840191505092915050565b6138048161469b565b82525050565b613813816146bf565b82525050565b6000613824826143fe565b61382e818561449d565b935061383e8185602086016146f2565b613847816148f0565b840191505092915050565b600061385d826143fe565b61386781856144ae565b93506138778185602086016146f2565b613880816148f0565b840191505092915050565b6000613896826143fe565b6138a081856144bf565b93506138b08185602086016146f2565b80840191505092915050565b60006138c96018836144ae565b91506138d482614901565b602082019050919050565b60006138ec6018836144ae565b91506138f78261492a565b602082019050919050565b600061390f6020836144ae565b915061391a82614953565b602082019050919050565b60006139326043836144ae565b915061393d8261497c565b606082019050919050565b6000613955600f836144ae565b9150613960826149f1565b602082019050919050565b6000613978601f836144ae565b915061398382614a1a565b602082019050919050565b600061399b6002836144bf565b91506139a682614a43565b600282019050919050565b60006139be6021836144ae565b91506139c982614a6c565b604082019050919050565b60006139e16022836144ae565b91506139ec82614abb565b604082019050919050565b6000613a046027836144ae565b9150613a0f82614b0a565b604082019050919050565b6000613a276023836144ae565b9150613a3282614b59565b604082019050919050565b6000613a4a6021836144ae565b9150613a5582614ba8565b604082019050919050565b6000613a6d6018836144ae565b9150613a7882614bf7565b602082019050919050565b6000613a906022836144ae565b9150613a9b82614c20565b604082019050919050565b6000613ab36026836144ae565b9150613abe82614c6f565b604082019050919050565b6000613ad66021836144ae565b9150613ae182614cbe565b604082019050919050565b6000613af9601d836144ae565b9150613b0482614d0d565b602082019050919050565b6000613b1c6035836144ae565b9150613b2782614d36565b604082019050919050565b6000613b3f6021836144ae565b9150613b4a82614d85565b604082019050919050565b6000613b626017836144bf565b9150613b6d82614dd4565b601782019050919050565b6000613b856027836144ae565b9150613b9082614dfd565b604082019050919050565b6000613ba86011836144bf565b9150613bb382614e4c565b601182019050919050565b6000613bcb602f836144ae565b9150613bd682614e75565b604082019050919050565b613bea81614670565b82525050565b613bf981614670565b82525050565b613c08816146d1565b82525050565b613c178161468e565b82525050565b6000613c2982846137ca565b915081905092915050565b6000613c3f8261398e565b9150613c4b828561377a565b602082019150613c5b828461377a565b6020820191508190509392505050565b6000613c7682613b55565b9150613c82828561388b565b9150613c8d82613b9b565b9150613c99828461388b565b91508190509392505050565b6000604082019050613cba60008301856135a7565b613cc76020830184613bf0565b9392505050565b60006080820190508181036000830152613ce881876135b6565b90508181036020830152613cfc81866136fe565b90508181036040830152613d108185613614565b9050613d1f606083018461376b565b95945050505050565b6000602082019050613d3d600083018461375c565b92915050565b6000602082019050613d58600083018461376b565b92915050565b600060a082019050613d73600083018861376b565b613d80602083018761376b565b613d8d604083018661376b565b613d9a6060830185613bf0565b613da760808301846135a7565b9695505050505050565b6000606082019050613dc6600083018661376b565b613dd36020830185613bf0565b613de06040830184613c0e565b949350505050565b6000608082019050613dfd600083018761376b565b613e0a6020830186613c0e565b613e17604083018561376b565b613e24606083018461376b565b95945050505050565b6000602082019050613e4260008301846137fb565b92915050565b6000602082019050613e5d600083018461380a565b92915050565b60006020820190508181036000830152613e7d8184613852565b905092915050565b60006020820190508181036000830152613e9e816138bc565b9050919050565b60006020820190508181036000830152613ebe816138df565b9050919050565b60006020820190508181036000830152613ede81613902565b9050919050565b60006020820190508181036000830152613efe81613925565b9050919050565b60006020820190508181036000830152613f1e81613948565b9050919050565b60006020820190508181036000830152613f3e8161396b565b9050919050565b60006020820190508181036000830152613f5e816139b1565b9050919050565b60006020820190508181036000830152613f7e816139d4565b9050919050565b60006020820190508181036000830152613f9e816139f7565b9050919050565b60006020820190508181036000830152613fbe81613a1a565b9050919050565b60006020820190508181036000830152613fde81613a3d565b9050919050565b60006020820190508181036000830152613ffe81613a60565b9050919050565b6000602082019050818103600083015261401e81613a83565b9050919050565b6000602082019050818103600083015261403e81613aa6565b9050919050565b6000602082019050818103600083015261405e81613ac9565b9050919050565b6000602082019050818103600083015261407e81613aec565b9050919050565b6000602082019050818103600083015261409e81613b0f565b9050919050565b600060208201905081810360008301526140be81613b32565b9050919050565b600060208201905081810360008301526140de81613b78565b9050919050565b600060208201905081810360008301526140fe81613bbe565b9050919050565b600060208201905061411a6000830184613bf0565b92915050565b600061012082019050614136600083018c613bf0565b614143602083018b6135a7565b8181036040830152614155818a6135b6565b9050818103606083015261416981896136fe565b9050818103608083015261417d8188613689565b905081810360a08301526141918187613614565b90506141a060c0830186613bff565b6141ad60e0830185613bff565b8181036101008301526141c08184613852565b90509a9950505050505050505050565b60006040820190506141e56000830185613bf0565b6141f26020830184613bf0565b9392505050565b600060608201905061420e6000830186613bf0565b61421b6020830185613bf0565b6142286040830184613bf0565b949350505050565b60006080820190506142456000830187613bf0565b6142526020830186613c0e565b61425f6040830185613bf0565b81810360608301526142718184613852565b905095945050505050565b6000614286614297565b90506142928282614781565b919050565b6000604051905090565b600067ffffffffffffffff8211156142bc576142bb6148c1565b5b602082029050602081019050919050565b600067ffffffffffffffff8211156142e8576142e76148c1565b5b602082029050602081019050919050565b600067ffffffffffffffff821115614314576143136148c1565b5b602082029050602081019050919050565b600067ffffffffffffffff8211156143405761433f6148c1565b5b614349826148f0565b9050602081019050919050565b600067ffffffffffffffff821115614371576143706148c1565b5b61437a826148f0565b9050602081019050919050565b6000819050602082019050919050565b6000819050602082019050919050565b6000819050602082019050919050565b6000819050602082019050919050565b600081519050919050565b600081519050919050565b600081519050919050565b600081519050919050565b600081519050919050565b600081519050919050565b6000602082019050919050565b6000602082019050919050565b6000602082019050919050565b6000602082019050919050565b600082825260208201905092915050565b600082825260208201905092915050565b600082825260208201905092915050565b600082825260208201905092915050565b600082825260208201905092915050565b600081905092915050565b600082825260208201905092915050565b600082825260208201905092915050565b600081905092915050565b60006144d582614670565b91506144e083614670565b9250827fffffffffffffffffffffffffffffffffffffffffffffffffffffffffffffffff0382111561451557614514614805565b5b828201905092915050565b600061452b8261467a565b91506145368361467a565b92508267ffffffffffffffff0382111561455357614552614805565b5b828201905092915050565b600061456982614670565b915061457483614670565b92508261458457614583614834565b5b828204905092915050565b600061459a82614670565b91506145a583614670565b9250817fffffffffffffffffffffffffffffffffffffffffffffffffffffffffffffffff04831182151516156145de576145dd614805565b5b828202905092915050565b60006145f482614650565b9050919050565b60008115159050919050565b6000819050919050565b60007fffffffff0000000000000000000000000000000000000000000000000000000082169050919050565b600081905061464b82614ec4565b919050565b600073ffffffffffffffffffffffffffffffffffffffff82169050919050565b6000819050919050565b600067ffffffffffffffff82169050919050565b600060ff82169050919050565b60006146a6826146ad565b9050919050565b60006146b882614650565b9050919050565b60006146ca8261463d565b9050919050565b60006146dc8261467a565b9050919050565b82818337600083830152505050565b60005b838110156147105780820151818401526020810190506146f5565b8381111561471f576000848401525b50505050565b600061473082614670565b9150600082141561474457614743614805565b5b600182039050919050565b6000600282049050600182168061476757607f821691505b6020821081141561477b5761477a614892565b5b50919050565b61478a826148f0565b810181811067ffffffffffffffff821117156147a9576147a86148c1565b5b80604052505050565b60006147bd82614670565b91507fffffffffffffffffffffffffffffffffffffffffffffffffffffffffffffffff8214156147f0576147ef614805565b5b600182019050919050565b6000819050919050565b7f4e487b7100000000000000000000000000000000000000000000000000000000600052601160045260246000fd5b7f4e487b7100000000000000000000000000000000000000000000000000000000600052601260045260246000fd5b7f4e487b7100000000000000000000000000000000000000000000000000000000600052602160045260246000fd5b7f4e487b7100000000000000000000000000000000000000000000000000000000600052602260045260246000fd5b7f4e487b7100000000000000000000000000000000000000000000000000000000600052604160045260246000fd5b6000601f19601f8301169050919050565b7f45434453413a20696e76616c6964207369676e61747572650000000000000000600082015250565b7f476f7665726e6f723a206f6e6c79476f7665726e616e63650000000000000000600082015250565b7f537472696e67733a20686578206c656e67746820696e73756666696369656e74600082015250565b7f476f7665726e6f72566f74657351756f72756d4672616374696f6e3a2071756f60008201527f72756d4e756d657261746f72206f7665722071756f72756d44656e6f6d696e6160208201527f746f720000000000000000000000000000000000000000000000000000000000604082015250565b7f6b616f4d6f6a69206e6f74207365740000000000000000000000000000000000600082015250565b7f45434453413a20696e76616c6964207369676e6174757265206c656e67746800600082015250565b7f1901000000000000000000000000000000000000000000000000000000000000600082015250565b7f476f7665726e6f723a20696e76616c69642070726f706f73616c206c656e677460008201527f6800000000000000000000000000000000000000000000000000000000000000602082015250565b7f45434453413a20696e76616c6964207369676e6174757265202773272076616c60008201527f7565000000000000000000000000000000000000000000000000000000000000602082015250565b7f476f7665726e6f72566f74696e6753696d706c653a20766f746520616c72656160008201527f6479206361737400000000000000000000000000000000000000000000000000602082015250565b7f476f7665726e6f723a20766f7465206e6f742063757272656e746c792061637460008201527f6976650000000000000000000000000000000000000000000000000000000000602082015250565b7f4f6e652070726f706f73616c20706572207472616e73616374696f6e206f6e6c60008201527f7900000000000000000000000000000000000000000000000000000000000000602082015250565b7f476f7665726e6f723a20656d7074792070726f706f73616c0000000000000000600082015250565b7f45434453413a20696e76616c6964207369676e6174757265202776272076616c60008201527f7565000000000000000000000000000000000000000000000000000000000000602082015250565b7f53616665436173743a2076616c756520646f65736e27742066697420696e203660008201527f3420626974730000000000000000000000000000000000000000000000000000602082015250565b7f476f7665726e6f723a2070726f706f73616c206e6f742073756363657373667560008201527f6c00000000000000000000000000000000000000000000000000000000000000602082015250565b7f476f7665726e6f723a20756e6b6e6f776e2070726f706f73616c206964000000600082015250565b7f476f7665726e6f72566f74696e6753696d706c653a20696e76616c696420766160008201527f6c756520666f7220656e756d20566f7465547970650000000000000000000000602082015250565b7f476f7665726e6f723a2070726f706f73616c20616c726561647920657869737460008201527f7300000000000000000000000000000000000000000000000000000000000000602082015250565b7f416363657373436f6e74726f6c3a206163636f756e7420000000000000000000600082015250565b7f7461726765742063616e206f6e6c7920626520746865206b616f4d6f6a69206360008201527f6f6e747261637400000000000000000000000000000000000000000000000000602082015250565b7f206973206d697373696e6720726f6c6520000000000000000000000000000000600082015250565b7f416363657373436f6e74726f6c3a2063616e206f6e6c792072656e6f756e636560008201527f20726f6c657320666f722073656c660000000000000000000000000000000000602082015250565b60088110614ed557614ed4614863565b5b50565b614ee1816145e9565b8114614eec57600080fd5b50565b614ef881614607565b8114614f0357600080fd5b50565b614f0f81614611565b8114614f1a57600080fd5b50565b614f2681614670565b8114614f3157600080fd5b50565b614f3d8161468e565b8114614f4857600080fd5b5056fe476f7665726e6f723a2063616c6c20726576657274656420776974686f7574206d657373616765a2646970667358221220337e5f17a742daac1f822b4b17c3d3e7cb16d362db5b07b72bcaba5097eabfbc64736f6c63430008040033",
  "linkReferences": {},
  "deployedLinkReferences": {}
}