{
  "_format": "hh-sol-artifact-1",
  "contractName": "KaoDao",
  "sourceName": "contracts/KaoDao.sol",
  "abi": [
    {
      "inputs": [
        {
          "internalType": "contract ERC20Votes",
          "name": "_token",
          "type": "address"
        }
      ],
      "stateMutability": "nonpayable",
      "type": "constructor"
    },
    {
      "anonymous": false,
      "inputs": [
        {
          "indexed": false,
          "internalType": "uint256",
          "name": "proposalId",
          "type": "uint256"
        }
      ],
      "name": "ProposalCanceled",
      "type": "event"
    },
    {
      "anonymous": false,
      "inputs": [
        {
          "indexed": false,
          "internalType": "uint256",
          "name": "proposalId",
          "type": "uint256"
        },
        {
          "indexed": false,
          "internalType": "address",
          "name": "proposer",
          "type": "address"
        },
        {
          "indexed": false,
          "internalType": "address[]",
          "name": "targets",
          "type": "address[]"
        },
        {
          "indexed": false,
          "internalType": "uint256[]",
          "name": "values",
          "type": "uint256[]"
        },
        {
          "indexed": false,
          "internalType": "string[]",
          "name": "signatures",
          "type": "string[]"
        },
        {
          "indexed": false,
          "internalType": "bytes[]",
          "name": "calldatas",
          "type": "bytes[]"
        },
        {
          "indexed": false,
          "internalType": "uint256",
          "name": "startBlock",
          "type": "uint256"
        },
        {
          "indexed": false,
          "internalType": "uint256",
          "name": "endBlock",
          "type": "uint256"
        },
        {
          "indexed": false,
          "internalType": "string",
          "name": "description",
          "type": "string"
        }
      ],
      "name": "ProposalCreated",
      "type": "event"
    },
    {
      "anonymous": false,
      "inputs": [
        {
          "indexed": false,
          "internalType": "uint256",
          "name": "proposalId",
          "type": "uint256"
        }
      ],
      "name": "ProposalExecuted",
      "type": "event"
    },
    {
      "anonymous": false,
      "inputs": [
        {
          "indexed": false,
          "internalType": "uint256",
          "name": "oldQuorumNumerator",
          "type": "uint256"
        },
        {
          "indexed": false,
          "internalType": "uint256",
          "name": "newQuorumNumerator",
          "type": "uint256"
        }
      ],
      "name": "QuorumNumeratorUpdated",
      "type": "event"
    },
    {
      "anonymous": false,
      "inputs": [
        {
          "indexed": true,
          "internalType": "address",
          "name": "voter",
          "type": "address"
        },
        {
          "indexed": false,
          "internalType": "uint256",
          "name": "proposalId",
          "type": "uint256"
        },
        {
          "indexed": false,
          "internalType": "uint8",
          "name": "support",
          "type": "uint8"
        },
        {
          "indexed": false,
          "internalType": "uint256",
          "name": "weight",
          "type": "uint256"
        },
        {
          "indexed": false,
          "internalType": "string",
          "name": "reason",
          "type": "string"
        }
      ],
      "name": "VoteCast",
      "type": "event"
    },
    {
      "inputs": [],
      "name": "BALLOT_TYPEHASH",
      "outputs": [
        {
          "internalType": "bytes32",
          "name": "",
          "type": "bytes32"
        }
      ],
      "stateMutability": "view",
      "type": "function"
    },
    {
      "inputs": [],
      "name": "COUNTING_MODE",
      "outputs": [
        {
          "internalType": "string",
          "name": "",
          "type": "string"
        }
      ],
      "stateMutability": "pure",
      "type": "function"
    },
    {
      "inputs": [
        {
          "internalType": "uint256",
          "name": "proposalId",
          "type": "uint256"
        },
        {
          "internalType": "uint8",
          "name": "support",
          "type": "uint8"
        }
      ],
      "name": "castVote",
      "outputs": [
        {
          "internalType": "uint256",
          "name": "",
          "type": "uint256"
        }
      ],
      "stateMutability": "nonpayable",
      "type": "function"
    },
    {
      "inputs": [
        {
          "internalType": "uint256",
          "name": "proposalId",
          "type": "uint256"
        },
        {
          "internalType": "uint8",
          "name": "support",
          "type": "uint8"
        },
        {
          "internalType": "uint8",
          "name": "v",
          "type": "uint8"
        },
        {
          "internalType": "bytes32",
          "name": "r",
          "type": "bytes32"
        },
        {
          "internalType": "bytes32",
          "name": "s",
          "type": "bytes32"
        }
      ],
      "name": "castVoteBySig",
      "outputs": [
        {
          "internalType": "uint256",
          "name": "",
          "type": "uint256"
        }
      ],
      "stateMutability": "nonpayable",
      "type": "function"
    },
    {
      "inputs": [
        {
          "internalType": "uint256",
          "name": "proposalId",
          "type": "uint256"
        },
        {
          "internalType": "uint8",
          "name": "support",
          "type": "uint8"
        },
        {
          "internalType": "string",
          "name": "reason",
          "type": "string"
        }
      ],
      "name": "castVoteWithReason",
      "outputs": [
        {
          "internalType": "uint256",
          "name": "",
          "type": "uint256"
        }
      ],
      "stateMutability": "nonpayable",
      "type": "function"
    },
    {
      "inputs": [
        {
          "internalType": "address[]",
          "name": "targets",
          "type": "address[]"
        },
        {
          "internalType": "uint256[]",
          "name": "values",
          "type": "uint256[]"
        },
        {
          "internalType": "bytes[]",
          "name": "calldatas",
          "type": "bytes[]"
        },
        {
          "internalType": "bytes32",
          "name": "descriptionHash",
          "type": "bytes32"
        }
      ],
      "name": "execute",
      "outputs": [
        {
          "internalType": "uint256",
          "name": "",
          "type": "uint256"
        }
      ],
      "stateMutability": "payable",
      "type": "function"
    },
    {
      "inputs": [
        {
          "internalType": "address",
          "name": "account",
          "type": "address"
        },
        {
          "internalType": "uint256",
          "name": "blockNumber",
          "type": "uint256"
        }
      ],
      "name": "getVotes",
      "outputs": [
        {
          "internalType": "uint256",
          "name": "",
          "type": "uint256"
        }
      ],
      "stateMutability": "view",
      "type": "function"
    },
    {
      "inputs": [
        {
          "internalType": "uint256",
          "name": "proposalId",
          "type": "uint256"
        },
        {
          "internalType": "address",
          "name": "account",
          "type": "address"
        }
      ],
      "name": "hasVoted",
      "outputs": [
        {
          "internalType": "bool",
          "name": "",
          "type": "bool"
        }
      ],
      "stateMutability": "view",
      "type": "function"
    },
    {
      "inputs": [
        {
          "internalType": "address[]",
          "name": "targets",
          "type": "address[]"
        },
        {
          "internalType": "uint256[]",
          "name": "values",
          "type": "uint256[]"
        },
        {
          "internalType": "bytes[]",
          "name": "calldatas",
          "type": "bytes[]"
        },
        {
          "internalType": "bytes32",
          "name": "descriptionHash",
          "type": "bytes32"
        }
      ],
      "name": "hashProposal",
      "outputs": [
        {
          "internalType": "uint256",
          "name": "",
          "type": "uint256"
        }
      ],
      "stateMutability": "pure",
      "type": "function"
    },
    {
      "inputs": [],
      "name": "name",
      "outputs": [
        {
          "internalType": "string",
          "name": "",
          "type": "string"
        }
      ],
      "stateMutability": "view",
      "type": "function"
    },
    {
      "inputs": [
        {
          "internalType": "uint256",
          "name": "proposalId",
          "type": "uint256"
        }
      ],
      "name": "proposalDeadline",
      "outputs": [
        {
          "internalType": "uint256",
          "name": "",
          "type": "uint256"
        }
      ],
      "stateMutability": "view",
      "type": "function"
    },
    {
      "inputs": [
        {
          "internalType": "uint256",
          "name": "proposalId",
          "type": "uint256"
        }
      ],
      "name": "proposalSnapshot",
      "outputs": [
        {
          "internalType": "uint256",
          "name": "",
          "type": "uint256"
        }
      ],
      "stateMutability": "view",
      "type": "function"
    },
    {
      "inputs": [
        {
          "internalType": "uint256",
          "name": "proposalId",
          "type": "uint256"
        }
      ],
      "name": "proposalVotes",
      "outputs": [
        {
          "internalType": "uint256",
          "name": "againstVotes",
          "type": "uint256"
        },
        {
          "internalType": "uint256",
          "name": "forVotes",
          "type": "uint256"
        },
        {
          "internalType": "uint256",
          "name": "abstainVotes",
          "type": "uint256"
        }
      ],
      "stateMutability": "view",
      "type": "function"
    },
    {
      "inputs": [
        {
          "internalType": "address[]",
          "name": "targets",
          "type": "address[]"
        },
        {
          "internalType": "uint256[]",
          "name": "values",
          "type": "uint256[]"
        },
        {
          "internalType": "bytes[]",
          "name": "calldatas",
          "type": "bytes[]"
        },
        {
          "internalType": "string",
          "name": "description",
          "type": "string"
        }
      ],
      "name": "propose",
      "outputs": [
        {
          "internalType": "uint256",
          "name": "",
          "type": "uint256"
        }
      ],
      "stateMutability": "nonpayable",
      "type": "function"
    },
    {
      "inputs": [
        {
          "internalType": "uint256",
          "name": "blockNumber",
          "type": "uint256"
        }
      ],
      "name": "quorum",
      "outputs": [
        {
          "internalType": "uint256",
          "name": "",
          "type": "uint256"
        }
      ],
      "stateMutability": "view",
      "type": "function"
    },
    {
      "inputs": [],
      "name": "quorumDenominator",
      "outputs": [
        {
          "internalType": "uint256",
          "name": "",
          "type": "uint256"
        }
      ],
      "stateMutability": "view",
      "type": "function"
    },
    {
      "inputs": [],
      "name": "quorumNumerator",
      "outputs": [
        {
          "internalType": "uint256",
          "name": "",
          "type": "uint256"
        }
      ],
      "stateMutability": "view",
      "type": "function"
    },
    {
      "inputs": [
        {
          "internalType": "uint256",
          "name": "proposalId",
          "type": "uint256"
        }
      ],
      "name": "state",
      "outputs": [
        {
          "internalType": "enum IGovernor.ProposalState",
          "name": "",
          "type": "uint8"
        }
      ],
      "stateMutability": "view",
      "type": "function"
    },
    {
      "inputs": [
        {
          "internalType": "bytes4",
          "name": "interfaceId",
          "type": "bytes4"
        }
      ],
      "name": "supportsInterface",
      "outputs": [
        {
          "internalType": "bool",
          "name": "",
          "type": "bool"
        }
      ],
      "stateMutability": "view",
      "type": "function"
    },
    {
      "inputs": [],
      "name": "token",
      "outputs": [
        {
          "internalType": "contract ERC20Votes",
          "name": "",
          "type": "address"
        }
      ],
      "stateMutability": "view",
      "type": "function"
    },
    {
      "inputs": [
        {
          "internalType": "uint256",
          "name": "newQuorumNumerator",
          "type": "uint256"
        }
      ],
      "name": "updateQuorumNumerator",
      "outputs": [],
      "stateMutability": "nonpayable",
      "type": "function"
    },
    {
      "inputs": [],
      "name": "version",
      "outputs": [
        {
          "internalType": "string",
          "name": "",
          "type": "string"
        }
      ],
      "stateMutability": "view",
      "type": "function"
    },
    {
      "inputs": [],
      "name": "votingDelay",
      "outputs": [
        {
          "internalType": "uint256",
          "name": "",
          "type": "uint256"
        }
      ],
      "stateMutability": "pure",
      "type": "function"
    },
    {
      "inputs": [],
      "name": "votingPeriod",
      "outputs": [
        {
          "internalType": "uint256",
          "name": "",
          "type": "uint256"
        }
      ],
      "stateMutability": "pure",
      "type": "function"
    }
  ],
  "bytecode": "0x6101406040523480156200001257600080fd5b506040516200461038038062004610833981810160405281019062000038919062000356565b6005816040518060400160405280600681526020017f4b616f44616f000000000000000000000000000000000000000000000000000081525080620000826200016b60201b60201c565b60008280519060200120905060008280519060200120905060007f8b73c3c69bb8fe3d512ecc4cf759cc79239f7b179b0ffacaa9a75d522b39400f90508260c081815250508160e081815250504660a08181525050620000ea818484620001a860201b60201c565b6080818152505080610100818152505050505050508060009080519060200190620001179291906200028f565b50508073ffffffffffffffffffffffffffffffffffffffff166101208173ffffffffffffffffffffffffffffffffffffffff1660601b81525050506200016381620001e460201b60201c565b5050620005e9565b60606040518060400160405280600181526020017f3100000000000000000000000000000000000000000000000000000000000000815250905090565b60008383834630604051602001620001c5959493929190620003dc565b6040516020818303038152906040528051906020012090509392505050565b620001f46200028660201b60201c565b81111562000239576040517f08c379a0000000000000000000000000000000000000000000000000000000008152600401620002309062000439565b60405180910390fd5b60006003549050816003819055507f0553476bf02ef2726e8ce5ced78d63e26e602e4a2257b1f559418e24b463399781836040516200027a9291906200045b565b60405180910390a15050565b60006064905090565b8280546200029d90620004f5565b90600052602060002090601f016020900481019282620002c157600085556200030d565b82601f10620002dc57805160ff19168380011785556200030d565b828001600101855582156200030d579182015b828111156200030c578251825591602001919060010190620002ef565b5b5090506200031c919062000320565b5090565b5b808211156200033b57600081600090555060010162000321565b5090565b6000815190506200035081620005cf565b92915050565b6000602082840312156200036957600080fd5b600062000379848285016200033f565b91505092915050565b6200038d8162000499565b82525050565b6200039e81620004ad565b82525050565b6000620003b360438362000488565b9150620003c0826200055a565b606082019050919050565b620003d681620004eb565b82525050565b600060a082019050620003f3600083018862000393565b62000402602083018762000393565b62000411604083018662000393565b620004206060830185620003cb565b6200042f608083018462000382565b9695505050505050565b600060208201905081810360008301526200045481620003a4565b9050919050565b6000604082019050620004726000830185620003cb565b620004816020830184620003cb565b9392505050565b600082825260208201905092915050565b6000620004a682620004cb565b9050919050565b6000819050919050565b6000620004c48262000499565b9050919050565b600073ffffffffffffffffffffffffffffffffffffffff82169050919050565b6000819050919050565b600060028204905060018216806200050e57607f821691505b602082108114156200052557620005246200052b565b5b50919050565b7f4e487b7100000000000000000000000000000000000000000000000000000000600052602260045260246000fd5b7f476f7665726e6f72566f74657351756f72756d4672616374696f6e3a2071756f60008201527f72756d4e756d657261746f72206f7665722071756f72756d44656e6f6d696e6160208201527f746f720000000000000000000000000000000000000000000000000000000000604082015250565b620005da81620004b7565b8114620005e657600080fd5b50565b60805160a05160c05160e051610100516101205160601c613fc66200064a60003960008181610f5001528181611777015261183c015260006119bc015260006119fe015260006119dd01526000611969015260006119910152613fc66000f3fe60806040526004361061014b5760003560e01c806356781388116100b6578063c59057e41161006f578063c59057e41461050f578063dd4e2ba51461054c578063deaaa7cc14610577578063eb9019d4146105a2578063f8ce560a146105df578063fc0c546a1461061c5761014b565b806356781388146103c55780637b3c71d3146104025780637d5e81e21461043f57806397c3d3341461047c578063a7713a70146104a7578063c01f9e37146104d25761014b565b80633932abb1116101085780633932abb1146102795780633bccf4fd146102a45780633e4f49e6146102e1578063438596321461031e578063544ffc9c1461035b57806354fd4d501461039a5761014b565b806301ffc9a71461015057806302a251a31461018d57806306f3f9e6146101b857806306fdde03146101e15780632656227d1461020c5780632d63f6931461023c575b600080fd5b34801561015c57600080fd5b5061017760048036038101906101729190612743565b610647565b6040516101849190612fa1565b60405180910390f35b34801561019957600080fd5b506101a26106c1565b6040516101af91906132de565b60405180910390f35b3480156101c457600080fd5b506101df60048036038101906101da919061276c565b6106cb565b005b3480156101ed57600080fd5b506101f6610753565b60405161020391906130dc565b60405180910390f35b610226600480360381019061022191906125d5565b6107e5565b60405161023391906132de565b60405180910390f35b34801561024857600080fd5b50610263600480360381019061025e919061276c565b6109b0565b60405161027091906132de565b60405180910390f35b34801561028557600080fd5b5061028e610a1e565b60405161029b91906132de565b60405180910390f35b3480156102b057600080fd5b506102cb60048036038101906102c691906128a2565b610a28565b6040516102d891906132de565b60405180910390f35b3480156102ed57600080fd5b506103086004803603810190610303919061276c565b610ab2565b60405161031591906130c1565b60405180910390f35b34801561032a57600080fd5b50610345600480360381019061034091906127be565b610c79565b6040516103529190612fa1565b60405180910390f35b34801561036757600080fd5b50610382600480360381019061037d919061276c565b610ce4565b604051610391939291906133d2565b60405180910390f35b3480156103a657600080fd5b506103af610d1c565b6040516103bc91906130dc565b60405180910390f35b3480156103d157600080fd5b506103ec60048036038101906103e791906127fa565b610d59565b6040516103f991906132de565b60405180910390f35b34801561040e57600080fd5b5061042960048036038101906104249190612836565b610d8a565b60405161043691906132de565b60405180910390f35b34801561044b57600080fd5b5061046660048036038101906104619190612680565b610df2565b60405161047391906132de565b60405180910390f35b34801561048857600080fd5b50610491610e0a565b60405161049e91906132de565b60405180910390f35b3480156104b357600080fd5b506104bc610e13565b6040516104c991906132de565b60405180910390f35b3480156104de57600080fd5b506104f960048036038101906104f4919061276c565b610e1d565b60405161050691906132de565b60405180910390f35b34801561051b57600080fd5b50610536600480360381019061053191906125d5565b610e8b565b60405161054391906132de565b60405180910390f35b34801561055857600080fd5b50610561610ec7565b60405161056e91906130dc565b60405180910390f35b34801561058357600080fd5b5061058c610f04565b6040516105999190612fbc565b60405180910390f35b3480156105ae57600080fd5b506105c960048036038101906105c49190612599565b610f28565b6040516105d691906132de565b60405180910390f35b3480156105eb57600080fd5b506106066004803603810190610601919061276c565b610f3c565b60405161061391906132de565b60405180910390f35b34801561062857600080fd5b50610631610f4e565b60405161063e91906130a6565b60405180910390f35b60007fbf26d897000000000000000000000000000000000000000000000000000000007bffffffffffffffffffffffffffffffffffffffffffffffffffffffff1916827bffffffffffffffffffffffffffffffffffffffffffffffffffffffff191614806106ba57506106b982610f72565b5b9050919050565b600061b2fa905090565b6106d3610fdc565b73ffffffffffffffffffffffffffffffffffffffff166106f1610fe4565b73ffffffffffffffffffffffffffffffffffffffff1614610747576040517f08c379a000000000000000000000000000000000000000000000000000000000815260040161073e9061311e565b60405180910390fd5b61075081610fec565b50565b606060008054610762906138fe565b80601f016020809104026020016040519081016040528092919081815260200182805461078e906138fe565b80156107db5780601f106107b0576101008083540402835291602001916107db565b820191906000526020600020905b8154815290600101906020018083116107be57829003601f168201915b5050505050905090565b6000806107f486868686610e8b565b9050600061080182610ab2565b90506004600781111561083d577f4e487b7100000000000000000000000000000000000000000000000000000000600052602160045260246000fd5b816007811115610876577f4e487b7100000000000000000000000000000000000000000000000000000000600052602160045260246000fd5b14806108f25750600560078111156108b7577f4e487b7100000000000000000000000000000000000000000000000000000000600052602160045260246000fd5b8160078111156108f0577f4e487b7100000000000000000000000000000000000000000000000000000000600052602160045260246000fd5b145b610931576040517f08c379a00000000000000000000000000000000000000000000000000000000081526004016109289061325e565b60405180910390fd5b600180600084815260200190815260200160002060020160006101000a81548160ff0219169083151502179055507f712ae1383f79ac853f8d882153778e0260ef8f03b504e2866e0593e04d2b291f8260405161098e91906132de565b60405180910390a16109a38288888888611081565b8192505050949350505050565b6000610a0d600160008481526020019081526020016000206000016040518060200160405290816000820160009054906101000a900467ffffffffffffffff1667ffffffffffffffff1667ffffffffffffffff1681525050611202565b67ffffffffffffffff169050919050565b6000610111905090565b600080610a89610a817f150214d74d59b7d1e90c73fc22ef3d991dd0a76b046543d4d80ab92d2a50328f8989604051602001610a669392919061302a565b60405160208183030381529060405280519060200120611210565b86868661122a565b9050610aa687828860405180602001604052806000815250611255565b91505095945050505050565b60008060016000848152602001908152602001600020604051806080016040529081600082016040518060200160405290816000820160009054906101000a900467ffffffffffffffff1667ffffffffffffffff1667ffffffffffffffff16815250508152602001600182016040518060200160405290816000820160009054906101000a900467ffffffffffffffff1667ffffffffffffffff1667ffffffffffffffff168152505081526020016002820160009054906101000a900460ff161515151581526020016002820160019054906101000a900460ff1615151515815250509050806040015115610bab576007915050610c74565b806060015115610bbf576002915050610c74565b610bcc81600001516113f5565b15610bdb576000915050610c74565b610be881602001516113f5565b15610bf7576001915050610c74565b610c04816020015161140f565b15610c3957610c128361143b565b8015610c235750610c2283611482565b5b610c2e576003610c31565b60045b915050610c74565b6040517f08c379a0000000000000000000000000000000000000000000000000000000008152600401610c6b9061327e565b60405180910390fd5b919050565b60006002600084815260200190815260200160002060030160008373ffffffffffffffffffffffffffffffffffffffff1673ffffffffffffffffffffffffffffffffffffffff16815260200190815260200160002060009054906101000a900460ff16905092915050565b600080600080600260008681526020019081526020016000209050806000015481600101548260020154935093509350509193909250565b60606040518060400160405280600181526020017f3100000000000000000000000000000000000000000000000000000000000000815250905090565b600080610d64610fe4565b9050610d8184828560405180602001604052806000815250611255565b91505092915050565b600080610d95610fe4565b9050610de786828787878080601f016020809104026020016040519081016040528093929190818152602001838380828437600081840152601f19601f82011690508083019250505050505050611255565b915050949350505050565b6000610e00858585856114ad565b9050949350505050565b60006064905090565b6000600354905090565b6000610e7a600160008481526020019081526020016000206001016040518060200160405290816000820160009054906101000a900467ffffffffffffffff1667ffffffffffffffff1667ffffffffffffffff1681525050611202565b67ffffffffffffffff169050919050565b600084848484604051602001610ea49493929190612f47565b6040516020818303038152906040528051906020012060001c9050949350505050565b60606040518060400160405280602081526020017f737570706f72743d627261766f2671756f72756d3d666f722c6162737461696e815250905090565b7f150214d74d59b7d1e90c73fc22ef3d991dd0a76b046543d4d80ab92d2a50328f81565b6000610f348383611773565b905092915050565b6000610f4782611828565b9050919050565b7f000000000000000000000000000000000000000000000000000000000000000081565b60007f01ffc9a7000000000000000000000000000000000000000000000000000000007bffffffffffffffffffffffffffffffffffffffffffffffffffffffff1916827bffffffffffffffffffffffffffffffffffffffffffffffffffffffff1916149050919050565b600030905090565b600033905090565b610ff4610e0a565b811115611036576040517f08c379a000000000000000000000000000000000000000000000000000000000815260040161102d9061313e565b60405180910390fd5b60006003549050816003819055507f0553476bf02ef2726e8ce5ced78d63e26e602e4a2257b1f559418e24b463399781836040516110759291906133a9565b60405180910390a15050565b6000604051806060016040528060278152602001613f6a60279139905060005b85518110156111f9576000808783815181106110e6577f4e487b7100000000000000000000000000000000000000000000000000000000600052603260045260246000fd5b602002602001015173ffffffffffffffffffffffffffffffffffffffff1687848151811061113d577f4e487b7100000000000000000000000000000000000000000000000000000000600052603260045260246000fd5b602002602001015187858151811061117e577f4e487b7100000000000000000000000000000000000000000000000000000000600052603260045260246000fd5b60200260200101516040516111939190612ed0565b60006040518083038185875af1925050503d80600081146111d0576040519150601f19603f3d011682016040523d82523d6000602084013e6111d5565b606091505b50915091506111e58282866118fe565b505050806111f290613961565b90506110a1565b50505050505050565b600081600001519050919050565b600061122361121d611965565b83611a28565b9050919050565b600080600061123b87878787611a5b565b9150915061124881611b68565b8192505050949350505050565b600080600160008781526020019081526020016000209050600160078111156112a7577f4e487b7100000000000000000000000000000000000000000000000000000000600052602160045260246000fd5b6112b087610ab2565b60078111156112e8577f4e487b7100000000000000000000000000000000000000000000000000000000600052602160045260246000fd5b14611328576040517f08c379a000000000000000000000000000000000000000000000000000000000815260040161131f906131de565b60405180910390fd5b600061138686611377846000016040518060200160405290816000820160009054906101000a900467ffffffffffffffff1667ffffffffffffffff1667ffffffffffffffff1681525050611202565b67ffffffffffffffff16610f28565b905061139487878784611eb9565b8573ffffffffffffffffffffffffffffffffffffffff167fb8e138887d0aa13bab447e82de9d5c1777041ecd21ca36ba824ff1e6c07ddda4888784886040516113e09493929190613409565b60405180910390a28092505050949350505050565b600043826000015167ffffffffffffffff16119050919050565b600061141a82612131565b8015611434575043826000015167ffffffffffffffff1611155b9050919050565b6000806002600084815260200190815260200160002090508060020154816001015461146791906136a3565b611478611473856109b0565b610f3c565b1115915050919050565b6000806002600084815260200190815260200160002090508060000154816001015411915050919050565b6000806114c38686868680519060200120610e8b565b90508451865114611509576040517f08c379a00000000000000000000000000000000000000000000000000000000081526004016115009061317e565b60405180910390fd5b835186511461154d576040517f08c379a00000000000000000000000000000000000000000000000000000000081526004016115449061317e565b60405180910390fd5b6000865111611591576040517f08c379a0000000000000000000000000000000000000000000000000000000008152600401611588906131fe565b60405180910390fd5b60006001600083815260200190815260200160002090506115f1816000016040518060200160405290816000820160009054906101000a900467ffffffffffffffff1667ffffffffffffffff1667ffffffffffffffff168152505061214b565b611630576040517f08c379a0000000000000000000000000000000000000000000000000000000008152600401611627906132be565b60405180910390fd5b600061164261163d610a1e565b612165565b61164b43612165565b61165591906136f9565b905060006116696116646106c1565b612165565b8261167491906136f9565b905061168c82846000016121bc90919063ffffffff16565b6116a281846001016121bc90919063ffffffff16565b7f7d84a6263ae0d98d3329bd7b46bb4e8d6f98cd35a7adb45c274c8b7fd5ebd5e0846116cc610fe4565b8b8b8d5167ffffffffffffffff81111561170f577f4e487b7100000000000000000000000000000000000000000000000000000000600052604160045260246000fd5b60405190808252806020026020018201604052801561174257816020015b606081526020019060019003908161172d5790505b508c88888e60405161175c999897969594939291906132f9565b60405180910390a183945050505050949350505050565b60007f000000000000000000000000000000000000000000000000000000000000000073ffffffffffffffffffffffffffffffffffffffff16633a46b1a884846040518363ffffffff1660e01b81526004016117d0929190612f1e565b60206040518083038186803b1580156117e857600080fd5b505afa1580156117fc573d6000803e3d6000fd5b505050506040513d601f19601f820116820180604052508101906118209190612795565b905092915050565b6000611832610e0a565b61183a610e13565b7f000000000000000000000000000000000000000000000000000000000000000073ffffffffffffffffffffffffffffffffffffffff16638e539e8c856040518263ffffffff1660e01b815260040161189391906132de565b60206040518083038186803b1580156118ab57600080fd5b505afa1580156118bf573d6000803e3d6000fd5b505050506040513d601f19601f820116820180604052508101906118e39190612795565b6118ed9190613768565b6118f79190613737565b9050919050565b6060831561190e5782905061195e565b6000835111156119215782518084602001fd5b816040517f08c379a000000000000000000000000000000000000000000000000000000000815260040161195591906130dc565b60405180910390fd5b9392505050565b60007f00000000000000000000000000000000000000000000000000000000000000004614156119b7577f00000000000000000000000000000000000000000000000000000000000000009050611a25565b611a227f00000000000000000000000000000000000000000000000000000000000000007f00000000000000000000000000000000000000000000000000000000000000007f00000000000000000000000000000000000000000000000000000000000000006121eb565b90505b90565b60008282604051602001611a3d929190612ee7565b60405160208183030381529060405280519060200120905092915050565b6000807f7fffffffffffffffffffffffffffffff5d576e7357a4501ddfe92f46681b20a08360001c1115611a96576000600391509150611b5f565b601b8560ff1614158015611aae5750601c8560ff1614155b15611ac0576000600491509150611b5f565b600060018787878760405160008152602001604052604051611ae59493929190613061565b6020604051602081039080840390855afa158015611b07573d6000803e3d6000fd5b505050602060405103519050600073ffffffffffffffffffffffffffffffffffffffff168173ffffffffffffffffffffffffffffffffffffffff161415611b5657600060019250925050611b5f565b80600092509250505b94509492505050565b60006004811115611ba2577f4e487b7100000000000000000000000000000000000000000000000000000000600052602160045260246000fd5b816004811115611bdb577f4e487b7100000000000000000000000000000000000000000000000000000000600052602160045260246000fd5b1415611be657611eb6565b60016004811115611c20577f4e487b7100000000000000000000000000000000000000000000000000000000600052602160045260246000fd5b816004811115611c59577f4e487b7100000000000000000000000000000000000000000000000000000000600052602160045260246000fd5b1415611c9a576040517f08c379a0000000000000000000000000000000000000000000000000000000008152600401611c91906130fe565b60405180910390fd5b60026004811115611cd4577f4e487b7100000000000000000000000000000000000000000000000000000000600052602160045260246000fd5b816004811115611d0d577f4e487b7100000000000000000000000000000000000000000000000000000000600052602160045260246000fd5b1415611d4e576040517f08c379a0000000000000000000000000000000000000000000000000000000008152600401611d459061315e565b60405180910390fd5b60036004811115611d88577f4e487b7100000000000000000000000000000000000000000000000000000000600052602160045260246000fd5b816004811115611dc1577f4e487b7100000000000000000000000000000000000000000000000000000000600052602160045260246000fd5b1415611e02576040517f08c379a0000000000000000000000000000000000000000000000000000000008152600401611df99061319e565b60405180910390fd5b600480811115611e3b577f4e487b7100000000000000000000000000000000000000000000000000000000600052602160045260246000fd5b816004811115611e74577f4e487b7100000000000000000000000000000000000000000000000000000000600052602160045260246000fd5b1415611eb5576040517f08c379a0000000000000000000000000000000000000000000000000000000008152600401611eac9061321e565b60405180910390fd5b5b50565b60006002600086815260200190815260200160002090508060030160008573ffffffffffffffffffffffffffffffffffffffff1673ffffffffffffffffffffffffffffffffffffffff16815260200190815260200160002060009054906101000a900460ff1615611f5f576040517f08c379a0000000000000000000000000000000000000000000000000000000008152600401611f56906131be565b60405180910390fd5b60018160030160008673ffffffffffffffffffffffffffffffffffffffff1673ffffffffffffffffffffffffffffffffffffffff16815260200190815260200160002060006101000a81548160ff02191690831515021790555060006002811115611ff3577f4e487b7100000000000000000000000000000000000000000000000000000000600052602160045260246000fd5b60ff168360ff161415612020578181600001600082825461201491906136a3565b9250508190555061212a565b6001600281111561205a577f4e487b7100000000000000000000000000000000000000000000000000000000600052602160045260246000fd5b60ff168360ff161415612087578181600101600082825461207b91906136a3565b92505081905550612129565b6002808111156120c0577f4e487b7100000000000000000000000000000000000000000000000000000000600052602160045260246000fd5b60ff168360ff1614156120ed57818160020160008282546120e191906136a3565b92505081905550612128565b6040517f08c379a000000000000000000000000000000000000000000000000000000000815260040161211f9061329e565b60405180910390fd5b5b5b5050505050565b600080826000015167ffffffffffffffff16119050919050565b600080826000015167ffffffffffffffff16149050919050565b600067ffffffffffffffff80168211156121b4576040517f08c379a00000000000000000000000000000000000000000000000000000000081526004016121ab9061323e565b60405180910390fd5b819050919050565b808260000160006101000a81548167ffffffffffffffff021916908367ffffffffffffffff1602179055505050565b60008383834630604051602001612206959493929190612fd7565b6040516020818303038152906040528051906020012090509392505050565b60006122386122338461347a565b613455565b9050808382526020820190508285602086028201111561225757600080fd5b60005b85811015612287578161226d88826123ff565b84526020840193506020830192505060018101905061225a565b5050509392505050565b60006122a461229f846134a6565b613455565b905080838252602082019050828560208602820111156122c357600080fd5b60005b8581101561230d57813567ffffffffffffffff8111156122e557600080fd5b8086016122f289826124bc565b855260208501945060208401935050506001810190506122c6565b5050509392505050565b600061232a612325846134d2565b613455565b9050808382526020820190508285602086028201111561234957600080fd5b60005b85811015612379578161235f888261255a565b84526020840193506020830192505060018101905061234c565b5050509392505050565b6000612396612391846134fe565b613455565b9050828152602081018484840111156123ae57600080fd5b6123b98482856138bc565b509392505050565b60006123d46123cf8461352f565b613455565b9050828152602081018484840111156123ec57600080fd5b6123f78482856138bc565b509392505050565b60008135905061240e81613ef6565b92915050565b600082601f83011261242557600080fd5b8135612435848260208601612225565b91505092915050565b600082601f83011261244f57600080fd5b813561245f848260208601612291565b91505092915050565b600082601f83011261247957600080fd5b8135612489848260208601612317565b91505092915050565b6000813590506124a181613f0d565b92915050565b6000813590506124b681613f24565b92915050565b600082601f8301126124cd57600080fd5b81356124dd848260208601612383565b91505092915050565b60008083601f8401126124f857600080fd5b8235905067ffffffffffffffff81111561251157600080fd5b60208301915083600182028301111561252957600080fd5b9250929050565b600082601f83011261254157600080fd5b81356125518482602086016123c1565b91505092915050565b60008135905061256981613f3b565b92915050565b60008151905061257e81613f3b565b92915050565b60008135905061259381613f52565b92915050565b600080604083850312156125ac57600080fd5b60006125ba858286016123ff565b92505060206125cb8582860161255a565b9150509250929050565b600080600080608085870312156125eb57600080fd5b600085013567ffffffffffffffff81111561260557600080fd5b61261187828801612414565b945050602085013567ffffffffffffffff81111561262e57600080fd5b61263a87828801612468565b935050604085013567ffffffffffffffff81111561265757600080fd5b6126638782880161243e565b925050606061267487828801612492565b91505092959194509250565b6000806000806080858703121561269657600080fd5b600085013567ffffffffffffffff8111156126b057600080fd5b6126bc87828801612414565b945050602085013567ffffffffffffffff8111156126d957600080fd5b6126e587828801612468565b935050604085013567ffffffffffffffff81111561270257600080fd5b61270e8782880161243e565b925050606085013567ffffffffffffffff81111561272b57600080fd5b61273787828801612530565b91505092959194509250565b60006020828403121561275557600080fd5b6000612763848285016124a7565b91505092915050565b60006020828403121561277e57600080fd5b600061278c8482850161255a565b91505092915050565b6000602082840312156127a757600080fd5b60006127b58482850161256f565b91505092915050565b600080604083850312156127d157600080fd5b60006127df8582860161255a565b92505060206127f0858286016123ff565b9150509250929050565b6000806040838503121561280d57600080fd5b600061281b8582860161255a565b925050602061282c85828601612584565b9150509250929050565b6000806000806060858703121561284c57600080fd5b600061285a8782880161255a565b945050602061286b87828801612584565b935050604085013567ffffffffffffffff81111561288857600080fd5b612894878288016124e6565b925092505092959194509250565b600080600080600060a086880312156128ba57600080fd5b60006128c88882890161255a565b95505060206128d988828901612584565b94505060406128ea88828901612584565b93505060606128fb88828901612492565b925050608061290c88828901612492565b9150509295509295909350565b60006129258383612971565b60208301905092915050565b600061293d8383612b6a565b905092915050565b60006129518383612bf2565b905092915050565b60006129658383612e94565b60208301905092915050565b61297a816137c2565b82525050565b612989816137c2565b82525050565b600061299a826135a0565b6129a48185613616565b93506129af83613560565b8060005b838110156129e05781516129c78882612919565b97506129d2836135e2565b9250506001810190506129b3565b5085935050505092915050565b60006129f8826135ab565b612a028185613627565b935083602082028501612a1485613570565b8060005b85811015612a505784840389528151612a318582612931565b9450612a3c836135ef565b925060208a01995050600181019050612a18565b50829750879550505050505092915050565b6000612a6d826135b6565b612a778185613638565b935083602082028501612a8985613580565b8060005b85811015612ac55784840389528151612aa68582612945565b9450612ab1836135fc565b925060208a01995050600181019050612a8d565b50829750879550505050505092915050565b6000612ae2826135c1565b612aec8185613649565b9350612af783613590565b8060005b83811015612b28578151612b0f8882612959565b9750612b1a83613609565b925050600181019050612afb565b5085935050505092915050565b612b3e816137d4565b82525050565b612b4d816137e0565b82525050565b612b64612b5f826137e0565b6139aa565b82525050565b6000612b75826135cc565b612b7f818561365a565b9350612b8f8185602086016138cb565b612b9881613a9f565b840191505092915050565b6000612bae826135cc565b612bb8818561366b565b9350612bc88185602086016138cb565b80840191505092915050565b612bdd81613874565b82525050565b612bec81613898565b82525050565b6000612bfd826135d7565b612c078185613676565b9350612c178185602086016138cb565b612c2081613a9f565b840191505092915050565b6000612c36826135d7565b612c408185613687565b9350612c508185602086016138cb565b612c5981613a9f565b840191505092915050565b6000612c71601883613687565b9150612c7c82613ab0565b602082019050919050565b6000612c94601883613687565b9150612c9f82613ad9565b602082019050919050565b6000612cb7604383613687565b9150612cc282613b02565b606082019050919050565b6000612cda601f83613687565b9150612ce582613b77565b602082019050919050565b6000612cfd600283613698565b9150612d0882613ba0565b600282019050919050565b6000612d20602183613687565b9150612d2b82613bc9565b604082019050919050565b6000612d43602283613687565b9150612d4e82613c18565b604082019050919050565b6000612d66602783613687565b9150612d7182613c67565b604082019050919050565b6000612d89602383613687565b9150612d9482613cb6565b604082019050919050565b6000612dac601883613687565b9150612db782613d05565b602082019050919050565b6000612dcf602283613687565b9150612dda82613d2e565b604082019050919050565b6000612df2602683613687565b9150612dfd82613d7d565b604082019050919050565b6000612e15602183613687565b9150612e2082613dcc565b604082019050919050565b6000612e38601d83613687565b9150612e4382613e1b565b602082019050919050565b6000612e5b603583613687565b9150612e6682613e44565b604082019050919050565b6000612e7e602183613687565b9150612e8982613e93565b604082019050919050565b612e9d81613849565b82525050565b612eac81613849565b82525050565b612ebb816138aa565b82525050565b612eca81613867565b82525050565b6000612edc8284612ba3565b915081905092915050565b6000612ef282612cf0565b9150612efe8285612b53565b602082019150612f0e8284612b53565b6020820191508190509392505050565b6000604082019050612f336000830185612980565b612f406020830184612ea3565b9392505050565b60006080820190508181036000830152612f61818761298f565b90508181036020830152612f758186612ad7565b90508181036040830152612f8981856129ed565b9050612f986060830184612b44565b95945050505050565b6000602082019050612fb66000830184612b35565b92915050565b6000602082019050612fd16000830184612b44565b92915050565b600060a082019050612fec6000830188612b44565b612ff96020830187612b44565b6130066040830186612b44565b6130136060830185612ea3565b6130206080830184612980565b9695505050505050565b600060608201905061303f6000830186612b44565b61304c6020830185612ea3565b6130596040830184612ec1565b949350505050565b60006080820190506130766000830187612b44565b6130836020830186612ec1565b6130906040830185612b44565b61309d6060830184612b44565b95945050505050565b60006020820190506130bb6000830184612bd4565b92915050565b60006020820190506130d66000830184612be3565b92915050565b600060208201905081810360008301526130f68184612c2b565b905092915050565b6000602082019050818103600083015261311781612c64565b9050919050565b6000602082019050818103600083015261313781612c87565b9050919050565b6000602082019050818103600083015261315781612caa565b9050919050565b6000602082019050818103600083015261317781612ccd565b9050919050565b6000602082019050818103600083015261319781612d13565b9050919050565b600060208201905081810360008301526131b781612d36565b9050919050565b600060208201905081810360008301526131d781612d59565b9050919050565b600060208201905081810360008301526131f781612d7c565b9050919050565b6000602082019050818103600083015261321781612d9f565b9050919050565b6000602082019050818103600083015261323781612dc2565b9050919050565b6000602082019050818103600083015261325781612de5565b9050919050565b6000602082019050818103600083015261327781612e08565b9050919050565b6000602082019050818103600083015261329781612e2b565b9050919050565b600060208201905081810360008301526132b781612e4e565b9050919050565b600060208201905081810360008301526132d781612e71565b9050919050565b60006020820190506132f36000830184612ea3565b92915050565b60006101208201905061330f600083018c612ea3565b61331c602083018b612980565b818103604083015261332e818a61298f565b905081810360608301526133428189612ad7565b905081810360808301526133568188612a62565b905081810360a083015261336a81876129ed565b905061337960c0830186612eb2565b61338660e0830185612eb2565b8181036101008301526133998184612c2b565b90509a9950505050505050505050565b60006040820190506133be6000830185612ea3565b6133cb6020830184612ea3565b9392505050565b60006060820190506133e76000830186612ea3565b6133f46020830185612ea3565b6134016040830184612ea3565b949350505050565b600060808201905061341e6000830187612ea3565b61342b6020830186612ec1565b6134386040830185612ea3565b818103606083015261344a8184612c2b565b905095945050505050565b600061345f613470565b905061346b8282613930565b919050565b6000604051905090565b600067ffffffffffffffff82111561349557613494613a70565b5b602082029050602081019050919050565b600067ffffffffffffffff8211156134c1576134c0613a70565b5b602082029050602081019050919050565b600067ffffffffffffffff8211156134ed576134ec613a70565b5b602082029050602081019050919050565b600067ffffffffffffffff82111561351957613518613a70565b5b61352282613a9f565b9050602081019050919050565b600067ffffffffffffffff82111561354a57613549613a70565b5b61355382613a9f565b9050602081019050919050565b6000819050602082019050919050565b6000819050602082019050919050565b6000819050602082019050919050565b6000819050602082019050919050565b600081519050919050565b600081519050919050565b600081519050919050565b600081519050919050565b600081519050919050565b600081519050919050565b6000602082019050919050565b6000602082019050919050565b6000602082019050919050565b6000602082019050919050565b600082825260208201905092915050565b600082825260208201905092915050565b600082825260208201905092915050565b600082825260208201905092915050565b600082825260208201905092915050565b600081905092915050565b600082825260208201905092915050565b600082825260208201905092915050565b600081905092915050565b60006136ae82613849565b91506136b983613849565b9250827fffffffffffffffffffffffffffffffffffffffffffffffffffffffffffffffff038211156136ee576136ed6139b4565b5b828201905092915050565b600061370482613853565b915061370f83613853565b92508267ffffffffffffffff0382111561372c5761372b6139b4565b5b828201905092915050565b600061374282613849565b915061374d83613849565b92508261375d5761375c6139e3565b5b828204905092915050565b600061377382613849565b915061377e83613849565b9250817fffffffffffffffffffffffffffffffffffffffffffffffffffffffffffffffff04831182151516156137b7576137b66139b4565b5b828202905092915050565b60006137cd82613829565b9050919050565b60008115159050919050565b6000819050919050565b60007fffffffff0000000000000000000000000000000000000000000000000000000082169050919050565b600081905061382482613ee2565b919050565b600073ffffffffffffffffffffffffffffffffffffffff82169050919050565b6000819050919050565b600067ffffffffffffffff82169050919050565b600060ff82169050919050565b600061387f82613886565b9050919050565b600061389182613829565b9050919050565b60006138a382613816565b9050919050565b60006138b582613853565b9050919050565b82818337600083830152505050565b60005b838110156138e95780820151818401526020810190506138ce565b838111156138f8576000848401525b50505050565b6000600282049050600182168061391657607f821691505b6020821081141561392a57613929613a41565b5b50919050565b61393982613a9f565b810181811067ffffffffffffffff8211171561395857613957613a70565b5b80604052505050565b600061396c82613849565b91507fffffffffffffffffffffffffffffffffffffffffffffffffffffffffffffffff82141561399f5761399e6139b4565b5b600182019050919050565b6000819050919050565b7f4e487b7100000000000000000000000000000000000000000000000000000000600052601160045260246000fd5b7f4e487b7100000000000000000000000000000000000000000000000000000000600052601260045260246000fd5b7f4e487b7100000000000000000000000000000000000000000000000000000000600052602160045260246000fd5b7f4e487b7100000000000000000000000000000000000000000000000000000000600052602260045260246000fd5b7f4e487b7100000000000000000000000000000000000000000000000000000000600052604160045260246000fd5b6000601f19601f8301169050919050565b7f45434453413a20696e76616c6964207369676e61747572650000000000000000600082015250565b7f476f7665726e6f723a206f6e6c79476f7665726e616e63650000000000000000600082015250565b7f476f7665726e6f72566f74657351756f72756d4672616374696f6e3a2071756f60008201527f72756d4e756d657261746f72206f7665722071756f72756d44656e6f6d696e6160208201527f746f720000000000000000000000000000000000000000000000000000000000604082015250565b7f45434453413a20696e76616c6964207369676e6174757265206c656e67746800600082015250565b7f1901000000000000000000000000000000000000000000000000000000000000600082015250565b7f476f7665726e6f723a20696e76616c69642070726f706f73616c206c656e677460008201527f6800000000000000000000000000000000000000000000000000000000000000602082015250565b7f45434453413a20696e76616c6964207369676e6174757265202773272076616c60008201527f7565000000000000000000000000000000000000000000000000000000000000602082015250565b7f476f7665726e6f72566f74696e6753696d706c653a20766f746520616c72656160008201527f6479206361737400000000000000000000000000000000000000000000000000602082015250565b7f476f7665726e6f723a20766f7465206e6f742063757272656e746c792061637460008201527f6976650000000000000000000000000000000000000000000000000000000000602082015250565b7f476f7665726e6f723a20656d7074792070726f706f73616c0000000000000000600082015250565b7f45434453413a20696e76616c6964207369676e6174757265202776272076616c60008201527f7565000000000000000000000000000000000000000000000000000000000000602082015250565b7f53616665436173743a2076616c756520646f65736e27742066697420696e203660008201527f3420626974730000000000000000000000000000000000000000000000000000602082015250565b7f476f7665726e6f723a2070726f706f73616c206e6f742073756363657373667560008201527f6c00000000000000000000000000000000000000000000000000000000000000602082015250565b7f476f7665726e6f723a20756e6b6e6f776e2070726f706f73616c206964000000600082015250565b7f476f7665726e6f72566f74696e6753696d706c653a20696e76616c696420766160008201527f6c756520666f7220656e756d20566f7465547970650000000000000000000000602082015250565b7f476f7665726e6f723a2070726f706f73616c20616c726561647920657869737460008201527f7300000000000000000000000000000000000000000000000000000000000000602082015250565b60088110613ef357613ef2613a12565b5b50565b613eff816137c2565b8114613f0a57600080fd5b50565b613f16816137e0565b8114613f2157600080fd5b50565b613f2d816137ea565b8114613f3857600080fd5b50565b613f4481613849565b8114613f4f57600080fd5b50565b613f5b81613867565b8114613f6657600080fd5b5056fe476f7665726e6f723a2063616c6c20726576657274656420776974686f7574206d657373616765a2646970667358221220e060ee3c84f292b6c3680ec5364d5d62aa1f965503926192cb15785b2781f1e464736f6c63430008040033",
  "linkReferences": {},
  "deployedLinkReferences": {}
}