{
  "_format": "hh-sol-artifact-1",
  "contractName": "KaoDao",
  "sourceName": "contracts/KaoDao.sol",
  "abi": [
    {
      "inputs": [
        {
          "internalType": "contract ERC20Votes",
          "name": "_token",
          "type": "address"
        }
      ],
      "stateMutability": "nonpayable",
      "type": "constructor"
    },
    {
      "anonymous": false,
      "inputs": [
        {
          "indexed": false,
          "internalType": "uint256",
          "name": "proposalId",
          "type": "uint256"
        }
      ],
      "name": "ProposalCanceled",
      "type": "event"
    },
    {
      "anonymous": false,
      "inputs": [
        {
          "indexed": false,
          "internalType": "uint256",
          "name": "proposalId",
          "type": "uint256"
        },
        {
          "indexed": false,
          "internalType": "address",
          "name": "proposer",
          "type": "address"
        },
        {
          "indexed": false,
          "internalType": "address[]",
          "name": "targets",
          "type": "address[]"
        },
        {
          "indexed": false,
          "internalType": "uint256[]",
          "name": "values",
          "type": "uint256[]"
        },
        {
          "indexed": false,
          "internalType": "string[]",
          "name": "signatures",
          "type": "string[]"
        },
        {
          "indexed": false,
          "internalType": "bytes[]",
          "name": "calldatas",
          "type": "bytes[]"
        },
        {
          "indexed": false,
          "internalType": "uint256",
          "name": "startBlock",
          "type": "uint256"
        },
        {
          "indexed": false,
          "internalType": "uint256",
          "name": "endBlock",
          "type": "uint256"
        },
        {
          "indexed": false,
          "internalType": "string",
          "name": "description",
          "type": "string"
        }
      ],
      "name": "ProposalCreated",
      "type": "event"
    },
    {
      "anonymous": false,
      "inputs": [
        {
          "indexed": false,
          "internalType": "uint256",
          "name": "proposalId",
          "type": "uint256"
        }
      ],
      "name": "ProposalExecuted",
      "type": "event"
    },
    {
      "anonymous": false,
      "inputs": [
        {
          "indexed": false,
          "internalType": "uint256",
          "name": "oldQuorumNumerator",
          "type": "uint256"
        },
        {
          "indexed": false,
          "internalType": "uint256",
          "name": "newQuorumNumerator",
          "type": "uint256"
        }
      ],
      "name": "QuorumNumeratorUpdated",
      "type": "event"
    },
    {
      "anonymous": false,
      "inputs": [
        {
          "indexed": true,
          "internalType": "bytes32",
          "name": "role",
          "type": "bytes32"
        },
        {
          "indexed": true,
          "internalType": "bytes32",
          "name": "previousAdminRole",
          "type": "bytes32"
        },
        {
          "indexed": true,
          "internalType": "bytes32",
          "name": "newAdminRole",
          "type": "bytes32"
        }
      ],
      "name": "RoleAdminChanged",
      "type": "event"
    },
    {
      "anonymous": false,
      "inputs": [
        {
          "indexed": true,
          "internalType": "bytes32",
          "name": "role",
          "type": "bytes32"
        },
        {
          "indexed": true,
          "internalType": "address",
          "name": "account",
          "type": "address"
        },
        {
          "indexed": true,
          "internalType": "address",
          "name": "sender",
          "type": "address"
        }
      ],
      "name": "RoleGranted",
      "type": "event"
    },
    {
      "anonymous": false,
      "inputs": [
        {
          "indexed": true,
          "internalType": "bytes32",
          "name": "role",
          "type": "bytes32"
        },
        {
          "indexed": true,
          "internalType": "address",
          "name": "account",
          "type": "address"
        },
        {
          "indexed": true,
          "internalType": "address",
          "name": "sender",
          "type": "address"
        }
      ],
      "name": "RoleRevoked",
      "type": "event"
    },
    {
      "anonymous": false,
      "inputs": [
        {
          "indexed": true,
          "internalType": "address",
          "name": "voter",
          "type": "address"
        },
        {
          "indexed": false,
          "internalType": "uint256",
          "name": "proposalId",
          "type": "uint256"
        },
        {
          "indexed": false,
          "internalType": "uint8",
          "name": "support",
          "type": "uint8"
        },
        {
          "indexed": false,
          "internalType": "uint256",
          "name": "weight",
          "type": "uint256"
        },
        {
          "indexed": false,
          "internalType": "string",
          "name": "reason",
          "type": "string"
        }
      ],
      "name": "VoteCast",
      "type": "event"
    },
    {
      "inputs": [],
      "name": "ADDRESS_UPDATER",
      "outputs": [
        {
          "internalType": "bytes32",
          "name": "",
          "type": "bytes32"
        }
      ],
      "stateMutability": "view",
      "type": "function"
    },
    {
      "inputs": [],
      "name": "BALLOT_TYPEHASH",
      "outputs": [
        {
          "internalType": "bytes32",
          "name": "",
          "type": "bytes32"
        }
      ],
      "stateMutability": "view",
      "type": "function"
    },
    {
      "inputs": [],
      "name": "COUNTING_MODE",
      "outputs": [
        {
          "internalType": "string",
          "name": "",
          "type": "string"
        }
      ],
      "stateMutability": "pure",
      "type": "function"
    },
    {
      "inputs": [],
      "name": "DEFAULT_ADMIN_ROLE",
      "outputs": [
        {
          "internalType": "bytes32",
          "name": "",
          "type": "bytes32"
        }
      ],
      "stateMutability": "view",
      "type": "function"
    },
    {
      "inputs": [
        {
          "internalType": "uint256",
          "name": "proposalId",
          "type": "uint256"
        },
        {
          "internalType": "uint8",
          "name": "support",
          "type": "uint8"
        }
      ],
      "name": "castVote",
      "outputs": [
        {
          "internalType": "uint256",
          "name": "",
          "type": "uint256"
        }
      ],
      "stateMutability": "nonpayable",
      "type": "function"
    },
    {
      "inputs": [
        {
          "internalType": "uint256",
          "name": "proposalId",
          "type": "uint256"
        },
        {
          "internalType": "uint8",
          "name": "support",
          "type": "uint8"
        },
        {
          "internalType": "uint8",
          "name": "v",
          "type": "uint8"
        },
        {
          "internalType": "bytes32",
          "name": "r",
          "type": "bytes32"
        },
        {
          "internalType": "bytes32",
          "name": "s",
          "type": "bytes32"
        }
      ],
      "name": "castVoteBySig",
      "outputs": [
        {
          "internalType": "uint256",
          "name": "",
          "type": "uint256"
        }
      ],
      "stateMutability": "nonpayable",
      "type": "function"
    },
    {
      "inputs": [
        {
          "internalType": "uint256",
          "name": "proposalId",
          "type": "uint256"
        },
        {
          "internalType": "uint8",
          "name": "support",
          "type": "uint8"
        },
        {
          "internalType": "string",
          "name": "reason",
          "type": "string"
        }
      ],
      "name": "castVoteWithReason",
      "outputs": [
        {
          "internalType": "uint256",
          "name": "",
          "type": "uint256"
        }
      ],
      "stateMutability": "nonpayable",
      "type": "function"
    },
    {
      "inputs": [
        {
          "internalType": "address[]",
          "name": "targets",
          "type": "address[]"
        },
        {
          "internalType": "uint256[]",
          "name": "values",
          "type": "uint256[]"
        },
        {
          "internalType": "bytes[]",
          "name": "calldatas",
          "type": "bytes[]"
        },
        {
          "internalType": "bytes32",
          "name": "descriptionHash",
          "type": "bytes32"
        }
      ],
      "name": "execute",
      "outputs": [
        {
          "internalType": "uint256",
          "name": "",
          "type": "uint256"
        }
      ],
      "stateMutability": "payable",
      "type": "function"
    },
    {
      "inputs": [
        {
          "internalType": "bytes32",
          "name": "role",
          "type": "bytes32"
        }
      ],
      "name": "getRoleAdmin",
      "outputs": [
        {
          "internalType": "bytes32",
          "name": "",
          "type": "bytes32"
        }
      ],
      "stateMutability": "view",
      "type": "function"
    },
    {
      "inputs": [
        {
          "internalType": "address",
          "name": "account",
          "type": "address"
        },
        {
          "internalType": "uint256",
          "name": "blockNumber",
          "type": "uint256"
        }
      ],
      "name": "getVotes",
      "outputs": [
        {
          "internalType": "uint256",
          "name": "",
          "type": "uint256"
        }
      ],
      "stateMutability": "view",
      "type": "function"
    },
    {
      "inputs": [
        {
          "internalType": "bytes32",
          "name": "role",
          "type": "bytes32"
        },
        {
          "internalType": "address",
          "name": "account",
          "type": "address"
        }
      ],
      "name": "grantRole",
      "outputs": [],
      "stateMutability": "nonpayable",
      "type": "function"
    },
    {
      "inputs": [
        {
          "internalType": "bytes32",
          "name": "role",
          "type": "bytes32"
        },
        {
          "internalType": "address",
          "name": "account",
          "type": "address"
        }
      ],
      "name": "hasRole",
      "outputs": [
        {
          "internalType": "bool",
          "name": "",
          "type": "bool"
        }
      ],
      "stateMutability": "view",
      "type": "function"
    },
    {
      "inputs": [
        {
          "internalType": "uint256",
          "name": "proposalId",
          "type": "uint256"
        },
        {
          "internalType": "address",
          "name": "account",
          "type": "address"
        }
      ],
      "name": "hasVoted",
      "outputs": [
        {
          "internalType": "bool",
          "name": "",
          "type": "bool"
        }
      ],
      "stateMutability": "view",
      "type": "function"
    },
    {
      "inputs": [
        {
          "internalType": "address[]",
          "name": "targets",
          "type": "address[]"
        },
        {
          "internalType": "uint256[]",
          "name": "values",
          "type": "uint256[]"
        },
        {
          "internalType": "bytes[]",
          "name": "calldatas",
          "type": "bytes[]"
        },
        {
          "internalType": "bytes32",
          "name": "descriptionHash",
          "type": "bytes32"
        }
      ],
      "name": "hashProposal",
      "outputs": [
        {
          "internalType": "uint256",
          "name": "",
          "type": "uint256"
        }
      ],
      "stateMutability": "pure",
      "type": "function"
    },
    {
      "inputs": [],
      "name": "name",
      "outputs": [
        {
          "internalType": "string",
          "name": "",
          "type": "string"
        }
      ],
      "stateMutability": "view",
      "type": "function"
    },
    {
      "inputs": [
        {
          "internalType": "uint256",
          "name": "proposalId",
          "type": "uint256"
        }
      ],
      "name": "proposalDeadline",
      "outputs": [
        {
          "internalType": "uint256",
          "name": "",
          "type": "uint256"
        }
      ],
      "stateMutability": "view",
      "type": "function"
    },
    {
      "inputs": [
        {
          "internalType": "uint256",
          "name": "proposalId",
          "type": "uint256"
        }
      ],
      "name": "proposalSnapshot",
      "outputs": [
        {
          "internalType": "uint256",
          "name": "",
          "type": "uint256"
        }
      ],
      "stateMutability": "view",
      "type": "function"
    },
    {
      "inputs": [
        {
          "internalType": "uint256",
          "name": "proposalId",
          "type": "uint256"
        }
      ],
      "name": "proposalVotes",
      "outputs": [
        {
          "internalType": "uint256",
          "name": "againstVotes",
          "type": "uint256"
        },
        {
          "internalType": "uint256",
          "name": "forVotes",
          "type": "uint256"
        },
        {
          "internalType": "uint256",
          "name": "abstainVotes",
          "type": "uint256"
        }
      ],
      "stateMutability": "view",
      "type": "function"
    },
    {
      "inputs": [
        {
          "internalType": "address[]",
          "name": "targets",
          "type": "address[]"
        },
        {
          "internalType": "uint256[]",
          "name": "values",
          "type": "uint256[]"
        },
        {
          "internalType": "bytes[]",
          "name": "calldatas",
          "type": "bytes[]"
        },
        {
          "internalType": "string",
          "name": "description",
          "type": "string"
        }
      ],
      "name": "propose",
      "outputs": [
        {
          "internalType": "uint256",
          "name": "",
          "type": "uint256"
        }
      ],
      "stateMutability": "nonpayable",
      "type": "function"
    },
    {
      "inputs": [
        {
          "internalType": "uint256",
          "name": "blockNumber",
          "type": "uint256"
        }
      ],
      "name": "quorum",
      "outputs": [
        {
          "internalType": "uint256",
          "name": "",
          "type": "uint256"
        }
      ],
      "stateMutability": "view",
      "type": "function"
    },
    {
      "inputs": [],
      "name": "quorumDenominator",
      "outputs": [
        {
          "internalType": "uint256",
          "name": "",
          "type": "uint256"
        }
      ],
      "stateMutability": "view",
      "type": "function"
    },
    {
      "inputs": [],
      "name": "quorumNumerator",
      "outputs": [
        {
          "internalType": "uint256",
          "name": "",
          "type": "uint256"
        }
      ],
      "stateMutability": "view",
      "type": "function"
    },
    {
      "inputs": [
        {
          "internalType": "bytes32",
          "name": "role",
          "type": "bytes32"
        },
        {
          "internalType": "address",
          "name": "account",
          "type": "address"
        }
      ],
      "name": "renounceRole",
      "outputs": [],
      "stateMutability": "nonpayable",
      "type": "function"
    },
    {
      "inputs": [
        {
          "internalType": "bytes32",
          "name": "role",
          "type": "bytes32"
        },
        {
          "internalType": "address",
          "name": "account",
          "type": "address"
        }
      ],
      "name": "revokeRole",
      "outputs": [],
      "stateMutability": "nonpayable",
      "type": "function"
    },
    {
      "inputs": [
        {
          "internalType": "address",
          "name": "kaoMoji",
          "type": "address"
        }
      ],
      "name": "setKaoMojiAddress",
      "outputs": [],
      "stateMutability": "nonpayable",
      "type": "function"
    },
    {
      "inputs": [
        {
          "internalType": "uint256",
          "name": "proposalId",
          "type": "uint256"
        }
      ],
      "name": "state",
      "outputs": [
        {
          "internalType": "enum IGovernor.ProposalState",
          "name": "",
          "type": "uint8"
        }
      ],
      "stateMutability": "view",
      "type": "function"
    },
    {
      "inputs": [
        {
          "internalType": "bytes4",
          "name": "interfaceId",
          "type": "bytes4"
        }
      ],
      "name": "supportsInterface",
      "outputs": [
        {
          "internalType": "bool",
          "name": "",
          "type": "bool"
        }
      ],
      "stateMutability": "view",
      "type": "function"
    },
    {
      "inputs": [],
      "name": "token",
      "outputs": [
        {
          "internalType": "contract ERC20Votes",
          "name": "",
          "type": "address"
        }
      ],
      "stateMutability": "view",
      "type": "function"
    },
    {
      "inputs": [
        {
          "internalType": "uint256",
          "name": "newQuorumNumerator",
          "type": "uint256"
        }
      ],
      "name": "updateQuorumNumerator",
      "outputs": [],
      "stateMutability": "nonpayable",
      "type": "function"
    },
    {
      "inputs": [],
      "name": "version",
      "outputs": [
        {
          "internalType": "string",
          "name": "",
          "type": "string"
        }
      ],
      "stateMutability": "view",
      "type": "function"
    },
    {
      "inputs": [],
      "name": "votingDelay",
      "outputs": [
        {
          "internalType": "uint256",
          "name": "",
          "type": "uint256"
        }
      ],
      "stateMutability": "pure",
      "type": "function"
    },
    {
      "inputs": [],
      "name": "votingPeriod",
      "outputs": [
        {
          "internalType": "uint256",
          "name": "",
          "type": "uint256"
        }
      ],
      "stateMutability": "pure",
      "type": "function"
    }
  ],
  "bytecode": "0x6101406040523480156200001257600080fd5b50604051620057a0380380620057a0833981810160405281019062000038919062000503565b6005816040518060400160405280600681526020017f4b616f44616f000000000000000000000000000000000000000000000000000081525080620000826200019d60201b60201c565b60008280519060200120905060008280519060200120905060007f8b73c3c69bb8fe3d512ecc4cf759cc79239f7b179b0ffacaa9a75d522b39400f90508260c081815250508160e081815250504660a08181525050620000ea818484620001da60201b60201c565b6080818152505080610100818152505050505050508060009080519060200190620001179291906200043c565b50508073ffffffffffffffffffffffffffffffffffffffff166101208173ffffffffffffffffffffffffffffffffffffffff1660601b815250505062000163816200021660201b60201c565b50620001967ff0e519adfa92b08162a7a5fb116ac5cc83e9e7105e2ec4ca98c50726b178375c33620002b860201b60201c565b5062000796565b60606040518060400160405280600181526020017f3100000000000000000000000000000000000000000000000000000000000000815250905090565b60008383834630604051602001620001f795949392919062000589565b6040516020818303038152906040528051906020012090509392505050565b62000226620002ce60201b60201c565b8111156200026b576040517f08c379a00000000000000000000000000000000000000000000000000000000081526004016200026290620005e6565b60405180910390fd5b60006003549050816003819055507f0553476bf02ef2726e8ce5ced78d63e26e602e4a2257b1f559418e24b46339978183604051620002ac92919062000608565b60405180910390a15050565b620002ca8282620002d760201b60201c565b5050565b60006064905090565b620002e98282620003c960201b60201c565b620003c55760016004600084815260200190815260200160002060000160008373ffffffffffffffffffffffffffffffffffffffff1673ffffffffffffffffffffffffffffffffffffffff16815260200190815260200160002060006101000a81548160ff0219169083151502179055506200036a6200043460201b60201c565b73ffffffffffffffffffffffffffffffffffffffff168173ffffffffffffffffffffffffffffffffffffffff16837f2f8788117e7eff1d82e926ec794901d17c78024a50270940304540a733656f0d60405160405180910390a45b5050565b60006004600084815260200190815260200160002060000160008373ffffffffffffffffffffffffffffffffffffffff1673ffffffffffffffffffffffffffffffffffffffff16815260200190815260200160002060009054906101000a900460ff16905092915050565b600033905090565b8280546200044a90620006a2565b90600052602060002090601f0160209004810192826200046e5760008555620004ba565b82601f106200048957805160ff1916838001178555620004ba565b82800160010185558215620004ba579182015b82811115620004b95782518255916020019190600101906200049c565b5b509050620004c99190620004cd565b5090565b5b80821115620004e8576000816000905550600101620004ce565b5090565b600081519050620004fd816200077c565b92915050565b6000602082840312156200051657600080fd5b60006200052684828501620004ec565b91505092915050565b6200053a8162000646565b82525050565b6200054b816200065a565b82525050565b60006200056060438362000635565b91506200056d8262000707565b606082019050919050565b620005838162000698565b82525050565b600060a082019050620005a0600083018862000540565b620005af602083018762000540565b620005be604083018662000540565b620005cd606083018562000578565b620005dc60808301846200052f565b9695505050505050565b60006020820190508181036000830152620006018162000551565b9050919050565b60006040820190506200061f600083018562000578565b6200062e602083018462000578565b9392505050565b600082825260208201905092915050565b6000620006538262000678565b9050919050565b6000819050919050565b6000620006718262000646565b9050919050565b600073ffffffffffffffffffffffffffffffffffffffff82169050919050565b6000819050919050565b60006002820490506001821680620006bb57607f821691505b60208210811415620006d257620006d1620006d8565b5b50919050565b7f4e487b7100000000000000000000000000000000000000000000000000000000600052602260045260246000fd5b7f476f7665726e6f72566f74657351756f72756d4672616374696f6e3a2071756f60008201527f72756d4e756d657261746f72206f7665722071756f72756d44656e6f6d696e6160208201527f746f720000000000000000000000000000000000000000000000000000000000604082015250565b620007878162000664565b81146200079357600080fd5b50565b60805160a05160c05160e051610100516101205160601c614fa9620007f76000396000818161149c01528181611f330152611ff8015260006124ec0152600061252e0152600061250d01526000612499015260006124c10152614fa96000f3fe6080604052600436106101e35760003560e01c80637b3c71d311610102578063c01f9e3711610095578063deaaa7cc11610064578063deaaa7cc14610783578063eb9019d4146107ae578063f8ce560a146107eb578063fc0c546a14610828576101e3565b8063c01f9e37146106b5578063c59057e4146106f2578063d547741f1461072f578063dd4e2ba514610758576101e3565b806397c3d334116100d157806397c3d3341461060b578063a217fddf14610636578063a44bda5f14610661578063a7713a701461068a576101e3565b80637b3c71d3146105295780637d5e81e21461056657806387863245146105a357806391d14854146105ce576101e3565b806336568abe1161017a57806343859632116101495780634385963214610445578063544ffc9c1461048257806354fd4d50146104c157806356781388146104ec576101e3565b806336568abe146103775780633932abb1146103a05780633bccf4fd146103cb5780633e4f49e614610408576101e3565b8063248a9ca3116101b6578063248a9ca3146102a45780632656227d146102e15780632d63f693146103115780632f2ff15d1461034e576101e3565b806301ffc9a7146101e857806302a251a31461022557806306f3f9e61461025057806306fdde0314610279575b600080fd5b3480156101f457600080fd5b5061020f600480360381019061020a919061336b565b610853565b60405161021c9190613d29565b60405180910390f35b34801561023157600080fd5b5061023a610865565b6040516102479190614106565b60405180910390f35b34801561025c57600080fd5b5061027760048036038101906102729190613394565b61086e565b005b34801561028557600080fd5b5061028e6108f6565b60405161029b9190613e64565b60405180910390f35b3480156102b057600080fd5b506102cb60048036038101906102c69190613306565b610988565b6040516102d89190613d44565b60405180910390f35b6102fb60048036038101906102f69190613198565b6109a8565b6040516103089190614106565b60405180910390f35b34801561031d57600080fd5b5061033860048036038101906103339190613394565b610b73565b6040516103459190614106565b60405180910390f35b34801561035a57600080fd5b506103756004803603810190610370919061332f565b610be1565b005b34801561038357600080fd5b5061039e6004803603810190610399919061332f565b610c0a565b005b3480156103ac57600080fd5b506103b5610c8d565b6040516103c29190614106565b60405180910390f35b3480156103d757600080fd5b506103f260048036038101906103ed91906134ca565b610c97565b6040516103ff9190614106565b60405180910390f35b34801561041457600080fd5b5061042f600480360381019061042a9190613394565b610d21565b60405161043c9190613e49565b60405180910390f35b34801561045157600080fd5b5061046c600480360381019061046791906133e6565b610ee8565b6040516104799190613d29565b60405180910390f35b34801561048e57600080fd5b506104a960048036038101906104a49190613394565b610f53565b6040516104b8939291906141fa565b60405180910390f35b3480156104cd57600080fd5b506104d6610f8b565b6040516104e39190613e64565b60405180910390f35b3480156104f857600080fd5b50610513600480360381019061050e9190613422565b610fc8565b6040516105209190614106565b60405180910390f35b34801561053557600080fd5b50610550600480360381019061054b919061345e565b610ff9565b60405161055d9190614106565b60405180910390f35b34801561057257600080fd5b5061058d60048036038101906105889190613243565b611061565b60405161059a9190614106565b60405180910390f35b3480156105af57600080fd5b506105b8611220565b6040516105c59190613d44565b60405180910390f35b3480156105da57600080fd5b506105f560048036038101906105f0919061332f565b611244565b6040516106029190613d29565b60405180910390f35b34801561061757600080fd5b506106206112af565b60405161062d9190614106565b60405180910390f35b34801561064257600080fd5b5061064b6112b8565b6040516106589190613d44565b60405180910390f35b34801561066d57600080fd5b5061068860048036038101906106839190613133565b6112bf565b005b34801561069657600080fd5b5061069f611336565b6040516106ac9190614106565b60405180910390f35b3480156106c157600080fd5b506106dc60048036038101906106d79190613394565b611340565b6040516106e99190614106565b60405180910390f35b3480156106fe57600080fd5b5061071960048036038101906107149190613198565b6113ae565b6040516107269190614106565b60405180910390f35b34801561073b57600080fd5b506107566004803603810190610751919061332f565b6113ea565b005b34801561076457600080fd5b5061076d611413565b60405161077a9190613e64565b60405180910390f35b34801561078f57600080fd5b50610798611450565b6040516107a59190613d44565b60405180910390f35b3480156107ba57600080fd5b506107d560048036038101906107d0919061315c565b611474565b6040516107e29190614106565b60405180910390f35b3480156107f757600080fd5b50610812600480360381019061080d9190613394565b611488565b60405161081f9190614106565b60405180910390f35b34801561083457600080fd5b5061083d61149a565b60405161084a9190613e2e565b60405180910390f35b600061085e826114be565b9050919050565b60006050905090565b610876611538565b73ffffffffffffffffffffffffffffffffffffffff16610894611540565b73ffffffffffffffffffffffffffffffffffffffff16146108ea576040517f08c379a00000000000000000000000000000000000000000000000000000000081526004016108e190613ea6565b60405180910390fd5b6108f381611548565b50565b60606000805461090590614750565b80601f016020809104026020016040519081016040528092919081815260200182805461093190614750565b801561097e5780601f106109535761010080835404028352916020019161097e565b820191906000526020600020905b81548152906001019060200180831161096157829003601f168201915b5050505050905090565b600060046000838152602001908152602001600020600101549050919050565b6000806109b7868686866113ae565b905060006109c482610d21565b905060046007811115610a00577f4e487b7100000000000000000000000000000000000000000000000000000000600052602160045260246000fd5b816007811115610a39577f4e487b7100000000000000000000000000000000000000000000000000000000600052602160045260246000fd5b1480610ab5575060056007811115610a7a577f4e487b7100000000000000000000000000000000000000000000000000000000600052602160045260246000fd5b816007811115610ab3577f4e487b7100000000000000000000000000000000000000000000000000000000600052602160045260246000fd5b145b610af4576040517f08c379a0000000000000000000000000000000000000000000000000000000008152600401610aeb90614046565b60405180910390fd5b600180600084815260200190815260200160002060020160006101000a81548160ff0219169083151502179055507f712ae1383f79ac853f8d882153778e0260ef8f03b504e2866e0593e04d2b291f82604051610b519190614106565b60405180910390a1610b6682888888886115dd565b8192505050949350505050565b6000610bd0600160008481526020019081526020016000206000016040518060200160405290816000820160009054906101000a900467ffffffffffffffff1667ffffffffffffffff1667ffffffffffffffff168152505061175e565b67ffffffffffffffff169050919050565b610bea82610988565b610bfb81610bf6611540565b61176c565b610c058383611809565b505050565b610c12611540565b73ffffffffffffffffffffffffffffffffffffffff168173ffffffffffffffffffffffffffffffffffffffff1614610c7f576040517f08c379a0000000000000000000000000000000000000000000000000000000008152600401610c76906140e6565b60405180910390fd5b610c8982826118ea565b5050565b6000610111905090565b600080610cf8610cf07f150214d74d59b7d1e90c73fc22ef3d991dd0a76b046543d4d80ab92d2a50328f8989604051602001610cd593929190613db2565b604051602081830303815290604052805190602001206119cc565b8686866119e6565b9050610d1587828860405180602001604052806000815250611a11565b91505095945050505050565b60008060016000848152602001908152602001600020604051806080016040529081600082016040518060200160405290816000820160009054906101000a900467ffffffffffffffff1667ffffffffffffffff1667ffffffffffffffff16815250508152602001600182016040518060200160405290816000820160009054906101000a900467ffffffffffffffff1667ffffffffffffffff1667ffffffffffffffff168152505081526020016002820160009054906101000a900460ff161515151581526020016002820160019054906101000a900460ff1615151515815250509050806040015115610e1a576007915050610ee3565b806060015115610e2e576002915050610ee3565b610e3b8160000151611bb1565b15610e4a576000915050610ee3565b610e578160200151611bb1565b15610e66576001915050610ee3565b610e738160200151611bcb565b15610ea857610e8183611bf7565b8015610e925750610e9183611c3e565b5b610e9d576003610ea0565b60045b915050610ee3565b6040517f08c379a0000000000000000000000000000000000000000000000000000000008152600401610eda90614066565b60405180910390fd5b919050565b60006002600084815260200190815260200160002060030160008373ffffffffffffffffffffffffffffffffffffffff1673ffffffffffffffffffffffffffffffffffffffff16815260200190815260200160002060009054906101000a900460ff16905092915050565b600080600080600260008681526020019081526020016000209050806000015481600101548260020154935093509350509193909250565b60606040518060400160405280600181526020017f3100000000000000000000000000000000000000000000000000000000000000815250905090565b600080610fd3611540565b9050610ff084828560405180602001604052806000815250611a11565b91505092915050565b600080611004611540565b905061105686828787878080601f016020809104026020016040519081016040528093929190818152602001838380828437600081840152601f19601f82011690508083019250505050505050611a11565b915050949350505050565b600060018551146110a7576040517f08c379a000000000000000000000000000000000000000000000000000000000815260040161109e90613fc6565b60405180910390fd5b600073ffffffffffffffffffffffffffffffffffffffff16600560009054906101000a900473ffffffffffffffffffffffffffffffffffffffff1673ffffffffffffffffffffffffffffffffffffffff161415611139576040517f08c379a000000000000000000000000000000000000000000000000000000000815260040161113090613f06565b60405180910390fd5b600560009054906101000a900473ffffffffffffffffffffffffffffffffffffffff1673ffffffffffffffffffffffffffffffffffffffff16856000815181106111ac577f4e487b7100000000000000000000000000000000000000000000000000000000600052603260045260246000fd5b602002602001015173ffffffffffffffffffffffffffffffffffffffff161461120a576040517f08c379a0000000000000000000000000000000000000000000000000000000008152600401611201906140c6565b60405180910390fd5b61121685858585611c69565b9050949350505050565b7ff0e519adfa92b08162a7a5fb116ac5cc83e9e7105e2ec4ca98c50726b178375c81565b60006004600084815260200190815260200160002060000160008373ffffffffffffffffffffffffffffffffffffffff1673ffffffffffffffffffffffffffffffffffffffff16815260200190815260200160002060009054906101000a900460ff16905092915050565b60006064905090565b6000801b81565b7ff0e519adfa92b08162a7a5fb116ac5cc83e9e7105e2ec4ca98c50726b178375c6112f1816112ec611540565b61176c565b81600560006101000a81548173ffffffffffffffffffffffffffffffffffffffff021916908373ffffffffffffffffffffffffffffffffffffffff1602179055505050565b6000600354905090565b600061139d600160008481526020019081526020016000206001016040518060200160405290816000820160009054906101000a900467ffffffffffffffff1667ffffffffffffffff1667ffffffffffffffff168152505061175e565b67ffffffffffffffff169050919050565b6000848484846040516020016113c79493929190613ccf565b6040516020818303038152906040528051906020012060001c9050949350505050565b6113f382610988565b611404816113ff611540565b61176c565b61140e83836118ea565b505050565b60606040518060400160405280602081526020017f737570706f72743d627261766f2671756f72756d3d666f722c6162737461696e815250905090565b7f150214d74d59b7d1e90c73fc22ef3d991dd0a76b046543d4d80ab92d2a50328f81565b60006114808383611f2f565b905092915050565b600061149382611fe4565b9050919050565b7f000000000000000000000000000000000000000000000000000000000000000081565b60007f7965db0b000000000000000000000000000000000000000000000000000000007bffffffffffffffffffffffffffffffffffffffffffffffffffffffff1916827bffffffffffffffffffffffffffffffffffffffffffffffffffffffff191614806115315750611530826120ba565b5b9050919050565b600030905090565b600033905090565b6115506112af565b811115611592576040517f08c379a000000000000000000000000000000000000000000000000000000000815260040161158990613ee6565b60405180910390fd5b60006003549050816003819055507f0553476bf02ef2726e8ce5ced78d63e26e602e4a2257b1f559418e24b463399781836040516115d19291906141d1565b60405180910390a15050565b6000604051806060016040528060278152602001614f4d60279139905060005b855181101561175557600080878381518110611642577f4e487b7100000000000000000000000000000000000000000000000000000000600052603260045260246000fd5b602002602001015173ffffffffffffffffffffffffffffffffffffffff16878481518110611699577f4e487b7100000000000000000000000000000000000000000000000000000000600052603260045260246000fd5b60200260200101518785815181106116da577f4e487b7100000000000000000000000000000000000000000000000000000000600052603260045260246000fd5b60200260200101516040516116ef9190613c1e565b60006040518083038185875af1925050503d806000811461172c576040519150601f19603f3d011682016040523d82523d6000602084013e611731565b606091505b5091509150611741828286612134565b5050508061174e906147b3565b90506115fd565b50505050505050565b600081600001519050919050565b6117768282611244565b6118055761179b8173ffffffffffffffffffffffffffffffffffffffff16601461219b565b6117a98360001c602061219b565b6040516020016117ba929190613c6c565b6040516020818303038152906040526040517f08c379a00000000000000000000000000000000000000000000000000000000081526004016117fc9190613e64565b60405180910390fd5b5050565b6118138282611244565b6118e65760016004600084815260200190815260200160002060000160008373ffffffffffffffffffffffffffffffffffffffff1673ffffffffffffffffffffffffffffffffffffffff16815260200190815260200160002060006101000a81548160ff02191690831515021790555061188b611540565b73ffffffffffffffffffffffffffffffffffffffff168173ffffffffffffffffffffffffffffffffffffffff16837f2f8788117e7eff1d82e926ec794901d17c78024a50270940304540a733656f0d60405160405180910390a45b5050565b6118f48282611244565b156119c85760006004600084815260200190815260200160002060000160008373ffffffffffffffffffffffffffffffffffffffff1673ffffffffffffffffffffffffffffffffffffffff16815260200190815260200160002060006101000a81548160ff02191690831515021790555061196d611540565b73ffffffffffffffffffffffffffffffffffffffff168173ffffffffffffffffffffffffffffffffffffffff16837ff6391f5c32d9c69d2a47ea670b442974b53935d1edc7fd64eb21e047a839171b60405160405180910390a45b5050565b60006119df6119d9612495565b83612558565b9050919050565b60008060006119f78787878761258b565b91509150611a0481612698565b8192505050949350505050565b60008060016000878152602001908152602001600020905060016007811115611a63577f4e487b7100000000000000000000000000000000000000000000000000000000600052602160045260246000fd5b611a6c87610d21565b6007811115611aa4577f4e487b7100000000000000000000000000000000000000000000000000000000600052602160045260246000fd5b14611ae4576040517f08c379a0000000000000000000000000000000000000000000000000000000008152600401611adb90613fa6565b60405180910390fd5b6000611b4286611b33846000016040518060200160405290816000820160009054906101000a900467ffffffffffffffff1667ffffffffffffffff1667ffffffffffffffff168152505061175e565b67ffffffffffffffff16611474565b9050611b50878787846129e9565b8573ffffffffffffffffffffffffffffffffffffffff167fb8e138887d0aa13bab447e82de9d5c1777041ecd21ca36ba824ff1e6c07ddda488878488604051611b9c9493929190614231565b60405180910390a28092505050949350505050565b600043826000015167ffffffffffffffff16119050919050565b6000611bd682612c61565b8015611bf0575043826000015167ffffffffffffffff1611155b9050919050565b60008060026000848152602001908152602001600020905080600201548160010154611c2391906144cb565b611c34611c2f85610b73565b611488565b1115915050919050565b6000806002600084815260200190815260200160002090508060000154816001015411915050919050565b600080611c7f86868686805190602001206113ae565b90508451865114611cc5576040517f08c379a0000000000000000000000000000000000000000000000000000000008152600401611cbc90613f46565b60405180910390fd5b8351865114611d09576040517f08c379a0000000000000000000000000000000000000000000000000000000008152600401611d0090613f46565b60405180910390fd5b6000865111611d4d576040517f08c379a0000000000000000000000000000000000000000000000000000000008152600401611d4490613fe6565b60405180910390fd5b6000600160008381526020019081526020016000209050611dad816000016040518060200160405290816000820160009054906101000a900467ffffffffffffffff1667ffffffffffffffff1667ffffffffffffffff1681525050612c7b565b611dec576040517f08c379a0000000000000000000000000000000000000000000000000000000008152600401611de3906140a6565b60405180910390fd5b6000611dfe611df9610c8d565b612c95565b611e0743612c95565b611e119190614521565b90506000611e25611e20610865565b612c95565b82611e309190614521565b9050611e488284600001612cec90919063ffffffff16565b611e5e8184600101612cec90919063ffffffff16565b7f7d84a6263ae0d98d3329bd7b46bb4e8d6f98cd35a7adb45c274c8b7fd5ebd5e084611e88611540565b8b8b8d5167ffffffffffffffff811115611ecb577f4e487b7100000000000000000000000000000000000000000000000000000000600052604160045260246000fd5b604051908082528060200260200182016040528015611efe57816020015b6060815260200190600190039081611ee95790505b508c88888e604051611f1899989796959493929190614121565b60405180910390a183945050505050949350505050565b60007f000000000000000000000000000000000000000000000000000000000000000073ffffffffffffffffffffffffffffffffffffffff16633a46b1a884846040518363ffffffff1660e01b8152600401611f8c929190613ca6565b60206040518083038186803b158015611fa457600080fd5b505afa158015611fb8573d6000803e3d6000fd5b505050506040513d601f19601f82011682018060405250810190611fdc91906133bd565b905092915050565b6000611fee6112af565b611ff6611336565b7f000000000000000000000000000000000000000000000000000000000000000073ffffffffffffffffffffffffffffffffffffffff16638e539e8c856040518263ffffffff1660e01b815260040161204f9190614106565b60206040518083038186803b15801561206757600080fd5b505afa15801561207b573d6000803e3d6000fd5b505050506040513d601f19601f8201168201806040525081019061209f91906133bd565b6120a99190614590565b6120b3919061455f565b9050919050565b60007fbf26d897000000000000000000000000000000000000000000000000000000007bffffffffffffffffffffffffffffffffffffffffffffffffffffffff1916827bffffffffffffffffffffffffffffffffffffffffffffffffffffffff1916148061212d575061212c82612d1b565b5b9050919050565b6060831561214457829050612194565b6000835111156121575782518084602001fd5b816040517f08c379a000000000000000000000000000000000000000000000000000000000815260040161218b9190613e64565b60405180910390fd5b9392505050565b6060600060028360026121ae9190614590565b6121b891906144cb565b67ffffffffffffffff8111156121f7577f4e487b7100000000000000000000000000000000000000000000000000000000600052604160045260246000fd5b6040519080825280601f01601f1916602001820160405280156122295781602001600182028036833780820191505090505b5090507f300000000000000000000000000000000000000000000000000000000000000081600081518110612287577f4e487b7100000000000000000000000000000000000000000000000000000000600052603260045260246000fd5b60200101907effffffffffffffffffffffffffffffffffffffffffffffffffffffffffffff1916908160001a9053507f780000000000000000000000000000000000000000000000000000000000000081600181518110612311577f4e487b7100000000000000000000000000000000000000000000000000000000600052603260045260246000fd5b60200101907effffffffffffffffffffffffffffffffffffffffffffffffffffffffffffff1916908160001a905350600060018460026123519190614590565b61235b91906144cb565b90505b6001811115612447577f3031323334353637383961626364656600000000000000000000000000000000600f8616601081106123c3577f4e487b7100000000000000000000000000000000000000000000000000000000600052603260045260246000fd5b1a60f81b828281518110612400577f4e487b7100000000000000000000000000000000000000000000000000000000600052603260045260246000fd5b60200101907effffffffffffffffffffffffffffffffffffffffffffffffffffffffffffff1916908160001a905350600485901c94508061244090614726565b905061235e565b506000841461248b576040517f08c379a000000000000000000000000000000000000000000000000000000000815260040161248290613ec6565b60405180910390fd5b8091505092915050565b60007f00000000000000000000000000000000000000000000000000000000000000004614156124e7577f00000000000000000000000000000000000000000000000000000000000000009050612555565b6125527f00000000000000000000000000000000000000000000000000000000000000007f00000000000000000000000000000000000000000000000000000000000000007f0000000000000000000000000000000000000000000000000000000000000000612d85565b90505b90565b6000828260405160200161256d929190613c35565b60405160208183030381529060405280519060200120905092915050565b6000807f7fffffffffffffffffffffffffffffff5d576e7357a4501ddfe92f46681b20a08360001c11156125c657600060039150915061268f565b601b8560ff16141580156125de5750601c8560ff1614155b156125f057600060049150915061268f565b6000600187878787604051600081526020016040526040516126159493929190613de9565b6020604051602081039080840390855afa158015612637573d6000803e3d6000fd5b505050602060405103519050600073ffffffffffffffffffffffffffffffffffffffff168173ffffffffffffffffffffffffffffffffffffffff1614156126865760006001925092505061268f565b80600092509250505b94509492505050565b600060048111156126d2577f4e487b7100000000000000000000000000000000000000000000000000000000600052602160045260246000fd5b81600481111561270b577f4e487b7100000000000000000000000000000000000000000000000000000000600052602160045260246000fd5b1415612716576129e6565b60016004811115612750577f4e487b7100000000000000000000000000000000000000000000000000000000600052602160045260246000fd5b816004811115612789577f4e487b7100000000000000000000000000000000000000000000000000000000600052602160045260246000fd5b14156127ca576040517f08c379a00000000000000000000000000000000000000000000000000000000081526004016127c190613e86565b60405180910390fd5b60026004811115612804577f4e487b7100000000000000000000000000000000000000000000000000000000600052602160045260246000fd5b81600481111561283d577f4e487b7100000000000000000000000000000000000000000000000000000000600052602160045260246000fd5b141561287e576040517f08c379a000000000000000000000000000000000000000000000000000000000815260040161287590613f26565b60405180910390fd5b600360048111156128b8577f4e487b7100000000000000000000000000000000000000000000000000000000600052602160045260246000fd5b8160048111156128f1577f4e487b7100000000000000000000000000000000000000000000000000000000600052602160045260246000fd5b1415612932576040517f08c379a000000000000000000000000000000000000000000000000000000000815260040161292990613f66565b60405180910390fd5b60048081111561296b577f4e487b7100000000000000000000000000000000000000000000000000000000600052602160045260246000fd5b8160048111156129a4577f4e487b7100000000000000000000000000000000000000000000000000000000600052602160045260246000fd5b14156129e5576040517f08c379a00000000000000000000000000000000000000000000000000000000081526004016129dc90614006565b60405180910390fd5b5b50565b60006002600086815260200190815260200160002090508060030160008573ffffffffffffffffffffffffffffffffffffffff1673ffffffffffffffffffffffffffffffffffffffff16815260200190815260200160002060009054906101000a900460ff1615612a8f576040517f08c379a0000000000000000000000000000000000000000000000000000000008152600401612a8690613f86565b60405180910390fd5b60018160030160008673ffffffffffffffffffffffffffffffffffffffff1673ffffffffffffffffffffffffffffffffffffffff16815260200190815260200160002060006101000a81548160ff02191690831515021790555060006002811115612b23577f4e487b7100000000000000000000000000000000000000000000000000000000600052602160045260246000fd5b60ff168360ff161415612b505781816000016000828254612b4491906144cb565b92505081905550612c5a565b60016002811115612b8a577f4e487b7100000000000000000000000000000000000000000000000000000000600052602160045260246000fd5b60ff168360ff161415612bb75781816001016000828254612bab91906144cb565b92505081905550612c59565b600280811115612bf0577f4e487b7100000000000000000000000000000000000000000000000000000000600052602160045260246000fd5b60ff168360ff161415612c1d5781816002016000828254612c1191906144cb565b92505081905550612c58565b6040517f08c379a0000000000000000000000000000000000000000000000000000000008152600401612c4f90614086565b60405180910390fd5b5b5b5050505050565b600080826000015167ffffffffffffffff16119050919050565b600080826000015167ffffffffffffffff16149050919050565b600067ffffffffffffffff8016821115612ce4576040517f08c379a0000000000000000000000000000000000000000000000000000000008152600401612cdb90614026565b60405180910390fd5b819050919050565b808260000160006101000a81548167ffffffffffffffff021916908367ffffffffffffffff1602179055505050565b60007f01ffc9a7000000000000000000000000000000000000000000000000000000007bffffffffffffffffffffffffffffffffffffffffffffffffffffffff1916827bffffffffffffffffffffffffffffffffffffffffffffffffffffffff1916149050919050565b60008383834630604051602001612da0959493929190613d5f565b6040516020818303038152906040528051906020012090509392505050565b6000612dd2612dcd846142a2565b61427d565b90508083825260208201905082856020860282011115612df157600080fd5b60005b85811015612e215781612e078882612f99565b845260208401935060208301925050600181019050612df4565b5050509392505050565b6000612e3e612e39846142ce565b61427d565b90508083825260208201905082856020860282011115612e5d57600080fd5b60005b85811015612ea757813567ffffffffffffffff811115612e7f57600080fd5b808601612e8c8982613056565b85526020850194506020840193505050600181019050612e60565b5050509392505050565b6000612ec4612ebf846142fa565b61427d565b90508083825260208201905082856020860282011115612ee357600080fd5b60005b85811015612f135781612ef988826130f4565b845260208401935060208301925050600181019050612ee6565b5050509392505050565b6000612f30612f2b84614326565b61427d565b905082815260208101848484011115612f4857600080fd5b612f538482856146e4565b509392505050565b6000612f6e612f6984614357565b61427d565b905082815260208101848484011115612f8657600080fd5b612f918482856146e4565b509392505050565b600081359050612fa881614ed9565b92915050565b600082601f830112612fbf57600080fd5b8135612fcf848260208601612dbf565b91505092915050565b600082601f830112612fe957600080fd5b8135612ff9848260208601612e2b565b91505092915050565b600082601f83011261301357600080fd5b8135613023848260208601612eb1565b91505092915050565b60008135905061303b81614ef0565b92915050565b60008135905061305081614f07565b92915050565b600082601f83011261306757600080fd5b8135613077848260208601612f1d565b91505092915050565b60008083601f84011261309257600080fd5b8235905067ffffffffffffffff8111156130ab57600080fd5b6020830191508360018202830111156130c357600080fd5b9250929050565b600082601f8301126130db57600080fd5b81356130eb848260208601612f5b565b91505092915050565b60008135905061310381614f1e565b92915050565b60008151905061311881614f1e565b92915050565b60008135905061312d81614f35565b92915050565b60006020828403121561314557600080fd5b600061315384828501612f99565b91505092915050565b6000806040838503121561316f57600080fd5b600061317d85828601612f99565b925050602061318e858286016130f4565b9150509250929050565b600080600080608085870312156131ae57600080fd5b600085013567ffffffffffffffff8111156131c857600080fd5b6131d487828801612fae565b945050602085013567ffffffffffffffff8111156131f157600080fd5b6131fd87828801613002565b935050604085013567ffffffffffffffff81111561321a57600080fd5b61322687828801612fd8565b92505060606132378782880161302c565b91505092959194509250565b6000806000806080858703121561325957600080fd5b600085013567ffffffffffffffff81111561327357600080fd5b61327f87828801612fae565b945050602085013567ffffffffffffffff81111561329c57600080fd5b6132a887828801613002565b935050604085013567ffffffffffffffff8111156132c557600080fd5b6132d187828801612fd8565b925050606085013567ffffffffffffffff8111156132ee57600080fd5b6132fa878288016130ca565b91505092959194509250565b60006020828403121561331857600080fd5b60006133268482850161302c565b91505092915050565b6000806040838503121561334257600080fd5b60006133508582860161302c565b925050602061336185828601612f99565b9150509250929050565b60006020828403121561337d57600080fd5b600061338b84828501613041565b91505092915050565b6000602082840312156133a657600080fd5b60006133b4848285016130f4565b91505092915050565b6000602082840312156133cf57600080fd5b60006133dd84828501613109565b91505092915050565b600080604083850312156133f957600080fd5b6000613407858286016130f4565b925050602061341885828601612f99565b9150509250929050565b6000806040838503121561343557600080fd5b6000613443858286016130f4565b92505060206134548582860161311e565b9150509250929050565b6000806000806060858703121561347457600080fd5b6000613482878288016130f4565b94505060206134938782880161311e565b935050604085013567ffffffffffffffff8111156134b057600080fd5b6134bc87828801613080565b925092505092959194509250565b600080600080600060a086880312156134e257600080fd5b60006134f0888289016130f4565b95505060206135018882890161311e565b94505060406135128882890161311e565b93505060606135238882890161302c565b92505060806135348882890161302c565b9150509295509295909350565b600061354d8383613599565b60208301905092915050565b60006135658383613792565b905092915050565b6000613579838361381a565b905092915050565b600061358d8383613be2565b60208301905092915050565b6135a2816145ea565b82525050565b6135b1816145ea565b82525050565b60006135c2826143c8565b6135cc818561443e565b93506135d783614388565b8060005b838110156136085781516135ef8882613541565b97506135fa8361440a565b9250506001810190506135db565b5085935050505092915050565b6000613620826143d3565b61362a818561444f565b93508360208202850161363c85614398565b8060005b8581101561367857848403895281516136598582613559565b945061366483614417565b925060208a01995050600181019050613640565b50829750879550505050505092915050565b6000613695826143de565b61369f8185614460565b9350836020820285016136b1856143a8565b8060005b858110156136ed57848403895281516136ce858261356d565b94506136d983614424565b925060208a019950506001810190506136b5565b50829750879550505050505092915050565b600061370a826143e9565b6137148185614471565b935061371f836143b8565b8060005b838110156137505781516137378882613581565b975061374283614431565b925050600181019050613723565b5085935050505092915050565b613766816145fc565b82525050565b61377581614608565b82525050565b61378c61378782614608565b6147fc565b82525050565b600061379d826143f4565b6137a78185614482565b93506137b78185602086016146f3565b6137c0816148f1565b840191505092915050565b60006137d6826143f4565b6137e08185614493565b93506137f08185602086016146f3565b80840191505092915050565b6138058161469c565b82525050565b613814816146c0565b82525050565b6000613825826143ff565b61382f818561449e565b935061383f8185602086016146f3565b613848816148f1565b840191505092915050565b600061385e826143ff565b61386881856144af565b93506138788185602086016146f3565b613881816148f1565b840191505092915050565b6000613897826143ff565b6138a181856144c0565b93506138b18185602086016146f3565b80840191505092915050565b60006138ca6018836144af565b91506138d582614902565b602082019050919050565b60006138ed6018836144af565b91506138f88261492b565b602082019050919050565b60006139106020836144af565b915061391b82614954565b602082019050919050565b60006139336043836144af565b915061393e8261497d565b606082019050919050565b6000613956600f836144af565b9150613961826149f2565b602082019050919050565b6000613979601f836144af565b915061398482614a1b565b602082019050919050565b600061399c6002836144c0565b91506139a782614a44565b600282019050919050565b60006139bf6021836144af565b91506139ca82614a6d565b604082019050919050565b60006139e26022836144af565b91506139ed82614abc565b604082019050919050565b6000613a056027836144af565b9150613a1082614b0b565b604082019050919050565b6000613a286023836144af565b9150613a3382614b5a565b604082019050919050565b6000613a4b6021836144af565b9150613a5682614ba9565b604082019050919050565b6000613a6e6018836144af565b9150613a7982614bf8565b602082019050919050565b6000613a916022836144af565b9150613a9c82614c21565b604082019050919050565b6000613ab46026836144af565b9150613abf82614c70565b604082019050919050565b6000613ad76021836144af565b9150613ae282614cbf565b604082019050919050565b6000613afa601d836144af565b9150613b0582614d0e565b602082019050919050565b6000613b1d6035836144af565b9150613b2882614d37565b604082019050919050565b6000613b406021836144af565b9150613b4b82614d86565b604082019050919050565b6000613b636017836144c0565b9150613b6e82614dd5565b601782019050919050565b6000613b866027836144af565b9150613b9182614dfe565b604082019050919050565b6000613ba96011836144c0565b9150613bb482614e4d565b601182019050919050565b6000613bcc602f836144af565b9150613bd782614e76565b604082019050919050565b613beb81614671565b82525050565b613bfa81614671565b82525050565b613c09816146d2565b82525050565b613c188161468f565b82525050565b6000613c2a82846137cb565b915081905092915050565b6000613c408261398f565b9150613c4c828561377b565b602082019150613c5c828461377b565b6020820191508190509392505050565b6000613c7782613b56565b9150613c83828561388c565b9150613c8e82613b9c565b9150613c9a828461388c565b91508190509392505050565b6000604082019050613cbb60008301856135a8565b613cc86020830184613bf1565b9392505050565b60006080820190508181036000830152613ce981876135b7565b90508181036020830152613cfd81866136ff565b90508181036040830152613d118185613615565b9050613d20606083018461376c565b95945050505050565b6000602082019050613d3e600083018461375d565b92915050565b6000602082019050613d59600083018461376c565b92915050565b600060a082019050613d74600083018861376c565b613d81602083018761376c565b613d8e604083018661376c565b613d9b6060830185613bf1565b613da860808301846135a8565b9695505050505050565b6000606082019050613dc7600083018661376c565b613dd46020830185613bf1565b613de16040830184613c0f565b949350505050565b6000608082019050613dfe600083018761376c565b613e0b6020830186613c0f565b613e18604083018561376c565b613e25606083018461376c565b95945050505050565b6000602082019050613e4360008301846137fc565b92915050565b6000602082019050613e5e600083018461380b565b92915050565b60006020820190508181036000830152613e7e8184613853565b905092915050565b60006020820190508181036000830152613e9f816138bd565b9050919050565b60006020820190508181036000830152613ebf816138e0565b9050919050565b60006020820190508181036000830152613edf81613903565b9050919050565b60006020820190508181036000830152613eff81613926565b9050919050565b60006020820190508181036000830152613f1f81613949565b9050919050565b60006020820190508181036000830152613f3f8161396c565b9050919050565b60006020820190508181036000830152613f5f816139b2565b9050919050565b60006020820190508181036000830152613f7f816139d5565b9050919050565b60006020820190508181036000830152613f9f816139f8565b9050919050565b60006020820190508181036000830152613fbf81613a1b565b9050919050565b60006020820190508181036000830152613fdf81613a3e565b9050919050565b60006020820190508181036000830152613fff81613a61565b9050919050565b6000602082019050818103600083015261401f81613a84565b9050919050565b6000602082019050818103600083015261403f81613aa7565b9050919050565b6000602082019050818103600083015261405f81613aca565b9050919050565b6000602082019050818103600083015261407f81613aed565b9050919050565b6000602082019050818103600083015261409f81613b10565b9050919050565b600060208201905081810360008301526140bf81613b33565b9050919050565b600060208201905081810360008301526140df81613b79565b9050919050565b600060208201905081810360008301526140ff81613bbf565b9050919050565b600060208201905061411b6000830184613bf1565b92915050565b600061012082019050614137600083018c613bf1565b614144602083018b6135a8565b8181036040830152614156818a6135b7565b9050818103606083015261416a81896136ff565b9050818103608083015261417e818861368a565b905081810360a08301526141928187613615565b90506141a160c0830186613c00565b6141ae60e0830185613c00565b8181036101008301526141c18184613853565b90509a9950505050505050505050565b60006040820190506141e66000830185613bf1565b6141f36020830184613bf1565b9392505050565b600060608201905061420f6000830186613bf1565b61421c6020830185613bf1565b6142296040830184613bf1565b949350505050565b60006080820190506142466000830187613bf1565b6142536020830186613c0f565b6142606040830185613bf1565b81810360608301526142728184613853565b905095945050505050565b6000614287614298565b90506142938282614782565b919050565b6000604051905090565b600067ffffffffffffffff8211156142bd576142bc6148c2565b5b602082029050602081019050919050565b600067ffffffffffffffff8211156142e9576142e86148c2565b5b602082029050602081019050919050565b600067ffffffffffffffff821115614315576143146148c2565b5b602082029050602081019050919050565b600067ffffffffffffffff821115614341576143406148c2565b5b61434a826148f1565b9050602081019050919050565b600067ffffffffffffffff821115614372576143716148c2565b5b61437b826148f1565b9050602081019050919050565b6000819050602082019050919050565b6000819050602082019050919050565b6000819050602082019050919050565b6000819050602082019050919050565b600081519050919050565b600081519050919050565b600081519050919050565b600081519050919050565b600081519050919050565b600081519050919050565b6000602082019050919050565b6000602082019050919050565b6000602082019050919050565b6000602082019050919050565b600082825260208201905092915050565b600082825260208201905092915050565b600082825260208201905092915050565b600082825260208201905092915050565b600082825260208201905092915050565b600081905092915050565b600082825260208201905092915050565b600082825260208201905092915050565b600081905092915050565b60006144d682614671565b91506144e183614671565b9250827fffffffffffffffffffffffffffffffffffffffffffffffffffffffffffffffff0382111561451657614515614806565b5b828201905092915050565b600061452c8261467b565b91506145378361467b565b92508267ffffffffffffffff0382111561455457614553614806565b5b828201905092915050565b600061456a82614671565b915061457583614671565b92508261458557614584614835565b5b828204905092915050565b600061459b82614671565b91506145a683614671565b9250817fffffffffffffffffffffffffffffffffffffffffffffffffffffffffffffffff04831182151516156145df576145de614806565b5b828202905092915050565b60006145f582614651565b9050919050565b60008115159050919050565b6000819050919050565b60007fffffffff0000000000000000000000000000000000000000000000000000000082169050919050565b600081905061464c82614ec5565b919050565b600073ffffffffffffffffffffffffffffffffffffffff82169050919050565b6000819050919050565b600067ffffffffffffffff82169050919050565b600060ff82169050919050565b60006146a7826146ae565b9050919050565b60006146b982614651565b9050919050565b60006146cb8261463e565b9050919050565b60006146dd8261467b565b9050919050565b82818337600083830152505050565b60005b838110156147115780820151818401526020810190506146f6565b83811115614720576000848401525b50505050565b600061473182614671565b9150600082141561474557614744614806565b5b600182039050919050565b6000600282049050600182168061476857607f821691505b6020821081141561477c5761477b614893565b5b50919050565b61478b826148f1565b810181811067ffffffffffffffff821117156147aa576147a96148c2565b5b80604052505050565b60006147be82614671565b91507fffffffffffffffffffffffffffffffffffffffffffffffffffffffffffffffff8214156147f1576147f0614806565b5b600182019050919050565b6000819050919050565b7f4e487b7100000000000000000000000000000000000000000000000000000000600052601160045260246000fd5b7f4e487b7100000000000000000000000000000000000000000000000000000000600052601260045260246000fd5b7f4e487b7100000000000000000000000000000000000000000000000000000000600052602160045260246000fd5b7f4e487b7100000000000000000000000000000000000000000000000000000000600052602260045260246000fd5b7f4e487b7100000000000000000000000000000000000000000000000000000000600052604160045260246000fd5b6000601f19601f8301169050919050565b7f45434453413a20696e76616c6964207369676e61747572650000000000000000600082015250565b7f476f7665726e6f723a206f6e6c79476f7665726e616e63650000000000000000600082015250565b7f537472696e67733a20686578206c656e67746820696e73756666696369656e74600082015250565b7f476f7665726e6f72566f74657351756f72756d4672616374696f6e3a2071756f60008201527f72756d4e756d657261746f72206f7665722071756f72756d44656e6f6d696e6160208201527f746f720000000000000000000000000000000000000000000000000000000000604082015250565b7f6b616f4d6f6a69206e6f74207365740000000000000000000000000000000000600082015250565b7f45434453413a20696e76616c6964207369676e6174757265206c656e67746800600082015250565b7f1901000000000000000000000000000000000000000000000000000000000000600082015250565b7f476f7665726e6f723a20696e76616c69642070726f706f73616c206c656e677460008201527f6800000000000000000000000000000000000000000000000000000000000000602082015250565b7f45434453413a20696e76616c6964207369676e6174757265202773272076616c60008201527f7565000000000000000000000000000000000000000000000000000000000000602082015250565b7f476f7665726e6f72566f74696e6753696d706c653a20766f746520616c72656160008201527f6479206361737400000000000000000000000000000000000000000000000000602082015250565b7f476f7665726e6f723a20766f7465206e6f742063757272656e746c792061637460008201527f6976650000000000000000000000000000000000000000000000000000000000602082015250565b7f4f6e652070726f706f73616c20706572207472616e73616374696f6e206f6e6c60008201527f7900000000000000000000000000000000000000000000000000000000000000602082015250565b7f476f7665726e6f723a20656d7074792070726f706f73616c0000000000000000600082015250565b7f45434453413a20696e76616c6964207369676e6174757265202776272076616c60008201527f7565000000000000000000000000000000000000000000000000000000000000602082015250565b7f53616665436173743a2076616c756520646f65736e27742066697420696e203660008201527f3420626974730000000000000000000000000000000000000000000000000000602082015250565b7f476f7665726e6f723a2070726f706f73616c206e6f742073756363657373667560008201527f6c00000000000000000000000000000000000000000000000000000000000000602082015250565b7f476f7665726e6f723a20756e6b6e6f776e2070726f706f73616c206964000000600082015250565b7f476f7665726e6f72566f74696e6753696d706c653a20696e76616c696420766160008201527f6c756520666f7220656e756d20566f7465547970650000000000000000000000602082015250565b7f476f7665726e6f723a2070726f706f73616c20616c726561647920657869737460008201527f7300000000000000000000000000000000000000000000000000000000000000602082015250565b7f416363657373436f6e74726f6c3a206163636f756e7420000000000000000000600082015250565b7f7461726765742063616e206f6e6c7920626520746865206b616f4d6f6a69206360008201527f6f6e747261637400000000000000000000000000000000000000000000000000602082015250565b7f206973206d697373696e6720726f6c6520000000000000000000000000000000600082015250565b7f416363657373436f6e74726f6c3a2063616e206f6e6c792072656e6f756e636560008201527f20726f6c657320666f722073656c660000000000000000000000000000000000602082015250565b60088110614ed657614ed5614864565b5b50565b614ee2816145ea565b8114614eed57600080fd5b50565b614ef981614608565b8114614f0457600080fd5b50565b614f1081614612565b8114614f1b57600080fd5b50565b614f2781614671565b8114614f3257600080fd5b50565b614f3e8161468f565b8114614f4957600080fd5b5056fe476f7665726e6f723a2063616c6c20726576657274656420776974686f7574206d657373616765a26469706673582212203399c8426bf4ccecbda9a45fb8ab5023673f238f357c80b399f4d891c95a293664736f6c63430008040033",
  "linkReferences": {},
  "deployedLinkReferences": {}
}