{
  "_format": "hh-sol-artifact-1",
  "contractName": "KaoDao",
  "sourceName": "contracts/KaoDao.sol",
  "abi": [
    {
      "inputs": [
        {
          "internalType": "contract ERC20Votes",
          "name": "_token",
          "type": "address"
        }
      ],
      "stateMutability": "nonpayable",
      "type": "constructor"
    },
    {
      "anonymous": false,
      "inputs": [
        {
          "indexed": false,
          "internalType": "uint256",
          "name": "proposalId",
          "type": "uint256"
        }
      ],
      "name": "ProposalCanceled",
      "type": "event"
    },
    {
      "anonymous": false,
      "inputs": [
        {
          "indexed": false,
          "internalType": "uint256",
          "name": "proposalId",
          "type": "uint256"
        },
        {
          "indexed": false,
          "internalType": "address",
          "name": "proposer",
          "type": "address"
        },
        {
          "indexed": false,
          "internalType": "address[]",
          "name": "targets",
          "type": "address[]"
        },
        {
          "indexed": false,
          "internalType": "uint256[]",
          "name": "values",
          "type": "uint256[]"
        },
        {
          "indexed": false,
          "internalType": "string[]",
          "name": "signatures",
          "type": "string[]"
        },
        {
          "indexed": false,
          "internalType": "bytes[]",
          "name": "calldatas",
          "type": "bytes[]"
        },
        {
          "indexed": false,
          "internalType": "uint256",
          "name": "startBlock",
          "type": "uint256"
        },
        {
          "indexed": false,
          "internalType": "uint256",
          "name": "endBlock",
          "type": "uint256"
        },
        {
          "indexed": false,
          "internalType": "string",
          "name": "description",
          "type": "string"
        }
      ],
      "name": "ProposalCreated",
      "type": "event"
    },
    {
      "anonymous": false,
      "inputs": [
        {
          "indexed": false,
          "internalType": "uint256",
          "name": "proposalId",
          "type": "uint256"
        }
      ],
      "name": "ProposalExecuted",
      "type": "event"
    },
    {
      "anonymous": false,
      "inputs": [
        {
          "indexed": false,
          "internalType": "uint256",
          "name": "oldQuorumNumerator",
          "type": "uint256"
        },
        {
          "indexed": false,
          "internalType": "uint256",
          "name": "newQuorumNumerator",
          "type": "uint256"
        }
      ],
      "name": "QuorumNumeratorUpdated",
      "type": "event"
    },
    {
      "anonymous": false,
      "inputs": [
        {
          "indexed": true,
          "internalType": "address",
          "name": "voter",
          "type": "address"
        },
        {
          "indexed": false,
          "internalType": "uint256",
          "name": "proposalId",
          "type": "uint256"
        },
        {
          "indexed": false,
          "internalType": "uint8",
          "name": "support",
          "type": "uint8"
        },
        {
          "indexed": false,
          "internalType": "uint256",
          "name": "weight",
          "type": "uint256"
        },
        {
          "indexed": false,
          "internalType": "string",
          "name": "reason",
          "type": "string"
        }
      ],
      "name": "VoteCast",
      "type": "event"
    },
    {
      "inputs": [],
      "name": "BALLOT_TYPEHASH",
      "outputs": [
        {
          "internalType": "bytes32",
          "name": "",
          "type": "bytes32"
        }
      ],
      "stateMutability": "view",
      "type": "function"
    },
    {
      "inputs": [],
      "name": "COUNTING_MODE",
      "outputs": [
        {
          "internalType": "string",
          "name": "",
          "type": "string"
        }
      ],
      "stateMutability": "pure",
      "type": "function"
    },
    {
      "inputs": [
        {
          "internalType": "uint256",
          "name": "proposalId",
          "type": "uint256"
        },
        {
          "internalType": "uint8",
          "name": "support",
          "type": "uint8"
        }
      ],
      "name": "castVote",
      "outputs": [
        {
          "internalType": "uint256",
          "name": "",
          "type": "uint256"
        }
      ],
      "stateMutability": "nonpayable",
      "type": "function"
    },
    {
      "inputs": [
        {
          "internalType": "uint256",
          "name": "proposalId",
          "type": "uint256"
        },
        {
          "internalType": "uint8",
          "name": "support",
          "type": "uint8"
        },
        {
          "internalType": "uint8",
          "name": "v",
          "type": "uint8"
        },
        {
          "internalType": "bytes32",
          "name": "r",
          "type": "bytes32"
        },
        {
          "internalType": "bytes32",
          "name": "s",
          "type": "bytes32"
        }
      ],
      "name": "castVoteBySig",
      "outputs": [
        {
          "internalType": "uint256",
          "name": "",
          "type": "uint256"
        }
      ],
      "stateMutability": "nonpayable",
      "type": "function"
    },
    {
      "inputs": [
        {
          "internalType": "uint256",
          "name": "proposalId",
          "type": "uint256"
        },
        {
          "internalType": "uint8",
          "name": "support",
          "type": "uint8"
        },
        {
          "internalType": "string",
          "name": "reason",
          "type": "string"
        }
      ],
      "name": "castVoteWithReason",
      "outputs": [
        {
          "internalType": "uint256",
          "name": "",
          "type": "uint256"
        }
      ],
      "stateMutability": "nonpayable",
      "type": "function"
    },
    {
      "inputs": [
        {
          "internalType": "address[]",
          "name": "targets",
          "type": "address[]"
        },
        {
          "internalType": "uint256[]",
          "name": "values",
          "type": "uint256[]"
        },
        {
          "internalType": "bytes[]",
          "name": "calldatas",
          "type": "bytes[]"
        },
        {
          "internalType": "bytes32",
          "name": "descriptionHash",
          "type": "bytes32"
        }
      ],
      "name": "execute",
      "outputs": [
        {
          "internalType": "uint256",
          "name": "",
          "type": "uint256"
        }
      ],
      "stateMutability": "payable",
      "type": "function"
    },
    {
      "inputs": [
        {
          "internalType": "address",
          "name": "account",
          "type": "address"
        },
        {
          "internalType": "uint256",
          "name": "blockNumber",
          "type": "uint256"
        }
      ],
      "name": "getVotes",
      "outputs": [
        {
          "internalType": "uint256",
          "name": "",
          "type": "uint256"
        }
      ],
      "stateMutability": "view",
      "type": "function"
    },
    {
      "inputs": [
        {
          "internalType": "uint256",
          "name": "proposalId",
          "type": "uint256"
        },
        {
          "internalType": "address",
          "name": "account",
          "type": "address"
        }
      ],
      "name": "hasVoted",
      "outputs": [
        {
          "internalType": "bool",
          "name": "",
          "type": "bool"
        }
      ],
      "stateMutability": "view",
      "type": "function"
    },
    {
      "inputs": [
        {
          "internalType": "address[]",
          "name": "targets",
          "type": "address[]"
        },
        {
          "internalType": "uint256[]",
          "name": "values",
          "type": "uint256[]"
        },
        {
          "internalType": "bytes[]",
          "name": "calldatas",
          "type": "bytes[]"
        },
        {
          "internalType": "bytes32",
          "name": "descriptionHash",
          "type": "bytes32"
        }
      ],
      "name": "hashProposal",
      "outputs": [
        {
          "internalType": "uint256",
          "name": "",
          "type": "uint256"
        }
      ],
      "stateMutability": "pure",
      "type": "function"
    },
    {
      "inputs": [],
      "name": "name",
      "outputs": [
        {
          "internalType": "string",
          "name": "",
          "type": "string"
        }
      ],
      "stateMutability": "view",
      "type": "function"
    },
    {
      "inputs": [
        {
          "internalType": "uint256",
          "name": "proposalId",
          "type": "uint256"
        }
      ],
      "name": "proposalDeadline",
      "outputs": [
        {
          "internalType": "uint256",
          "name": "",
          "type": "uint256"
        }
      ],
      "stateMutability": "view",
      "type": "function"
    },
    {
      "inputs": [
        {
          "internalType": "uint256",
          "name": "proposalId",
          "type": "uint256"
        }
      ],
      "name": "proposalSnapshot",
      "outputs": [
        {
          "internalType": "uint256",
          "name": "",
          "type": "uint256"
        }
      ],
      "stateMutability": "view",
      "type": "function"
    },
    {
      "inputs": [
        {
          "internalType": "uint256",
          "name": "proposalId",
          "type": "uint256"
        }
      ],
      "name": "proposalVotes",
      "outputs": [
        {
          "internalType": "uint256",
          "name": "againstVotes",
          "type": "uint256"
        },
        {
          "internalType": "uint256",
          "name": "forVotes",
          "type": "uint256"
        },
        {
          "internalType": "uint256",
          "name": "abstainVotes",
          "type": "uint256"
        }
      ],
      "stateMutability": "view",
      "type": "function"
    },
    {
      "inputs": [
        {
          "internalType": "address[]",
          "name": "targets",
          "type": "address[]"
        },
        {
          "internalType": "uint256[]",
          "name": "values",
          "type": "uint256[]"
        },
        {
          "internalType": "bytes[]",
          "name": "calldatas",
          "type": "bytes[]"
        },
        {
          "internalType": "string",
          "name": "description",
          "type": "string"
        }
      ],
      "name": "propose",
      "outputs": [
        {
          "internalType": "uint256",
          "name": "",
          "type": "uint256"
        }
      ],
      "stateMutability": "nonpayable",
      "type": "function"
    },
    {
      "inputs": [
        {
          "internalType": "uint256",
          "name": "blockNumber",
          "type": "uint256"
        }
      ],
      "name": "quorum",
      "outputs": [
        {
          "internalType": "uint256",
          "name": "",
          "type": "uint256"
        }
      ],
      "stateMutability": "view",
      "type": "function"
    },
    {
      "inputs": [],
      "name": "quorumDenominator",
      "outputs": [
        {
          "internalType": "uint256",
          "name": "",
          "type": "uint256"
        }
      ],
      "stateMutability": "view",
      "type": "function"
    },
    {
      "inputs": [],
      "name": "quorumNumerator",
      "outputs": [
        {
          "internalType": "uint256",
          "name": "",
          "type": "uint256"
        }
      ],
      "stateMutability": "view",
      "type": "function"
    },
    {
      "inputs": [
        {
          "internalType": "uint256",
          "name": "proposalId",
          "type": "uint256"
        }
      ],
      "name": "state",
      "outputs": [
        {
          "internalType": "enum IGovernor.ProposalState",
          "name": "",
          "type": "uint8"
        }
      ],
      "stateMutability": "view",
      "type": "function"
    },
    {
      "inputs": [
        {
          "internalType": "bytes4",
          "name": "interfaceId",
          "type": "bytes4"
        }
      ],
      "name": "supportsInterface",
      "outputs": [
        {
          "internalType": "bool",
          "name": "",
          "type": "bool"
        }
      ],
      "stateMutability": "view",
      "type": "function"
    },
    {
      "inputs": [],
      "name": "token",
      "outputs": [
        {
          "internalType": "contract ERC20Votes",
          "name": "",
          "type": "address"
        }
      ],
      "stateMutability": "view",
      "type": "function"
    },
    {
      "inputs": [
        {
          "internalType": "uint256",
          "name": "newQuorumNumerator",
          "type": "uint256"
        }
      ],
      "name": "updateQuorumNumerator",
      "outputs": [],
      "stateMutability": "nonpayable",
      "type": "function"
    },
    {
      "inputs": [],
      "name": "version",
      "outputs": [
        {
          "internalType": "string",
          "name": "",
          "type": "string"
        }
      ],
      "stateMutability": "view",
      "type": "function"
    },
    {
      "inputs": [],
      "name": "votingDelay",
      "outputs": [
        {
          "internalType": "uint256",
          "name": "",
          "type": "uint256"
        }
      ],
      "stateMutability": "pure",
      "type": "function"
    },
    {
      "inputs": [],
      "name": "votingPeriod",
      "outputs": [
        {
          "internalType": "uint256",
          "name": "",
          "type": "uint256"
        }
      ],
      "stateMutability": "pure",
      "type": "function"
    }
  ],
  "bytecode": "0x6101406040523480156200001257600080fd5b506040516200460f3803806200460f833981810160405281019062000038919062000356565b6005816040518060400160405280600681526020017f4b616f44616f000000000000000000000000000000000000000000000000000081525080620000826200016b60201b60201c565b60008280519060200120905060008280519060200120905060007f8b73c3c69bb8fe3d512ecc4cf759cc79239f7b179b0ffacaa9a75d522b39400f90508260c081815250508160e081815250504660a08181525050620000ea818484620001a860201b60201c565b6080818152505080610100818152505050505050508060009080519060200190620001179291906200028f565b50508073ffffffffffffffffffffffffffffffffffffffff166101208173ffffffffffffffffffffffffffffffffffffffff1660601b81525050506200016381620001e460201b60201c565b5050620005e9565b60606040518060400160405280600181526020017f3100000000000000000000000000000000000000000000000000000000000000815250905090565b60008383834630604051602001620001c5959493929190620003dc565b6040516020818303038152906040528051906020012090509392505050565b620001f46200028660201b60201c565b81111562000239576040517f08c379a0000000000000000000000000000000000000000000000000000000008152600401620002309062000439565b60405180910390fd5b60006003549050816003819055507f0553476bf02ef2726e8ce5ced78d63e26e602e4a2257b1f559418e24b463399781836040516200027a9291906200045b565b60405180910390a15050565b60006064905090565b8280546200029d90620004f5565b90600052602060002090601f016020900481019282620002c157600085556200030d565b82601f10620002dc57805160ff19168380011785556200030d565b828001600101855582156200030d579182015b828111156200030c578251825591602001919060010190620002ef565b5b5090506200031c919062000320565b5090565b5b808211156200033b57600081600090555060010162000321565b5090565b6000815190506200035081620005cf565b92915050565b6000602082840312156200036957600080fd5b600062000379848285016200033f565b91505092915050565b6200038d8162000499565b82525050565b6200039e81620004ad565b82525050565b6000620003b360438362000488565b9150620003c0826200055a565b606082019050919050565b620003d681620004eb565b82525050565b600060a082019050620003f3600083018862000393565b62000402602083018762000393565b62000411604083018662000393565b620004206060830185620003cb565b6200042f608083018462000382565b9695505050505050565b600060208201905081810360008301526200045481620003a4565b9050919050565b6000604082019050620004726000830185620003cb565b620004816020830184620003cb565b9392505050565b600082825260208201905092915050565b6000620004a682620004cb565b9050919050565b6000819050919050565b6000620004c48262000499565b9050919050565b600073ffffffffffffffffffffffffffffffffffffffff82169050919050565b6000819050919050565b600060028204905060018216806200050e57607f821691505b602082108114156200052557620005246200052b565b5b50919050565b7f4e487b7100000000000000000000000000000000000000000000000000000000600052602260045260246000fd5b7f476f7665726e6f72566f74657351756f72756d4672616374696f6e3a2071756f60008201527f72756d4e756d657261746f72206f7665722071756f72756d44656e6f6d696e6160208201527f746f720000000000000000000000000000000000000000000000000000000000604082015250565b620005da81620004b7565b8114620005e657600080fd5b50565b60805160a05160c05160e051610100516101205160601c613fc56200064a60003960008181610f4f01528181611776015261183b015260006119bb015260006119fd015260006119dc01526000611968015260006119900152613fc56000f3fe60806040526004361061014b5760003560e01c806356781388116100b6578063c59057e41161006f578063c59057e41461050f578063dd4e2ba51461054c578063deaaa7cc14610577578063eb9019d4146105a2578063f8ce560a146105df578063fc0c546a1461061c5761014b565b806356781388146103c55780637b3c71d3146104025780637d5e81e21461043f57806397c3d3341461047c578063a7713a70146104a7578063c01f9e37146104d25761014b565b80633932abb1116101085780633932abb1146102795780633bccf4fd146102a45780633e4f49e6146102e1578063438596321461031e578063544ffc9c1461035b57806354fd4d501461039a5761014b565b806301ffc9a71461015057806302a251a31461018d57806306f3f9e6146101b857806306fdde03146101e15780632656227d1461020c5780632d63f6931461023c575b600080fd5b34801561015c57600080fd5b5061017760048036038101906101729190612742565b610647565b6040516101849190612fa0565b60405180910390f35b34801561019957600080fd5b506101a26106c1565b6040516101af91906132dd565b60405180910390f35b3480156101c457600080fd5b506101df60048036038101906101da919061276b565b6106ca565b005b3480156101ed57600080fd5b506101f6610752565b60405161020391906130db565b60405180910390f35b610226600480360381019061022191906125d4565b6107e4565b60405161023391906132dd565b60405180910390f35b34801561024857600080fd5b50610263600480360381019061025e919061276b565b6109af565b60405161027091906132dd565b60405180910390f35b34801561028557600080fd5b5061028e610a1d565b60405161029b91906132dd565b60405180910390f35b3480156102b057600080fd5b506102cb60048036038101906102c691906128a1565b610a27565b6040516102d891906132dd565b60405180910390f35b3480156102ed57600080fd5b506103086004803603810190610303919061276b565b610ab1565b60405161031591906130c0565b60405180910390f35b34801561032a57600080fd5b50610345600480360381019061034091906127bd565b610c78565b6040516103529190612fa0565b60405180910390f35b34801561036757600080fd5b50610382600480360381019061037d919061276b565b610ce3565b604051610391939291906133d1565b60405180910390f35b3480156103a657600080fd5b506103af610d1b565b6040516103bc91906130db565b60405180910390f35b3480156103d157600080fd5b506103ec60048036038101906103e791906127f9565b610d58565b6040516103f991906132dd565b60405180910390f35b34801561040e57600080fd5b5061042960048036038101906104249190612835565b610d89565b60405161043691906132dd565b60405180910390f35b34801561044b57600080fd5b506104666004803603810190610461919061267f565b610df1565b60405161047391906132dd565b60405180910390f35b34801561048857600080fd5b50610491610e09565b60405161049e91906132dd565b60405180910390f35b3480156104b357600080fd5b506104bc610e12565b6040516104c991906132dd565b60405180910390f35b3480156104de57600080fd5b506104f960048036038101906104f4919061276b565b610e1c565b60405161050691906132dd565b60405180910390f35b34801561051b57600080fd5b50610536600480360381019061053191906125d4565b610e8a565b60405161054391906132dd565b60405180910390f35b34801561055857600080fd5b50610561610ec6565b60405161056e91906130db565b60405180910390f35b34801561058357600080fd5b5061058c610f03565b6040516105999190612fbb565b60405180910390f35b3480156105ae57600080fd5b506105c960048036038101906105c49190612598565b610f27565b6040516105d691906132dd565b60405180910390f35b3480156105eb57600080fd5b506106066004803603810190610601919061276b565b610f3b565b60405161061391906132dd565b60405180910390f35b34801561062857600080fd5b50610631610f4d565b60405161063e91906130a5565b60405180910390f35b60007fbf26d897000000000000000000000000000000000000000000000000000000007bffffffffffffffffffffffffffffffffffffffffffffffffffffffff1916827bffffffffffffffffffffffffffffffffffffffffffffffffffffffff191614806106ba57506106b982610f71565b5b9050919050565b60006050905090565b6106d2610fdb565b73ffffffffffffffffffffffffffffffffffffffff166106f0610fe3565b73ffffffffffffffffffffffffffffffffffffffff1614610746576040517f08c379a000000000000000000000000000000000000000000000000000000000815260040161073d9061311d565b60405180910390fd5b61074f81610feb565b50565b606060008054610761906138fd565b80601f016020809104026020016040519081016040528092919081815260200182805461078d906138fd565b80156107da5780601f106107af576101008083540402835291602001916107da565b820191906000526020600020905b8154815290600101906020018083116107bd57829003601f168201915b5050505050905090565b6000806107f386868686610e8a565b9050600061080082610ab1565b90506004600781111561083c577f4e487b7100000000000000000000000000000000000000000000000000000000600052602160045260246000fd5b816007811115610875577f4e487b7100000000000000000000000000000000000000000000000000000000600052602160045260246000fd5b14806108f15750600560078111156108b6577f4e487b7100000000000000000000000000000000000000000000000000000000600052602160045260246000fd5b8160078111156108ef577f4e487b7100000000000000000000000000000000000000000000000000000000600052602160045260246000fd5b145b610930576040517f08c379a00000000000000000000000000000000000000000000000000000000081526004016109279061325d565b60405180910390fd5b600180600084815260200190815260200160002060020160006101000a81548160ff0219169083151502179055507f712ae1383f79ac853f8d882153778e0260ef8f03b504e2866e0593e04d2b291f8260405161098d91906132dd565b60405180910390a16109a28288888888611080565b8192505050949350505050565b6000610a0c600160008481526020019081526020016000206000016040518060200160405290816000820160009054906101000a900467ffffffffffffffff1667ffffffffffffffff1667ffffffffffffffff1681525050611201565b67ffffffffffffffff169050919050565b6000610111905090565b600080610a88610a807f150214d74d59b7d1e90c73fc22ef3d991dd0a76b046543d4d80ab92d2a50328f8989604051602001610a6593929190613029565b6040516020818303038152906040528051906020012061120f565b868686611229565b9050610aa587828860405180602001604052806000815250611254565b91505095945050505050565b60008060016000848152602001908152602001600020604051806080016040529081600082016040518060200160405290816000820160009054906101000a900467ffffffffffffffff1667ffffffffffffffff1667ffffffffffffffff16815250508152602001600182016040518060200160405290816000820160009054906101000a900467ffffffffffffffff1667ffffffffffffffff1667ffffffffffffffff168152505081526020016002820160009054906101000a900460ff161515151581526020016002820160019054906101000a900460ff1615151515815250509050806040015115610baa576007915050610c73565b806060015115610bbe576002915050610c73565b610bcb81600001516113f4565b15610bda576000915050610c73565b610be781602001516113f4565b15610bf6576001915050610c73565b610c03816020015161140e565b15610c3857610c118361143a565b8015610c225750610c2183611481565b5b610c2d576003610c30565b60045b915050610c73565b6040517f08c379a0000000000000000000000000000000000000000000000000000000008152600401610c6a9061327d565b60405180910390fd5b919050565b60006002600084815260200190815260200160002060030160008373ffffffffffffffffffffffffffffffffffffffff1673ffffffffffffffffffffffffffffffffffffffff16815260200190815260200160002060009054906101000a900460ff16905092915050565b600080600080600260008681526020019081526020016000209050806000015481600101548260020154935093509350509193909250565b60606040518060400160405280600181526020017f3100000000000000000000000000000000000000000000000000000000000000815250905090565b600080610d63610fe3565b9050610d8084828560405180602001604052806000815250611254565b91505092915050565b600080610d94610fe3565b9050610de686828787878080601f016020809104026020016040519081016040528093929190818152602001838380828437600081840152601f19601f82011690508083019250505050505050611254565b915050949350505050565b6000610dff858585856114ac565b9050949350505050565b60006064905090565b6000600354905090565b6000610e79600160008481526020019081526020016000206001016040518060200160405290816000820160009054906101000a900467ffffffffffffffff1667ffffffffffffffff1667ffffffffffffffff1681525050611201565b67ffffffffffffffff169050919050565b600084848484604051602001610ea39493929190612f46565b6040516020818303038152906040528051906020012060001c9050949350505050565b60606040518060400160405280602081526020017f737570706f72743d627261766f2671756f72756d3d666f722c6162737461696e815250905090565b7f150214d74d59b7d1e90c73fc22ef3d991dd0a76b046543d4d80ab92d2a50328f81565b6000610f338383611772565b905092915050565b6000610f4682611827565b9050919050565b7f000000000000000000000000000000000000000000000000000000000000000081565b60007f01ffc9a7000000000000000000000000000000000000000000000000000000007bffffffffffffffffffffffffffffffffffffffffffffffffffffffff1916827bffffffffffffffffffffffffffffffffffffffffffffffffffffffff1916149050919050565b600030905090565b600033905090565b610ff3610e09565b811115611035576040517f08c379a000000000000000000000000000000000000000000000000000000000815260040161102c9061313d565b60405180910390fd5b60006003549050816003819055507f0553476bf02ef2726e8ce5ced78d63e26e602e4a2257b1f559418e24b463399781836040516110749291906133a8565b60405180910390a15050565b6000604051806060016040528060278152602001613f6960279139905060005b85518110156111f8576000808783815181106110e5577f4e487b7100000000000000000000000000000000000000000000000000000000600052603260045260246000fd5b602002602001015173ffffffffffffffffffffffffffffffffffffffff1687848151811061113c577f4e487b7100000000000000000000000000000000000000000000000000000000600052603260045260246000fd5b602002602001015187858151811061117d577f4e487b7100000000000000000000000000000000000000000000000000000000600052603260045260246000fd5b60200260200101516040516111929190612ecf565b60006040518083038185875af1925050503d80600081146111cf576040519150601f19603f3d011682016040523d82523d6000602084013e6111d4565b606091505b50915091506111e48282866118fd565b505050806111f190613960565b90506110a0565b50505050505050565b600081600001519050919050565b600061122261121c611964565b83611a27565b9050919050565b600080600061123a87878787611a5a565b9150915061124781611b67565b8192505050949350505050565b600080600160008781526020019081526020016000209050600160078111156112a6577f4e487b7100000000000000000000000000000000000000000000000000000000600052602160045260246000fd5b6112af87610ab1565b60078111156112e7577f4e487b7100000000000000000000000000000000000000000000000000000000600052602160045260246000fd5b14611327576040517f08c379a000000000000000000000000000000000000000000000000000000000815260040161131e906131dd565b60405180910390fd5b600061138586611376846000016040518060200160405290816000820160009054906101000a900467ffffffffffffffff1667ffffffffffffffff1667ffffffffffffffff1681525050611201565b67ffffffffffffffff16610f27565b905061139387878784611eb8565b8573ffffffffffffffffffffffffffffffffffffffff167fb8e138887d0aa13bab447e82de9d5c1777041ecd21ca36ba824ff1e6c07ddda4888784886040516113df9493929190613408565b60405180910390a28092505050949350505050565b600043826000015167ffffffffffffffff16119050919050565b600061141982612130565b8015611433575043826000015167ffffffffffffffff1611155b9050919050565b6000806002600084815260200190815260200160002090508060020154816001015461146691906136a2565b611477611472856109af565b610f3b565b1115915050919050565b6000806002600084815260200190815260200160002090508060000154816001015411915050919050565b6000806114c28686868680519060200120610e8a565b90508451865114611508576040517f08c379a00000000000000000000000000000000000000000000000000000000081526004016114ff9061317d565b60405180910390fd5b835186511461154c576040517f08c379a00000000000000000000000000000000000000000000000000000000081526004016115439061317d565b60405180910390fd5b6000865111611590576040517f08c379a0000000000000000000000000000000000000000000000000000000008152600401611587906131fd565b60405180910390fd5b60006001600083815260200190815260200160002090506115f0816000016040518060200160405290816000820160009054906101000a900467ffffffffffffffff1667ffffffffffffffff1667ffffffffffffffff168152505061214a565b61162f576040517f08c379a0000000000000000000000000000000000000000000000000000000008152600401611626906132bd565b60405180910390fd5b600061164161163c610a1d565b612164565b61164a43612164565b61165491906136f8565b905060006116686116636106c1565b612164565b8261167391906136f8565b905061168b82846000016121bb90919063ffffffff16565b6116a181846001016121bb90919063ffffffff16565b7f7d84a6263ae0d98d3329bd7b46bb4e8d6f98cd35a7adb45c274c8b7fd5ebd5e0846116cb610fe3565b8b8b8d5167ffffffffffffffff81111561170e577f4e487b7100000000000000000000000000000000000000000000000000000000600052604160045260246000fd5b60405190808252806020026020018201604052801561174157816020015b606081526020019060019003908161172c5790505b508c88888e60405161175b999897969594939291906132f8565b60405180910390a183945050505050949350505050565b60007f000000000000000000000000000000000000000000000000000000000000000073ffffffffffffffffffffffffffffffffffffffff16633a46b1a884846040518363ffffffff1660e01b81526004016117cf929190612f1d565b60206040518083038186803b1580156117e757600080fd5b505afa1580156117fb573d6000803e3d6000fd5b505050506040513d601f19601f8201168201806040525081019061181f9190612794565b905092915050565b6000611831610e09565b611839610e12565b7f000000000000000000000000000000000000000000000000000000000000000073ffffffffffffffffffffffffffffffffffffffff16638e539e8c856040518263ffffffff1660e01b815260040161189291906132dd565b60206040518083038186803b1580156118aa57600080fd5b505afa1580156118be573d6000803e3d6000fd5b505050506040513d601f19601f820116820180604052508101906118e29190612794565b6118ec9190613767565b6118f69190613736565b9050919050565b6060831561190d5782905061195d565b6000835111156119205782518084602001fd5b816040517f08c379a000000000000000000000000000000000000000000000000000000000815260040161195491906130db565b60405180910390fd5b9392505050565b60007f00000000000000000000000000000000000000000000000000000000000000004614156119b6577f00000000000000000000000000000000000000000000000000000000000000009050611a24565b611a217f00000000000000000000000000000000000000000000000000000000000000007f00000000000000000000000000000000000000000000000000000000000000007f00000000000000000000000000000000000000000000000000000000000000006121ea565b90505b90565b60008282604051602001611a3c929190612ee6565b60405160208183030381529060405280519060200120905092915050565b6000807f7fffffffffffffffffffffffffffffff5d576e7357a4501ddfe92f46681b20a08360001c1115611a95576000600391509150611b5e565b601b8560ff1614158015611aad5750601c8560ff1614155b15611abf576000600491509150611b5e565b600060018787878760405160008152602001604052604051611ae49493929190613060565b6020604051602081039080840390855afa158015611b06573d6000803e3d6000fd5b505050602060405103519050600073ffffffffffffffffffffffffffffffffffffffff168173ffffffffffffffffffffffffffffffffffffffff161415611b5557600060019250925050611b5e565b80600092509250505b94509492505050565b60006004811115611ba1577f4e487b7100000000000000000000000000000000000000000000000000000000600052602160045260246000fd5b816004811115611bda577f4e487b7100000000000000000000000000000000000000000000000000000000600052602160045260246000fd5b1415611be557611eb5565b60016004811115611c1f577f4e487b7100000000000000000000000000000000000000000000000000000000600052602160045260246000fd5b816004811115611c58577f4e487b7100000000000000000000000000000000000000000000000000000000600052602160045260246000fd5b1415611c99576040517f08c379a0000000000000000000000000000000000000000000000000000000008152600401611c90906130fd565b60405180910390fd5b60026004811115611cd3577f4e487b7100000000000000000000000000000000000000000000000000000000600052602160045260246000fd5b816004811115611d0c577f4e487b7100000000000000000000000000000000000000000000000000000000600052602160045260246000fd5b1415611d4d576040517f08c379a0000000000000000000000000000000000000000000000000000000008152600401611d449061315d565b60405180910390fd5b60036004811115611d87577f4e487b7100000000000000000000000000000000000000000000000000000000600052602160045260246000fd5b816004811115611dc0577f4e487b7100000000000000000000000000000000000000000000000000000000600052602160045260246000fd5b1415611e01576040517f08c379a0000000000000000000000000000000000000000000000000000000008152600401611df89061319d565b60405180910390fd5b600480811115611e3a577f4e487b7100000000000000000000000000000000000000000000000000000000600052602160045260246000fd5b816004811115611e73577f4e487b7100000000000000000000000000000000000000000000000000000000600052602160045260246000fd5b1415611eb4576040517f08c379a0000000000000000000000000000000000000000000000000000000008152600401611eab9061321d565b60405180910390fd5b5b50565b60006002600086815260200190815260200160002090508060030160008573ffffffffffffffffffffffffffffffffffffffff1673ffffffffffffffffffffffffffffffffffffffff16815260200190815260200160002060009054906101000a900460ff1615611f5e576040517f08c379a0000000000000000000000000000000000000000000000000000000008152600401611f55906131bd565b60405180910390fd5b60018160030160008673ffffffffffffffffffffffffffffffffffffffff1673ffffffffffffffffffffffffffffffffffffffff16815260200190815260200160002060006101000a81548160ff02191690831515021790555060006002811115611ff2577f4e487b7100000000000000000000000000000000000000000000000000000000600052602160045260246000fd5b60ff168360ff16141561201f578181600001600082825461201391906136a2565b92505081905550612129565b60016002811115612059577f4e487b7100000000000000000000000000000000000000000000000000000000600052602160045260246000fd5b60ff168360ff161415612086578181600101600082825461207a91906136a2565b92505081905550612128565b6002808111156120bf577f4e487b7100000000000000000000000000000000000000000000000000000000600052602160045260246000fd5b60ff168360ff1614156120ec57818160020160008282546120e091906136a2565b92505081905550612127565b6040517f08c379a000000000000000000000000000000000000000000000000000000000815260040161211e9061329d565b60405180910390fd5b5b5b5050505050565b600080826000015167ffffffffffffffff16119050919050565b600080826000015167ffffffffffffffff16149050919050565b600067ffffffffffffffff80168211156121b3576040517f08c379a00000000000000000000000000000000000000000000000000000000081526004016121aa9061323d565b60405180910390fd5b819050919050565b808260000160006101000a81548167ffffffffffffffff021916908367ffffffffffffffff1602179055505050565b60008383834630604051602001612205959493929190612fd6565b6040516020818303038152906040528051906020012090509392505050565b600061223761223284613479565b613454565b9050808382526020820190508285602086028201111561225657600080fd5b60005b85811015612286578161226c88826123fe565b845260208401935060208301925050600181019050612259565b5050509392505050565b60006122a361229e846134a5565b613454565b905080838252602082019050828560208602820111156122c257600080fd5b60005b8581101561230c57813567ffffffffffffffff8111156122e457600080fd5b8086016122f189826124bb565b855260208501945060208401935050506001810190506122c5565b5050509392505050565b6000612329612324846134d1565b613454565b9050808382526020820190508285602086028201111561234857600080fd5b60005b85811015612378578161235e8882612559565b84526020840193506020830192505060018101905061234b565b5050509392505050565b6000612395612390846134fd565b613454565b9050828152602081018484840111156123ad57600080fd5b6123b88482856138bb565b509392505050565b60006123d36123ce8461352e565b613454565b9050828152602081018484840111156123eb57600080fd5b6123f68482856138bb565b509392505050565b60008135905061240d81613ef5565b92915050565b600082601f83011261242457600080fd5b8135612434848260208601612224565b91505092915050565b600082601f83011261244e57600080fd5b813561245e848260208601612290565b91505092915050565b600082601f83011261247857600080fd5b8135612488848260208601612316565b91505092915050565b6000813590506124a081613f0c565b92915050565b6000813590506124b581613f23565b92915050565b600082601f8301126124cc57600080fd5b81356124dc848260208601612382565b91505092915050565b60008083601f8401126124f757600080fd5b8235905067ffffffffffffffff81111561251057600080fd5b60208301915083600182028301111561252857600080fd5b9250929050565b600082601f83011261254057600080fd5b81356125508482602086016123c0565b91505092915050565b60008135905061256881613f3a565b92915050565b60008151905061257d81613f3a565b92915050565b60008135905061259281613f51565b92915050565b600080604083850312156125ab57600080fd5b60006125b9858286016123fe565b92505060206125ca85828601612559565b9150509250929050565b600080600080608085870312156125ea57600080fd5b600085013567ffffffffffffffff81111561260457600080fd5b61261087828801612413565b945050602085013567ffffffffffffffff81111561262d57600080fd5b61263987828801612467565b935050604085013567ffffffffffffffff81111561265657600080fd5b6126628782880161243d565b925050606061267387828801612491565b91505092959194509250565b6000806000806080858703121561269557600080fd5b600085013567ffffffffffffffff8111156126af57600080fd5b6126bb87828801612413565b945050602085013567ffffffffffffffff8111156126d857600080fd5b6126e487828801612467565b935050604085013567ffffffffffffffff81111561270157600080fd5b61270d8782880161243d565b925050606085013567ffffffffffffffff81111561272a57600080fd5b6127368782880161252f565b91505092959194509250565b60006020828403121561275457600080fd5b6000612762848285016124a6565b91505092915050565b60006020828403121561277d57600080fd5b600061278b84828501612559565b91505092915050565b6000602082840312156127a657600080fd5b60006127b48482850161256e565b91505092915050565b600080604083850312156127d057600080fd5b60006127de85828601612559565b92505060206127ef858286016123fe565b9150509250929050565b6000806040838503121561280c57600080fd5b600061281a85828601612559565b925050602061282b85828601612583565b9150509250929050565b6000806000806060858703121561284b57600080fd5b600061285987828801612559565b945050602061286a87828801612583565b935050604085013567ffffffffffffffff81111561288757600080fd5b612893878288016124e5565b925092505092959194509250565b600080600080600060a086880312156128b957600080fd5b60006128c788828901612559565b95505060206128d888828901612583565b94505060406128e988828901612583565b93505060606128fa88828901612491565b925050608061290b88828901612491565b9150509295509295909350565b60006129248383612970565b60208301905092915050565b600061293c8383612b69565b905092915050565b60006129508383612bf1565b905092915050565b60006129648383612e93565b60208301905092915050565b612979816137c1565b82525050565b612988816137c1565b82525050565b60006129998261359f565b6129a38185613615565b93506129ae8361355f565b8060005b838110156129df5781516129c68882612918565b97506129d1836135e1565b9250506001810190506129b2565b5085935050505092915050565b60006129f7826135aa565b612a018185613626565b935083602082028501612a138561356f565b8060005b85811015612a4f5784840389528151612a308582612930565b9450612a3b836135ee565b925060208a01995050600181019050612a17565b50829750879550505050505092915050565b6000612a6c826135b5565b612a768185613637565b935083602082028501612a888561357f565b8060005b85811015612ac45784840389528151612aa58582612944565b9450612ab0836135fb565b925060208a01995050600181019050612a8c565b50829750879550505050505092915050565b6000612ae1826135c0565b612aeb8185613648565b9350612af68361358f565b8060005b83811015612b27578151612b0e8882612958565b9750612b1983613608565b925050600181019050612afa565b5085935050505092915050565b612b3d816137d3565b82525050565b612b4c816137df565b82525050565b612b63612b5e826137df565b6139a9565b82525050565b6000612b74826135cb565b612b7e8185613659565b9350612b8e8185602086016138ca565b612b9781613a9e565b840191505092915050565b6000612bad826135cb565b612bb7818561366a565b9350612bc78185602086016138ca565b80840191505092915050565b612bdc81613873565b82525050565b612beb81613897565b82525050565b6000612bfc826135d6565b612c068185613675565b9350612c168185602086016138ca565b612c1f81613a9e565b840191505092915050565b6000612c35826135d6565b612c3f8185613686565b9350612c4f8185602086016138ca565b612c5881613a9e565b840191505092915050565b6000612c70601883613686565b9150612c7b82613aaf565b602082019050919050565b6000612c93601883613686565b9150612c9e82613ad8565b602082019050919050565b6000612cb6604383613686565b9150612cc182613b01565b606082019050919050565b6000612cd9601f83613686565b9150612ce482613b76565b602082019050919050565b6000612cfc600283613697565b9150612d0782613b9f565b600282019050919050565b6000612d1f602183613686565b9150612d2a82613bc8565b604082019050919050565b6000612d42602283613686565b9150612d4d82613c17565b604082019050919050565b6000612d65602783613686565b9150612d7082613c66565b604082019050919050565b6000612d88602383613686565b9150612d9382613cb5565b604082019050919050565b6000612dab601883613686565b9150612db682613d04565b602082019050919050565b6000612dce602283613686565b9150612dd982613d2d565b604082019050919050565b6000612df1602683613686565b9150612dfc82613d7c565b604082019050919050565b6000612e14602183613686565b9150612e1f82613dcb565b604082019050919050565b6000612e37601d83613686565b9150612e4282613e1a565b602082019050919050565b6000612e5a603583613686565b9150612e6582613e43565b604082019050919050565b6000612e7d602183613686565b9150612e8882613e92565b604082019050919050565b612e9c81613848565b82525050565b612eab81613848565b82525050565b612eba816138a9565b82525050565b612ec981613866565b82525050565b6000612edb8284612ba2565b915081905092915050565b6000612ef182612cef565b9150612efd8285612b52565b602082019150612f0d8284612b52565b6020820191508190509392505050565b6000604082019050612f32600083018561297f565b612f3f6020830184612ea2565b9392505050565b60006080820190508181036000830152612f60818761298e565b90508181036020830152612f748186612ad6565b90508181036040830152612f8881856129ec565b9050612f976060830184612b43565b95945050505050565b6000602082019050612fb56000830184612b34565b92915050565b6000602082019050612fd06000830184612b43565b92915050565b600060a082019050612feb6000830188612b43565b612ff86020830187612b43565b6130056040830186612b43565b6130126060830185612ea2565b61301f608083018461297f565b9695505050505050565b600060608201905061303e6000830186612b43565b61304b6020830185612ea2565b6130586040830184612ec0565b949350505050565b60006080820190506130756000830187612b43565b6130826020830186612ec0565b61308f6040830185612b43565b61309c6060830184612b43565b95945050505050565b60006020820190506130ba6000830184612bd3565b92915050565b60006020820190506130d56000830184612be2565b92915050565b600060208201905081810360008301526130f58184612c2a565b905092915050565b6000602082019050818103600083015261311681612c63565b9050919050565b6000602082019050818103600083015261313681612c86565b9050919050565b6000602082019050818103600083015261315681612ca9565b9050919050565b6000602082019050818103600083015261317681612ccc565b9050919050565b6000602082019050818103600083015261319681612d12565b9050919050565b600060208201905081810360008301526131b681612d35565b9050919050565b600060208201905081810360008301526131d681612d58565b9050919050565b600060208201905081810360008301526131f681612d7b565b9050919050565b6000602082019050818103600083015261321681612d9e565b9050919050565b6000602082019050818103600083015261323681612dc1565b9050919050565b6000602082019050818103600083015261325681612de4565b9050919050565b6000602082019050818103600083015261327681612e07565b9050919050565b6000602082019050818103600083015261329681612e2a565b9050919050565b600060208201905081810360008301526132b681612e4d565b9050919050565b600060208201905081810360008301526132d681612e70565b9050919050565b60006020820190506132f26000830184612ea2565b92915050565b60006101208201905061330e600083018c612ea2565b61331b602083018b61297f565b818103604083015261332d818a61298e565b905081810360608301526133418189612ad6565b905081810360808301526133558188612a61565b905081810360a083015261336981876129ec565b905061337860c0830186612eb1565b61338560e0830185612eb1565b8181036101008301526133988184612c2a565b90509a9950505050505050505050565b60006040820190506133bd6000830185612ea2565b6133ca6020830184612ea2565b9392505050565b60006060820190506133e66000830186612ea2565b6133f36020830185612ea2565b6134006040830184612ea2565b949350505050565b600060808201905061341d6000830187612ea2565b61342a6020830186612ec0565b6134376040830185612ea2565b81810360608301526134498184612c2a565b905095945050505050565b600061345e61346f565b905061346a828261392f565b919050565b6000604051905090565b600067ffffffffffffffff82111561349457613493613a6f565b5b602082029050602081019050919050565b600067ffffffffffffffff8211156134c0576134bf613a6f565b5b602082029050602081019050919050565b600067ffffffffffffffff8211156134ec576134eb613a6f565b5b602082029050602081019050919050565b600067ffffffffffffffff82111561351857613517613a6f565b5b61352182613a9e565b9050602081019050919050565b600067ffffffffffffffff82111561354957613548613a6f565b5b61355282613a9e565b9050602081019050919050565b6000819050602082019050919050565b6000819050602082019050919050565b6000819050602082019050919050565b6000819050602082019050919050565b600081519050919050565b600081519050919050565b600081519050919050565b600081519050919050565b600081519050919050565b600081519050919050565b6000602082019050919050565b6000602082019050919050565b6000602082019050919050565b6000602082019050919050565b600082825260208201905092915050565b600082825260208201905092915050565b600082825260208201905092915050565b600082825260208201905092915050565b600082825260208201905092915050565b600081905092915050565b600082825260208201905092915050565b600082825260208201905092915050565b600081905092915050565b60006136ad82613848565b91506136b883613848565b9250827fffffffffffffffffffffffffffffffffffffffffffffffffffffffffffffffff038211156136ed576136ec6139b3565b5b828201905092915050565b600061370382613852565b915061370e83613852565b92508267ffffffffffffffff0382111561372b5761372a6139b3565b5b828201905092915050565b600061374182613848565b915061374c83613848565b92508261375c5761375b6139e2565b5b828204905092915050565b600061377282613848565b915061377d83613848565b9250817fffffffffffffffffffffffffffffffffffffffffffffffffffffffffffffffff04831182151516156137b6576137b56139b3565b5b828202905092915050565b60006137cc82613828565b9050919050565b60008115159050919050565b6000819050919050565b60007fffffffff0000000000000000000000000000000000000000000000000000000082169050919050565b600081905061382382613ee1565b919050565b600073ffffffffffffffffffffffffffffffffffffffff82169050919050565b6000819050919050565b600067ffffffffffffffff82169050919050565b600060ff82169050919050565b600061387e82613885565b9050919050565b600061389082613828565b9050919050565b60006138a282613815565b9050919050565b60006138b482613852565b9050919050565b82818337600083830152505050565b60005b838110156138e85780820151818401526020810190506138cd565b838111156138f7576000848401525b50505050565b6000600282049050600182168061391557607f821691505b6020821081141561392957613928613a40565b5b50919050565b61393882613a9e565b810181811067ffffffffffffffff8211171561395757613956613a6f565b5b80604052505050565b600061396b82613848565b91507fffffffffffffffffffffffffffffffffffffffffffffffffffffffffffffffff82141561399e5761399d6139b3565b5b600182019050919050565b6000819050919050565b7f4e487b7100000000000000000000000000000000000000000000000000000000600052601160045260246000fd5b7f4e487b7100000000000000000000000000000000000000000000000000000000600052601260045260246000fd5b7f4e487b7100000000000000000000000000000000000000000000000000000000600052602160045260246000fd5b7f4e487b7100000000000000000000000000000000000000000000000000000000600052602260045260246000fd5b7f4e487b7100000000000000000000000000000000000000000000000000000000600052604160045260246000fd5b6000601f19601f8301169050919050565b7f45434453413a20696e76616c6964207369676e61747572650000000000000000600082015250565b7f476f7665726e6f723a206f6e6c79476f7665726e616e63650000000000000000600082015250565b7f476f7665726e6f72566f74657351756f72756d4672616374696f6e3a2071756f60008201527f72756d4e756d657261746f72206f7665722071756f72756d44656e6f6d696e6160208201527f746f720000000000000000000000000000000000000000000000000000000000604082015250565b7f45434453413a20696e76616c6964207369676e6174757265206c656e67746800600082015250565b7f1901000000000000000000000000000000000000000000000000000000000000600082015250565b7f476f7665726e6f723a20696e76616c69642070726f706f73616c206c656e677460008201527f6800000000000000000000000000000000000000000000000000000000000000602082015250565b7f45434453413a20696e76616c6964207369676e6174757265202773272076616c60008201527f7565000000000000000000000000000000000000000000000000000000000000602082015250565b7f476f7665726e6f72566f74696e6753696d706c653a20766f746520616c72656160008201527f6479206361737400000000000000000000000000000000000000000000000000602082015250565b7f476f7665726e6f723a20766f7465206e6f742063757272656e746c792061637460008201527f6976650000000000000000000000000000000000000000000000000000000000602082015250565b7f476f7665726e6f723a20656d7074792070726f706f73616c0000000000000000600082015250565b7f45434453413a20696e76616c6964207369676e6174757265202776272076616c60008201527f7565000000000000000000000000000000000000000000000000000000000000602082015250565b7f53616665436173743a2076616c756520646f65736e27742066697420696e203660008201527f3420626974730000000000000000000000000000000000000000000000000000602082015250565b7f476f7665726e6f723a2070726f706f73616c206e6f742073756363657373667560008201527f6c00000000000000000000000000000000000000000000000000000000000000602082015250565b7f476f7665726e6f723a20756e6b6e6f776e2070726f706f73616c206964000000600082015250565b7f476f7665726e6f72566f74696e6753696d706c653a20696e76616c696420766160008201527f6c756520666f7220656e756d20566f7465547970650000000000000000000000602082015250565b7f476f7665726e6f723a2070726f706f73616c20616c726561647920657869737460008201527f7300000000000000000000000000000000000000000000000000000000000000602082015250565b60088110613ef257613ef1613a11565b5b50565b613efe816137c1565b8114613f0957600080fd5b50565b613f15816137df565b8114613f2057600080fd5b50565b613f2c816137e9565b8114613f3757600080fd5b50565b613f4381613848565b8114613f4e57600080fd5b50565b613f5a81613866565b8114613f6557600080fd5b5056fe476f7665726e6f723a2063616c6c20726576657274656420776974686f7574206d657373616765a2646970667358221220f483a12816bd4467768a5023b7dbe6edb34a4f9428a6eb5c74711cbfbf8bcc0d64736f6c63430008040033",
  "linkReferences": {},
  "deployedLinkReferences": {}
}