{
  "_format": "hh-sol-artifact-1",
  "contractName": "KaoDao",
  "sourceName": "contracts/KaoDao.sol",
  "abi": [
    {
      "anonymous": false,
      "inputs": [
        {
          "indexed": false,
          "internalType": "address",
          "name": "previousAdmin",
          "type": "address"
        },
        {
          "indexed": false,
          "internalType": "address",
          "name": "newAdmin",
          "type": "address"
        }
      ],
      "name": "AdminChanged",
      "type": "event"
    },
    {
      "anonymous": false,
      "inputs": [
        {
          "indexed": true,
          "internalType": "address",
          "name": "beacon",
          "type": "address"
        }
      ],
      "name": "BeaconUpgraded",
      "type": "event"
    },
    {
      "anonymous": false,
      "inputs": [
        {
          "indexed": false,
          "internalType": "uint256",
          "name": "proposalId",
          "type": "uint256"
        }
      ],
      "name": "ProposalCanceled",
      "type": "event"
    },
    {
      "anonymous": false,
      "inputs": [
        {
          "indexed": false,
          "internalType": "uint256",
          "name": "proposalId",
          "type": "uint256"
        },
        {
          "indexed": false,
          "internalType": "address",
          "name": "proposer",
          "type": "address"
        },
        {
          "indexed": false,
          "internalType": "address[]",
          "name": "targets",
          "type": "address[]"
        },
        {
          "indexed": false,
          "internalType": "uint256[]",
          "name": "values",
          "type": "uint256[]"
        },
        {
          "indexed": false,
          "internalType": "string[]",
          "name": "signatures",
          "type": "string[]"
        },
        {
          "indexed": false,
          "internalType": "bytes[]",
          "name": "calldatas",
          "type": "bytes[]"
        },
        {
          "indexed": false,
          "internalType": "uint256",
          "name": "startBlock",
          "type": "uint256"
        },
        {
          "indexed": false,
          "internalType": "uint256",
          "name": "endBlock",
          "type": "uint256"
        },
        {
          "indexed": false,
          "internalType": "string",
          "name": "description",
          "type": "string"
        }
      ],
      "name": "ProposalCreated",
      "type": "event"
    },
    {
      "anonymous": false,
      "inputs": [
        {
          "indexed": false,
          "internalType": "uint256",
          "name": "proposalId",
          "type": "uint256"
        }
      ],
      "name": "ProposalExecuted",
      "type": "event"
    },
    {
      "anonymous": false,
      "inputs": [
        {
          "indexed": false,
          "internalType": "uint256",
          "name": "oldQuorumNumerator",
          "type": "uint256"
        },
        {
          "indexed": false,
          "internalType": "uint256",
          "name": "newQuorumNumerator",
          "type": "uint256"
        }
      ],
      "name": "QuorumNumeratorUpdated",
      "type": "event"
    },
    {
      "anonymous": false,
      "inputs": [
        {
          "indexed": true,
          "internalType": "bytes32",
          "name": "role",
          "type": "bytes32"
        },
        {
          "indexed": true,
          "internalType": "bytes32",
          "name": "previousAdminRole",
          "type": "bytes32"
        },
        {
          "indexed": true,
          "internalType": "bytes32",
          "name": "newAdminRole",
          "type": "bytes32"
        }
      ],
      "name": "RoleAdminChanged",
      "type": "event"
    },
    {
      "anonymous": false,
      "inputs": [
        {
          "indexed": true,
          "internalType": "bytes32",
          "name": "role",
          "type": "bytes32"
        },
        {
          "indexed": true,
          "internalType": "address",
          "name": "account",
          "type": "address"
        },
        {
          "indexed": true,
          "internalType": "address",
          "name": "sender",
          "type": "address"
        }
      ],
      "name": "RoleGranted",
      "type": "event"
    },
    {
      "anonymous": false,
      "inputs": [
        {
          "indexed": true,
          "internalType": "bytes32",
          "name": "role",
          "type": "bytes32"
        },
        {
          "indexed": true,
          "internalType": "address",
          "name": "account",
          "type": "address"
        },
        {
          "indexed": true,
          "internalType": "address",
          "name": "sender",
          "type": "address"
        }
      ],
      "name": "RoleRevoked",
      "type": "event"
    },
    {
      "anonymous": false,
      "inputs": [
        {
          "indexed": true,
          "internalType": "address",
          "name": "implementation",
          "type": "address"
        }
      ],
      "name": "Upgraded",
      "type": "event"
    },
    {
      "anonymous": false,
      "inputs": [
        {
          "indexed": true,
          "internalType": "address",
          "name": "voter",
          "type": "address"
        },
        {
          "indexed": false,
          "internalType": "uint256",
          "name": "proposalId",
          "type": "uint256"
        },
        {
          "indexed": false,
          "internalType": "uint8",
          "name": "support",
          "type": "uint8"
        },
        {
          "indexed": false,
          "internalType": "uint256",
          "name": "weight",
          "type": "uint256"
        },
        {
          "indexed": false,
          "internalType": "string",
          "name": "reason",
          "type": "string"
        }
      ],
      "name": "VoteCast",
      "type": "event"
    },
    {
      "inputs": [],
      "name": "ADDRESS_UPDATER",
      "outputs": [
        {
          "internalType": "bytes32",
          "name": "",
          "type": "bytes32"
        }
      ],
      "stateMutability": "view",
      "type": "function"
    },
    {
      "inputs": [],
      "name": "ADMIN_PROPOSE_ROLE",
      "outputs": [
        {
          "internalType": "bytes32",
          "name": "",
          "type": "bytes32"
        }
      ],
      "stateMutability": "view",
      "type": "function"
    },
    {
      "inputs": [],
      "name": "BALLOT_TYPEHASH",
      "outputs": [
        {
          "internalType": "bytes32",
          "name": "",
          "type": "bytes32"
        }
      ],
      "stateMutability": "view",
      "type": "function"
    },
    {
      "inputs": [],
      "name": "COUNTING_MODE",
      "outputs": [
        {
          "internalType": "string",
          "name": "",
          "type": "string"
        }
      ],
      "stateMutability": "pure",
      "type": "function"
    },
    {
      "inputs": [],
      "name": "DEFAULT_ADMIN_ROLE",
      "outputs": [
        {
          "internalType": "bytes32",
          "name": "",
          "type": "bytes32"
        }
      ],
      "stateMutability": "view",
      "type": "function"
    },
    {
      "inputs": [],
      "name": "PROPOSAL_STAKE",
      "outputs": [
        {
          "internalType": "uint256",
          "name": "",
          "type": "uint256"
        }
      ],
      "stateMutability": "view",
      "type": "function"
    },
    {
      "inputs": [],
      "name": "UPGRADER_ROLE",
      "outputs": [
        {
          "internalType": "bytes32",
          "name": "",
          "type": "bytes32"
        }
      ],
      "stateMutability": "view",
      "type": "function"
    },
    {
      "inputs": [
        {
          "internalType": "uint256",
          "name": "proposalId",
          "type": "uint256"
        },
        {
          "internalType": "uint8",
          "name": "support",
          "type": "uint8"
        }
      ],
      "name": "castVote",
      "outputs": [
        {
          "internalType": "uint256",
          "name": "",
          "type": "uint256"
        }
      ],
      "stateMutability": "nonpayable",
      "type": "function"
    },
    {
      "inputs": [
        {
          "internalType": "uint256",
          "name": "proposalId",
          "type": "uint256"
        },
        {
          "internalType": "uint8",
          "name": "support",
          "type": "uint8"
        },
        {
          "internalType": "uint8",
          "name": "v",
          "type": "uint8"
        },
        {
          "internalType": "bytes32",
          "name": "r",
          "type": "bytes32"
        },
        {
          "internalType": "bytes32",
          "name": "s",
          "type": "bytes32"
        }
      ],
      "name": "castVoteBySig",
      "outputs": [
        {
          "internalType": "uint256",
          "name": "",
          "type": "uint256"
        }
      ],
      "stateMutability": "nonpayable",
      "type": "function"
    },
    {
      "inputs": [
        {
          "internalType": "uint256",
          "name": "proposalId",
          "type": "uint256"
        },
        {
          "internalType": "uint8",
          "name": "support",
          "type": "uint8"
        },
        {
          "internalType": "string",
          "name": "reason",
          "type": "string"
        }
      ],
      "name": "castVoteWithReason",
      "outputs": [
        {
          "internalType": "uint256",
          "name": "",
          "type": "uint256"
        }
      ],
      "stateMutability": "nonpayable",
      "type": "function"
    },
    {
      "inputs": [
        {
          "internalType": "address[]",
          "name": "targets",
          "type": "address[]"
        },
        {
          "internalType": "uint256[]",
          "name": "values",
          "type": "uint256[]"
        },
        {
          "internalType": "bytes[]",
          "name": "calldatas",
          "type": "bytes[]"
        },
        {
          "internalType": "bytes32",
          "name": "descriptionHash",
          "type": "bytes32"
        }
      ],
      "name": "execute",
      "outputs": [
        {
          "internalType": "uint256",
          "name": "",
          "type": "uint256"
        }
      ],
      "stateMutability": "payable",
      "type": "function"
    },
    {
      "inputs": [
        {
          "internalType": "bytes32",
          "name": "role",
          "type": "bytes32"
        }
      ],
      "name": "getRoleAdmin",
      "outputs": [
        {
          "internalType": "bytes32",
          "name": "",
          "type": "bytes32"
        }
      ],
      "stateMutability": "view",
      "type": "function"
    },
    {
      "inputs": [
        {
          "internalType": "address",
          "name": "account",
          "type": "address"
        },
        {
          "internalType": "uint256",
          "name": "blockNumber",
          "type": "uint256"
        }
      ],
      "name": "getVotes",
      "outputs": [
        {
          "internalType": "uint256",
          "name": "",
          "type": "uint256"
        }
      ],
      "stateMutability": "view",
      "type": "function"
    },
    {
      "inputs": [
        {
          "internalType": "bytes32",
          "name": "role",
          "type": "bytes32"
        },
        {
          "internalType": "address",
          "name": "account",
          "type": "address"
        }
      ],
      "name": "grantRole",
      "outputs": [],
      "stateMutability": "nonpayable",
      "type": "function"
    },
    {
      "inputs": [
        {
          "internalType": "bytes32",
          "name": "role",
          "type": "bytes32"
        },
        {
          "internalType": "address",
          "name": "account",
          "type": "address"
        }
      ],
      "name": "hasRole",
      "outputs": [
        {
          "internalType": "bool",
          "name": "",
          "type": "bool"
        }
      ],
      "stateMutability": "view",
      "type": "function"
    },
    {
      "inputs": [
        {
          "internalType": "uint256",
          "name": "proposalId",
          "type": "uint256"
        },
        {
          "internalType": "address",
          "name": "account",
          "type": "address"
        }
      ],
      "name": "hasVoted",
      "outputs": [
        {
          "internalType": "bool",
          "name": "",
          "type": "bool"
        }
      ],
      "stateMutability": "view",
      "type": "function"
    },
    {
      "inputs": [
        {
          "internalType": "address[]",
          "name": "targets",
          "type": "address[]"
        },
        {
          "internalType": "uint256[]",
          "name": "values",
          "type": "uint256[]"
        },
        {
          "internalType": "bytes[]",
          "name": "calldatas",
          "type": "bytes[]"
        },
        {
          "internalType": "bytes32",
          "name": "descriptionHash",
          "type": "bytes32"
        }
      ],
      "name": "hashProposal",
      "outputs": [
        {
          "internalType": "uint256",
          "name": "",
          "type": "uint256"
        }
      ],
      "stateMutability": "pure",
      "type": "function"
    },
    {
      "inputs": [
        {
          "internalType": "contract ERC20VotesUpgradeable",
          "name": "token",
          "type": "address"
        },
        {
          "internalType": "contract KaoStaking",
          "name": "staking",
          "type": "address"
        },
        {
          "internalType": "uint256",
          "name": "voteDelay",
          "type": "uint256"
        },
        {
          "internalType": "uint256",
          "name": "votePeriod",
          "type": "uint256"
        }
      ],
      "name": "initialize",
      "outputs": [],
      "stateMutability": "nonpayable",
      "type": "function"
    },
    {
      "inputs": [],
      "name": "name",
      "outputs": [
        {
          "internalType": "string",
          "name": "",
          "type": "string"
        }
      ],
      "stateMutability": "view",
      "type": "function"
    },
    {
      "inputs": [
        {
          "internalType": "uint256",
          "name": "proposalId",
          "type": "uint256"
        }
      ],
      "name": "proposalDeadline",
      "outputs": [
        {
          "internalType": "uint256",
          "name": "",
          "type": "uint256"
        }
      ],
      "stateMutability": "view",
      "type": "function"
    },
    {
      "inputs": [
        {
          "internalType": "uint256",
          "name": "proposalId",
          "type": "uint256"
        }
      ],
      "name": "proposalSnapshot",
      "outputs": [
        {
          "internalType": "uint256",
          "name": "",
          "type": "uint256"
        }
      ],
      "stateMutability": "view",
      "type": "function"
    },
    {
      "inputs": [
        {
          "internalType": "uint256",
          "name": "proposalId",
          "type": "uint256"
        }
      ],
      "name": "proposalVotes",
      "outputs": [
        {
          "internalType": "uint256",
          "name": "againstVotes",
          "type": "uint256"
        },
        {
          "internalType": "uint256",
          "name": "forVotes",
          "type": "uint256"
        },
        {
          "internalType": "uint256",
          "name": "abstainVotes",
          "type": "uint256"
        }
      ],
      "stateMutability": "view",
      "type": "function"
    },
    {
      "inputs": [
        {
          "internalType": "address[]",
          "name": "targets",
          "type": "address[]"
        },
        {
          "internalType": "uint256[]",
          "name": "values",
          "type": "uint256[]"
        },
        {
          "internalType": "bytes[]",
          "name": "calldatas",
          "type": "bytes[]"
        },
        {
          "internalType": "string",
          "name": "description",
          "type": "string"
        }
      ],
      "name": "propose",
      "outputs": [
        {
          "internalType": "uint256",
          "name": "",
          "type": "uint256"
        }
      ],
      "stateMutability": "nonpayable",
      "type": "function"
    },
    {
      "inputs": [
        {
          "internalType": "bytes",
          "name": "data",
          "type": "bytes"
        },
        {
          "internalType": "string",
          "name": "description",
          "type": "string"
        }
      ],
      "name": "proposeKao",
      "outputs": [
        {
          "internalType": "uint256",
          "name": "",
          "type": "uint256"
        }
      ],
      "stateMutability": "nonpayable",
      "type": "function"
    },
    {
      "inputs": [
        {
          "internalType": "uint256",
          "name": "blockNumber",
          "type": "uint256"
        }
      ],
      "name": "quorum",
      "outputs": [
        {
          "internalType": "uint256",
          "name": "",
          "type": "uint256"
        }
      ],
      "stateMutability": "view",
      "type": "function"
    },
    {
      "inputs": [],
      "name": "quorumDenominator",
      "outputs": [
        {
          "internalType": "uint256",
          "name": "",
          "type": "uint256"
        }
      ],
      "stateMutability": "view",
      "type": "function"
    },
    {
      "inputs": [],
      "name": "quorumNumerator",
      "outputs": [
        {
          "internalType": "uint256",
          "name": "",
          "type": "uint256"
        }
      ],
      "stateMutability": "view",
      "type": "function"
    },
    {
      "inputs": [
        {
          "internalType": "bytes32",
          "name": "role",
          "type": "bytes32"
        },
        {
          "internalType": "address",
          "name": "account",
          "type": "address"
        }
      ],
      "name": "renounceRole",
      "outputs": [],
      "stateMutability": "nonpayable",
      "type": "function"
    },
    {
      "inputs": [
        {
          "internalType": "bytes32",
          "name": "role",
          "type": "bytes32"
        },
        {
          "internalType": "address",
          "name": "account",
          "type": "address"
        }
      ],
      "name": "revokeRole",
      "outputs": [],
      "stateMutability": "nonpayable",
      "type": "function"
    },
    {
      "inputs": [
        {
          "internalType": "address",
          "name": "kaoMoji",
          "type": "address"
        }
      ],
      "name": "setKaoMojiAddress",
      "outputs": [],
      "stateMutability": "nonpayable",
      "type": "function"
    },
    {
      "inputs": [
        {
          "internalType": "uint256",
          "name": "proposalId",
          "type": "uint256"
        }
      ],
      "name": "state",
      "outputs": [
        {
          "internalType": "enum IGovernorUpgradeable.ProposalState",
          "name": "",
          "type": "uint8"
        }
      ],
      "stateMutability": "view",
      "type": "function"
    },
    {
      "inputs": [
        {
          "internalType": "bytes4",
          "name": "interfaceId",
          "type": "bytes4"
        }
      ],
      "name": "supportsInterface",
      "outputs": [
        {
          "internalType": "bool",
          "name": "",
          "type": "bool"
        }
      ],
      "stateMutability": "view",
      "type": "function"
    },
    {
      "inputs": [],
      "name": "token",
      "outputs": [
        {
          "internalType": "contract ERC20VotesUpgradeable",
          "name": "",
          "type": "address"
        }
      ],
      "stateMutability": "view",
      "type": "function"
    },
    {
      "inputs": [
        {
          "internalType": "uint256",
          "name": "newQuorumNumerator",
          "type": "uint256"
        }
      ],
      "name": "updateQuorumNumerator",
      "outputs": [],
      "stateMutability": "nonpayable",
      "type": "function"
    },
    {
      "inputs": [
        {
          "internalType": "address",
          "name": "newImplementation",
          "type": "address"
        }
      ],
      "name": "upgradeTo",
      "outputs": [],
      "stateMutability": "nonpayable",
      "type": "function"
    },
    {
      "inputs": [
        {
          "internalType": "address",
          "name": "newImplementation",
          "type": "address"
        },
        {
          "internalType": "bytes",
          "name": "data",
          "type": "bytes"
        }
      ],
      "name": "upgradeToAndCall",
      "outputs": [],
      "stateMutability": "payable",
      "type": "function"
    },
    {
      "inputs": [],
      "name": "version",
      "outputs": [
        {
          "internalType": "string",
          "name": "",
          "type": "string"
        }
      ],
      "stateMutability": "view",
      "type": "function"
    },
    {
      "inputs": [],
      "name": "votingDelay",
      "outputs": [
        {
          "internalType": "uint256",
          "name": "",
          "type": "uint256"
        }
      ],
      "stateMutability": "view",
      "type": "function"
    },
    {
      "inputs": [],
      "name": "votingPeriod",
      "outputs": [
        {
          "internalType": "uint256",
          "name": "",
          "type": "uint256"
        }
      ],
      "stateMutability": "view",
      "type": "function"
    }
  ],
  "bytecode": "0x60a06040523060601b60805234801561001757600080fd5b5060805160601c613a3f61004b60003960008181610bf401528181610c3401528181610ea00152610ee00152613a3f6000f3fe6080604052600436106101c05760003560e01c806301ffc9a7146101c557806302a251a3146101fa57806306f3f9e61461021a57806306fdde031461023c578063248a9ca31461025e5780632656227d1461027e5780632d63f693146102915780632f2ff15d146102b1578063316a6a6e146102d157806336568abe146102f15780633659cfe6146103115780633932abb1146103315780633bccf4fd146103475780633e4f49e61461036757806343859632146103945780634f1ef286146103de578063544ffc9c146103f157806354fd4d5014610446578063567813881461045b5780637b3c71d31461047b5780637d5e81e21461049b57806387863245146104bb57806391d14854146104dd57806397c3d334146104fd578063a217fddf14610511578063a44bda5f14610526578063a7713a7014610546578063bb6d46141461055c578063c01f9e371461057e578063c59057e41461059e578063ce199f69146105be578063d547741f146105da578063dd4e2ba5146105fa578063deaaa7cc14610640578063eb9019d414610662578063eb990c5914610682578063f72c0d8b146106a2578063f8ce560a146106c4578063fc0c546a146106e4575b600080fd5b3480156101d157600080fd5b506101e56101e0366004613120565b610712565b60405190151581526020015b60405180910390f35b34801561020657600080fd5b5061022d545b6040519081526020016101f1565b34801561022657600080fd5b5061023a6102353660046130d9565b610723565b005b34801561024857600080fd5b5061025161077e565b6040516101f19190613522565b34801561026a57600080fd5b5061020c6102793660046130d9565b610810565b61020c61028c366004612fa7565b610826565b34801561029d57600080fd5b5061020c6102ac3660046130d9565b61083d565b3480156102bd57600080fd5b5061023a6102cc3660046130f1565b610874565b3480156102dd57600080fd5b5061020c6102ec366004613148565b610896565b3480156102fd57600080fd5b5061023a61030c3660046130f1565b610b6b565b34801561031d57600080fd5b5061023a61032c366004612f13565b610be9565b34801561033d57600080fd5b5061022c5461020c565b34801561035357600080fd5b5061020c6103623660046132a7565b610caf565b34801561037357600080fd5b506103876103823660046130d9565b610d31565b6040516101f191906134fa565b3480156103a057600080fd5b506101e56103af3660046130f1565b600082815260fd602090815260408083206001600160a01b038516845260030190915290205460ff1692915050565b61023a6103ec366004612f2f565b610e95565b3480156103fd57600080fd5b5061042b61040c3660046130d9565b600090815260fd60205260409020805460018201546002909201549092565b604080519384526020840192909252908201526060016101f1565b34801561045257600080fd5b50610251610f4b565b34801561046757600080fd5b5061020c6104763660046131fb565b610f66565b34801561048757600080fd5b5061020c610496366004613226565b610f8f565b3480156104a757600080fd5b5061020c6104b6366004613032565b610fd7565b3480156104c757600080fd5b5061020c6000805160206139ea83398151915281565b3480156104e957600080fd5b506101e56104f83660046130f1565b610ffe565b34801561050957600080fd5b50606461020c565b34801561051d57600080fd5b5061020c600081565b34801561053257600080fd5b5061023a610541366004612f13565b61102a565b34801561055257600080fd5b506101625461020c565b34801561056857600080fd5b5061020c6000805160206139ca83398151915281565b34801561058a57600080fd5b5061020c6105993660046130d9565b61107a565b3480156105aa57600080fd5b5061020c6105b9366004612fa7565b6110a9565b3480156105ca57600080fd5b5061020c670de0b6b3a764000081565b3480156105e657600080fd5b5061023a6105f53660046130f1565b6110e3565b34801561060657600080fd5b506040805180820190915260208082527f737570706f72743d627261766f2671756f72756d3d666f722c6162737461696e90820152610251565b34801561064c57600080fd5b5061020c6000805160206138fc83398151915281565b34801561066e57600080fd5b5061020c61067d366004612f7c565b611100565b34801561068e57600080fd5b5061023a61069d36600461319e565b61119d565b3480156106ae57600080fd5b5061020c60008051602061396383398151915281565b3480156106d057600080fd5b5061020c6106df3660046130d9565b611317565b3480156106f057600080fd5b5061012f54610705906001600160a01b031681565b6040516101f19190613471565b600061071d82611322565b92915050565b3330146107725760405162461bcd60e51b8152602060048201526018602482015277476f7665726e6f723a206f6e6c79476f7665726e616e636560401b60448201526064015b60405180910390fd5b61077b81611347565b50565b606060cb805461078d9061386a565b80601f01602080910402602001604051908101604052809291908181526020018280546107b99061386a565b80156108065780601f106107db57610100808354040283529160200191610806565b820191906000526020600020905b8154815290600101906020018083116107e957829003601f168201915b5050505050905090565b60009081526101f8602052604090206001015490565b600061083485858585611410565b95945050505050565b600081815260cc602090815260408083208151928301909152546001600160401b0316908190525b6001600160401b031692915050565b61087d82610810565b610887813361153e565b61089183836115a2565b505050565b61022a546000906001600160a01b03166108e15760405162461bcd60e51b815260206004820152600c60248201526b06b616f4d6f6a69203d3d20360a41b6044820152606401610769565b600083511161091e5760405162461bcd60e51b8152602060048201526009602482015268064617461203d3d20360bc1b6044820152606401610769565b61022b546040516370a0823160e01b8152670de0b6b3a7640000916001600160a01b0316906370a0823190610957903390600401613471565b60206040518083038186803b15801561096f57600080fd5b505afa158015610983573d6000803e3d6000fd5b505050506040513d601f19601f820116820180604052508101906109a791906131e3565b10156109f05760405162461bcd60e51b8152602060048201526018602482015277139bdd08195b9bdd59da081d1bdad95b9cc81cdd185ad95960421b6044820152606401610769565b60408051600180825281830190925260009160208083019080368337505061022a5482519293506001600160a01b031691839150600090610a4157634e487b7160e01b600052603260045260246000fd5b6001600160a01b039290921660209283029190910190910152604080516001808252818301909252600091816020016020820280368337019050509050600081600081518110610aa157634e487b7160e01b600052603260045260246000fd5b6020908102919091010152604080516001808252818301909252600091816020015b6060815260200190600190039081610ac3575050604051909150630cae37f160e01b90610af690889033906024016134d0565b604051602081830303815290604052906001600160e01b0319166020820180516001600160e01b03838183161783525050505081600081518110610b4a57634e487b7160e01b600052603260045260246000fd5b6020026020010181905250610b6183838388611629565b9695505050505050565b6001600160a01b0381163314610bdb5760405162461bcd60e51b815260206004820152602f60248201527f416363657373436f6e74726f6c3a2063616e206f6e6c792072656e6f756e636560448201526e103937b632b9903337b91039b2b63360891b6064820152608401610769565b610be58282611858565b5050565b306001600160a01b037f0000000000000000000000000000000000000000000000000000000000000000161415610c325760405162461bcd60e51b815260040161076990613576565b7f00000000000000000000000000000000000000000000000000000000000000006001600160a01b0316610c646118c0565b6001600160a01b031614610c8a5760405162461bcd60e51b8152600401610769906135b0565b610c93816118dc565b6040805160008082526020820190925261077b918391906118f5565b604080516000805160206138fc833981519152602082015290810186905260ff851660608201526000908190610d0990610d019060800160405160208183030381529060405280519060200120611a35565b868686611a83565b9050610d2687828860405180602001604052806000815250611aa1565b979650505050505050565b600081815260cc60209081526040808320815160a08101835281546001600160401b039081166080830190815282528351808601855260018401549091168152938101939093526002015460ff808216158015938501939093526101009091041615156060830152610da65750600792915050565b806060015115610db95750600292915050565b805151436001600160401b039091161115610dd75750600092915050565b602081015151436001600160401b039091161115610df85750600192915050565b610e058160200151611bb9565b15610e4757610e1383611be8565b8015610e325750600083815260fd602052604090208054600190910154115b610e3d576003610e40565b60045b9392505050565b60405162461bcd60e51b815260206004820152601d60248201527f476f7665726e6f723a20756e6b6e6f776e2070726f706f73616c2069640000006044820152606401610769565b50919050565b306001600160a01b037f0000000000000000000000000000000000000000000000000000000000000000161415610ede5760405162461bcd60e51b815260040161076990613576565b7f00000000000000000000000000000000000000000000000000000000000000006001600160a01b0316610f106118c0565b6001600160a01b031614610f365760405162461bcd60e51b8152600401610769906135b0565b610f3f826118dc565b610be5828260016118f5565b6040805180820190915260018152603160f81b602082015290565b600080339050610f8784828560405180602001604052806000815250611aa1565b949350505050565b600080339050610b6186828787878080601f016020809104026020016040519081016040528093929190818152602001838380828437600092019190915250611aa192505050565b60006000805160206139ca833981519152610ff2813361153e565b610b6186868686611629565b60009182526101f8602090815260408084206001600160a01b0393909316845291905290205460ff1690565b6000805160206139ea833981519152611043813361153e565b6001600160a01b03821661105657600080fd5b5061022a80546001600160a01b0319166001600160a01b0392909216919091179055565b600081815260cc602090815260408083208151928301909152600101546001600160401b031690819052610865565b6000848484846040516020016110c29493929190613485565b60408051601f19818403018152919052805160209091012095945050505050565b6110ec82610810565b6110f6813361153e565b6108918383611858565b60008061110d8484611c1f565b905060008111610e405761022b546040516370a0823160e01b81526001600160a01b03909116906370a0823190611148903390600401613471565b60206040518083038186803b15801561116057600080fd5b505afa158015611174573d6000803e3d6000fd5b505050506040513d601f19601f8201168201806040525081019061119891906131e3565b610f87565b600054610100900460ff16806111b6575060005460ff16155b6111d25760405162461bcd60e51b8152600401610769906135ea565b600054610100900460ff161580156111f4576000805461ffff19166101011790555b61121b604051806040016040528060068152602001654b616f44616f60d01b815250611ca5565b611223611d43565b61122c85611dce565b6112366019611e46565b61123e611ebe565b6112566000805160206139ea83398151915233611f1c565b61126e60008051602061396383398151915233611f1c565b6112866000805160206139ca83398151915233611f1c565b6001600160a01b0384166112d65760405162461bcd60e51b8152602060048201526017602482015276496e76616c6964207374616b696e67206164647265737360481b6044820152606401610769565b61022b80546001600160a01b0319166001600160a01b03861617905561022c83905561022d8290558015611310576000805461ff00191690555b5050505050565b600061071d82611f26565b60006001600160e01b03198216637965db0b60e01b148061071d575061071d82611fbf565b60648111156113ca5760405162461bcd60e51b815260206004820152604360248201527f476f7665726e6f72566f74657351756f72756d4672616374696f6e3a2071756f60448201527f72756d4e756d657261746f72206f7665722071756f72756d44656e6f6d696e616064820152623a37b960e91b608482015260a401610769565b61016280549082905560408051828152602081018490527f0553476bf02ef2726e8ce5ced78d63e26e602e4a2257b1f559418e24b4633997910160405180910390a15050565b60008061141f868686866110a9565b9050600061142c82610d31565b9050600481600781111561145057634e487b7160e01b600052602160045260246000fd5b148061147b5750600581600781111561147957634e487b7160e01b600052602160045260246000fd5b145b6114d15760405162461bcd60e51b815260206004820152602160248201527f476f7665726e6f723a2070726f706f73616c206e6f74207375636365737366756044820152601b60fa1b6064820152608401610769565b600082815260cc602052604090819020600201805460ff19166001179055517f712ae1383f79ac853f8d882153778e0260ef8f03b504e2866e0593e04d2b291f9061151f9084815260200190565b60405180910390a16115348288888888611ff4565b5095945050505050565b6115488282610ffe565b610be557611560816001600160a01b0316601461211d565b61156b83602061211d565b60405160200161157c929190613402565b60408051601f198184030181529082905262461bcd60e51b825261076991600401613522565b6115ac8282610ffe565b610be55760008281526101f8602090815260408083206001600160a01b03851684529091529020805460ff191660011790556115e53390565b6001600160a01b0316816001600160a01b0316837f2f8788117e7eff1d82e926ec794901d17c78024a50270940304540a733656f0d60405160405180910390a45050565b60008061163f86868686805190602001206110a9565b905084518651146116625760405162461bcd60e51b815260040161076990613535565b83518651146116835760405162461bcd60e51b815260040161076990613535565b60008651116116cf5760405162461bcd60e51b815260206004820152601860248201527711dbdd995c9b9bdc8e88195b5c1d1e481c1c9bdc1bdcd85b60421b6044820152606401610769565b600081815260cc6020908152604091829020825191820190925281546001600160401b0316908190521561174f5760405162461bcd60e51b815260206004820152602160248201527f476f7665726e6f723a2070726f706f73616c20616c72656164792065786973746044820152607360f81b6064820152608401610769565b600061176361175e61022c5490565b6122fe565b61176c436122fe565b61177691906137b9565b9050600061178761175e61022d5490565b61179190836137b9565b905061179d838361236a565b6117aa600184018261236a565b7f7d84a6263ae0d98d3329bd7b46bb4e8d6f98cd35a7adb45c274c8b7fd5ebd5e084338b8b8d516001600160401b038111156117f657634e487b7160e01b600052604160045260246000fd5b60405190808252806020026020018201604052801561182957816020015b60608152602001906001900390816118145790505b508c88888e60405161184399989796959493929190613638565b60405180910390a15091979650505050505050565b6118628282610ffe565b15610be55760008281526101f8602090815260408083206001600160a01b0385168085529252808320805460ff1916905551339285917ff6391f5c32d9c69d2a47ea670b442974b53935d1edc7fd64eb21e047a839171b9190a45050565b600080516020613983833981519152546001600160a01b031690565b600080516020613963833981519152610be5813361153e565b60006118ff6118c0565b905061190a84612387565b6000835111806119175750815b1561192857611926848461241a565b505b7f4910fdfa16fed3260ed0e7147f7cc6da11a60208b5b9406d12a635614ffd9143805460ff1661131057805460ff191660011781556040516119a3908690611974908590602401613471565b60408051601f198184030181529190526020810180516001600160e01b0316631b2ce7f360e11b17905261241a565b50805460ff191681556119b46118c0565b6001600160a01b0316826001600160a01b031614611a2c5760405162461bcd60e51b815260206004820152602f60248201527f45524331393637557067726164653a207570677261646520627265616b73206660448201526e75727468657220757067726164657360881b6064820152608401610769565b611310856124fc565b600061071d611a4261253c565b8360405161190160f01b6020820152602281018390526042810182905260009060620160405160208183030381529060405280519060200120905092915050565b6000806000611a94878787876125bc565b915091506115348161269f565b600084815260cc602052604081206001611aba87610d31565b6007811115611ad957634e487b7160e01b600052602160045260246000fd5b14611b325760405162461bcd60e51b815260206004820152602360248201527f476f7665726e6f723a20766f7465206e6f742063757272656e746c792061637460448201526269766560e81b6064820152608401610769565b604080516020810190915281546001600160401b031690819052600090611b5a908790611100565b9050611b688787878461289b565b856001600160a01b03167fb8e138887d0aa13bab447e82de9d5c1777041ecd21ca36ba824ff1e6c07ddda488878488604051611ba79493929190613726565b60405180910390a29695505050505050565b6000611bce82516001600160401b0316151590565b801561071d57505051436001600160401b03909116111590565b600081815260fd6020526040812060028101546001820154611c0a91906137a1565b611c166106df8561083d565b11159392505050565b61012f54604051630748d63560e31b81526001600160a01b038481166004830152602482018490526000921690633a46b1a89060440160206040518083038186803b158015611c6d57600080fd5b505afa158015611c81573d6000803e3d6000fd5b505050506040513d601f19601f82011682018060405250810190610e4091906131e3565b600054610100900460ff1680611cbe575060005460ff16155b611cda5760405162461bcd60e51b8152600401610769906135ea565b600054610100900460ff16158015611cfc576000805461ffff19166101011790555b611d04612a1a565b611d0c612a1a565b611d1d82611d18610f4b565b612a84565b611d25612a1a565b611d2e82612b0e565b8015610be5576000805461ff00191690555050565b600054610100900460ff1680611d5c575060005460ff16155b611d785760405162461bcd60e51b8152600401610769906135ea565b600054610100900460ff16158015611d9a576000805461ffff19166101011790555b611da2612a1a565b611daa612a1a565b611db2612a1a565b611dba612a1a565b801561077b576000805461ff001916905550565b600054610100900460ff1680611de7575060005460ff16155b611e035760405162461bcd60e51b8152600401610769906135ea565b600054610100900460ff16158015611e25576000805461ffff19166101011790555b611e2d612a1a565b611e35612a1a565b611e3d612a1a565b611d2e82612b8e565b600054610100900460ff1680611e5f575060005460ff16155b611e7b5760405162461bcd60e51b8152600401610769906135ea565b600054610100900460ff16158015611e9d576000805461ffff19166101011790555b611ea5612a1a565b611ead612a1a565b611eb5612a1a565b611d2e82612c16565b600054610100900460ff1680611ed7575060005460ff16155b611ef35760405162461bcd60e51b8152600401610769906135ea565b600054610100900460ff16158015611daa576000805461ffff1916610101179055611db2612a1a565b610be582826115a2565b600060646101625461012f54604051632394e7a360e21b8152600481018690526001600160a01b0390911690638e539e8c9060240160206040518083038186803b158015611f7357600080fd5b505afa158015611f87573d6000803e3d6000fd5b505050506040513d601f19601f82011682018060405250810190611fab91906131e3565b611fb59190613804565b61071d91906137e4565b60006001600160e01b0319821663bf26d89760e01b148061071d57506301ffc9a760e01b6001600160e01b031983161461071d565b600060405180606001604052806027815260200161391c60279139905060005b85518110156121145760008087838151811061204057634e487b7160e01b600052603260045260246000fd5b60200260200101516001600160a01b031687848151811061207157634e487b7160e01b600052603260045260246000fd5b602002602001015187858151811061209957634e487b7160e01b600052603260045260246000fd5b60200260200101516040516120ae91906133e6565b60006040518083038185875af1925050503d80600081146120eb576040519150601f19603f3d011682016040523d82523d6000602084013e6120f0565b606091505b5091509150612100828286612c76565b5050508061210d9061389f565b9050612014565b50505050505050565b6060600061212c836002613804565b6121379060026137a1565b6001600160401b0381111561215c57634e487b7160e01b600052604160045260246000fd5b6040519080825280601f01601f191660200182016040528015612186576020820181803683370190505b509050600360fc1b816000815181106121af57634e487b7160e01b600052603260045260246000fd5b60200101906001600160f81b031916908160001a905350600f60fb1b816001815181106121ec57634e487b7160e01b600052603260045260246000fd5b60200101906001600160f81b031916908160001a9053506000612210846002613804565b61221b9060016137a1565b90505b60018111156122af576f181899199a1a9b1b9c1cb0b131b232b360811b85600f166010811061225d57634e487b7160e01b600052603260045260246000fd5b1a60f81b82828151811061228157634e487b7160e01b600052603260045260246000fd5b60200101906001600160f81b031916908160001a90535060049490941c936122a881613853565b905061221e565b508315610e405760405162461bcd60e51b815260206004820181905260248201527f537472696e67733a20686578206c656e67746820696e73756666696369656e746044820152606401610769565b60006001600160401b038211156123665760405162461bcd60e51b815260206004820152602660248201527f53616665436173743a2076616c756520646f65736e27742066697420696e203660448201526534206269747360d01b6064820152608401610769565b5090565b81546001600160401b0319166001600160401b0391909116179055565b803b6123eb5760405162461bcd60e51b815260206004820152602d60248201527f455243313936373a206e657720696d706c656d656e746174696f6e206973206e60448201526c1bdd08184818dbdb9d1c9858dd609a1b6064820152608401610769565b60008051602061398383398151915280546001600160a01b0319166001600160a01b0392909216919091179055565b6060823b6124795760405162461bcd60e51b815260206004820152602660248201527f416464726573733a2064656c65676174652063616c6c20746f206e6f6e2d636f6044820152651b9d1c9858dd60d21b6064820152608401610769565b600080846001600160a01b03168460405161249491906133e6565b600060405180830381855af49150503d80600081146124cf576040519150601f19603f3d011682016040523d82523d6000602084013e6124d4565b606091505b509150915061083482826040518060600160405280602781526020016139a360279139612c76565b61250581612387565b6040516001600160a01b038216907fbc7cd75a20ee27fd9adebab32041f755214dbc6bffa90cc0225b39da2e5c2d3b90600090a250565b60006125b77f8b73c3c69bb8fe3d512ecc4cf759cc79239f7b179b0ffacaa9a75d522b39400f61256b60655490565b6066546040805160208101859052908101839052606081018290524660808201523060a082015260009060c0016040516020818303038152906040528051906020012090509392505050565b905090565b6000806fa2a8918ca85bafe22016d0b997e4df60600160ff1b038311156125e95750600090506003612696565b8460ff16601b1415801561260157508460ff16601c14155b156126125750600090506004612696565b6040805160008082526020820180845289905260ff881692820192909252606081018690526080810185905260019060a0016020604051602081039080840390855afa158015612666573d6000803e3d6000fd5b5050604051601f1901519150506001600160a01b03811661268f57600060019250925050612696565b9150600090505b94509492505050565b60008160048111156126c157634e487b7160e01b600052602160045260246000fd5b14156126ca5750565b60018160048111156126ec57634e487b7160e01b600052602160045260246000fd5b14156127355760405162461bcd60e51b815260206004820152601860248201527745434453413a20696e76616c6964207369676e617475726560401b6044820152606401610769565b600281600481111561275757634e487b7160e01b600052602160045260246000fd5b14156127a55760405162461bcd60e51b815260206004820152601f60248201527f45434453413a20696e76616c6964207369676e6174757265206c656e677468006044820152606401610769565b60038160048111156127c757634e487b7160e01b600052602160045260246000fd5b14156128205760405162461bcd60e51b815260206004820152602260248201527f45434453413a20696e76616c6964207369676e6174757265202773272076616c604482015261756560f01b6064820152608401610769565b600481600481111561284257634e487b7160e01b600052602160045260246000fd5b141561077b5760405162461bcd60e51b815260206004820152602260248201527f45434453413a20696e76616c6964207369676e6174757265202776272076616c604482015261756560f01b6064820152608401610769565b600084815260fd602090815260408083206001600160a01b0387168452600381019092529091205460ff16156129235760405162461bcd60e51b815260206004820152602760248201527f476f7665726e6f72566f74696e6753696d706c653a20766f746520616c726561604482015266191e4818d85cdd60ca1b6064820152608401610769565b6001600160a01b03841660009081526003820160205260408120805460ff1916600117905560ff168360ff161415612974578181600001600082825461296991906137a1565b909155506113109050565b60ff831660011415612994578181600101600082825461296991906137a1565b60ff8316600214156129b4578181600201600082825461296991906137a1565b60405162461bcd60e51b815260206004820152603560248201527f476f7665726e6f72566f74696e6753696d706c653a20696e76616c69642076616044820152746c756520666f7220656e756d20566f74655479706560581b6064820152608401610769565b600054610100900460ff1680612a33575060005460ff16155b612a4f5760405162461bcd60e51b8152600401610769906135ea565b600054610100900460ff16158015611dba576000805461ffff1916610101179055801561077b576000805461ff001916905550565b600054610100900460ff1680612a9d575060005460ff16155b612ab95760405162461bcd60e51b8152600401610769906135ea565b600054610100900460ff16158015612adb576000805461ffff19166101011790555b82516020808501919091208351918401919091206065919091556066558015610891576000805461ff0019169055505050565b600054610100900460ff1680612b27575060005460ff16155b612b435760405162461bcd60e51b8152600401610769906135ea565b600054610100900460ff16158015612b65576000805461ffff19166101011790555b8151612b789060cb906020850190612caf565b508015610be5576000805461ff00191690555050565b600054610100900460ff1680612ba7575060005460ff16155b612bc35760405162461bcd60e51b8152600401610769906135ea565b600054610100900460ff16158015612be5576000805461ffff19166101011790555b61012f80546001600160a01b0319166001600160a01b0384161790558015610be5576000805461ff00191690555050565b600054610100900460ff1680612c2f575060005460ff16155b612c4b5760405162461bcd60e51b8152600401610769906135ea565b600054610100900460ff16158015612c6d576000805461ffff19166101011790555b611d2e82611347565b60608315612c85575081610e40565b825115612c955782518084602001fd5b8160405162461bcd60e51b81526004016107699190613522565b828054612cbb9061386a565b90600052602060002090601f016020900481019282612cdd5760008555612d23565b82601f10612cf657805160ff1916838001178555612d23565b82800160010185558215612d23579182015b82811115612d23578251825591602001919060010190612d08565b506123669291505b808211156123665760008155600101612d2b565b600082601f830112612d4f578081fd5b81356020612d64612d5f8361377e565b61374e565b80838252828201915082860187848660051b8901011115612d83578586fd5b855b85811015612daa578135612d98816138e6565b84529284019290840190600101612d85565b5090979650505050505050565b600082601f830112612dc7578081fd5b81356020612dd7612d5f8361377e565b80838252828201915082860187848660051b8901011115612df6578586fd5b855b85811015612daa5781356001600160401b03811115612e15578788fd5b612e238a87838c0101612e93565b8552509284019290840190600101612df8565b600082601f830112612e46578081fd5b81356020612e56612d5f8361377e565b80838252828201915082860187848660051b8901011115612e75578586fd5b855b85811015612daa57813584529284019290840190600101612e77565b600082601f830112612ea3578081fd5b81356001600160401b03811115612ebc57612ebc6138d0565b612ecf601f8201601f191660200161374e565b818152846020838601011115612ee3578283fd5b816020850160208301379081016020019190915292915050565b803560ff81168114612f0e57600080fd5b919050565b600060208284031215612f24578081fd5b8135610e40816138e6565b60008060408385031215612f41578081fd5b8235612f4c816138e6565b915060208301356001600160401b03811115612f66578182fd5b612f7285828601612e93565b9150509250929050565b60008060408385031215612f8e578182fd5b8235612f99816138e6565b946020939093013593505050565b60008060008060808587031215612fbc578182fd5b84356001600160401b0380821115612fd2578384fd5b612fde88838901612d3f565b95506020870135915080821115612ff3578384fd5b612fff88838901612e36565b94506040870135915080821115613014578384fd5b5061302187828801612db7565b949793965093946060013593505050565b60008060008060808587031215613047578384fd5b84356001600160401b038082111561305d578586fd5b61306988838901612d3f565b9550602087013591508082111561307e578485fd5b61308a88838901612e36565b9450604087013591508082111561309f578384fd5b6130ab88838901612db7565b935060608701359150808211156130c0578283fd5b506130cd87828801612e93565b91505092959194509250565b6000602082840312156130ea578081fd5b5035919050565b60008060408385031215613103578182fd5b823591506020830135613115816138e6565b809150509250929050565b600060208284031215613131578081fd5b81356001600160e01b031981168114610e40578182fd5b6000806040838503121561315a578182fd5b82356001600160401b0380821115613170578384fd5b61317c86838701612e93565b93506020850135915080821115613191578283fd5b50612f7285828601612e93565b600080600080608085870312156131b3578182fd5b84356131be816138e6565b935060208501356131ce816138e6565b93969395505050506040820135916060013590565b6000602082840312156131f4578081fd5b5051919050565b6000806040838503121561320d578182fd5b8235915061321d60208401612efd565b90509250929050565b6000806000806060858703121561323b578182fd5b8435935061324b60208601612efd565b925060408501356001600160401b0380821115613266578384fd5b818701915087601f830112613279578384fd5b813581811115613287578485fd5b886020828501011115613298578485fd5b95989497505060200194505050565b600080600080600060a086880312156132be578283fd5b853594506132ce60208701612efd565b93506132dc60408701612efd565b94979396509394606081013594506080013592915050565b6000815180845260208085019450808401835b8381101561332c5781516001600160a01b031687529582019590820190600101613307565b509495945050505050565b600081518084526020808501808196508360051b81019150828601855b8581101561337e57828403895261336c8483516133ba565b98850198935090840190600101613354565b5091979650505050505050565b6000815180845260208085019450808401835b8381101561332c5781518752958201959082019060010161339e565b600081518084526133d2816020860160208601613823565b601f01601f19169290920160200192915050565b600082516133f8818460208701613823565b9190910192915050565b76020b1b1b2b9b9a1b7b73a3937b61d1030b1b1b7bab73a1604d1b815260008351613434816017850160208801613823565b7001034b99036b4b9b9b4b733903937b6329607d1b6017918401918201528351613465816028840160208801613823565b01602801949350505050565b6001600160a01b0391909116815260200190565b60808152600061349860808301876132f4565b82810360208401526134aa818761338b565b905082810360408401526134be8186613337565b91505082606083015295945050505050565b6040815260006134e360408301856133ba565b905060018060a01b03831660208301529392505050565b602081016008831061351c57634e487b7160e01b600052602160045260246000fd5b91905290565b602081526000610e4060208301846133ba565b60208082526021908201527f476f7665726e6f723a20696e76616c69642070726f706f73616c206c656e67746040820152600d60fb1b606082015260800190565b6020808252602c9082015260008051602061394383398151915260408201526b19195b1959d85d1958d85b1b60a21b606082015260800190565b6020808252602c9082015260008051602061394383398151915260408201526b6163746976652070726f787960a01b606082015260800190565b6020808252602e908201527f496e697469616c697a61626c653a20636f6e747261637420697320616c72656160408201526d191e481a5b9a5d1a585b1a5e995960921b606082015260800190565b60006101208b8352602060018060a01b038c16818501528160408501526136618285018c6132f4565b91508382036060850152613675828b61338b565b915083820360808501528189518084528284019150828160051b850101838c01865b838110156136c557601f198784030185526136b38383516133ba565b94860194925090850190600101613697565b505086810360a08801526136d9818c613337565b9450505050506136f460c08401876001600160401b03169052565b6001600160401b03851660e084015282810361010084015261371681856133ba565b9c9b505050505050505050505050565b84815260ff84166020820152826040820152608060608201526000610b6160808301846133ba565b604051601f8201601f191681016001600160401b0381118282101715613776576137766138d0565b604052919050565b60006001600160401b03821115613797576137976138d0565b5060051b60200190565b600082198211156137b4576137b46138ba565b500190565b60006001600160401b038281168482168083038211156137db576137db6138ba565b01949350505050565b6000826137ff57634e487b7160e01b81526012600452602481fd5b500490565b600081600019048311821515161561381e5761381e6138ba565b500290565b60005b8381101561383e578181015183820152602001613826565b8381111561384d576000848401525b50505050565b600081613862576138626138ba565b506000190190565b600181811c9082168061387e57607f821691505b60208210811415610e8f57634e487b7160e01b600052602260045260246000fd5b60006000198214156138b3576138b36138ba565b5060010190565b634e487b7160e01b600052601160045260246000fd5b634e487b7160e01b600052604160045260246000fd5b6001600160a01b038116811461077b57600080fdfe150214d74d59b7d1e90c73fc22ef3d991dd0a76b046543d4d80ab92d2a50328f476f7665726e6f723a2063616c6c20726576657274656420776974686f7574206d65737361676546756e6374696f6e206d7573742062652063616c6c6564207468726f75676820189ab7a9244df0848122154315af71fe140f3db0fe014031783b0946b8c9d2e3360894a13ba1a3210667c828492db98dca3e2076cc3735a920a3ca505d382bbc416464726573733a206c6f772d6c6576656c2064656c65676174652063616c6c206661696c6564c49f87cadc49b9bac9b8b757e8a0fceaa9ea8ad2ac67599153bb7870cf0c3602f0e519adfa92b08162a7a5fb116ac5cc83e9e7105e2ec4ca98c50726b178375ca2646970667358221220ad99e745b0d477a4fd2f7517249d65cb9fb459f34bfc4c56a65cdf692bdac7fe64736f6c63430008040033",
  "linkReferences": {},
  "deployedLinkReferences": {}
}