{
  "_format": "hh-sol-artifact-1",
  "contractName": "KaoMoji",
  "sourceName": "contracts/KaoMoji.sol",
  "abi": [
    {
      "inputs": [],
      "stateMutability": "nonpayable",
      "type": "constructor"
    },
    {
      "anonymous": false,
      "inputs": [
        {
          "indexed": true,
          "internalType": "address",
          "name": "account",
          "type": "address"
        },
        {
          "indexed": true,
          "internalType": "address",
          "name": "operator",
          "type": "address"
        },
        {
          "indexed": false,
          "internalType": "bool",
          "name": "approved",
          "type": "bool"
        }
      ],
      "name": "ApprovalForAll",
      "type": "event"
    },
    {
      "anonymous": false,
      "inputs": [
        {
          "indexed": true,
          "internalType": "bytes32",
          "name": "role",
          "type": "bytes32"
        },
        {
          "indexed": true,
          "internalType": "bytes32",
          "name": "previousAdminRole",
          "type": "bytes32"
        },
        {
          "indexed": true,
          "internalType": "bytes32",
          "name": "newAdminRole",
          "type": "bytes32"
        }
      ],
      "name": "RoleAdminChanged",
      "type": "event"
    },
    {
      "anonymous": false,
      "inputs": [
        {
          "indexed": true,
          "internalType": "bytes32",
          "name": "role",
          "type": "bytes32"
        },
        {
          "indexed": true,
          "internalType": "address",
          "name": "account",
          "type": "address"
        },
        {
          "indexed": true,
          "internalType": "address",
          "name": "sender",
          "type": "address"
        }
      ],
      "name": "RoleGranted",
      "type": "event"
    },
    {
      "anonymous": false,
      "inputs": [
        {
          "indexed": true,
          "internalType": "bytes32",
          "name": "role",
          "type": "bytes32"
        },
        {
          "indexed": true,
          "internalType": "address",
          "name": "account",
          "type": "address"
        },
        {
          "indexed": true,
          "internalType": "address",
          "name": "sender",
          "type": "address"
        }
      ],
      "name": "RoleRevoked",
      "type": "event"
    },
    {
      "anonymous": false,
      "inputs": [
        {
          "indexed": true,
          "internalType": "address",
          "name": "operator",
          "type": "address"
        },
        {
          "indexed": true,
          "internalType": "address",
          "name": "from",
          "type": "address"
        },
        {
          "indexed": true,
          "internalType": "address",
          "name": "to",
          "type": "address"
        },
        {
          "indexed": false,
          "internalType": "uint256[]",
          "name": "ids",
          "type": "uint256[]"
        },
        {
          "indexed": false,
          "internalType": "uint256[]",
          "name": "values",
          "type": "uint256[]"
        }
      ],
      "name": "TransferBatch",
      "type": "event"
    },
    {
      "anonymous": false,
      "inputs": [
        {
          "indexed": true,
          "internalType": "address",
          "name": "operator",
          "type": "address"
        },
        {
          "indexed": true,
          "internalType": "address",
          "name": "from",
          "type": "address"
        },
        {
          "indexed": true,
          "internalType": "address",
          "name": "to",
          "type": "address"
        },
        {
          "indexed": false,
          "internalType": "uint256",
          "name": "id",
          "type": "uint256"
        },
        {
          "indexed": false,
          "internalType": "uint256",
          "name": "value",
          "type": "uint256"
        }
      ],
      "name": "TransferSingle",
      "type": "event"
    },
    {
      "anonymous": false,
      "inputs": [
        {
          "indexed": false,
          "internalType": "string",
          "name": "value",
          "type": "string"
        },
        {
          "indexed": true,
          "internalType": "uint256",
          "name": "id",
          "type": "uint256"
        }
      ],
      "name": "URI",
      "type": "event"
    },
    {
      "inputs": [],
      "name": "DEFAULT_ADMIN_ROLE",
      "outputs": [
        {
          "internalType": "bytes32",
          "name": "",
          "type": "bytes32"
        }
      ],
      "stateMutability": "view",
      "type": "function"
    },
    {
      "inputs": [],
      "name": "MINTER_ROLE",
      "outputs": [
        {
          "internalType": "bytes32",
          "name": "",
          "type": "bytes32"
        }
      ],
      "stateMutability": "view",
      "type": "function"
    },
    {
      "inputs": [],
      "name": "URI_SETTER_ROLE",
      "outputs": [
        {
          "internalType": "bytes32",
          "name": "",
          "type": "bytes32"
        }
      ],
      "stateMutability": "view",
      "type": "function"
    },
    {
      "inputs": [
        {
          "internalType": "address",
          "name": "account",
          "type": "address"
        },
        {
          "internalType": "uint256",
          "name": "id",
          "type": "uint256"
        }
      ],
      "name": "balanceOf",
      "outputs": [
        {
          "internalType": "uint256",
          "name": "",
          "type": "uint256"
        }
      ],
      "stateMutability": "view",
      "type": "function"
    },
    {
      "inputs": [
        {
          "internalType": "address[]",
          "name": "accounts",
          "type": "address[]"
        },
        {
          "internalType": "uint256[]",
          "name": "ids",
          "type": "uint256[]"
        }
      ],
      "name": "balanceOfBatch",
      "outputs": [
        {
          "internalType": "uint256[]",
          "name": "",
          "type": "uint256[]"
        }
      ],
      "stateMutability": "view",
      "type": "function"
    },
    {
      "inputs": [
        {
          "internalType": "uint256",
          "name": "id",
          "type": "uint256"
        }
      ],
      "name": "exists",
      "outputs": [
        {
          "internalType": "bool",
          "name": "",
          "type": "bool"
        }
      ],
      "stateMutability": "view",
      "type": "function"
    },
    {
      "inputs": [
        {
          "internalType": "uint256",
          "name": "id",
          "type": "uint256"
        }
      ],
      "name": "getDataOf",
      "outputs": [
        {
          "internalType": "bytes",
          "name": "",
          "type": "bytes"
        }
      ],
      "stateMutability": "view",
      "type": "function"
    },
    {
      "inputs": [
        {
          "internalType": "bytes32",
          "name": "role",
          "type": "bytes32"
        }
      ],
      "name": "getRoleAdmin",
      "outputs": [
        {
          "internalType": "bytes32",
          "name": "",
          "type": "bytes32"
        }
      ],
      "stateMutability": "view",
      "type": "function"
    },
    {
      "inputs": [
        {
          "internalType": "bytes32",
          "name": "role",
          "type": "bytes32"
        },
        {
          "internalType": "address",
          "name": "account",
          "type": "address"
        }
      ],
      "name": "grantRole",
      "outputs": [],
      "stateMutability": "nonpayable",
      "type": "function"
    },
    {
      "inputs": [
        {
          "internalType": "bytes32",
          "name": "role",
          "type": "bytes32"
        },
        {
          "internalType": "address",
          "name": "account",
          "type": "address"
        }
      ],
      "name": "hasRole",
      "outputs": [
        {
          "internalType": "bool",
          "name": "",
          "type": "bool"
        }
      ],
      "stateMutability": "view",
      "type": "function"
    },
    {
      "inputs": [
        {
          "internalType": "address",
          "name": "account",
          "type": "address"
        },
        {
          "internalType": "address",
          "name": "operator",
          "type": "address"
        }
      ],
      "name": "isApprovedForAll",
      "outputs": [
        {
          "internalType": "bool",
          "name": "",
          "type": "bool"
        }
      ],
      "stateMutability": "view",
      "type": "function"
    },
    {
      "inputs": [
        {
          "internalType": "address",
          "name": "account",
          "type": "address"
        },
        {
          "internalType": "uint256",
          "name": "id",
          "type": "uint256"
        },
        {
          "internalType": "bytes",
          "name": "data",
          "type": "bytes"
        }
      ],
      "name": "mint",
      "outputs": [],
      "stateMutability": "nonpayable",
      "type": "function"
    },
    {
      "inputs": [
        {
          "internalType": "bytes32",
          "name": "role",
          "type": "bytes32"
        },
        {
          "internalType": "address",
          "name": "account",
          "type": "address"
        }
      ],
      "name": "renounceRole",
      "outputs": [],
      "stateMutability": "nonpayable",
      "type": "function"
    },
    {
      "inputs": [
        {
          "internalType": "bytes32",
          "name": "role",
          "type": "bytes32"
        },
        {
          "internalType": "address",
          "name": "account",
          "type": "address"
        }
      ],
      "name": "revokeRole",
      "outputs": [],
      "stateMutability": "nonpayable",
      "type": "function"
    },
    {
      "inputs": [
        {
          "internalType": "address",
          "name": "from",
          "type": "address"
        },
        {
          "internalType": "address",
          "name": "to",
          "type": "address"
        },
        {
          "internalType": "uint256[]",
          "name": "ids",
          "type": "uint256[]"
        },
        {
          "internalType": "uint256[]",
          "name": "amounts",
          "type": "uint256[]"
        },
        {
          "internalType": "bytes",
          "name": "data",
          "type": "bytes"
        }
      ],
      "name": "safeBatchTransferFrom",
      "outputs": [],
      "stateMutability": "nonpayable",
      "type": "function"
    },
    {
      "inputs": [
        {
          "internalType": "address",
          "name": "from",
          "type": "address"
        },
        {
          "internalType": "address",
          "name": "to",
          "type": "address"
        },
        {
          "internalType": "uint256",
          "name": "id",
          "type": "uint256"
        },
        {
          "internalType": "uint256",
          "name": "amount",
          "type": "uint256"
        },
        {
          "internalType": "bytes",
          "name": "data",
          "type": "bytes"
        }
      ],
      "name": "safeTransferFrom",
      "outputs": [],
      "stateMutability": "nonpayable",
      "type": "function"
    },
    {
      "inputs": [
        {
          "internalType": "address",
          "name": "operator",
          "type": "address"
        },
        {
          "internalType": "bool",
          "name": "approved",
          "type": "bool"
        }
      ],
      "name": "setApprovalForAll",
      "outputs": [],
      "stateMutability": "nonpayable",
      "type": "function"
    },
    {
      "inputs": [
        {
          "internalType": "string",
          "name": "newuri",
          "type": "string"
        }
      ],
      "name": "setURI",
      "outputs": [],
      "stateMutability": "nonpayable",
      "type": "function"
    },
    {
      "inputs": [
        {
          "internalType": "bytes4",
          "name": "interfaceId",
          "type": "bytes4"
        }
      ],
      "name": "supportsInterface",
      "outputs": [
        {
          "internalType": "bool",
          "name": "",
          "type": "bool"
        }
      ],
      "stateMutability": "view",
      "type": "function"
    },
    {
      "inputs": [
        {
          "internalType": "uint256",
          "name": "id",
          "type": "uint256"
        }
      ],
      "name": "totalSupply",
      "outputs": [
        {
          "internalType": "uint256",
          "name": "",
          "type": "uint256"
        }
      ],
      "stateMutability": "view",
      "type": "function"
    },
    {
      "inputs": [
        {
          "internalType": "uint256",
          "name": "",
          "type": "uint256"
        }
      ],
      "name": "uri",
      "outputs": [
        {
          "internalType": "string",
          "name": "",
          "type": "string"
        }
      ],
      "stateMutability": "view",
      "type": "function"
    }
  ],
  "bytecode": "0x60806040523480156200001157600080fd5b506040518060400160405280601e81526020017f68747470733a2f2f6b616f2e66696e616e63652f746f6b656e2f7b69647d00008152506200005981620000d960201b60201c565b506200006f6000801b33620000f560201b60201c565b620000a17f7804d923f43a17d325d77e781528e0793b2edd9890ab45fc64efd7b4b427744c33620000f560201b60201c565b620000d37f9f2df0fed2c77648de5860a4cc508cd0818c85b8b8a1ab4ceeef8d981c8956a633620000f560201b60201c565b62000385565b8060029080519060200190620000f192919062000270565b5050565b6200010782826200010b60201b60201c565b5050565b6200011d8282620001fd60201b60201c565b620001f95760016004600084815260200190815260200160002060000160008373ffffffffffffffffffffffffffffffffffffffff1673ffffffffffffffffffffffffffffffffffffffff16815260200190815260200160002060006101000a81548160ff0219169083151502179055506200019e6200026860201b60201c565b73ffffffffffffffffffffffffffffffffffffffff168173ffffffffffffffffffffffffffffffffffffffff16837f2f8788117e7eff1d82e926ec794901d17c78024a50270940304540a733656f0d60405160405180910390a45b5050565b60006004600084815260200190815260200160002060000160008373ffffffffffffffffffffffffffffffffffffffff1673ffffffffffffffffffffffffffffffffffffffff16815260200190815260200160002060009054906101000a900460ff16905092915050565b600033905090565b8280546200027e9062000320565b90600052602060002090601f016020900481019282620002a25760008555620002ee565b82601f10620002bd57805160ff1916838001178555620002ee565b82800160010185558215620002ee579182015b82811115620002ed578251825591602001919060010190620002d0565b5b509050620002fd919062000301565b5090565b5b808211156200031c57600081600090555060010162000302565b5090565b600060028204905060018216806200033957607f821691505b6020821081141562000350576200034f62000356565b5b50919050565b7f4e487b7100000000000000000000000000000000000000000000000000000000600052602260045260246000fd5b613af080620003956000396000f3fe608060405234801561001057600080fd5b50600436106101365760003560e01c80637f345710116100b8578063b9cab03f1161007c578063b9cab03f1461036f578063bd85b0391461039f578063d5391393146103cf578063d547741f146103ed578063e985e9c514610409578063f242432a1461043957610136565b80637f345710146102cb57806391d14854146102e957806394d008ef14610319578063a217fddf14610335578063a22cb4651461035357610136565b80632eb2c2d6116100ff5780632eb2c2d6146102175780632f2ff15d1461023357806336568abe1461024f5780634e1273f41461026b5780634f558e791461029b57610136565b8062fdd58e1461013b57806301ffc9a71461016b57806302fe53051461019b5780630e89341c146101b7578063248a9ca3146101e7575b600080fd5b61015560048036038101906101509190612754565b610455565b60405161016291906130a7565b60405180910390f35b610185600480360381019061018091906128c8565b61051e565b6040516101929190612e6d565b60405180910390f35b6101b560048036038101906101b0919061291a565b610530565b005b6101d160048036038101906101cc919061295b565b61056f565b6040516101de9190612ec5565b60405180910390f35b61020160048036038101906101fc9190612863565b610603565b60405161020e9190612e88565b60405180910390f35b610231600480360381019061022c91906125ca565b610623565b005b61024d6004803603810190610248919061288c565b6106c4565b005b6102696004803603810190610264919061288c565b6106ed565b005b610285600480360381019061028091906127f7565b610770565b6040516102929190612e14565b60405180910390f35b6102b560048036038101906102b0919061295b565b610921565b6040516102c29190612e6d565b60405180910390f35b6102d3610935565b6040516102e09190612e88565b60405180910390f35b61030360048036038101906102fe919061288c565b610959565b6040516103109190612e6d565b60405180910390f35b610333600480360381019061032e9190612790565b6109c4565b005b61033d610a7a565b60405161034a9190612e88565b60405180910390f35b61036d60048036038101906103689190612718565b610a81565b005b6103896004803603810190610384919061295b565b610c02565b6040516103969190612ea3565b60405180910390f35b6103b960048036038101906103b4919061295b565b610ca7565b6040516103c691906130a7565b60405180910390f35b6103d7610cc4565b6040516103e49190612e88565b60405180910390f35b6104076004803603810190610402919061288c565b610ce8565b005b610423600480360381019061041e919061258e565b610d11565b6040516104309190612e6d565b60405180910390f35b610453600480360381019061044e9190612689565b610da5565b005b60008073ffffffffffffffffffffffffffffffffffffffff168373ffffffffffffffffffffffffffffffffffffffff1614156104c6576040517f08c379a00000000000000000000000000000000000000000000000000000000081526004016104bd90612f67565b60405180910390fd5b60008083815260200190815260200160002060008473ffffffffffffffffffffffffffffffffffffffff1673ffffffffffffffffffffffffffffffffffffffff16815260200190815260200160002054905092915050565b600061052982610e46565b9050919050565b7f7804d923f43a17d325d77e781528e0793b2edd9890ab45fc64efd7b4b427744c6105628161055d610ec0565b610ec8565b61056b82610f65565b5050565b60606002805461057e906133e0565b80601f01602080910402602001604051908101604052809291908181526020018280546105aa906133e0565b80156105f75780601f106105cc576101008083540402835291602001916105f7565b820191906000526020600020905b8154815290600101906020018083116105da57829003601f168201915b50505050509050919050565b600060046000838152602001908152602001600020600101549050919050565b61062b610ec0565b73ffffffffffffffffffffffffffffffffffffffff168573ffffffffffffffffffffffffffffffffffffffff16148061067157506106708561066b610ec0565b610d11565b5b6106b0576040517f08c379a00000000000000000000000000000000000000000000000000000000081526004016106a790612fc7565b60405180910390fd5b6106bd8585858585610f7f565b5050505050565b6106cd82610603565b6106de816106d9610ec0565b610ec8565b6106e883836112df565b505050565b6106f5610ec0565b73ffffffffffffffffffffffffffffffffffffffff168173ffffffffffffffffffffffffffffffffffffffff1614610762576040517f08c379a000000000000000000000000000000000000000000000000000000000815260040161075990613087565b60405180910390fd5b61076c82826113c0565b5050565b606081518351146107b6576040517f08c379a00000000000000000000000000000000000000000000000000000000081526004016107ad90613027565b60405180910390fd5b6000835167ffffffffffffffff8111156107f9577f4e487b7100000000000000000000000000000000000000000000000000000000600052604160045260246000fd5b6040519080825280602002602001820160405280156108275781602001602082028036833780820191505090505b50905060005b8451811015610916576108c0858281518110610872577f4e487b7100000000000000000000000000000000000000000000000000000000600052603260045260246000fd5b60200260200101518583815181106108b3577f4e487b7100000000000000000000000000000000000000000000000000000000600052603260045260246000fd5b6020026020010151610455565b8282815181106108f9577f4e487b7100000000000000000000000000000000000000000000000000000000600052603260045260246000fd5b6020026020010181815250508061090f90613443565b905061082d565b508091505092915050565b60008061092d83610ca7565b119050919050565b7f7804d923f43a17d325d77e781528e0793b2edd9890ab45fc64efd7b4b427744c81565b60006004600084815260200190815260200160002060000160008373ffffffffffffffffffffffffffffffffffffffff1673ffffffffffffffffffffffffffffffffffffffff16815260200190815260200160002060009054906101000a900460ff16905092915050565b7f9f2df0fed2c77648de5860a4cc508cd0818c85b8b8a1ab4ceeef8d981c8956a66109f6816109f1610ec0565b610ec8565b6109ff83610921565b15610a3f576040517f08c379a0000000000000000000000000000000000000000000000000000000008152600401610a3690612f47565b60405180910390fd5b610a4c84846001856114a2565b81600560008581526020019081526020016000209080519060200190610a739291906121eb565b5050505050565b6000801b81565b8173ffffffffffffffffffffffffffffffffffffffff16610aa0610ec0565b73ffffffffffffffffffffffffffffffffffffffff161415610af7576040517f08c379a0000000000000000000000000000000000000000000000000000000008152600401610aee90613007565b60405180910390fd5b8060016000610b04610ec0565b73ffffffffffffffffffffffffffffffffffffffff1673ffffffffffffffffffffffffffffffffffffffff16815260200190815260200160002060008473ffffffffffffffffffffffffffffffffffffffff1673ffffffffffffffffffffffffffffffffffffffff16815260200190815260200160002060006101000a81548160ff0219169083151502179055508173ffffffffffffffffffffffffffffffffffffffff16610bb1610ec0565b73ffffffffffffffffffffffffffffffffffffffff167f17307eab39ab6107e8899845ad3d59bd9653f200f220920489ca2b5937696c3183604051610bf69190612e6d565b60405180910390a35050565b6060600560008381526020019081526020016000208054610c22906133e0565b80601f0160208091040260200160405190810160405280929190818152602001828054610c4e906133e0565b8015610c9b5780601f10610c7057610100808354040283529160200191610c9b565b820191906000526020600020905b815481529060010190602001808311610c7e57829003601f168201915b50505050509050919050565b600060036000838152602001908152602001600020549050919050565b7f9f2df0fed2c77648de5860a4cc508cd0818c85b8b8a1ab4ceeef8d981c8956a681565b610cf182610603565b610d0281610cfd610ec0565b610ec8565b610d0c83836113c0565b505050565b6000600160008473ffffffffffffffffffffffffffffffffffffffff1673ffffffffffffffffffffffffffffffffffffffff16815260200190815260200160002060008373ffffffffffffffffffffffffffffffffffffffff1673ffffffffffffffffffffffffffffffffffffffff16815260200190815260200160002060009054906101000a900460ff16905092915050565b610dad610ec0565b73ffffffffffffffffffffffffffffffffffffffff168573ffffffffffffffffffffffffffffffffffffffff161480610df35750610df285610ded610ec0565b610d11565b5b610e32576040517f08c379a0000000000000000000000000000000000000000000000000000000008152600401610e2990612f87565b60405180910390fd5b610e3f85858585856114de565b5050505050565b60007f7965db0b000000000000000000000000000000000000000000000000000000007bffffffffffffffffffffffffffffffffffffffffffffffffffffffff1916827bffffffffffffffffffffffffffffffffffffffffffffffffffffffff19161480610eb95750610eb882611760565b5b9050919050565b600033905090565b610ed28282610959565b610f6157610ef78173ffffffffffffffffffffffffffffffffffffffff166014611842565b610f058360001c6020611842565b604051602001610f16929190612d18565b6040516020818303038152906040526040517f08c379a0000000000000000000000000000000000000000000000000000000008152600401610f589190612ec5565b60405180910390fd5b5050565b8060029080519060200190610f7b929190612271565b5050565b8151835114610fc3576040517f08c379a0000000000000000000000000000000000000000000000000000000008152600401610fba90613047565b60405180910390fd5b600073ffffffffffffffffffffffffffffffffffffffff168473ffffffffffffffffffffffffffffffffffffffff161415611033576040517f08c379a000000000000000000000000000000000000000000000000000000000815260040161102a90612fa7565b60405180910390fd5b600061103d610ec0565b905061104d818787878787611b3c565b60005b845181101561124a576000858281518110611094577f4e487b7100000000000000000000000000000000000000000000000000000000600052603260045260246000fd5b6020026020010151905060008583815181106110d9577f4e487b7100000000000000000000000000000000000000000000000000000000600052603260045260246000fd5b60200260200101519050600080600084815260200190815260200160002060008b73ffffffffffffffffffffffffffffffffffffffff1673ffffffffffffffffffffffffffffffffffffffff1681526020019081526020016000205490508181101561117a576040517f08c379a000000000000000000000000000000000000000000000000000000000815260040161117190612fe7565b60405180910390fd5b81810360008085815260200190815260200160002060008c73ffffffffffffffffffffffffffffffffffffffff1673ffffffffffffffffffffffffffffffffffffffff168152602001908152602001600020819055508160008085815260200190815260200160002060008b73ffffffffffffffffffffffffffffffffffffffff1673ffffffffffffffffffffffffffffffffffffffff168152602001908152602001600020600082825461122f9190613246565b925050819055505050508061124390613443565b9050611050565b508473ffffffffffffffffffffffffffffffffffffffff168673ffffffffffffffffffffffffffffffffffffffff168273ffffffffffffffffffffffffffffffffffffffff167f4a39dc06d4c0dbc64b70af90fd698a233a518aa5d07e595d983b8c0526c8f7fb87876040516112c1929190612e36565b60405180910390a46112d7818787878787611b44565b505050505050565b6112e98282610959565b6113bc5760016004600084815260200190815260200160002060000160008373ffffffffffffffffffffffffffffffffffffffff1673ffffffffffffffffffffffffffffffffffffffff16815260200190815260200160002060006101000a81548160ff021916908315150217905550611361610ec0565b73ffffffffffffffffffffffffffffffffffffffff168173ffffffffffffffffffffffffffffffffffffffff16837f2f8788117e7eff1d82e926ec794901d17c78024a50270940304540a733656f0d60405160405180910390a45b5050565b6113ca8282610959565b1561149e5760006004600084815260200190815260200160002060000160008373ffffffffffffffffffffffffffffffffffffffff1673ffffffffffffffffffffffffffffffffffffffff16815260200190815260200160002060006101000a81548160ff021916908315150217905550611443610ec0565b73ffffffffffffffffffffffffffffffffffffffff168173ffffffffffffffffffffffffffffffffffffffff16837ff6391f5c32d9c69d2a47ea670b442974b53935d1edc7fd64eb21e047a839171b60405160405180910390a45b5050565b6114ae84848484611d2b565b816003600085815260200190815260200160002060008282546114d19190613246565b9250508190555050505050565b600073ffffffffffffffffffffffffffffffffffffffff168473ffffffffffffffffffffffffffffffffffffffff16141561154e576040517f08c379a000000000000000000000000000000000000000000000000000000000815260040161154590612fa7565b60405180910390fd5b6000611558610ec0565b905061157881878761156988611ec1565b61157288611ec1565b87611b3c565b600080600086815260200190815260200160002060008873ffffffffffffffffffffffffffffffffffffffff1673ffffffffffffffffffffffffffffffffffffffff1681526020019081526020016000205490508381101561160f576040517f08c379a000000000000000000000000000000000000000000000000000000000815260040161160690612fe7565b60405180910390fd5b83810360008087815260200190815260200160002060008973ffffffffffffffffffffffffffffffffffffffff1673ffffffffffffffffffffffffffffffffffffffff168152602001908152602001600020819055508360008087815260200190815260200160002060008873ffffffffffffffffffffffffffffffffffffffff1673ffffffffffffffffffffffffffffffffffffffff16815260200190815260200160002060008282546116c49190613246565b925050819055508573ffffffffffffffffffffffffffffffffffffffff168773ffffffffffffffffffffffffffffffffffffffff168373ffffffffffffffffffffffffffffffffffffffff167fc3d58168c5ae7397731d063d5bbf3d657854427343f4c083240f7aacaa2d0f6288886040516117419291906130c2565b60405180910390a4611757828888888888611f87565b50505050505050565b60007fd9b67a26000000000000000000000000000000000000000000000000000000007bffffffffffffffffffffffffffffffffffffffffffffffffffffffff1916827bffffffffffffffffffffffffffffffffffffffffffffffffffffffff1916148061182b57507f0e89341c000000000000000000000000000000000000000000000000000000007bffffffffffffffffffffffffffffffffffffffffffffffffffffffff1916827bffffffffffffffffffffffffffffffffffffffffffffffffffffffff1916145b8061183b575061183a8261216e565b5b9050919050565b606060006002836002611855919061329c565b61185f9190613246565b67ffffffffffffffff81111561189e577f4e487b7100000000000000000000000000000000000000000000000000000000600052604160045260246000fd5b6040519080825280601f01601f1916602001820160405280156118d05781602001600182028036833780820191505090505b5090507f30000000000000000000000000000000000000000000000000000000000000008160008151811061192e577f4e487b7100000000000000000000000000000000000000000000000000000000600052603260045260246000fd5b60200101907effffffffffffffffffffffffffffffffffffffffffffffffffffffffffffff1916908160001a9053507f7800000000000000000000000000000000000000000000000000000000000000816001815181106119b8577f4e487b7100000000000000000000000000000000000000000000000000000000600052603260045260246000fd5b60200101907effffffffffffffffffffffffffffffffffffffffffffffffffffffffffffff1916908160001a905350600060018460026119f8919061329c565b611a029190613246565b90505b6001811115611aee577f3031323334353637383961626364656600000000000000000000000000000000600f861660108110611a6a577f4e487b7100000000000000000000000000000000000000000000000000000000600052603260045260246000fd5b1a60f81b828281518110611aa7577f4e487b7100000000000000000000000000000000000000000000000000000000600052603260045260246000fd5b60200101907effffffffffffffffffffffffffffffffffffffffffffffffffffffffffffff1916908160001a905350600485901c945080611ae7906133b6565b9050611a05565b5060008414611b32576040517f08c379a0000000000000000000000000000000000000000000000000000000008152600401611b2990612f07565b60405180910390fd5b8091505092915050565b505050505050565b611b638473ffffffffffffffffffffffffffffffffffffffff166121d8565b15611d23578373ffffffffffffffffffffffffffffffffffffffff1663bc197c8187878686866040518663ffffffff1660e01b8152600401611ba9959493929190612d52565b602060405180830381600087803b158015611bc357600080fd5b505af1925050508015611bf457506040513d601f19601f82011682018060405250810190611bf191906128f1565b60015b611c9a57611c00613519565b806308c379a01415611c5d5750611c156139b1565b80611c205750611c5f565b806040517f08c379a0000000000000000000000000000000000000000000000000000000008152600401611c549190612ec5565b60405180910390fd5b505b6040517f08c379a0000000000000000000000000000000000000000000000000000000008152600401611c9190612ee7565b60405180910390fd5b63bc197c8160e01b7bffffffffffffffffffffffffffffffffffffffffffffffffffffffff1916817bffffffffffffffffffffffffffffffffffffffffffffffffffffffff191614611d21576040517f08c379a0000000000000000000000000000000000000000000000000000000008152600401611d1890612f27565b60405180910390fd5b505b505050505050565b600073ffffffffffffffffffffffffffffffffffffffff168473ffffffffffffffffffffffffffffffffffffffff161415611d9b576040517f08c379a0000000000000000000000000000000000000000000000000000000008152600401611d9290613067565b60405180910390fd5b6000611da5610ec0565b9050611dc681600087611db788611ec1565b611dc088611ec1565b87611b3c565b8260008086815260200190815260200160002060008773ffffffffffffffffffffffffffffffffffffffff1673ffffffffffffffffffffffffffffffffffffffff1681526020019081526020016000206000828254611e259190613246565b925050819055508473ffffffffffffffffffffffffffffffffffffffff16600073ffffffffffffffffffffffffffffffffffffffff168273ffffffffffffffffffffffffffffffffffffffff167fc3d58168c5ae7397731d063d5bbf3d657854427343f4c083240f7aacaa2d0f628787604051611ea39291906130c2565b60405180910390a4611eba81600087878787611f87565b5050505050565b60606000600167ffffffffffffffff811115611f06577f4e487b7100000000000000000000000000000000000000000000000000000000600052604160045260246000fd5b604051908082528060200260200182016040528015611f345781602001602082028036833780820191505090505b5090508281600081518110611f72577f4e487b7100000000000000000000000000000000000000000000000000000000600052603260045260246000fd5b60200260200101818152505080915050919050565b611fa68473ffffffffffffffffffffffffffffffffffffffff166121d8565b15612166578373ffffffffffffffffffffffffffffffffffffffff1663f23a6e6187878686866040518663ffffffff1660e01b8152600401611fec959493929190612dba565b602060405180830381600087803b15801561200657600080fd5b505af192505050801561203757506040513d601f19601f8201168201806040525081019061203491906128f1565b60015b6120dd57612043613519565b806308c379a014156120a057506120586139b1565b8061206357506120a2565b806040517f08c379a00000000000000000000000000000000000000000000000000000000081526004016120979190612ec5565b60405180910390fd5b505b6040517f08c379a00000000000000000000000000000000000000000000000000000000081526004016120d490612ee7565b60405180910390fd5b63f23a6e6160e01b7bffffffffffffffffffffffffffffffffffffffffffffffffffffffff1916817bffffffffffffffffffffffffffffffffffffffffffffffffffffffff191614612164576040517f08c379a000000000000000000000000000000000000000000000000000000000815260040161215b90612f27565b60405180910390fd5b505b505050505050565b60007f01ffc9a7000000000000000000000000000000000000000000000000000000007bffffffffffffffffffffffffffffffffffffffffffffffffffffffff1916827bffffffffffffffffffffffffffffffffffffffffffffffffffffffff1916149050919050565b600080823b905060008111915050919050565b8280546121f7906133e0565b90600052602060002090601f0160209004810192826122195760008555612260565b82601f1061223257805160ff1916838001178555612260565b82800160010185558215612260579182015b8281111561225f578251825591602001919060010190612244565b5b50905061226d91906122f7565b5090565b82805461227d906133e0565b90600052602060002090601f01602090048101928261229f57600085556122e6565b82601f106122b857805160ff19168380011785556122e6565b828001600101855582156122e6579182015b828111156122e55782518255916020019190600101906122ca565b5b5090506122f391906122f7565b5090565b5b808211156123105760008160009055506001016122f8565b5090565b600061232761232284613110565b6130eb565b9050808382526020820190508285602086028201111561234657600080fd5b60005b85811015612376578161235c8882612468565b845260208401935060208301925050600181019050612349565b5050509392505050565b600061239361238e8461313c565b6130eb565b905080838252602082019050828560208602820111156123b257600080fd5b60005b858110156123e257816123c88882612579565b8452602084019350602083019250506001810190506123b5565b5050509392505050565b60006123ff6123fa84613168565b6130eb565b90508281526020810184848401111561241757600080fd5b612422848285613374565b509392505050565b600061243d61243884613199565b6130eb565b90508281526020810184848401111561245557600080fd5b612460848285613374565b509392505050565b60008135905061247781613a47565b92915050565b600082601f83011261248e57600080fd5b813561249e848260208601612314565b91505092915050565b600082601f8301126124b857600080fd5b81356124c8848260208601612380565b91505092915050565b6000813590506124e081613a5e565b92915050565b6000813590506124f581613a75565b92915050565b60008135905061250a81613a8c565b92915050565b60008151905061251f81613a8c565b92915050565b600082601f83011261253657600080fd5b81356125468482602086016123ec565b91505092915050565b600082601f83011261256057600080fd5b813561257084826020860161242a565b91505092915050565b60008135905061258881613aa3565b92915050565b600080604083850312156125a157600080fd5b60006125af85828601612468565b92505060206125c085828601612468565b9150509250929050565b600080600080600060a086880312156125e257600080fd5b60006125f088828901612468565b955050602061260188828901612468565b945050604086013567ffffffffffffffff81111561261e57600080fd5b61262a888289016124a7565b935050606086013567ffffffffffffffff81111561264757600080fd5b612653888289016124a7565b925050608086013567ffffffffffffffff81111561267057600080fd5b61267c88828901612525565b9150509295509295909350565b600080600080600060a086880312156126a157600080fd5b60006126af88828901612468565b95505060206126c088828901612468565b94505060406126d188828901612579565b93505060606126e288828901612579565b925050608086013567ffffffffffffffff8111156126ff57600080fd5b61270b88828901612525565b9150509295509295909350565b6000806040838503121561272b57600080fd5b600061273985828601612468565b925050602061274a858286016124d1565b9150509250929050565b6000806040838503121561276757600080fd5b600061277585828601612468565b925050602061278685828601612579565b9150509250929050565b6000806000606084860312156127a557600080fd5b60006127b386828701612468565b93505060206127c486828701612579565b925050604084013567ffffffffffffffff8111156127e157600080fd5b6127ed86828701612525565b9150509250925092565b6000806040838503121561280a57600080fd5b600083013567ffffffffffffffff81111561282457600080fd5b6128308582860161247d565b925050602083013567ffffffffffffffff81111561284d57600080fd5b612859858286016124a7565b9150509250929050565b60006020828403121561287557600080fd5b6000612883848285016124e6565b91505092915050565b6000806040838503121561289f57600080fd5b60006128ad858286016124e6565b92505060206128be85828601612468565b9150509250929050565b6000602082840312156128da57600080fd5b60006128e8848285016124fb565b91505092915050565b60006020828403121561290357600080fd5b600061291184828501612510565b91505092915050565b60006020828403121561292c57600080fd5b600082013567ffffffffffffffff81111561294657600080fd5b6129528482850161254f565b91505092915050565b60006020828403121561296d57600080fd5b600061297b84828501612579565b91505092915050565b60006129908383612cfa565b60208301905092915050565b6129a5816132f6565b82525050565b60006129b6826131da565b6129c08185613208565b93506129cb836131ca565b8060005b838110156129fc5781516129e38882612984565b97506129ee836131fb565b9250506001810190506129cf565b5085935050505092915050565b612a1281613308565b82525050565b612a2181613314565b82525050565b6000612a32826131e5565b612a3c8185613219565b9350612a4c818560208601613383565b612a558161353b565b840191505092915050565b6000612a6b826131f0565b612a75818561322a565b9350612a85818560208601613383565b612a8e8161353b565b840191505092915050565b6000612aa4826131f0565b612aae818561323b565b9350612abe818560208601613383565b80840191505092915050565b6000612ad760348361322a565b9150612ae282613559565b604082019050919050565b6000612afa60208361322a565b9150612b05826135a8565b602082019050919050565b6000612b1d60288361322a565b9150612b28826135d1565b604082019050919050565b6000612b40600e8361322a565b9150612b4b82613620565b602082019050919050565b6000612b63602b8361322a565b9150612b6e82613649565b604082019050919050565b6000612b8660298361322a565b9150612b9182613698565b604082019050919050565b6000612ba960258361322a565b9150612bb4826136e7565b604082019050919050565b6000612bcc60328361322a565b9150612bd782613736565b604082019050919050565b6000612bef602a8361322a565b9150612bfa82613785565b604082019050919050565b6000612c1260178361323b565b9150612c1d826137d4565b601782019050919050565b6000612c3560298361322a565b9150612c40826137fd565b604082019050919050565b6000612c5860298361322a565b9150612c638261384c565b604082019050919050565b6000612c7b60288361322a565b9150612c868261389b565b604082019050919050565b6000612c9e60218361322a565b9150612ca9826138ea565b604082019050919050565b6000612cc160118361323b565b9150612ccc82613939565b601182019050919050565b6000612ce4602f8361322a565b9150612cef82613962565b604082019050919050565b612d038161336a565b82525050565b612d128161336a565b82525050565b6000612d2382612c05565b9150612d2f8285612a99565b9150612d3a82612cb4565b9150612d468284612a99565b91508190509392505050565b600060a082019050612d67600083018861299c565b612d74602083018761299c565b8181036040830152612d8681866129ab565b90508181036060830152612d9a81856129ab565b90508181036080830152612dae8184612a27565b90509695505050505050565b600060a082019050612dcf600083018861299c565b612ddc602083018761299c565b612de96040830186612d09565b612df66060830185612d09565b8181036080830152612e088184612a27565b90509695505050505050565b60006020820190508181036000830152612e2e81846129ab565b905092915050565b60006040820190508181036000830152612e5081856129ab565b90508181036020830152612e6481846129ab565b90509392505050565b6000602082019050612e826000830184612a09565b92915050565b6000602082019050612e9d6000830184612a18565b92915050565b60006020820190508181036000830152612ebd8184612a27565b905092915050565b60006020820190508181036000830152612edf8184612a60565b905092915050565b60006020820190508181036000830152612f0081612aca565b9050919050565b60006020820190508181036000830152612f2081612aed565b9050919050565b60006020820190508181036000830152612f4081612b10565b9050919050565b60006020820190508181036000830152612f6081612b33565b9050919050565b60006020820190508181036000830152612f8081612b56565b9050919050565b60006020820190508181036000830152612fa081612b79565b9050919050565b60006020820190508181036000830152612fc081612b9c565b9050919050565b60006020820190508181036000830152612fe081612bbf565b9050919050565b6000602082019050818103600083015261300081612be2565b9050919050565b6000602082019050818103600083015261302081612c28565b9050919050565b6000602082019050818103600083015261304081612c4b565b9050919050565b6000602082019050818103600083015261306081612c6e565b9050919050565b6000602082019050818103600083015261308081612c91565b9050919050565b600060208201905081810360008301526130a081612cd7565b9050919050565b60006020820190506130bc6000830184612d09565b92915050565b60006040820190506130d76000830185612d09565b6130e46020830184612d09565b9392505050565b60006130f5613106565b90506131018282613412565b919050565b6000604051905090565b600067ffffffffffffffff82111561312b5761312a6134ea565b5b602082029050602081019050919050565b600067ffffffffffffffff821115613157576131566134ea565b5b602082029050602081019050919050565b600067ffffffffffffffff821115613183576131826134ea565b5b61318c8261353b565b9050602081019050919050565b600067ffffffffffffffff8211156131b4576131b36134ea565b5b6131bd8261353b565b9050602081019050919050565b6000819050602082019050919050565b600081519050919050565b600081519050919050565b600081519050919050565b6000602082019050919050565b600082825260208201905092915050565b600082825260208201905092915050565b600082825260208201905092915050565b600081905092915050565b60006132518261336a565b915061325c8361336a565b9250827fffffffffffffffffffffffffffffffffffffffffffffffffffffffffffffffff038211156132915761329061348c565b5b828201905092915050565b60006132a78261336a565b91506132b28361336a565b9250817fffffffffffffffffffffffffffffffffffffffffffffffffffffffffffffffff04831182151516156132eb576132ea61348c565b5b828202905092915050565b60006133018261334a565b9050919050565b60008115159050919050565b6000819050919050565b60007fffffffff0000000000000000000000000000000000000000000000000000000082169050919050565b600073ffffffffffffffffffffffffffffffffffffffff82169050919050565b6000819050919050565b82818337600083830152505050565b60005b838110156133a1578082015181840152602081019050613386565b838111156133b0576000848401525b50505050565b60006133c18261336a565b915060008214156133d5576133d461348c565b5b600182039050919050565b600060028204905060018216806133f857607f821691505b6020821081141561340c5761340b6134bb565b5b50919050565b61341b8261353b565b810181811067ffffffffffffffff8211171561343a576134396134ea565b5b80604052505050565b600061344e8261336a565b91507fffffffffffffffffffffffffffffffffffffffffffffffffffffffffffffffff8214156134815761348061348c565b5b600182019050919050565b7f4e487b7100000000000000000000000000000000000000000000000000000000600052601160045260246000fd5b7f4e487b7100000000000000000000000000000000000000000000000000000000600052602260045260246000fd5b7f4e487b7100000000000000000000000000000000000000000000000000000000600052604160045260246000fd5b600060033d11156135385760046000803e61353560005161354c565b90505b90565b6000601f19601f8301169050919050565b60008160e01c9050919050565b7f455243313135353a207472616e7366657220746f206e6f6e204552433131353560008201527f526563656976657220696d706c656d656e746572000000000000000000000000602082015250565b7f537472696e67733a20686578206c656e67746820696e73756666696369656e74600082015250565b7f455243313135353a204552433131353552656365697665722072656a6563746560008201527f6420746f6b656e73000000000000000000000000000000000000000000000000602082015250565b7f416c7265616479206d696e746564000000000000000000000000000000000000600082015250565b7f455243313135353a2062616c616e636520717565727920666f7220746865207a60008201527f65726f2061646472657373000000000000000000000000000000000000000000602082015250565b7f455243313135353a2063616c6c6572206973206e6f74206f776e6572206e6f7260008201527f20617070726f7665640000000000000000000000000000000000000000000000602082015250565b7f455243313135353a207472616e7366657220746f20746865207a65726f20616460008201527f6472657373000000000000000000000000000000000000000000000000000000602082015250565b7f455243313135353a207472616e736665722063616c6c6572206973206e6f742060008201527f6f776e6572206e6f7220617070726f7665640000000000000000000000000000602082015250565b7f455243313135353a20696e73756666696369656e742062616c616e636520666f60008201527f72207472616e7366657200000000000000000000000000000000000000000000602082015250565b7f416363657373436f6e74726f6c3a206163636f756e7420000000000000000000600082015250565b7f455243313135353a2073657474696e6720617070726f76616c2073746174757360008201527f20666f722073656c660000000000000000000000000000000000000000000000602082015250565b7f455243313135353a206163636f756e747320616e6420696473206c656e67746860008201527f206d69736d617463680000000000000000000000000000000000000000000000602082015250565b7f455243313135353a2069647320616e6420616d6f756e7473206c656e6774682060008201527f6d69736d61746368000000000000000000000000000000000000000000000000602082015250565b7f455243313135353a206d696e7420746f20746865207a65726f2061646472657360008201527f7300000000000000000000000000000000000000000000000000000000000000602082015250565b7f206973206d697373696e6720726f6c6520000000000000000000000000000000600082015250565b7f416363657373436f6e74726f6c3a2063616e206f6e6c792072656e6f756e636560008201527f20726f6c657320666f722073656c660000000000000000000000000000000000602082015250565b600060443d10156139c157613a44565b6139c9613106565b60043d036004823e80513d602482011167ffffffffffffffff821117156139f1575050613a44565b808201805167ffffffffffffffff811115613a0f5750505050613a44565b80602083010160043d038501811115613a2c575050505050613a44565b613a3b82602001850186613412565b82955050505050505b90565b613a50816132f6565b8114613a5b57600080fd5b50565b613a6781613308565b8114613a7257600080fd5b50565b613a7e81613314565b8114613a8957600080fd5b50565b613a958161331e565b8114613aa057600080fd5b50565b613aac8161336a565b8114613ab757600080fd5b5056fea2646970667358221220b72f00ea7a91124bfa3da124c6688e986229810d268641c36c8288852448971e64736f6c63430008040033",
  "linkReferences": {},
  "deployedLinkReferences": {}
}