{
  "_format": "hh-sol-artifact-1",
  "contractName": "KaoMoji",
  "sourceName": "contracts/KaoMoji.sol",
  "abi": [
    {
      "anonymous": false,
      "inputs": [
        {
          "indexed": false,
          "internalType": "address",
          "name": "previousAdmin",
          "type": "address"
        },
        {
          "indexed": false,
          "internalType": "address",
          "name": "newAdmin",
          "type": "address"
        }
      ],
      "name": "AdminChanged",
      "type": "event"
    },
    {
      "anonymous": false,
      "inputs": [
        {
          "indexed": true,
          "internalType": "address",
          "name": "owner",
          "type": "address"
        },
        {
          "indexed": true,
          "internalType": "address",
          "name": "approved",
          "type": "address"
        },
        {
          "indexed": true,
          "internalType": "uint256",
          "name": "tokenId",
          "type": "uint256"
        }
      ],
      "name": "Approval",
      "type": "event"
    },
    {
      "anonymous": false,
      "inputs": [
        {
          "indexed": true,
          "internalType": "address",
          "name": "owner",
          "type": "address"
        },
        {
          "indexed": true,
          "internalType": "address",
          "name": "operator",
          "type": "address"
        },
        {
          "indexed": false,
          "internalType": "bool",
          "name": "approved",
          "type": "bool"
        }
      ],
      "name": "ApprovalForAll",
      "type": "event"
    },
    {
      "anonymous": false,
      "inputs": [
        {
          "indexed": true,
          "internalType": "address",
          "name": "beacon",
          "type": "address"
        }
      ],
      "name": "BeaconUpgraded",
      "type": "event"
    },
    {
      "anonymous": false,
      "inputs": [
        {
          "indexed": true,
          "internalType": "bytes32",
          "name": "role",
          "type": "bytes32"
        },
        {
          "indexed": true,
          "internalType": "bytes32",
          "name": "previousAdminRole",
          "type": "bytes32"
        },
        {
          "indexed": true,
          "internalType": "bytes32",
          "name": "newAdminRole",
          "type": "bytes32"
        }
      ],
      "name": "RoleAdminChanged",
      "type": "event"
    },
    {
      "anonymous": false,
      "inputs": [
        {
          "indexed": true,
          "internalType": "bytes32",
          "name": "role",
          "type": "bytes32"
        },
        {
          "indexed": true,
          "internalType": "address",
          "name": "account",
          "type": "address"
        },
        {
          "indexed": true,
          "internalType": "address",
          "name": "sender",
          "type": "address"
        }
      ],
      "name": "RoleGranted",
      "type": "event"
    },
    {
      "anonymous": false,
      "inputs": [
        {
          "indexed": true,
          "internalType": "bytes32",
          "name": "role",
          "type": "bytes32"
        },
        {
          "indexed": true,
          "internalType": "address",
          "name": "account",
          "type": "address"
        },
        {
          "indexed": true,
          "internalType": "address",
          "name": "sender",
          "type": "address"
        }
      ],
      "name": "RoleRevoked",
      "type": "event"
    },
    {
      "anonymous": false,
      "inputs": [
        {
          "indexed": true,
          "internalType": "address",
          "name": "from",
          "type": "address"
        },
        {
          "indexed": true,
          "internalType": "address",
          "name": "to",
          "type": "address"
        },
        {
          "indexed": true,
          "internalType": "uint256",
          "name": "tokenId",
          "type": "uint256"
        }
      ],
      "name": "Transfer",
      "type": "event"
    },
    {
      "anonymous": false,
      "inputs": [
        {
          "indexed": true,
          "internalType": "address",
          "name": "implementation",
          "type": "address"
        }
      ],
      "name": "Upgraded",
      "type": "event"
    },
    {
      "inputs": [],
      "name": "ADDRESS_UPDATER",
      "outputs": [
        {
          "internalType": "bytes32",
          "name": "",
          "type": "bytes32"
        }
      ],
      "stateMutability": "view",
      "type": "function"
    },
    {
      "inputs": [],
      "name": "BALANCE_BURNER_ROLE",
      "outputs": [
        {
          "internalType": "bytes32",
          "name": "",
          "type": "bytes32"
        }
      ],
      "stateMutability": "view",
      "type": "function"
    },
    {
      "inputs": [],
      "name": "DEFAULT_ADMIN_ROLE",
      "outputs": [
        {
          "internalType": "bytes32",
          "name": "",
          "type": "bytes32"
        }
      ],
      "stateMutability": "view",
      "type": "function"
    },
    {
      "inputs": [],
      "name": "MINTER_ROLE",
      "outputs": [
        {
          "internalType": "bytes32",
          "name": "",
          "type": "bytes32"
        }
      ],
      "stateMutability": "view",
      "type": "function"
    },
    {
      "inputs": [],
      "name": "UPGRADER_ROLE",
      "outputs": [
        {
          "internalType": "bytes32",
          "name": "",
          "type": "bytes32"
        }
      ],
      "stateMutability": "view",
      "type": "function"
    },
    {
      "inputs": [
        {
          "internalType": "address",
          "name": "to",
          "type": "address"
        },
        {
          "internalType": "uint256",
          "name": "tokenId",
          "type": "uint256"
        }
      ],
      "name": "approve",
      "outputs": [],
      "stateMutability": "nonpayable",
      "type": "function"
    },
    {
      "inputs": [
        {
          "internalType": "address",
          "name": "owner",
          "type": "address"
        }
      ],
      "name": "balanceOf",
      "outputs": [
        {
          "internalType": "uint256",
          "name": "",
          "type": "uint256"
        }
      ],
      "stateMutability": "view",
      "type": "function"
    },
    {
      "inputs": [],
      "name": "burn",
      "outputs": [],
      "stateMutability": "nonpayable",
      "type": "function"
    },
    {
      "inputs": [
        {
          "internalType": "uint256",
          "name": "tokenId",
          "type": "uint256"
        }
      ],
      "name": "getApproved",
      "outputs": [
        {
          "internalType": "address",
          "name": "",
          "type": "address"
        }
      ],
      "stateMutability": "view",
      "type": "function"
    },
    {
      "inputs": [
        {
          "internalType": "uint256",
          "name": "id",
          "type": "uint256"
        }
      ],
      "name": "getDataOf",
      "outputs": [
        {
          "internalType": "bytes",
          "name": "",
          "type": "bytes"
        }
      ],
      "stateMutability": "view",
      "type": "function"
    },
    {
      "inputs": [
        {
          "internalType": "address",
          "name": "user",
          "type": "address"
        }
      ],
      "name": "getProposerPercentageFor",
      "outputs": [
        {
          "internalType": "uint8",
          "name": "",
          "type": "uint8"
        }
      ],
      "stateMutability": "view",
      "type": "function"
    },
    {
      "inputs": [
        {
          "internalType": "bytes32",
          "name": "role",
          "type": "bytes32"
        }
      ],
      "name": "getRoleAdmin",
      "outputs": [
        {
          "internalType": "bytes32",
          "name": "",
          "type": "bytes32"
        }
      ],
      "stateMutability": "view",
      "type": "function"
    },
    {
      "inputs": [
        {
          "internalType": "bytes32",
          "name": "role",
          "type": "bytes32"
        },
        {
          "internalType": "address",
          "name": "account",
          "type": "address"
        }
      ],
      "name": "grantRole",
      "outputs": [],
      "stateMutability": "nonpayable",
      "type": "function"
    },
    {
      "inputs": [
        {
          "internalType": "bytes32",
          "name": "role",
          "type": "bytes32"
        },
        {
          "internalType": "address",
          "name": "account",
          "type": "address"
        }
      ],
      "name": "hasRole",
      "outputs": [
        {
          "internalType": "bool",
          "name": "",
          "type": "bool"
        }
      ],
      "stateMutability": "view",
      "type": "function"
    },
    {
      "inputs": [],
      "name": "initialize",
      "outputs": [],
      "stateMutability": "nonpayable",
      "type": "function"
    },
    {
      "inputs": [
        {
          "internalType": "address",
          "name": "owner",
          "type": "address"
        },
        {
          "internalType": "address",
          "name": "operator",
          "type": "address"
        }
      ],
      "name": "isApprovedForAll",
      "outputs": [
        {
          "internalType": "bool",
          "name": "",
          "type": "bool"
        }
      ],
      "stateMutability": "view",
      "type": "function"
    },
    {
      "inputs": [
        {
          "internalType": "bytes",
          "name": "_data",
          "type": "bytes"
        },
        {
          "internalType": "address",
          "name": "_proposer",
          "type": "address"
        }
      ],
      "name": "mint",
      "outputs": [],
      "stateMutability": "nonpayable",
      "type": "function"
    },
    {
      "inputs": [],
      "name": "name",
      "outputs": [
        {
          "internalType": "string",
          "name": "",
          "type": "string"
        }
      ],
      "stateMutability": "view",
      "type": "function"
    },
    {
      "inputs": [
        {
          "internalType": "address",
          "name": "",
          "type": "address"
        },
        {
          "internalType": "address",
          "name": "",
          "type": "address"
        },
        {
          "internalType": "uint256",
          "name": "",
          "type": "uint256"
        },
        {
          "internalType": "bytes",
          "name": "",
          "type": "bytes"
        }
      ],
      "name": "onERC721Received",
      "outputs": [
        {
          "internalType": "bytes4",
          "name": "",
          "type": "bytes4"
        }
      ],
      "stateMutability": "nonpayable",
      "type": "function"
    },
    {
      "inputs": [
        {
          "internalType": "uint256",
          "name": "tokenId",
          "type": "uint256"
        }
      ],
      "name": "ownerOf",
      "outputs": [
        {
          "internalType": "address",
          "name": "",
          "type": "address"
        }
      ],
      "stateMutability": "view",
      "type": "function"
    },
    {
      "inputs": [
        {
          "internalType": "bytes32",
          "name": "role",
          "type": "bytes32"
        },
        {
          "internalType": "address",
          "name": "account",
          "type": "address"
        }
      ],
      "name": "renounceRole",
      "outputs": [],
      "stateMutability": "nonpayable",
      "type": "function"
    },
    {
      "inputs": [
        {
          "internalType": "bytes32",
          "name": "role",
          "type": "bytes32"
        },
        {
          "internalType": "address",
          "name": "account",
          "type": "address"
        }
      ],
      "name": "revokeRole",
      "outputs": [],
      "stateMutability": "nonpayable",
      "type": "function"
    },
    {
      "inputs": [
        {
          "internalType": "address",
          "name": "from",
          "type": "address"
        },
        {
          "internalType": "address",
          "name": "to",
          "type": "address"
        },
        {
          "internalType": "uint256",
          "name": "tokenId",
          "type": "uint256"
        }
      ],
      "name": "safeTransferFrom",
      "outputs": [],
      "stateMutability": "nonpayable",
      "type": "function"
    },
    {
      "inputs": [
        {
          "internalType": "address",
          "name": "from",
          "type": "address"
        },
        {
          "internalType": "address",
          "name": "to",
          "type": "address"
        },
        {
          "internalType": "uint256",
          "name": "tokenId",
          "type": "uint256"
        },
        {
          "internalType": "bytes",
          "name": "_data",
          "type": "bytes"
        }
      ],
      "name": "safeTransferFrom",
      "outputs": [],
      "stateMutability": "nonpayable",
      "type": "function"
    },
    {
      "inputs": [
        {
          "internalType": "address",
          "name": "operator",
          "type": "address"
        },
        {
          "internalType": "bool",
          "name": "approved",
          "type": "bool"
        }
      ],
      "name": "setApprovalForAll",
      "outputs": [],
      "stateMutability": "nonpayable",
      "type": "function"
    },
    {
      "inputs": [
        {
          "internalType": "address",
          "name": "auctionAddress",
          "type": "address"
        }
      ],
      "name": "setAuctionAddress",
      "outputs": [],
      "stateMutability": "nonpayable",
      "type": "function"
    },
    {
      "inputs": [
        {
          "internalType": "address",
          "name": "kaoStaking",
          "type": "address"
        }
      ],
      "name": "setKaoStakingAddress",
      "outputs": [],
      "stateMutability": "nonpayable",
      "type": "function"
    },
    {
      "inputs": [
        {
          "internalType": "address",
          "name": "kaoToken",
          "type": "address"
        }
      ],
      "name": "setKaoTokenAddress",
      "outputs": [],
      "stateMutability": "nonpayable",
      "type": "function"
    },
    {
      "inputs": [
        {
          "internalType": "bytes4",
          "name": "interfaceId",
          "type": "bytes4"
        }
      ],
      "name": "supportsInterface",
      "outputs": [
        {
          "internalType": "bool",
          "name": "",
          "type": "bool"
        }
      ],
      "stateMutability": "view",
      "type": "function"
    },
    {
      "inputs": [],
      "name": "symbol",
      "outputs": [
        {
          "internalType": "string",
          "name": "",
          "type": "string"
        }
      ],
      "stateMutability": "view",
      "type": "function"
    },
    {
      "inputs": [
        {
          "internalType": "uint256",
          "name": "tokenId",
          "type": "uint256"
        }
      ],
      "name": "tokenURI",
      "outputs": [
        {
          "internalType": "string",
          "name": "",
          "type": "string"
        }
      ],
      "stateMutability": "view",
      "type": "function"
    },
    {
      "inputs": [
        {
          "internalType": "address",
          "name": "from",
          "type": "address"
        },
        {
          "internalType": "address",
          "name": "to",
          "type": "address"
        },
        {
          "internalType": "uint256",
          "name": "tokenId",
          "type": "uint256"
        }
      ],
      "name": "transferFrom",
      "outputs": [],
      "stateMutability": "nonpayable",
      "type": "function"
    },
    {
      "inputs": [
        {
          "internalType": "address",
          "name": "newImplementation",
          "type": "address"
        }
      ],
      "name": "upgradeTo",
      "outputs": [],
      "stateMutability": "nonpayable",
      "type": "function"
    },
    {
      "inputs": [
        {
          "internalType": "address",
          "name": "newImplementation",
          "type": "address"
        },
        {
          "internalType": "bytes",
          "name": "data",
          "type": "bytes"
        }
      ],
      "name": "upgradeToAndCall",
      "outputs": [],
      "stateMutability": "payable",
      "type": "function"
    },
    {
      "inputs": [],
      "name": "version",
      "outputs": [
        {
          "internalType": "uint8",
          "name": "",
          "type": "uint8"
        }
      ],
      "stateMutability": "pure",
      "type": "function"
    }
  ],
  "bytecode": "0x60a06040523060601b60805234801561001757600080fd5b5060805160601c6130af61004b60003960008181610c1701528181610c5701528181610df00152610e3001526130af6000f3fe6080604052600436106101945760003560e01c806301ffc9a71461019957806306fdde03146101ce578063081812fc146101f0578063095ea7b31461021d5780630cae37f11461023f578063150b7a021461025f578063185f57d51461029857806323b872dd146102b8578063248a9ca3146102d85780632f2ff15d1461030657806336568abe146103265780633659cfe61461034657806342842e0e1461036657806344df8e70146103865780634f1ef2861461039b57806354fd4d50146103ae57806356779068146103d05780636352211e146103f057806370a08231146104105780637cc533b8146104305780638129fc1c14610452578063878632451461046757806391d148541461048957806393ac3638146104a957806395d89b41146104c9578063a217fddf146104de578063a22cb465146104f3578063b88d4fde14610513578063b9cab03f14610533578063c87b56dd14610553578063d02dab9614610573578063d539139314610593578063d547741f146105b5578063e985e9c5146105d5578063f72c0d8b146105f5575b600080fd5b3480156101a557600080fd5b506101b96101b436600461297b565b610617565b60405190151581526020015b60405180910390f35b3480156101da57600080fd5b506101e3610628565b6040516101c59190612b65565b3480156101fc57600080fd5b5061021061020b366004612941565b6106ba565b6040516101c59190612b14565b34801561022957600080fd5b5061023d610238366004612918565b610747565b005b34801561024b57600080fd5b5061023d61025a3660046129b3565b610858565b34801561026b57600080fd5b5061027f61027a36600461282e565b610add565b6040516001600160e01b031990911681526020016101c5565b3480156102a457600080fd5b5061023d6102b33660046127a7565b610aee565b3480156102c457600080fd5b5061023d6102d33660046127f3565b610b2b565b3480156102e457600080fd5b506102f86102f3366004612941565b610b5c565b6040519081526020016101c5565b34801561031257600080fd5b5061023d610321366004612959565b610b71565b34801561033257600080fd5b5061023d610341366004612959565b610b8e565b34801561035257600080fd5b5061023d6103613660046127a7565b610c0c565b34801561037257600080fd5b5061023d6103813660046127f3565b610cd5565b34801561039257600080fd5b5061023d610cf0565b61023d6103a93660046128cd565b610de5565b3480156103ba57600080fd5b5060015b60405160ff90911681526020016101c5565b3480156103dc57600080fd5b5061023d6103eb3660046127a7565b610e9b565b3480156103fc57600080fd5b5061021061040b366004612941565b610ed8565b34801561041c57600080fd5b506102f861042b3660046127a7565b610f4f565b34801561043c57600080fd5b506102f8600080516020612f3383398151915281565b34801561045e57600080fd5b5061023d610fd6565b34801561047357600080fd5b506102f860008051602061305a83398151915281565b34801561049557600080fd5b506101b96104a4366004612959565b6110e8565b3480156104b557600080fd5b5061023d6104c43660046127a7565b611113565b3480156104d557600080fd5b506101e3611150565b3480156104ea57600080fd5b506102f8600081565b3480156104ff57600080fd5b5061023d61050e366004612893565b61115f565b34801561051f57600080fd5b5061023d61052e36600461282e565b611220565b34801561053f57600080fd5b506101e361054e366004612941565b611258565b34801561055f57600080fd5b506101e361056e366004612941565b6112fb565b34801561057f57600080fd5b506103be61058e3660046127a7565b6113c6565b34801561059f57600080fd5b506102f860008051602061301a83398151915281565b3480156105c157600080fd5b5061023d6105d0366004612959565b611616565b3480156105e157600080fd5b506101b96105f03660046127c1565b611633565b34801561060157600080fd5b506102f8600080516020612f7383398151915281565b600061062282611661565b92915050565b60606065805461063790612e70565b80601f016020809104026020016040519081016040528092919081815260200182805461066390612e70565b80156106b05780601f10610685576101008083540402835291602001916106b0565b820191906000526020600020905b81548152906001019060200180831161069357829003601f168201915b5050505050905090565b60006106c582611686565b61072b5760405162461bcd60e51b815260206004820152602c60248201527f4552433732313a20617070726f76656420717565727920666f72206e6f6e657860448201526b34b9ba32b73a103a37b5b2b760a11b60648201526084015b60405180910390fd5b506000908152606960205260409020546001600160a01b031690565b600061075282610ed8565b9050806001600160a01b0316836001600160a01b031614156107c05760405162461bcd60e51b815260206004820152602160248201527f4552433732313a20617070726f76616c20746f2063757272656e74206f776e656044820152603960f91b6064820152608401610722565b336001600160a01b03821614806107dc57506107dc8133611633565b6108495760405162461bcd60e51b815260206004820152603860248201527f4552433732313a20617070726f76652063616c6c6572206973206e6f74206f776044820152771b995c881b9bdc88185c1c1c9bdd995908199bdc88185b1b60421b6064820152608401610722565b61085383836116a3565b505050565b60008051602061301a8339815191526108718133611711565b6001600160a01b0382166108ba5760405162461bcd60e51b815260206004820152601060248201526f24b73b30b634b210283937b837b9b2b960811b6044820152606401610722565b61012e805490819060006108cd83612eab565b91905055506108dd308286611775565b600081815261012d6020908152604090912085516108fd9287019061266c565b5061012f54610915906001600160a01b0316826116a3565b610130546040805163313ce56760e01b815290516000926001600160a01b03169163313ce567916004808301926020929190829003018186803b15801561095b57600080fd5b505afa15801561096f573d6000803e3d6000fd5b505050506040513d601f19601f820116820180604052508101906109939190612a0d565b61012f549091506000906001600160a01b03166375e9249f8430603c6109ba87600a612d4c565b6109c5906001612df7565b8a6109cf8c6113c6565b6101305460405160e089901b6001600160e01b031916815260048101979097526001600160a01b039586166024880152604487019490945260648601929092528316608485015260ff1660a48401521660c482015260e401602060405180830381600087803b158015610a4157600080fd5b505af1158015610a55573d6000803e3d6000fd5b505050506040513d601f19601f82011682018060405250810190610a7991906129f5565b905060008111610aca5760405162461bcd60e51b815260206004820152601c60248201527b063726561746541756374696f6e3a2061756374696f6e4964203e20360241b6044820152606401610722565b610ad56000846116a3565b505050505050565b630a85bd0160e11b5b949350505050565b60008051602061305a833981519152610b078133611711565b5061013080546001600160a01b0319166001600160a01b0392909216919091179055565b610b3533826117a8565b610b515760405162461bcd60e51b815260040161072290612c8c565b61085383838361186a565b600090815260fb602052604090206001015490565b610b7a82610b5c565b610b848133611711565b61085383836119f8565b6001600160a01b0381163314610bfe5760405162461bcd60e51b815260206004820152602f60248201527f416363657373436f6e74726f6c3a2063616e206f6e6c792072656e6f756e636560448201526e103937b632b9903337b91039b2b63360891b6064820152608401610722565b610c088282611a7e565b5050565b306001600160a01b037f0000000000000000000000000000000000000000000000000000000000000000161415610c555760405162461bcd60e51b815260040161072290612bca565b7f00000000000000000000000000000000000000000000000000000000000000006001600160a01b0316610c87611ae5565b6001600160a01b031614610cad5760405162461bcd60e51b815260040161072290612c04565b610cb681611b01565b60408051600080825260208201909252610cd291839190611b1a565b50565b61085383838360405180602001604052806000815250611220565b600080516020612f33833981519152610d098133611711565b610130546040516370a0823160e01b81526001600160a01b03909116906342966c689082906370a0823190610d42903090600401612b14565b60206040518083038186803b158015610d5a57600080fd5b505afa158015610d6e573d6000803e3d6000fd5b505050506040513d601f19601f82011682018060405250810190610d9291906129f5565b6040518263ffffffff1660e01b8152600401610db091815260200190565b600060405180830381600087803b158015610dca57600080fd5b505af1158015610dde573d6000803e3d6000fd5b5050505050565b306001600160a01b037f0000000000000000000000000000000000000000000000000000000000000000161415610e2e5760405162461bcd60e51b815260040161072290612bca565b7f00000000000000000000000000000000000000000000000000000000000000006001600160a01b0316610e60611ae5565b6001600160a01b031614610e865760405162461bcd60e51b815260040161072290612c04565b610e8f82611b01565b610c0882826001611b1a565b60008051602061305a833981519152610eb48133611711565b5061013180546001600160a01b0319166001600160a01b0392909216919091179055565b6000818152606760205260408120546001600160a01b0316806106225760405162461bcd60e51b815260206004820152602960248201527f4552433732313a206f776e657220717565727920666f72206e6f6e657869737460448201526832b73a103a37b5b2b760b91b6064820152608401610722565b60006001600160a01b038216610fba5760405162461bcd60e51b815260206004820152602a60248201527f4552433732313a2062616c616e636520717565727920666f7220746865207a65604482015269726f206164647265737360b01b6064820152608401610722565b506001600160a01b031660009081526068602052604090205490565b600054610100900460ff1680610fef575060005460ff16155b61100b5760405162461bcd60e51b815260040161072290612c3e565b600054610100900460ff1615801561102d576000805461ffff19166101011790555b611071604051806040016040528060078152602001664b616f4d6f6a6960c81b8152506040518060400160405280600381526020016225a6a560e91b815250611c5a565b611079611ce1565b611081611d50565b61108c600033611dae565b6110a460008051602061301a83398151915233611dae565b6110bc60008051602061305a83398151915233611dae565b6110d4600080516020612f7383398151915233611dae565b8015610cd2576000805461ff001916905550565b600091825260fb602090815260408084206001600160a01b0393909316845291905290205460ff1690565b60008051602061305a83398151915261112c8133611711565b5061012f80546001600160a01b0319166001600160a01b0392909216919091179055565b60606066805461063790612e70565b6001600160a01b0382163314156111b45760405162461bcd60e51b815260206004820152601960248201527822a9219b99189d1030b8383937bb32903a379031b0b63632b960391b6044820152606401610722565b336000818152606a602090815260408083206001600160a01b03871680855290835292819020805460ff191686151590811790915590519081529192917f17307eab39ab6107e8899845ad3d59bd9653f200f220920489ca2b5937696c31910160405180910390a35050565b61122a33836117a8565b6112465760405162461bcd60e51b815260040161072290612c8c565b61125284848484611db8565b50505050565b600081815261012d6020526040902080546060919061127690612e70565b80601f01602080910402602001604051908101604052809291908181526020018280546112a290612e70565b80156112ef5780601f106112c4576101008083540402835291602001916112ef565b820191906000526020600020905b8154815290600101906020018083116112d257829003601f168201915b50505050509050919050565b606061130682611686565b61136a5760405162461bcd60e51b815260206004820152602f60248201527f4552433732314d657461646174613a2055524920717565727920666f72206e6f60448201526e3732bc34b9ba32b73a103a37b5b2b760891b6064820152608401610722565b6000611374611deb565b9050600081511161139457604051806020016040528060008152506113bf565b8061139e84611e0b565b6040516020016113af929190612a76565b6040516020818303038152906040525b9392505050565b60006001600160a01b0382166114105760405162461bcd60e51b815260206004820152600f60248201526e496e76616c6964204164647265737360881b6044820152606401610722565b61013154604080516318160ddd60e01b815290516000926001600160a01b0316916318160ddd916004808301926020929190829003018186803b15801561145657600080fd5b505afa15801561146a573d6000803e3d6000fd5b505050506040513d601f19601f8201168201806040525081019061148e91906129f5565b610131546040516370a0823160e01b81529192506000916001600160a01b03909116906370a08231906114c5908790600401612b14565b60206040518083038186803b1580156114dd57600080fd5b505afa1580156114f1573d6000803e3d6000fd5b505050506040513d601f19601f8201168201806040525081019061151591906129f5565b610131546040516340c6b5df60e11b81529192506000916001600160a01b039091169063818d6bbe9061154c908890600401612b14565b60206040518083038186803b15801561156457600080fd5b505afa158015611578573d6000803e3d6000fd5b505050506040513d601f19601f8201168201806040525081019061159c91906129f5565b9050826115ae57506000949350505050565b816115be57506000949350505050565b600060646115cc8382612cdd565b856115d8866064612df7565b6115e29190612cf5565b6115ec9190612df7565b6115f69190612cf5565b9050606381111561160d5750606395945050505050565b95945050505050565b61161f82610b5c565b6116298133611711565b6108538383611a7e565b6001600160a01b039182166000908152606a6020908152604080832093909416825291909152205460ff1690565b60006001600160e01b03198216637965db0b60e01b1480610622575061062282611f24565b6000908152606760205260409020546001600160a01b0316151590565b600081815260696020526040902080546001600160a01b0319166001600160a01b03841690811790915581906116d882610ed8565b6001600160a01b03167f8c5be1e5ebec7d5bd14f71427d1e84f3dd0314c0f7b2291e5b200ac8c7c3b92560405160405180910390a45050565b61171b82826110e8565b610c0857611733816001600160a01b03166014611f74565b61173e836020611f74565b60405160200161174f929190612aa5565b60408051601f198184030181529082905262461bcd60e51b825261072291600401612b65565b61177f8383612155565b61178c6000848484612275565b6108535760405162461bcd60e51b815260040161072290612b78565b60006117b382611686565b6118145760405162461bcd60e51b815260206004820152602c60248201527f4552433732313a206f70657261746f7220717565727920666f72206e6f6e657860448201526b34b9ba32b73a103a37b5b2b760a11b6064820152608401610722565b600061181f83610ed8565b9050806001600160a01b0316846001600160a01b0316148061185a5750836001600160a01b031661184f846106ba565b6001600160a01b0316145b80610ae65750610ae68185611633565b826001600160a01b031661187d82610ed8565b6001600160a01b0316146118e55760405162461bcd60e51b815260206004820152602960248201527f4552433732313a207472616e73666572206f6620746f6b656e2074686174206960448201526839903737ba1037bbb760b91b6064820152608401610722565b6001600160a01b0382166119475760405162461bcd60e51b8152602060048201526024808201527f4552433732313a207472616e7366657220746f20746865207a65726f206164646044820152637265737360e01b6064820152608401610722565b6119526000826116a3565b6001600160a01b038316600090815260686020526040812080546001929061197b908490612e16565b90915550506001600160a01b03821660009081526068602052604081208054600192906119a9908490612cdd565b909155505060008181526067602052604080822080546001600160a01b0319166001600160a01b03868116918217909255915184939187169160008051602061303a83398151915291a4505050565b611a0282826110e8565b610c0857600082815260fb602090815260408083206001600160a01b03851684529091529020805460ff19166001179055611a3a3390565b6001600160a01b0316816001600160a01b0316837f2f8788117e7eff1d82e926ec794901d17c78024a50270940304540a733656f0d60405160405180910390a45050565b611a8882826110e8565b15610c0857600082815260fb602090815260408083206001600160a01b0385168085529252808320805460ff1916905551339285917ff6391f5c32d9c69d2a47ea670b442974b53935d1edc7fd64eb21e047a839171b9190a45050565b600080516020612f93833981519152546001600160a01b031690565b600080516020612f73833981519152610c088133611711565b6000611b24611ae5565b9050611b2f8461237f565b600083511180611b3c5750815b15611b4d57611b4b8484612412565b505b7f4910fdfa16fed3260ed0e7147f7cc6da11a60208b5b9406d12a635614ffd9143805460ff16610dde57805460ff19166001178155604051611bc8908690611b99908590602401612b14565b60408051601f198184030181529190526020810180516001600160e01b0316631b2ce7f360e11b179052612412565b50805460ff19168155611bd9611ae5565b6001600160a01b0316826001600160a01b031614611c515760405162461bcd60e51b815260206004820152602f60248201527f45524331393637557067726164653a207570677261646520627265616b73206660448201526e75727468657220757067726164657360881b6064820152608401610722565b610dde856124f4565b600054610100900460ff1680611c73575060005460ff16155b611c8f5760405162461bcd60e51b815260040161072290612c3e565b600054610100900460ff16158015611cb1576000805461ffff19166101011790555b611cb9612534565b611cc1612534565b611ccb838361259e565b8015610853576000805461ff0019169055505050565b600054610100900460ff1680611cfa575060005460ff16155b611d165760405162461bcd60e51b815260040161072290612c3e565b600054610100900460ff16158015611d38576000805461ffff19166101011790555b611d40612534565b611d48612534565b6110d4612534565b600054610100900460ff1680611d69575060005460ff16155b611d855760405162461bcd60e51b815260040161072290612c3e565b600054610100900460ff16158015611d40576000805461ffff1916610101179055611d48612534565b610c0882826119f8565b611dc384848461186a565b611dcf84848484612275565b6112525760405162461bcd60e51b815260040161072290612b78565b6060604051806060016040528060408152602001612fb360409139905090565b606081611e2f5750506040805180820190915260018152600360fc1b602082015290565b8160005b8115611e595780611e4381612eab565b9150611e529050600a83612cf5565b9150611e33565b6000816001600160401b03811115611e8157634e487b7160e01b600052604160045260246000fd5b6040519080825280601f01601f191660200182016040528015611eab576020820181803683370190505b5090505b8415610ae657611ec0600183612e16565b9150611ecd600a86612ec6565b611ed8906030612cdd565b60f81b818381518110611efb57634e487b7160e01b600052603260045260246000fd5b60200101906001600160f81b031916908160001a905350611f1d600a86612cf5565b9450611eaf565b60006001600160e01b031982166380ac58cd60e01b1480611f5557506001600160e01b03198216635b5e139f60e01b145b8061062257506301ffc9a760e01b6001600160e01b0319831614610622565b60606000611f83836002612df7565b611f8e906002612cdd565b6001600160401b03811115611fb357634e487b7160e01b600052604160045260246000fd5b6040519080825280601f01601f191660200182016040528015611fdd576020820181803683370190505b509050600360fc1b8160008151811061200657634e487b7160e01b600052603260045260246000fd5b60200101906001600160f81b031916908160001a905350600f60fb1b8160018151811061204357634e487b7160e01b600052603260045260246000fd5b60200101906001600160f81b031916908160001a9053506000612067846002612df7565b612072906001612cdd565b90505b6001811115612106576f181899199a1a9b1b9c1cb0b131b232b360811b85600f16601081106120b457634e487b7160e01b600052603260045260246000fd5b1a60f81b8282815181106120d857634e487b7160e01b600052603260045260246000fd5b60200101906001600160f81b031916908160001a90535060049490941c936120ff81612e59565b9050612075565b5083156113bf5760405162461bcd60e51b815260206004820181905260248201527f537472696e67733a20686578206c656e67746820696e73756666696369656e746044820152606401610722565b6001600160a01b0382166121ab5760405162461bcd60e51b815260206004820181905260248201527f4552433732313a206d696e7420746f20746865207a65726f20616464726573736044820152606401610722565b6121b481611686565b156122005760405162461bcd60e51b815260206004820152601c60248201527b115490cdcc8c4e881d1bdad95b88185b1c9958591e481b5a5b9d195960221b6044820152606401610722565b6001600160a01b0382166000908152606860205260408120805460019290612229908490612cdd565b909155505060008181526067602052604080822080546001600160a01b0319166001600160a01b038616908117909155905183929060008051602061303a833981519152908290a45050565b60006001600160a01b0384163b1561237757604051630a85bd0160e11b81526001600160a01b0385169063150b7a02906122b9903390899088908890600401612b28565b602060405180830381600087803b1580156122d357600080fd5b505af1925050508015612303575060408051601f3d908101601f1916820190925261230091810190612997565b60015b61235d573d808015612331576040519150601f19603f3d011682016040523d82523d6000602084013e612336565b606091505b5080516123555760405162461bcd60e51b815260040161072290612b78565b805181602001fd5b6001600160e01b031916630a85bd0160e11b149050610ae6565b506001610ae6565b803b6123e35760405162461bcd60e51b815260206004820152602d60248201527f455243313936373a206e657720696d706c656d656e746174696f6e206973206e60448201526c1bdd08184818dbdb9d1c9858dd609a1b6064820152608401610722565b600080516020612f9383398151915280546001600160a01b0319166001600160a01b0392909216919091179055565b6060823b6124715760405162461bcd60e51b815260206004820152602660248201527f416464726573733a2064656c65676174652063616c6c20746f206e6f6e2d636f6044820152651b9d1c9858dd60d21b6064820152608401610722565b600080846001600160a01b03168460405161248c9190612a5a565b600060405180830381855af49150503d80600081146124c7576040519150601f19603f3d011682016040523d82523d6000602084013e6124cc565b606091505b509150915061160d8282604051806060016040528060278152602001612ff360279139612633565b6124fd8161237f565b6040516001600160a01b038216907fbc7cd75a20ee27fd9adebab32041f755214dbc6bffa90cc0225b39da2e5c2d3b90600090a250565b600054610100900460ff168061254d575060005460ff16155b6125695760405162461bcd60e51b815260040161072290612c3e565b600054610100900460ff161580156110d4576000805461ffff19166101011790558015610cd2576000805461ff001916905550565b600054610100900460ff16806125b7575060005460ff16155b6125d35760405162461bcd60e51b815260040161072290612c3e565b600054610100900460ff161580156125f5576000805461ffff19166101011790555b825161260890606590602086019061266c565b50815161261c90606690602085019061266c565b508015610853576000805461ff0019169055505050565b606083156126425750816113bf565b8251156126525782518084602001fd5b8160405162461bcd60e51b81526004016107229190612b65565b82805461267890612e70565b90600052602060002090601f01602090048101928261269a57600085556126e0565b82601f106126b357805160ff19168380011785556126e0565b828001600101855582156126e0579182015b828111156126e05782518255916020019190600101906126c5565b506126ec9291506126f0565b5090565b5b808211156126ec57600081556001016126f1565b80356001600160a01b038116811461271c57600080fd5b919050565b600082601f830112612731578081fd5b81356001600160401b038082111561274b5761274b612f06565b604051601f8301601f19908116603f0116810190828211818310171561277357612773612f06565b8160405283815286602085880101111561278b578485fd5b8360208701602083013792830160200193909352509392505050565b6000602082840312156127b8578081fd5b6113bf82612705565b600080604083850312156127d3578081fd5b6127dc83612705565b91506127ea60208401612705565b90509250929050565b600080600060608486031215612807578081fd5b61281084612705565b925061281e60208501612705565b9150604084013590509250925092565b60008060008060808587031215612843578081fd5b61284c85612705565b935061285a60208601612705565b92506040850135915060608501356001600160401b0381111561287b578182fd5b61288787828801612721565b91505092959194509250565b600080604083850312156128a5578182fd5b6128ae83612705565b9150602083013580151581146128c2578182fd5b809150509250929050565b600080604083850312156128df578182fd5b6128e883612705565b915060208301356001600160401b03811115612902578182fd5b61290e85828601612721565b9150509250929050565b6000806040838503121561292a578182fd5b61293383612705565b946020939093013593505050565b600060208284031215612952578081fd5b5035919050565b6000806040838503121561296b578182fd5b823591506127ea60208401612705565b60006020828403121561298c578081fd5b81356113bf81612f1c565b6000602082840312156129a8578081fd5b81516113bf81612f1c565b600080604083850312156129c5578182fd5b82356001600160401b038111156129da578283fd5b6129e685828601612721565b9250506127ea60208401612705565b600060208284031215612a06578081fd5b5051919050565b600060208284031215612a1e578081fd5b815160ff811681146113bf578182fd5b60008151808452612a46816020860160208601612e2d565b601f01601f19169290920160200192915050565b60008251612a6c818460208701612e2d565b9190910192915050565b60008351612a88818460208801612e2d565b835190830190612a9c818360208801612e2d565b01949350505050565b76020b1b1b2b9b9a1b7b73a3937b61d1030b1b1b7bab73a1604d1b815260008351612ad7816017850160208801612e2d565b7001034b99036b4b9b9b4b733903937b6329607d1b6017918401918201528351612b08816028840160208801612e2d565b01602801949350505050565b6001600160a01b0391909116815260200190565b6001600160a01b0385811682528416602082015260408101839052608060608201819052600090612b5b90830184612a2e565b9695505050505050565b6020815260006113bf6020830184612a2e565b60208082526032908201527f4552433732313a207472616e7366657220746f206e6f6e20455243373231526560408201527131b2b4bb32b91034b6b83632b6b2b73a32b960711b606082015260800190565b6020808252602c90820152600080516020612f5383398151915260408201526b19195b1959d85d1958d85b1b60a21b606082015260800190565b6020808252602c90820152600080516020612f5383398151915260408201526b6163746976652070726f787960a01b606082015260800190565b6020808252602e908201527f496e697469616c697a61626c653a20636f6e747261637420697320616c72656160408201526d191e481a5b9a5d1a585b1a5e995960921b606082015260800190565b60208082526031908201527f4552433732313a207472616e736665722063616c6c6572206973206e6f74206f6040820152701ddb995c881b9bdc88185c1c1c9bdd9959607a1b606082015260800190565b60008219821115612cf057612cf0612eda565b500190565b600082612d0457612d04612ef0565b500490565b600181815b80851115612d44578160001904821115612d2a57612d2a612eda565b80851615612d3757918102915b93841c9390800290612d0e565b509250929050565b60006113bf60ff841683600082612d6557506001610622565b81612d7257506000610622565b8160018114612d885760028114612d9257612dae565b6001915050610622565b60ff841115612da357612da3612eda565b50506001821b610622565b5060208310610133831016604e8410600b8410161715612dd1575081810a610622565b612ddb8383612d09565b8060001904821115612def57612def612eda565b029392505050565b6000816000190483118215151615612e1157612e11612eda565b500290565b600082821015612e2857612e28612eda565b500390565b60005b83811015612e48578181015183820152602001612e30565b838111156112525750506000910152565b600081612e6857612e68612eda565b506000190190565b600181811c90821680612e8457607f821691505b60208210811415612ea557634e487b7160e01b600052602260045260246000fd5b50919050565b6000600019821415612ebf57612ebf612eda565b5060010190565b600082612ed557612ed5612ef0565b500690565b634e487b7160e01b600052601160045260246000fd5b634e487b7160e01b600052601260045260246000fd5b634e487b7160e01b600052604160045260246000fd5b6001600160e01b031981168114610cd257600080fdfe9c020a0271ff5a0691d094fb7b1dc55f2be3dae219b93bc91fed04a868b758e146756e6374696f6e206d7573742062652063616c6c6564207468726f75676820189ab7a9244df0848122154315af71fe140f3db0fe014031783b0946b8c9d2e3360894a13ba1a3210667c828492db98dca3e2076cc3735a920a3ca505d382bbc68747470733a2f2f736f6d65636f6f6c7374756666736f6f7468657270656f706c6563616e67657470726572656e646572732e696f2f746f6b656e2f7b69647d416464726573733a206c6f772d6c6576656c2064656c65676174652063616c6c206661696c65649f2df0fed2c77648de5860a4cc508cd0818c85b8b8a1ab4ceeef8d981c8956a6ddf252ad1be2c89b69c2b068fc378daa952ba7f163c4a11628f55a4df523b3eff0e519adfa92b08162a7a5fb116ac5cc83e9e7105e2ec4ca98c50726b178375ca2646970667358221220e5482e352bece4e2fd2fe3f2bcc9ebef08028ca8806831909000ebeb3430c99064736f6c63430008040033",
  "linkReferences": {},
  "deployedLinkReferences": {}
}