{
  "_format": "hh-sol-artifact-1",
  "contractName": "KaoMoji",
  "sourceName": "contracts/KaoMoji.sol",
  "abi": [
    {
      "inputs": [],
      "stateMutability": "nonpayable",
      "type": "constructor"
    },
    {
      "anonymous": false,
      "inputs": [
        {
          "indexed": true,
          "internalType": "address",
          "name": "owner",
          "type": "address"
        },
        {
          "indexed": true,
          "internalType": "address",
          "name": "approved",
          "type": "address"
        },
        {
          "indexed": true,
          "internalType": "uint256",
          "name": "tokenId",
          "type": "uint256"
        }
      ],
      "name": "Approval",
      "type": "event"
    },
    {
      "anonymous": false,
      "inputs": [
        {
          "indexed": true,
          "internalType": "address",
          "name": "owner",
          "type": "address"
        },
        {
          "indexed": true,
          "internalType": "address",
          "name": "operator",
          "type": "address"
        },
        {
          "indexed": false,
          "internalType": "bool",
          "name": "approved",
          "type": "bool"
        }
      ],
      "name": "ApprovalForAll",
      "type": "event"
    },
    {
      "anonymous": false,
      "inputs": [
        {
          "indexed": true,
          "internalType": "bytes32",
          "name": "role",
          "type": "bytes32"
        },
        {
          "indexed": true,
          "internalType": "bytes32",
          "name": "previousAdminRole",
          "type": "bytes32"
        },
        {
          "indexed": true,
          "internalType": "bytes32",
          "name": "newAdminRole",
          "type": "bytes32"
        }
      ],
      "name": "RoleAdminChanged",
      "type": "event"
    },
    {
      "anonymous": false,
      "inputs": [
        {
          "indexed": true,
          "internalType": "bytes32",
          "name": "role",
          "type": "bytes32"
        },
        {
          "indexed": true,
          "internalType": "address",
          "name": "account",
          "type": "address"
        },
        {
          "indexed": true,
          "internalType": "address",
          "name": "sender",
          "type": "address"
        }
      ],
      "name": "RoleGranted",
      "type": "event"
    },
    {
      "anonymous": false,
      "inputs": [
        {
          "indexed": true,
          "internalType": "bytes32",
          "name": "role",
          "type": "bytes32"
        },
        {
          "indexed": true,
          "internalType": "address",
          "name": "account",
          "type": "address"
        },
        {
          "indexed": true,
          "internalType": "address",
          "name": "sender",
          "type": "address"
        }
      ],
      "name": "RoleRevoked",
      "type": "event"
    },
    {
      "anonymous": false,
      "inputs": [
        {
          "indexed": true,
          "internalType": "address",
          "name": "from",
          "type": "address"
        },
        {
          "indexed": true,
          "internalType": "address",
          "name": "to",
          "type": "address"
        },
        {
          "indexed": true,
          "internalType": "uint256",
          "name": "tokenId",
          "type": "uint256"
        }
      ],
      "name": "Transfer",
      "type": "event"
    },
    {
      "inputs": [],
      "name": "ADDRESS_UPDATER",
      "outputs": [
        {
          "internalType": "bytes32",
          "name": "",
          "type": "bytes32"
        }
      ],
      "stateMutability": "view",
      "type": "function"
    },
    {
      "inputs": [],
      "name": "DEFAULT_ADMIN_ROLE",
      "outputs": [
        {
          "internalType": "bytes32",
          "name": "",
          "type": "bytes32"
        }
      ],
      "stateMutability": "view",
      "type": "function"
    },
    {
      "inputs": [],
      "name": "MINTER_ROLE",
      "outputs": [
        {
          "internalType": "bytes32",
          "name": "",
          "type": "bytes32"
        }
      ],
      "stateMutability": "view",
      "type": "function"
    },
    {
      "inputs": [
        {
          "internalType": "address",
          "name": "to",
          "type": "address"
        },
        {
          "internalType": "uint256",
          "name": "tokenId",
          "type": "uint256"
        }
      ],
      "name": "approve",
      "outputs": [],
      "stateMutability": "nonpayable",
      "type": "function"
    },
    {
      "inputs": [
        {
          "internalType": "address",
          "name": "owner",
          "type": "address"
        }
      ],
      "name": "balanceOf",
      "outputs": [
        {
          "internalType": "uint256",
          "name": "",
          "type": "uint256"
        }
      ],
      "stateMutability": "view",
      "type": "function"
    },
    {
      "inputs": [
        {
          "internalType": "uint256",
          "name": "tokenId",
          "type": "uint256"
        }
      ],
      "name": "getApproved",
      "outputs": [
        {
          "internalType": "address",
          "name": "",
          "type": "address"
        }
      ],
      "stateMutability": "view",
      "type": "function"
    },
    {
      "inputs": [
        {
          "internalType": "uint256",
          "name": "id",
          "type": "uint256"
        }
      ],
      "name": "getDataOf",
      "outputs": [
        {
          "internalType": "bytes",
          "name": "",
          "type": "bytes"
        }
      ],
      "stateMutability": "view",
      "type": "function"
    },
    {
      "inputs": [
        {
          "internalType": "bytes32",
          "name": "role",
          "type": "bytes32"
        }
      ],
      "name": "getRoleAdmin",
      "outputs": [
        {
          "internalType": "bytes32",
          "name": "",
          "type": "bytes32"
        }
      ],
      "stateMutability": "view",
      "type": "function"
    },
    {
      "inputs": [
        {
          "internalType": "bytes32",
          "name": "role",
          "type": "bytes32"
        },
        {
          "internalType": "address",
          "name": "account",
          "type": "address"
        }
      ],
      "name": "grantRole",
      "outputs": [],
      "stateMutability": "nonpayable",
      "type": "function"
    },
    {
      "inputs": [
        {
          "internalType": "bytes32",
          "name": "role",
          "type": "bytes32"
        },
        {
          "internalType": "address",
          "name": "account",
          "type": "address"
        }
      ],
      "name": "hasRole",
      "outputs": [
        {
          "internalType": "bool",
          "name": "",
          "type": "bool"
        }
      ],
      "stateMutability": "view",
      "type": "function"
    },
    {
      "inputs": [
        {
          "internalType": "address",
          "name": "owner",
          "type": "address"
        },
        {
          "internalType": "address",
          "name": "operator",
          "type": "address"
        }
      ],
      "name": "isApprovedForAll",
      "outputs": [
        {
          "internalType": "bool",
          "name": "",
          "type": "bool"
        }
      ],
      "stateMutability": "view",
      "type": "function"
    },
    {
      "inputs": [
        {
          "internalType": "bytes",
          "name": "data",
          "type": "bytes"
        }
      ],
      "name": "mint",
      "outputs": [],
      "stateMutability": "nonpayable",
      "type": "function"
    },
    {
      "inputs": [],
      "name": "name",
      "outputs": [
        {
          "internalType": "string",
          "name": "",
          "type": "string"
        }
      ],
      "stateMutability": "view",
      "type": "function"
    },
    {
      "inputs": [
        {
          "internalType": "address",
          "name": "",
          "type": "address"
        },
        {
          "internalType": "address",
          "name": "",
          "type": "address"
        },
        {
          "internalType": "uint256",
          "name": "",
          "type": "uint256"
        },
        {
          "internalType": "bytes",
          "name": "",
          "type": "bytes"
        }
      ],
      "name": "onERC721Received",
      "outputs": [
        {
          "internalType": "bytes4",
          "name": "",
          "type": "bytes4"
        }
      ],
      "stateMutability": "nonpayable",
      "type": "function"
    },
    {
      "inputs": [
        {
          "internalType": "uint256",
          "name": "tokenId",
          "type": "uint256"
        }
      ],
      "name": "ownerOf",
      "outputs": [
        {
          "internalType": "address",
          "name": "",
          "type": "address"
        }
      ],
      "stateMutability": "view",
      "type": "function"
    },
    {
      "inputs": [
        {
          "internalType": "bytes32",
          "name": "role",
          "type": "bytes32"
        },
        {
          "internalType": "address",
          "name": "account",
          "type": "address"
        }
      ],
      "name": "renounceRole",
      "outputs": [],
      "stateMutability": "nonpayable",
      "type": "function"
    },
    {
      "inputs": [
        {
          "internalType": "bytes32",
          "name": "role",
          "type": "bytes32"
        },
        {
          "internalType": "address",
          "name": "account",
          "type": "address"
        }
      ],
      "name": "revokeRole",
      "outputs": [],
      "stateMutability": "nonpayable",
      "type": "function"
    },
    {
      "inputs": [
        {
          "internalType": "address",
          "name": "from",
          "type": "address"
        },
        {
          "internalType": "address",
          "name": "to",
          "type": "address"
        },
        {
          "internalType": "uint256",
          "name": "tokenId",
          "type": "uint256"
        }
      ],
      "name": "safeTransferFrom",
      "outputs": [],
      "stateMutability": "nonpayable",
      "type": "function"
    },
    {
      "inputs": [
        {
          "internalType": "address",
          "name": "from",
          "type": "address"
        },
        {
          "internalType": "address",
          "name": "to",
          "type": "address"
        },
        {
          "internalType": "uint256",
          "name": "tokenId",
          "type": "uint256"
        },
        {
          "internalType": "bytes",
          "name": "_data",
          "type": "bytes"
        }
      ],
      "name": "safeTransferFrom",
      "outputs": [],
      "stateMutability": "nonpayable",
      "type": "function"
    },
    {
      "inputs": [
        {
          "internalType": "address",
          "name": "operator",
          "type": "address"
        },
        {
          "internalType": "bool",
          "name": "approved",
          "type": "bool"
        }
      ],
      "name": "setApprovalForAll",
      "outputs": [],
      "stateMutability": "nonpayable",
      "type": "function"
    },
    {
      "inputs": [
        {
          "internalType": "address",
          "name": "auctionAddress",
          "type": "address"
        }
      ],
      "name": "setAuctionAddress",
      "outputs": [],
      "stateMutability": "nonpayable",
      "type": "function"
    },
    {
      "inputs": [
        {
          "internalType": "address",
          "name": "kaoToken",
          "type": "address"
        }
      ],
      "name": "setKaoToken",
      "outputs": [],
      "stateMutability": "nonpayable",
      "type": "function"
    },
    {
      "inputs": [
        {
          "internalType": "bytes4",
          "name": "interfaceId",
          "type": "bytes4"
        }
      ],
      "name": "supportsInterface",
      "outputs": [
        {
          "internalType": "bool",
          "name": "",
          "type": "bool"
        }
      ],
      "stateMutability": "view",
      "type": "function"
    },
    {
      "inputs": [],
      "name": "symbol",
      "outputs": [
        {
          "internalType": "string",
          "name": "",
          "type": "string"
        }
      ],
      "stateMutability": "view",
      "type": "function"
    },
    {
      "inputs": [
        {
          "internalType": "uint256",
          "name": "tokenId",
          "type": "uint256"
        }
      ],
      "name": "tokenURI",
      "outputs": [
        {
          "internalType": "string",
          "name": "",
          "type": "string"
        }
      ],
      "stateMutability": "view",
      "type": "function"
    },
    {
      "inputs": [
        {
          "internalType": "address",
          "name": "from",
          "type": "address"
        },
        {
          "internalType": "address",
          "name": "to",
          "type": "address"
        },
        {
          "internalType": "uint256",
          "name": "tokenId",
          "type": "uint256"
        }
      ],
      "name": "transferFrom",
      "outputs": [],
      "stateMutability": "nonpayable",
      "type": "function"
    }
  ],
  "bytecode": "0x60806040523480156200001157600080fd5b506040518060400160405280600781526020017f4b616f4d6f6a69000000000000000000000000000000000000000000000000008152506040518060400160405280600381526020017f4b4d4a0000000000000000000000000000000000000000000000000000000000815250816000908051906020019062000096929190620002ac565b508060019080519060200190620000af929190620002ac565b505050620000c76000801b336200013160201b60201c565b620000f97f9f2df0fed2c77648de5860a4cc508cd0818c85b8b8a1ab4ceeef8d981c8956a6336200013160201b60201c565b6200012b7ff0e519adfa92b08162a7a5fb116ac5cc83e9e7105e2ec4ca98c50726b178375c336200013160201b60201c565b620003c1565b6200014382826200014760201b60201c565b5050565b6200015982826200023960201b60201c565b620002355760016006600084815260200190815260200160002060000160008373ffffffffffffffffffffffffffffffffffffffff1673ffffffffffffffffffffffffffffffffffffffff16815260200190815260200160002060006101000a81548160ff021916908315150217905550620001da620002a460201b60201c565b73ffffffffffffffffffffffffffffffffffffffff168173ffffffffffffffffffffffffffffffffffffffff16837f2f8788117e7eff1d82e926ec794901d17c78024a50270940304540a733656f0d60405160405180910390a45b5050565b60006006600084815260200190815260200160002060000160008373ffffffffffffffffffffffffffffffffffffffff1673ffffffffffffffffffffffffffffffffffffffff16815260200190815260200160002060009054906101000a900460ff16905092915050565b600033905090565b828054620002ba906200035c565b90600052602060002090601f016020900481019282620002de57600085556200032a565b82601f10620002f957805160ff19168380011785556200032a565b828001600101855582156200032a579182015b82811115620003295782518255916020019190600101906200030c565b5b5090506200033991906200033d565b5090565b5b80821115620003585760008160009055506001016200033e565b5090565b600060028204905060018216806200037557607f821691505b602082108114156200038c576200038b62000392565b5b50919050565b7f4e487b7100000000000000000000000000000000000000000000000000000000600052602260045260246000fd5b613c4180620003d16000396000f3fe608060405234801561001057600080fd5b506004361061018e5760003560e01c806387863245116100de578063a22cb46511610097578063c87b56dd11610071578063c87b56dd146104a3578063d5391393146104d3578063d547741f146104f1578063e985e9c51461050d5761018e565b8063a22cb4651461043b578063b88d4fde14610457578063b9cab03f146104735761018e565b8063878632451461037957806391d148541461039757806393ac3638146103c7578063954730c1146103e357806395d89b41146103ff578063a217fddf1461041d5761018e565b8063248a9ca31161014b57806342842e0e1161012557806342842e0e146102e15780636352211e146102fd57806370a082311461032d5780637ba0e2e71461035d5761018e565b8063248a9ca3146102795780632f2ff15d146102a957806336568abe146102c55761018e565b806301ffc9a71461019357806306fdde03146101c3578063081812fc146101e1578063095ea7b314610211578063150b7a021461022d57806323b872dd1461025d575b600080fd5b6101ad60048036038101906101a89190612811565b61053d565b6040516101ba9190612d75565b60405180910390f35b6101cb61054f565b6040516101d89190612de8565b60405180910390f35b6101fb60048036038101906101f691906128a4565b6105e1565b6040516102089190612d0e565b60405180910390f35b61022b60048036038101906102269190612770565b610666565b005b610247600480360381019061024291906126b9565b61077e565b6040516102549190612dab565b60405180910390f35b6102776004803603810190610272919061266a565b610792565b005b610293600480360381019061028e91906127ac565b6107f2565b6040516102a09190612d90565b60405180910390f35b6102c360048036038101906102be91906127d5565b610812565b005b6102df60048036038101906102da91906127d5565b61083b565b005b6102fb60048036038101906102f6919061266a565b6108be565b005b610317600480360381019061031291906128a4565b6108de565b6040516103249190612d0e565b60405180910390f35b61034760048036038101906103429190612605565b610990565b604051610354919061300a565b60405180910390f35b61037760048036038101906103729190612863565b610a48565b005b610381610ca4565b60405161038e9190612d90565b60405180910390f35b6103b160048036038101906103ac91906127d5565b610cc8565b6040516103be9190612d75565b60405180910390f35b6103e160048036038101906103dc9190612605565b610d33565b005b6103fd60048036038101906103f89190612605565b610daa565b005b610407610e21565b6040516104149190612de8565b60405180910390f35b610425610eb3565b6040516104329190612d90565b60405180910390f35b61045560048036038101906104509190612734565b610eba565b005b610471600480360381019061046c91906126b9565b61103b565b005b61048d600480360381019061048891906128a4565b61109d565b60405161049a9190612dc6565b60405180910390f35b6104bd60048036038101906104b891906128a4565b611142565b6040516104ca9190612de8565b60405180910390f35b6104db6111e9565b6040516104e89190612d90565b60405180910390f35b61050b600480360381019061050691906127d5565b61120d565b005b6105276004803603810190610522919061262e565b611236565b6040516105349190612d75565b60405180910390f35b6000610548826112ca565b9050919050565b60606000805461055e906134e0565b80601f016020809104026020016040519081016040528092919081815260200182805461058a906134e0565b80156105d75780601f106105ac576101008083540402835291602001916105d7565b820191906000526020600020905b8154815290600101906020018083116105ba57829003601f168201915b5050505050905090565b60006105ec82611344565b61062b576040517f08c379a000000000000000000000000000000000000000000000000000000000815260040161062290612f4a565b60405180910390fd5b6004600083815260200190815260200160002060009054906101000a900473ffffffffffffffffffffffffffffffffffffffff169050919050565b6000610671826108de565b90508073ffffffffffffffffffffffffffffffffffffffff168373ffffffffffffffffffffffffffffffffffffffff1614156106e2576040517f08c379a00000000000000000000000000000000000000000000000000000000081526004016106d990612faa565b60405180910390fd5b8073ffffffffffffffffffffffffffffffffffffffff166107016113b0565b73ffffffffffffffffffffffffffffffffffffffff161480610730575061072f8161072a6113b0565b611236565b5b61076f576040517f08c379a000000000000000000000000000000000000000000000000000000000815260040161076690612eca565b60405180910390fd5b61077983836113b8565b505050565b600063150b7a0260e01b9050949350505050565b6107a361079d6113b0565b82611471565b6107e2576040517f08c379a00000000000000000000000000000000000000000000000000000000081526004016107d990612fca565b60405180910390fd5b6107ed83838361154f565b505050565b600060066000838152602001908152602001600020600101549050919050565b61081b826107f2565b61082c816108276113b0565b6117ab565b6108368383611848565b505050565b6108436113b0565b73ffffffffffffffffffffffffffffffffffffffff168173ffffffffffffffffffffffffffffffffffffffff16146108b0576040517f08c379a00000000000000000000000000000000000000000000000000000000081526004016108a790612fea565b60405180910390fd5b6108ba8282611929565b5050565b6108d98383836040518060200160405280600081525061103b565b505050565b6000806002600084815260200190815260200160002060009054906101000a900473ffffffffffffffffffffffffffffffffffffffff169050600073ffffffffffffffffffffffffffffffffffffffff168173ffffffffffffffffffffffffffffffffffffffff161415610987576040517f08c379a000000000000000000000000000000000000000000000000000000000815260040161097e90612f0a565b60405180910390fd5b80915050919050565b60008073ffffffffffffffffffffffffffffffffffffffff168273ffffffffffffffffffffffffffffffffffffffff161415610a01576040517f08c379a00000000000000000000000000000000000000000000000000000000081526004016109f890612eea565b60405180910390fd5b600360008373ffffffffffffffffffffffffffffffffffffffff1673ffffffffffffffffffffffffffffffffffffffff168152602001908152602001600020549050919050565b7f9f2df0fed2c77648de5860a4cc508cd0818c85b8b8a1ab4ceeef8d981c8956a6610a7a81610a756113b0565b6117ab565b60006008549050610a8c308285611a0b565b82600760008381526020019081526020016000209080519060200190610ab3929190612452565b50610ae0600960009054906101000a900473ffffffffffffffffffffffffffffffffffffffff16826113b8565b6000600a60009054906101000a900473ffffffffffffffffffffffffffffffffffffffff1673ffffffffffffffffffffffffffffffffffffffff1663313ce5676040518163ffffffff1660e01b815260040160206040518083038186803b158015610b4a57600080fd5b505afa158015610b5e573d6000803e3d6000fd5b505050506040513d601f19601f82011682018060405250810190610b8291906128f6565b9050600960009054906101000a900473ffffffffffffffffffffffffffffffffffffffff1673ffffffffffffffffffffffffffffffffffffffff166375e9249f833061025885600a610bd49190613207565b6001610be09190613325565b306000600a60009054906101000a900473ffffffffffffffffffffffffffffffffffffffff166040518863ffffffff1660e01b8152600401610c289796959493929190613025565b602060405180830381600087803b158015610c4257600080fd5b505af1158015610c56573d6000803e3d6000fd5b505050506040513d601f19601f82011682018060405250810190610c7a91906128cd565b50610c866000836113b8565b60086000815480929190610c9990613543565b919050555050505050565b7ff0e519adfa92b08162a7a5fb116ac5cc83e9e7105e2ec4ca98c50726b178375c81565b60006006600084815260200190815260200160002060000160008373ffffffffffffffffffffffffffffffffffffffff1673ffffffffffffffffffffffffffffffffffffffff16815260200190815260200160002060009054906101000a900460ff16905092915050565b7ff0e519adfa92b08162a7a5fb116ac5cc83e9e7105e2ec4ca98c50726b178375c610d6581610d606113b0565b6117ab565b81600960006101000a81548173ffffffffffffffffffffffffffffffffffffffff021916908373ffffffffffffffffffffffffffffffffffffffff1602179055505050565b7ff0e519adfa92b08162a7a5fb116ac5cc83e9e7105e2ec4ca98c50726b178375c610ddc81610dd76113b0565b6117ab565b81600a60006101000a81548173ffffffffffffffffffffffffffffffffffffffff021916908373ffffffffffffffffffffffffffffffffffffffff1602179055505050565b606060018054610e30906134e0565b80601f0160208091040260200160405190810160405280929190818152602001828054610e5c906134e0565b8015610ea95780601f10610e7e57610100808354040283529160200191610ea9565b820191906000526020600020905b815481529060010190602001808311610e8c57829003601f168201915b5050505050905090565b6000801b81565b610ec26113b0565b73ffffffffffffffffffffffffffffffffffffffff168273ffffffffffffffffffffffffffffffffffffffff161415610f30576040517f08c379a0000000000000000000000000000000000000000000000000000000008152600401610f2790612e8a565b60405180910390fd5b8060056000610f3d6113b0565b73ffffffffffffffffffffffffffffffffffffffff1673ffffffffffffffffffffffffffffffffffffffff16815260200190815260200160002060008473ffffffffffffffffffffffffffffffffffffffff1673ffffffffffffffffffffffffffffffffffffffff16815260200190815260200160002060006101000a81548160ff0219169083151502179055508173ffffffffffffffffffffffffffffffffffffffff16610fea6113b0565b73ffffffffffffffffffffffffffffffffffffffff167f17307eab39ab6107e8899845ad3d59bd9653f200f220920489ca2b5937696c318360405161102f9190612d75565b60405180910390a35050565b61104c6110466113b0565b83611471565b61108b576040517f08c379a000000000000000000000000000000000000000000000000000000000815260040161108290612fca565b60405180910390fd5b61109784848484611a66565b50505050565b60606007600083815260200190815260200160002080546110bd906134e0565b80601f01602080910402602001604051908101604052809291908181526020018280546110e9906134e0565b80156111365780601f1061110b57610100808354040283529160200191611136565b820191906000526020600020905b81548152906001019060200180831161111957829003601f168201915b50505050509050919050565b606061114d82611344565b61118c576040517f08c379a000000000000000000000000000000000000000000000000000000000815260040161118390612f8a565b60405180910390fd5b6000611196611ac2565b905060008151116111b657604051806020016040528060008152506111e1565b806111c084611ae2565b6040516020016111d1929190612cb0565b6040516020818303038152906040525b915050919050565b7f9f2df0fed2c77648de5860a4cc508cd0818c85b8b8a1ab4ceeef8d981c8956a681565b611216826107f2565b611227816112226113b0565b6117ab565b6112318383611929565b505050565b6000600560008473ffffffffffffffffffffffffffffffffffffffff1673ffffffffffffffffffffffffffffffffffffffff16815260200190815260200160002060008373ffffffffffffffffffffffffffffffffffffffff1673ffffffffffffffffffffffffffffffffffffffff16815260200190815260200160002060009054906101000a900460ff16905092915050565b60007f7965db0b000000000000000000000000000000000000000000000000000000007bffffffffffffffffffffffffffffffffffffffffffffffffffffffff1916827bffffffffffffffffffffffffffffffffffffffffffffffffffffffff1916148061133d575061133c82611c8f565b5b9050919050565b60008073ffffffffffffffffffffffffffffffffffffffff166002600084815260200190815260200160002060009054906101000a900473ffffffffffffffffffffffffffffffffffffffff1673ffffffffffffffffffffffffffffffffffffffff1614159050919050565b600033905090565b816004600083815260200190815260200160002060006101000a81548173ffffffffffffffffffffffffffffffffffffffff021916908373ffffffffffffffffffffffffffffffffffffffff160217905550808273ffffffffffffffffffffffffffffffffffffffff1661142b836108de565b73ffffffffffffffffffffffffffffffffffffffff167f8c5be1e5ebec7d5bd14f71427d1e84f3dd0314c0f7b2291e5b200ac8c7c3b92560405160405180910390a45050565b600061147c82611344565b6114bb576040517f08c379a00000000000000000000000000000000000000000000000000000000081526004016114b290612eaa565b60405180910390fd5b60006114c6836108de565b90508073ffffffffffffffffffffffffffffffffffffffff168473ffffffffffffffffffffffffffffffffffffffff16148061153557508373ffffffffffffffffffffffffffffffffffffffff1661151d846105e1565b73ffffffffffffffffffffffffffffffffffffffff16145b8061154657506115458185611236565b5b91505092915050565b8273ffffffffffffffffffffffffffffffffffffffff1661156f826108de565b73ffffffffffffffffffffffffffffffffffffffff16146115c5576040517f08c379a00000000000000000000000000000000000000000000000000000000081526004016115bc90612f6a565b60405180910390fd5b600073ffffffffffffffffffffffffffffffffffffffff168273ffffffffffffffffffffffffffffffffffffffff161415611635576040517f08c379a000000000000000000000000000000000000000000000000000000000815260040161162c90612e6a565b60405180910390fd5b611640838383611d71565b61164b6000826113b8565b6001600360008573ffffffffffffffffffffffffffffffffffffffff1673ffffffffffffffffffffffffffffffffffffffff168152602001908152602001600020600082825461169b919061337f565b925050819055506001600360008473ffffffffffffffffffffffffffffffffffffffff1673ffffffffffffffffffffffffffffffffffffffff16815260200190815260200160002060008282546116f2919061312d565b92505081905550816002600083815260200190815260200160002060006101000a81548173ffffffffffffffffffffffffffffffffffffffff021916908373ffffffffffffffffffffffffffffffffffffffff160217905550808273ffffffffffffffffffffffffffffffffffffffff168473ffffffffffffffffffffffffffffffffffffffff167fddf252ad1be2c89b69c2b068fc378daa952ba7f163c4a11628f55a4df523b3ef60405160405180910390a4505050565b6117b58282610cc8565b611844576117da8173ffffffffffffffffffffffffffffffffffffffff166014611d76565b6117e88360001c6020611d76565b6040516020016117f9929190612cd4565b6040516020818303038152906040526040517f08c379a000000000000000000000000000000000000000000000000000000000815260040161183b9190612de8565b60405180910390fd5b5050565b6118528282610cc8565b6119255760016006600084815260200190815260200160002060000160008373ffffffffffffffffffffffffffffffffffffffff1673ffffffffffffffffffffffffffffffffffffffff16815260200190815260200160002060006101000a81548160ff0219169083151502179055506118ca6113b0565b73ffffffffffffffffffffffffffffffffffffffff168173ffffffffffffffffffffffffffffffffffffffff16837f2f8788117e7eff1d82e926ec794901d17c78024a50270940304540a733656f0d60405160405180910390a45b5050565b6119338282610cc8565b15611a075760006006600084815260200190815260200160002060000160008373ffffffffffffffffffffffffffffffffffffffff1673ffffffffffffffffffffffffffffffffffffffff16815260200190815260200160002060006101000a81548160ff0219169083151502179055506119ac6113b0565b73ffffffffffffffffffffffffffffffffffffffff168173ffffffffffffffffffffffffffffffffffffffff16837ff6391f5c32d9c69d2a47ea670b442974b53935d1edc7fd64eb21e047a839171b60405160405180910390a45b5050565b611a158383612070565b611a22600084848461223e565b611a61576040517f08c379a0000000000000000000000000000000000000000000000000000000008152600401611a5890612e2a565b60405180910390fd5b505050565b611a7184848461154f565b611a7d8484848461223e565b611abc576040517f08c379a0000000000000000000000000000000000000000000000000000000008152600401611ab390612e2a565b60405180910390fd5b50505050565b6060604051806060016040528060408152602001613bcc60409139905090565b60606000821415611b2a576040518060400160405280600181526020017f30000000000000000000000000000000000000000000000000000000000000008152509050611c8a565b600082905060005b60008214611b5c578080611b4590613543565b915050600a82611b559190613183565b9150611b32565b60008167ffffffffffffffff811115611b9e577f4e487b7100000000000000000000000000000000000000000000000000000000600052604160045260246000fd5b6040519080825280601f01601f191660200182016040528015611bd05781602001600182028036833780820191505090505b5090505b60008514611c8357600182611be9919061337f565b9150600a85611bf8919061358c565b6030611c04919061312d565b60f81b818381518110611c40577f4e487b7100000000000000000000000000000000000000000000000000000000600052603260045260246000fd5b60200101907effffffffffffffffffffffffffffffffffffffffffffffffffffffffffffff1916908160001a905350600a85611c7c9190613183565b9450611bd4565b8093505050505b919050565b60007f80ac58cd000000000000000000000000000000000000000000000000000000007bffffffffffffffffffffffffffffffffffffffffffffffffffffffff1916827bffffffffffffffffffffffffffffffffffffffffffffffffffffffff19161480611d5a57507f5b5e139f000000000000000000000000000000000000000000000000000000007bffffffffffffffffffffffffffffffffffffffffffffffffffffffff1916827bffffffffffffffffffffffffffffffffffffffffffffffffffffffff1916145b80611d6a5750611d69826123d5565b5b9050919050565b505050565b606060006002836002611d899190613325565b611d93919061312d565b67ffffffffffffffff811115611dd2577f4e487b7100000000000000000000000000000000000000000000000000000000600052604160045260246000fd5b6040519080825280601f01601f191660200182016040528015611e045781602001600182028036833780820191505090505b5090507f300000000000000000000000000000000000000000000000000000000000000081600081518110611e62577f4e487b7100000000000000000000000000000000000000000000000000000000600052603260045260246000fd5b60200101907effffffffffffffffffffffffffffffffffffffffffffffffffffffffffffff1916908160001a9053507f780000000000000000000000000000000000000000000000000000000000000081600181518110611eec577f4e487b7100000000000000000000000000000000000000000000000000000000600052603260045260246000fd5b60200101907effffffffffffffffffffffffffffffffffffffffffffffffffffffffffffff1916908160001a90535060006001846002611f2c9190613325565b611f36919061312d565b90505b6001811115612022577f3031323334353637383961626364656600000000000000000000000000000000600f861660108110611f9e577f4e487b7100000000000000000000000000000000000000000000000000000000600052603260045260246000fd5b1a60f81b828281518110611fdb577f4e487b7100000000000000000000000000000000000000000000000000000000600052603260045260246000fd5b60200101907effffffffffffffffffffffffffffffffffffffffffffffffffffffffffffff1916908160001a905350600485901c94508061201b906134b6565b9050611f39565b5060008414612066576040517f08c379a000000000000000000000000000000000000000000000000000000000815260040161205d90612e0a565b60405180910390fd5b8091505092915050565b600073ffffffffffffffffffffffffffffffffffffffff168273ffffffffffffffffffffffffffffffffffffffff1614156120e0576040517f08c379a00000000000000000000000000000000000000000000000000000000081526004016120d790612f2a565b60405180910390fd5b6120e981611344565b15612129576040517f08c379a000000000000000000000000000000000000000000000000000000000815260040161212090612e4a565b60405180910390fd5b61213560008383611d71565b6001600360008473ffffffffffffffffffffffffffffffffffffffff1673ffffffffffffffffffffffffffffffffffffffff1681526020019081526020016000206000828254612185919061312d565b92505081905550816002600083815260200190815260200160002060006101000a81548173ffffffffffffffffffffffffffffffffffffffff021916908373ffffffffffffffffffffffffffffffffffffffff160217905550808273ffffffffffffffffffffffffffffffffffffffff16600073ffffffffffffffffffffffffffffffffffffffff167fddf252ad1be2c89b69c2b068fc378daa952ba7f163c4a11628f55a4df523b3ef60405160405180910390a45050565b600061225f8473ffffffffffffffffffffffffffffffffffffffff1661243f565b156123c8578373ffffffffffffffffffffffffffffffffffffffff1663150b7a026122886113b0565b8786866040518563ffffffff1660e01b81526004016122aa9493929190612d29565b602060405180830381600087803b1580156122c457600080fd5b505af19250505080156122f557506040513d601f19601f820116820180604052508101906122f2919061283a565b60015b612378573d8060008114612325576040519150601f19603f3d011682016040523d82523d6000602084013e61232a565b606091505b50600081511415612370576040517f08c379a000000000000000000000000000000000000000000000000000000000815260040161236790612e2a565b60405180910390fd5b805181602001fd5b63150b7a0260e01b7bffffffffffffffffffffffffffffffffffffffffffffffffffffffff1916817bffffffffffffffffffffffffffffffffffffffffffffffffffffffff1916149150506123cd565b600190505b949350505050565b60007f01ffc9a7000000000000000000000000000000000000000000000000000000007bffffffffffffffffffffffffffffffffffffffffffffffffffffffff1916827bffffffffffffffffffffffffffffffffffffffffffffffffffffffff1916149050919050565b600080823b905060008111915050919050565b82805461245e906134e0565b90600052602060002090601f01602090048101928261248057600085556124c7565b82601f1061249957805160ff19168380011785556124c7565b828001600101855582156124c7579182015b828111156124c65782518255916020019190600101906124ab565b5b5090506124d491906124d8565b5090565b5b808211156124f15760008160009055506001016124d9565b5090565b6000612508612503846130b9565b613094565b90508281526020810184848401111561252057600080fd5b61252b848285613474565b509392505050565b60008135905061254281613b41565b92915050565b60008135905061255781613b58565b92915050565b60008135905061256c81613b6f565b92915050565b60008135905061258181613b86565b92915050565b60008151905061259681613b86565b92915050565b600082601f8301126125ad57600080fd5b81356125bd8482602086016124f5565b91505092915050565b6000813590506125d581613b9d565b92915050565b6000815190506125ea81613b9d565b92915050565b6000815190506125ff81613bb4565b92915050565b60006020828403121561261757600080fd5b600061262584828501612533565b91505092915050565b6000806040838503121561264157600080fd5b600061264f85828601612533565b925050602061266085828601612533565b9150509250929050565b60008060006060848603121561267f57600080fd5b600061268d86828701612533565b935050602061269e86828701612533565b92505060406126af868287016125c6565b9150509250925092565b600080600080608085870312156126cf57600080fd5b60006126dd87828801612533565b94505060206126ee87828801612533565b93505060406126ff878288016125c6565b925050606085013567ffffffffffffffff81111561271c57600080fd5b6127288782880161259c565b91505092959194509250565b6000806040838503121561274757600080fd5b600061275585828601612533565b925050602061276685828601612548565b9150509250929050565b6000806040838503121561278357600080fd5b600061279185828601612533565b92505060206127a2858286016125c6565b9150509250929050565b6000602082840312156127be57600080fd5b60006127cc8482850161255d565b91505092915050565b600080604083850312156127e857600080fd5b60006127f68582860161255d565b925050602061280785828601612533565b9150509250929050565b60006020828403121561282357600080fd5b600061283184828501612572565b91505092915050565b60006020828403121561284c57600080fd5b600061285a84828501612587565b91505092915050565b60006020828403121561287557600080fd5b600082013567ffffffffffffffff81111561288f57600080fd5b61289b8482850161259c565b91505092915050565b6000602082840312156128b657600080fd5b60006128c4848285016125c6565b91505092915050565b6000602082840312156128df57600080fd5b60006128ed848285016125db565b91505092915050565b60006020828403121561290857600080fd5b6000612916848285016125f0565b91505092915050565b612928816133c5565b82525050565b612937816133b3565b82525050565b612946816133d7565b82525050565b612955816133e3565b82525050565b612964816133ed565b82525050565b6000612975826130ea565b61297f8185613100565b935061298f818560208601613483565b61299881613679565b840191505092915050565b6129ac81613450565b82525050565b6129bb81613462565b82525050565b60006129cc826130f5565b6129d68185613111565b93506129e6818560208601613483565b6129ef81613679565b840191505092915050565b6000612a05826130f5565b612a0f8185613122565b9350612a1f818560208601613483565b80840191505092915050565b6000612a38602083613111565b9150612a4382613697565b602082019050919050565b6000612a5b603283613111565b9150612a66826136c0565b604082019050919050565b6000612a7e601c83613111565b9150612a898261370f565b602082019050919050565b6000612aa1602483613111565b9150612aac82613738565b604082019050919050565b6000612ac4601983613111565b9150612acf82613787565b602082019050919050565b6000612ae7602c83613111565b9150612af2826137b0565b604082019050919050565b6000612b0a603883613111565b9150612b15826137ff565b604082019050919050565b6000612b2d602a83613111565b9150612b388261384e565b604082019050919050565b6000612b50602983613111565b9150612b5b8261389d565b604082019050919050565b6000612b73602083613111565b9150612b7e826138ec565b602082019050919050565b6000612b96602c83613111565b9150612ba182613915565b604082019050919050565b6000612bb9602983613111565b9150612bc482613964565b604082019050919050565b6000612bdc602f83613111565b9150612be7826139b3565b604082019050919050565b6000612bff602183613111565b9150612c0a82613a02565b604082019050919050565b6000612c22603183613111565b9150612c2d82613a51565b604082019050919050565b6000612c45601783613122565b9150612c5082613aa0565b601782019050919050565b6000612c68601183613122565b9150612c7382613ac9565b601182019050919050565b6000612c8b602f83613111565b9150612c9682613af2565b604082019050919050565b612caa81613439565b82525050565b6000612cbc82856129fa565b9150612cc882846129fa565b91508190509392505050565b6000612cdf82612c38565b9150612ceb82856129fa565b9150612cf682612c5b565b9150612d0282846129fa565b91508190509392505050565b6000602082019050612d23600083018461292e565b92915050565b6000608082019050612d3e600083018761292e565b612d4b602083018661292e565b612d586040830185612ca1565b8181036060830152612d6a818461296a565b905095945050505050565b6000602082019050612d8a600083018461293d565b92915050565b6000602082019050612da5600083018461294c565b92915050565b6000602082019050612dc0600083018461295b565b92915050565b60006020820190508181036000830152612de0818461296a565b905092915050565b60006020820190508181036000830152612e0281846129c1565b905092915050565b60006020820190508181036000830152612e2381612a2b565b9050919050565b60006020820190508181036000830152612e4381612a4e565b9050919050565b60006020820190508181036000830152612e6381612a71565b9050919050565b60006020820190508181036000830152612e8381612a94565b9050919050565b60006020820190508181036000830152612ea381612ab7565b9050919050565b60006020820190508181036000830152612ec381612ada565b9050919050565b60006020820190508181036000830152612ee381612afd565b9050919050565b60006020820190508181036000830152612f0381612b20565b9050919050565b60006020820190508181036000830152612f2381612b43565b9050919050565b60006020820190508181036000830152612f4381612b66565b9050919050565b60006020820190508181036000830152612f6381612b89565b9050919050565b60006020820190508181036000830152612f8381612bac565b9050919050565b60006020820190508181036000830152612fa381612bcf565b9050919050565b60006020820190508181036000830152612fc381612bf2565b9050919050565b60006020820190508181036000830152612fe381612c15565b9050919050565b6000602082019050818103600083015261300381612c7e565b9050919050565b600060208201905061301f6000830184612ca1565b92915050565b600060e08201905061303a600083018a612ca1565b613047602083018961292e565b61305460408301886129b2565b6130616060830187612ca1565b61306e608083018661291f565b61307b60a08301856129a3565b61308860c083018461292e565b98975050505050505050565b600061309e6130af565b90506130aa8282613512565b919050565b6000604051905090565b600067ffffffffffffffff8211156130d4576130d361364a565b5b6130dd82613679565b9050602081019050919050565b600081519050919050565b600081519050919050565b600082825260208201905092915050565b600082825260208201905092915050565b600081905092915050565b600061313882613439565b915061314383613439565b9250827fffffffffffffffffffffffffffffffffffffffffffffffffffffffffffffffff03821115613178576131776135bd565b5b828201905092915050565b600061318e82613439565b915061319983613439565b9250826131a9576131a86135ec565b5b828204905092915050565b6000808291508390505b60018511156131fe578086048111156131da576131d96135bd565b5b60018516156131e95780820291505b80810290506131f78561368a565b94506131be565b94509492505050565b600061321282613439565b915061321d83613443565b925061324a7fffffffffffffffffffffffffffffffffffffffffffffffffffffffffffffffff8484613252565b905092915050565b600082613262576001905061331e565b81613270576000905061331e565b81600181146132865760028114613290576132bf565b600191505061331e565b60ff8411156132a2576132a16135bd565b5b8360020a9150848211156132b9576132b86135bd565b5b5061331e565b5060208310610133831016604e8410600b84101617156132f45782820a9050838111156132ef576132ee6135bd565b5b61331e565b61330184848460016131b4565b92509050818404811115613318576133176135bd565b5b81810290505b9392505050565b600061333082613439565b915061333b83613439565b9250817fffffffffffffffffffffffffffffffffffffffffffffffffffffffffffffffff0483118215151615613374576133736135bd565b5b828202905092915050565b600061338a82613439565b915061339583613439565b9250828210156133a8576133a76135bd565b5b828203905092915050565b60006133be82613419565b9050919050565b60006133d082613419565b9050919050565b60008115159050919050565b6000819050919050565b60007fffffffff0000000000000000000000000000000000000000000000000000000082169050919050565b600073ffffffffffffffffffffffffffffffffffffffff82169050919050565b6000819050919050565b600060ff82169050919050565b600061345b82613443565b9050919050565b600061346d82613439565b9050919050565b82818337600083830152505050565b60005b838110156134a1578082015181840152602081019050613486565b838111156134b0576000848401525b50505050565b60006134c182613439565b915060008214156134d5576134d46135bd565b5b600182039050919050565b600060028204905060018216806134f857607f821691505b6020821081141561350c5761350b61361b565b5b50919050565b61351b82613679565b810181811067ffffffffffffffff8211171561353a5761353961364a565b5b80604052505050565b600061354e82613439565b91507fffffffffffffffffffffffffffffffffffffffffffffffffffffffffffffffff821415613581576135806135bd565b5b600182019050919050565b600061359782613439565b91506135a283613439565b9250826135b2576135b16135ec565b5b828206905092915050565b7f4e487b7100000000000000000000000000000000000000000000000000000000600052601160045260246000fd5b7f4e487b7100000000000000000000000000000000000000000000000000000000600052601260045260246000fd5b7f4e487b7100000000000000000000000000000000000000000000000000000000600052602260045260246000fd5b7f4e487b7100000000000000000000000000000000000000000000000000000000600052604160045260246000fd5b6000601f19601f8301169050919050565b60008160011c9050919050565b7f537472696e67733a20686578206c656e67746820696e73756666696369656e74600082015250565b7f4552433732313a207472616e7366657220746f206e6f6e20455243373231526560008201527f63656976657220696d706c656d656e7465720000000000000000000000000000602082015250565b7f4552433732313a20746f6b656e20616c7265616479206d696e74656400000000600082015250565b7f4552433732313a207472616e7366657220746f20746865207a65726f2061646460008201527f7265737300000000000000000000000000000000000000000000000000000000602082015250565b7f4552433732313a20617070726f766520746f2063616c6c657200000000000000600082015250565b7f4552433732313a206f70657261746f7220717565727920666f72206e6f6e657860008201527f697374656e7420746f6b656e0000000000000000000000000000000000000000602082015250565b7f4552433732313a20617070726f76652063616c6c6572206973206e6f74206f7760008201527f6e6572206e6f7220617070726f76656420666f7220616c6c0000000000000000602082015250565b7f4552433732313a2062616c616e636520717565727920666f7220746865207a6560008201527f726f206164647265737300000000000000000000000000000000000000000000602082015250565b7f4552433732313a206f776e657220717565727920666f72206e6f6e657869737460008201527f656e7420746f6b656e0000000000000000000000000000000000000000000000602082015250565b7f4552433732313a206d696e7420746f20746865207a65726f2061646472657373600082015250565b7f4552433732313a20617070726f76656420717565727920666f72206e6f6e657860008201527f697374656e7420746f6b656e0000000000000000000000000000000000000000602082015250565b7f4552433732313a207472616e73666572206f6620746f6b656e2074686174206960008201527f73206e6f74206f776e0000000000000000000000000000000000000000000000602082015250565b7f4552433732314d657461646174613a2055524920717565727920666f72206e6f60008201527f6e6578697374656e7420746f6b656e0000000000000000000000000000000000602082015250565b7f4552433732313a20617070726f76616c20746f2063757272656e74206f776e6560008201527f7200000000000000000000000000000000000000000000000000000000000000602082015250565b7f4552433732313a207472616e736665722063616c6c6572206973206e6f74206f60008201527f776e6572206e6f7220617070726f766564000000000000000000000000000000602082015250565b7f416363657373436f6e74726f6c3a206163636f756e7420000000000000000000600082015250565b7f206973206d697373696e6720726f6c6520000000000000000000000000000000600082015250565b7f416363657373436f6e74726f6c3a2063616e206f6e6c792072656e6f756e636560008201527f20726f6c657320666f722073656c660000000000000000000000000000000000602082015250565b613b4a816133b3565b8114613b5557600080fd5b50565b613b61816133d7565b8114613b6c57600080fd5b50565b613b78816133e3565b8114613b8357600080fd5b50565b613b8f816133ed565b8114613b9a57600080fd5b50565b613ba681613439565b8114613bb157600080fd5b50565b613bbd81613443565b8114613bc857600080fd5b5056fe68747470733a2f2f736f6d65636f6f6c7374756666736f6f7468657270656f706c6563616e67657470726572656e646572732e696f2f746f6b656e2f7b69647da2646970667358221220973ca37e428d4e17a8a8262d8bff6acba961a689dc8ad12289d0c4353cf9d3c764736f6c63430008040033",
  "linkReferences": {},
  "deployedLinkReferences": {}
}