{
  "_format": "hh-sol-artifact-1",
  "contractName": "KaoMoji",
  "sourceName": "contracts/KaoMoji.sol",
  "abi": [
    {
      "inputs": [],
      "stateMutability": "nonpayable",
      "type": "constructor"
    },
    {
      "anonymous": false,
      "inputs": [
        {
          "indexed": true,
          "internalType": "address",
          "name": "account",
          "type": "address"
        },
        {
          "indexed": true,
          "internalType": "address",
          "name": "operator",
          "type": "address"
        },
        {
          "indexed": false,
          "internalType": "bool",
          "name": "approved",
          "type": "bool"
        }
      ],
      "name": "ApprovalForAll",
      "type": "event"
    },
    {
      "anonymous": false,
      "inputs": [
        {
          "indexed": true,
          "internalType": "bytes32",
          "name": "role",
          "type": "bytes32"
        },
        {
          "indexed": true,
          "internalType": "bytes32",
          "name": "previousAdminRole",
          "type": "bytes32"
        },
        {
          "indexed": true,
          "internalType": "bytes32",
          "name": "newAdminRole",
          "type": "bytes32"
        }
      ],
      "name": "RoleAdminChanged",
      "type": "event"
    },
    {
      "anonymous": false,
      "inputs": [
        {
          "indexed": true,
          "internalType": "bytes32",
          "name": "role",
          "type": "bytes32"
        },
        {
          "indexed": true,
          "internalType": "address",
          "name": "account",
          "type": "address"
        },
        {
          "indexed": true,
          "internalType": "address",
          "name": "sender",
          "type": "address"
        }
      ],
      "name": "RoleGranted",
      "type": "event"
    },
    {
      "anonymous": false,
      "inputs": [
        {
          "indexed": true,
          "internalType": "bytes32",
          "name": "role",
          "type": "bytes32"
        },
        {
          "indexed": true,
          "internalType": "address",
          "name": "account",
          "type": "address"
        },
        {
          "indexed": true,
          "internalType": "address",
          "name": "sender",
          "type": "address"
        }
      ],
      "name": "RoleRevoked",
      "type": "event"
    },
    {
      "anonymous": false,
      "inputs": [
        {
          "indexed": true,
          "internalType": "address",
          "name": "operator",
          "type": "address"
        },
        {
          "indexed": true,
          "internalType": "address",
          "name": "from",
          "type": "address"
        },
        {
          "indexed": true,
          "internalType": "address",
          "name": "to",
          "type": "address"
        },
        {
          "indexed": false,
          "internalType": "uint256[]",
          "name": "ids",
          "type": "uint256[]"
        },
        {
          "indexed": false,
          "internalType": "uint256[]",
          "name": "values",
          "type": "uint256[]"
        }
      ],
      "name": "TransferBatch",
      "type": "event"
    },
    {
      "anonymous": false,
      "inputs": [
        {
          "indexed": true,
          "internalType": "address",
          "name": "operator",
          "type": "address"
        },
        {
          "indexed": true,
          "internalType": "address",
          "name": "from",
          "type": "address"
        },
        {
          "indexed": true,
          "internalType": "address",
          "name": "to",
          "type": "address"
        },
        {
          "indexed": false,
          "internalType": "uint256",
          "name": "id",
          "type": "uint256"
        },
        {
          "indexed": false,
          "internalType": "uint256",
          "name": "value",
          "type": "uint256"
        }
      ],
      "name": "TransferSingle",
      "type": "event"
    },
    {
      "anonymous": false,
      "inputs": [
        {
          "indexed": false,
          "internalType": "string",
          "name": "value",
          "type": "string"
        },
        {
          "indexed": true,
          "internalType": "uint256",
          "name": "id",
          "type": "uint256"
        }
      ],
      "name": "URI",
      "type": "event"
    },
    {
      "inputs": [],
      "name": "DEFAULT_ADMIN_ROLE",
      "outputs": [
        {
          "internalType": "bytes32",
          "name": "",
          "type": "bytes32"
        }
      ],
      "stateMutability": "view",
      "type": "function"
    },
    {
      "inputs": [],
      "name": "MINTER_ROLE",
      "outputs": [
        {
          "internalType": "bytes32",
          "name": "",
          "type": "bytes32"
        }
      ],
      "stateMutability": "view",
      "type": "function"
    },
    {
      "inputs": [],
      "name": "URI_SETTER_ROLE",
      "outputs": [
        {
          "internalType": "bytes32",
          "name": "",
          "type": "bytes32"
        }
      ],
      "stateMutability": "view",
      "type": "function"
    },
    {
      "inputs": [
        {
          "internalType": "address",
          "name": "account",
          "type": "address"
        },
        {
          "internalType": "uint256",
          "name": "id",
          "type": "uint256"
        }
      ],
      "name": "balanceOf",
      "outputs": [
        {
          "internalType": "uint256",
          "name": "",
          "type": "uint256"
        }
      ],
      "stateMutability": "view",
      "type": "function"
    },
    {
      "inputs": [
        {
          "internalType": "address[]",
          "name": "accounts",
          "type": "address[]"
        },
        {
          "internalType": "uint256[]",
          "name": "ids",
          "type": "uint256[]"
        }
      ],
      "name": "balanceOfBatch",
      "outputs": [
        {
          "internalType": "uint256[]",
          "name": "",
          "type": "uint256[]"
        }
      ],
      "stateMutability": "view",
      "type": "function"
    },
    {
      "inputs": [
        {
          "internalType": "uint256",
          "name": "id",
          "type": "uint256"
        }
      ],
      "name": "exists",
      "outputs": [
        {
          "internalType": "bool",
          "name": "",
          "type": "bool"
        }
      ],
      "stateMutability": "view",
      "type": "function"
    },
    {
      "inputs": [
        {
          "internalType": "bytes32",
          "name": "role",
          "type": "bytes32"
        }
      ],
      "name": "getRoleAdmin",
      "outputs": [
        {
          "internalType": "bytes32",
          "name": "",
          "type": "bytes32"
        }
      ],
      "stateMutability": "view",
      "type": "function"
    },
    {
      "inputs": [
        {
          "internalType": "bytes32",
          "name": "role",
          "type": "bytes32"
        },
        {
          "internalType": "address",
          "name": "account",
          "type": "address"
        }
      ],
      "name": "grantRole",
      "outputs": [],
      "stateMutability": "nonpayable",
      "type": "function"
    },
    {
      "inputs": [
        {
          "internalType": "bytes32",
          "name": "role",
          "type": "bytes32"
        },
        {
          "internalType": "address",
          "name": "account",
          "type": "address"
        }
      ],
      "name": "hasRole",
      "outputs": [
        {
          "internalType": "bool",
          "name": "",
          "type": "bool"
        }
      ],
      "stateMutability": "view",
      "type": "function"
    },
    {
      "inputs": [
        {
          "internalType": "address",
          "name": "account",
          "type": "address"
        },
        {
          "internalType": "address",
          "name": "operator",
          "type": "address"
        }
      ],
      "name": "isApprovedForAll",
      "outputs": [
        {
          "internalType": "bool",
          "name": "",
          "type": "bool"
        }
      ],
      "stateMutability": "view",
      "type": "function"
    },
    {
      "inputs": [
        {
          "internalType": "address",
          "name": "account",
          "type": "address"
        },
        {
          "internalType": "uint256",
          "name": "id",
          "type": "uint256"
        },
        {
          "internalType": "bytes",
          "name": "data",
          "type": "bytes"
        }
      ],
      "name": "mint",
      "outputs": [],
      "stateMutability": "nonpayable",
      "type": "function"
    },
    {
      "inputs": [
        {
          "internalType": "bytes32",
          "name": "role",
          "type": "bytes32"
        },
        {
          "internalType": "address",
          "name": "account",
          "type": "address"
        }
      ],
      "name": "renounceRole",
      "outputs": [],
      "stateMutability": "nonpayable",
      "type": "function"
    },
    {
      "inputs": [
        {
          "internalType": "bytes32",
          "name": "role",
          "type": "bytes32"
        },
        {
          "internalType": "address",
          "name": "account",
          "type": "address"
        }
      ],
      "name": "revokeRole",
      "outputs": [],
      "stateMutability": "nonpayable",
      "type": "function"
    },
    {
      "inputs": [
        {
          "internalType": "address",
          "name": "from",
          "type": "address"
        },
        {
          "internalType": "address",
          "name": "to",
          "type": "address"
        },
        {
          "internalType": "uint256[]",
          "name": "ids",
          "type": "uint256[]"
        },
        {
          "internalType": "uint256[]",
          "name": "amounts",
          "type": "uint256[]"
        },
        {
          "internalType": "bytes",
          "name": "data",
          "type": "bytes"
        }
      ],
      "name": "safeBatchTransferFrom",
      "outputs": [],
      "stateMutability": "nonpayable",
      "type": "function"
    },
    {
      "inputs": [
        {
          "internalType": "address",
          "name": "from",
          "type": "address"
        },
        {
          "internalType": "address",
          "name": "to",
          "type": "address"
        },
        {
          "internalType": "uint256",
          "name": "id",
          "type": "uint256"
        },
        {
          "internalType": "uint256",
          "name": "amount",
          "type": "uint256"
        },
        {
          "internalType": "bytes",
          "name": "data",
          "type": "bytes"
        }
      ],
      "name": "safeTransferFrom",
      "outputs": [],
      "stateMutability": "nonpayable",
      "type": "function"
    },
    {
      "inputs": [
        {
          "internalType": "address",
          "name": "operator",
          "type": "address"
        },
        {
          "internalType": "bool",
          "name": "approved",
          "type": "bool"
        }
      ],
      "name": "setApprovalForAll",
      "outputs": [],
      "stateMutability": "nonpayable",
      "type": "function"
    },
    {
      "inputs": [
        {
          "internalType": "string",
          "name": "newuri",
          "type": "string"
        }
      ],
      "name": "setURI",
      "outputs": [],
      "stateMutability": "nonpayable",
      "type": "function"
    },
    {
      "inputs": [
        {
          "internalType": "bytes4",
          "name": "interfaceId",
          "type": "bytes4"
        }
      ],
      "name": "supportsInterface",
      "outputs": [
        {
          "internalType": "bool",
          "name": "",
          "type": "bool"
        }
      ],
      "stateMutability": "view",
      "type": "function"
    },
    {
      "inputs": [
        {
          "internalType": "uint256",
          "name": "id",
          "type": "uint256"
        }
      ],
      "name": "totalSupply",
      "outputs": [
        {
          "internalType": "uint256",
          "name": "",
          "type": "uint256"
        }
      ],
      "stateMutability": "view",
      "type": "function"
    },
    {
      "inputs": [
        {
          "internalType": "uint256",
          "name": "",
          "type": "uint256"
        }
      ],
      "name": "uri",
      "outputs": [
        {
          "internalType": "string",
          "name": "",
          "type": "string"
        }
      ],
      "stateMutability": "view",
      "type": "function"
    }
  ],
  "bytecode": "0x60806040523480156200001157600080fd5b506040518060400160405280601e81526020017f68747470733a2f2f6b616f2e66696e616e63652f746f6b656e2f7b69647d00008152506200005981620000d960201b60201c565b506200006f6000801b33620000f560201b60201c565b620000a17f7804d923f43a17d325d77e781528e0793b2edd9890ab45fc64efd7b4b427744c33620000f560201b60201c565b620000d37f9f2df0fed2c77648de5860a4cc508cd0818c85b8b8a1ab4ceeef8d981c8956a633620000f560201b60201c565b62000385565b8060029080519060200190620000f192919062000270565b5050565b6200010782826200010b60201b60201c565b5050565b6200011d8282620001fd60201b60201c565b620001f95760016004600084815260200190815260200160002060000160008373ffffffffffffffffffffffffffffffffffffffff1673ffffffffffffffffffffffffffffffffffffffff16815260200190815260200160002060006101000a81548160ff0219169083151502179055506200019e6200026860201b60201c565b73ffffffffffffffffffffffffffffffffffffffff168173ffffffffffffffffffffffffffffffffffffffff16837f2f8788117e7eff1d82e926ec794901d17c78024a50270940304540a733656f0d60405160405180910390a45b5050565b60006004600084815260200190815260200160002060000160008373ffffffffffffffffffffffffffffffffffffffff1673ffffffffffffffffffffffffffffffffffffffff16815260200190815260200160002060009054906101000a900460ff16905092915050565b600033905090565b8280546200027e9062000320565b90600052602060002090601f016020900481019282620002a25760008555620002ee565b82601f10620002bd57805160ff1916838001178555620002ee565b82800160010185558215620002ee579182015b82811115620002ed578251825591602001919060010190620002d0565b5b509050620002fd919062000301565b5090565b5b808211156200031c57600081600090555060010162000302565b5090565b600060028204905060018216806200033957607f821691505b6020821081141562000350576200034f62000356565b5b50919050565b7f4e487b7100000000000000000000000000000000000000000000000000000000600052602260045260246000fd5b61394080620003956000396000f3fe608060405234801561001057600080fd5b506004361061012b5760003560e01c80637f345710116100ad578063bd85b03911610071578063bd85b03914610364578063d539139314610394578063d547741f146103b2578063e985e9c5146103ce578063f242432a146103fe5761012b565b80637f345710146102c057806391d14854146102de57806394d008ef1461030e578063a217fddf1461032a578063a22cb465146103485761012b565b80632eb2c2d6116100f45780632eb2c2d61461020c5780632f2ff15d1461022857806336568abe146102445780634e1273f4146102605780634f558e79146102905761012b565b8062fdd58e1461013057806301ffc9a71461016057806302fe5305146101905780630e89341c146101ac578063248a9ca3146101dc575b600080fd5b61014a600480360381019061014591906125c6565b61041a565b6040516101579190612ef7565b60405180910390f35b61017a6004803603810190610175919061273a565b6104e3565b6040516101879190612cdf565b60405180910390f35b6101aa60048036038101906101a5919061278c565b6104f5565b005b6101c660048036038101906101c191906127cd565b610534565b6040516101d39190612d15565b60405180910390f35b6101f660048036038101906101f191906126d5565b6105c8565b6040516102039190612cfa565b60405180910390f35b6102266004803603810190610221919061243c565b6105e8565b005b610242600480360381019061023d91906126fe565b610689565b005b61025e600480360381019061025991906126fe565b6106b2565b005b61027a60048036038101906102759190612669565b610735565b6040516102879190612c86565b60405180910390f35b6102aa60048036038101906102a591906127cd565b6108e6565b6040516102b79190612cdf565b60405180910390f35b6102c86108fa565b6040516102d59190612cfa565b60405180910390f35b6102f860048036038101906102f391906126fe565b61091e565b6040516103059190612cdf565b60405180910390f35b61032860048036038101906103239190612602565b610989565b005b610332610a17565b60405161033f9190612cfa565b60405180910390f35b610362600480360381019061035d919061258a565b610a1e565b005b61037e600480360381019061037991906127cd565b610b9f565b60405161038b9190612ef7565b60405180910390f35b61039c610bbc565b6040516103a99190612cfa565b60405180910390f35b6103cc60048036038101906103c791906126fe565b610be0565b005b6103e860048036038101906103e39190612400565b610c09565b6040516103f59190612cdf565b60405180910390f35b610418600480360381019061041391906124fb565b610c9d565b005b60008073ffffffffffffffffffffffffffffffffffffffff168373ffffffffffffffffffffffffffffffffffffffff16141561048b576040517f08c379a000000000000000000000000000000000000000000000000000000000815260040161048290612db7565b60405180910390fd5b60008083815260200190815260200160002060008473ffffffffffffffffffffffffffffffffffffffff1673ffffffffffffffffffffffffffffffffffffffff16815260200190815260200160002054905092915050565b60006104ee82610d3e565b9050919050565b7f7804d923f43a17d325d77e781528e0793b2edd9890ab45fc64efd7b4b427744c61052781610522610db8565b610dc0565b61053082610e5d565b5050565b60606002805461054390613230565b80601f016020809104026020016040519081016040528092919081815260200182805461056f90613230565b80156105bc5780601f10610591576101008083540402835291602001916105bc565b820191906000526020600020905b81548152906001019060200180831161059f57829003601f168201915b50505050509050919050565b600060046000838152602001908152602001600020600101549050919050565b6105f0610db8565b73ffffffffffffffffffffffffffffffffffffffff168573ffffffffffffffffffffffffffffffffffffffff161480610636575061063585610630610db8565b610c09565b5b610675576040517f08c379a000000000000000000000000000000000000000000000000000000000815260040161066c90612e17565b60405180910390fd5b6106828585858585610e77565b5050505050565b610692826105c8565b6106a38161069e610db8565b610dc0565b6106ad83836111d7565b505050565b6106ba610db8565b73ffffffffffffffffffffffffffffffffffffffff168173ffffffffffffffffffffffffffffffffffffffff1614610727576040517f08c379a000000000000000000000000000000000000000000000000000000000815260040161071e90612ed7565b60405180910390fd5b61073182826112b8565b5050565b6060815183511461077b576040517f08c379a000000000000000000000000000000000000000000000000000000000815260040161077290612e77565b60405180910390fd5b6000835167ffffffffffffffff8111156107be577f4e487b7100000000000000000000000000000000000000000000000000000000600052604160045260246000fd5b6040519080825280602002602001820160405280156107ec5781602001602082028036833780820191505090505b50905060005b84518110156108db57610885858281518110610837577f4e487b7100000000000000000000000000000000000000000000000000000000600052603260045260246000fd5b6020026020010151858381518110610878577f4e487b7100000000000000000000000000000000000000000000000000000000600052603260045260246000fd5b602002602001015161041a565b8282815181106108be577f4e487b7100000000000000000000000000000000000000000000000000000000600052603260045260246000fd5b602002602001018181525050806108d490613293565b90506107f2565b508091505092915050565b6000806108f283610b9f565b119050919050565b7f7804d923f43a17d325d77e781528e0793b2edd9890ab45fc64efd7b4b427744c81565b60006004600084815260200190815260200160002060000160008373ffffffffffffffffffffffffffffffffffffffff1673ffffffffffffffffffffffffffffffffffffffff16815260200190815260200160002060009054906101000a900460ff16905092915050565b7f9f2df0fed2c77648de5860a4cc508cd0818c85b8b8a1ab4ceeef8d981c8956a66109bb816109b6610db8565b610dc0565b6109c4836108e6565b15610a04576040517f08c379a00000000000000000000000000000000000000000000000000000000081526004016109fb90612d97565b60405180910390fd5b610a11848460018561139a565b50505050565b6000801b81565b8173ffffffffffffffffffffffffffffffffffffffff16610a3d610db8565b73ffffffffffffffffffffffffffffffffffffffff161415610a94576040517f08c379a0000000000000000000000000000000000000000000000000000000008152600401610a8b90612e57565b60405180910390fd5b8060016000610aa1610db8565b73ffffffffffffffffffffffffffffffffffffffff1673ffffffffffffffffffffffffffffffffffffffff16815260200190815260200160002060008473ffffffffffffffffffffffffffffffffffffffff1673ffffffffffffffffffffffffffffffffffffffff16815260200190815260200160002060006101000a81548160ff0219169083151502179055508173ffffffffffffffffffffffffffffffffffffffff16610b4e610db8565b73ffffffffffffffffffffffffffffffffffffffff167f17307eab39ab6107e8899845ad3d59bd9653f200f220920489ca2b5937696c3183604051610b939190612cdf565b60405180910390a35050565b600060036000838152602001908152602001600020549050919050565b7f9f2df0fed2c77648de5860a4cc508cd0818c85b8b8a1ab4ceeef8d981c8956a681565b610be9826105c8565b610bfa81610bf5610db8565b610dc0565b610c0483836112b8565b505050565b6000600160008473ffffffffffffffffffffffffffffffffffffffff1673ffffffffffffffffffffffffffffffffffffffff16815260200190815260200160002060008373ffffffffffffffffffffffffffffffffffffffff1673ffffffffffffffffffffffffffffffffffffffff16815260200190815260200160002060009054906101000a900460ff16905092915050565b610ca5610db8565b73ffffffffffffffffffffffffffffffffffffffff168573ffffffffffffffffffffffffffffffffffffffff161480610ceb5750610cea85610ce5610db8565b610c09565b5b610d2a576040517f08c379a0000000000000000000000000000000000000000000000000000000008152600401610d2190612dd7565b60405180910390fd5b610d3785858585856113d6565b5050505050565b60007f7965db0b000000000000000000000000000000000000000000000000000000007bffffffffffffffffffffffffffffffffffffffffffffffffffffffff1916827bffffffffffffffffffffffffffffffffffffffffffffffffffffffff19161480610db15750610db082611658565b5b9050919050565b600033905090565b610dca828261091e565b610e5957610def8173ffffffffffffffffffffffffffffffffffffffff16601461173a565b610dfd8360001c602061173a565b604051602001610e0e929190612b8a565b6040516020818303038152906040526040517f08c379a0000000000000000000000000000000000000000000000000000000008152600401610e509190612d15565b60405180910390fd5b5050565b8060029080519060200190610e739291906120e3565b5050565b8151835114610ebb576040517f08c379a0000000000000000000000000000000000000000000000000000000008152600401610eb290612e97565b60405180910390fd5b600073ffffffffffffffffffffffffffffffffffffffff168473ffffffffffffffffffffffffffffffffffffffff161415610f2b576040517f08c379a0000000000000000000000000000000000000000000000000000000008152600401610f2290612df7565b60405180910390fd5b6000610f35610db8565b9050610f45818787878787611a34565b60005b8451811015611142576000858281518110610f8c577f4e487b7100000000000000000000000000000000000000000000000000000000600052603260045260246000fd5b602002602001015190506000858381518110610fd1577f4e487b7100000000000000000000000000000000000000000000000000000000600052603260045260246000fd5b60200260200101519050600080600084815260200190815260200160002060008b73ffffffffffffffffffffffffffffffffffffffff1673ffffffffffffffffffffffffffffffffffffffff16815260200190815260200160002054905081811015611072576040517f08c379a000000000000000000000000000000000000000000000000000000000815260040161106990612e37565b60405180910390fd5b81810360008085815260200190815260200160002060008c73ffffffffffffffffffffffffffffffffffffffff1673ffffffffffffffffffffffffffffffffffffffff168152602001908152602001600020819055508160008085815260200190815260200160002060008b73ffffffffffffffffffffffffffffffffffffffff1673ffffffffffffffffffffffffffffffffffffffff16815260200190815260200160002060008282546111279190613096565b925050819055505050508061113b90613293565b9050610f48565b508473ffffffffffffffffffffffffffffffffffffffff168673ffffffffffffffffffffffffffffffffffffffff168273ffffffffffffffffffffffffffffffffffffffff167f4a39dc06d4c0dbc64b70af90fd698a233a518aa5d07e595d983b8c0526c8f7fb87876040516111b9929190612ca8565b60405180910390a46111cf818787878787611a3c565b505050505050565b6111e1828261091e565b6112b45760016004600084815260200190815260200160002060000160008373ffffffffffffffffffffffffffffffffffffffff1673ffffffffffffffffffffffffffffffffffffffff16815260200190815260200160002060006101000a81548160ff021916908315150217905550611259610db8565b73ffffffffffffffffffffffffffffffffffffffff168173ffffffffffffffffffffffffffffffffffffffff16837f2f8788117e7eff1d82e926ec794901d17c78024a50270940304540a733656f0d60405160405180910390a45b5050565b6112c2828261091e565b156113965760006004600084815260200190815260200160002060000160008373ffffffffffffffffffffffffffffffffffffffff1673ffffffffffffffffffffffffffffffffffffffff16815260200190815260200160002060006101000a81548160ff02191690831515021790555061133b610db8565b73ffffffffffffffffffffffffffffffffffffffff168173ffffffffffffffffffffffffffffffffffffffff16837ff6391f5c32d9c69d2a47ea670b442974b53935d1edc7fd64eb21e047a839171b60405160405180910390a45b5050565b6113a684848484611c23565b816003600085815260200190815260200160002060008282546113c99190613096565b9250508190555050505050565b600073ffffffffffffffffffffffffffffffffffffffff168473ffffffffffffffffffffffffffffffffffffffff161415611446576040517f08c379a000000000000000000000000000000000000000000000000000000000815260040161143d90612df7565b60405180910390fd5b6000611450610db8565b905061147081878761146188611db9565b61146a88611db9565b87611a34565b600080600086815260200190815260200160002060008873ffffffffffffffffffffffffffffffffffffffff1673ffffffffffffffffffffffffffffffffffffffff16815260200190815260200160002054905083811015611507576040517f08c379a00000000000000000000000000000000000000000000000000000000081526004016114fe90612e37565b60405180910390fd5b83810360008087815260200190815260200160002060008973ffffffffffffffffffffffffffffffffffffffff1673ffffffffffffffffffffffffffffffffffffffff168152602001908152602001600020819055508360008087815260200190815260200160002060008873ffffffffffffffffffffffffffffffffffffffff1673ffffffffffffffffffffffffffffffffffffffff16815260200190815260200160002060008282546115bc9190613096565b925050819055508573ffffffffffffffffffffffffffffffffffffffff168773ffffffffffffffffffffffffffffffffffffffff168373ffffffffffffffffffffffffffffffffffffffff167fc3d58168c5ae7397731d063d5bbf3d657854427343f4c083240f7aacaa2d0f628888604051611639929190612f12565b60405180910390a461164f828888888888611e7f565b50505050505050565b60007fd9b67a26000000000000000000000000000000000000000000000000000000007bffffffffffffffffffffffffffffffffffffffffffffffffffffffff1916827bffffffffffffffffffffffffffffffffffffffffffffffffffffffff1916148061172357507f0e89341c000000000000000000000000000000000000000000000000000000007bffffffffffffffffffffffffffffffffffffffffffffffffffffffff1916827bffffffffffffffffffffffffffffffffffffffffffffffffffffffff1916145b80611733575061173282612066565b5b9050919050565b60606000600283600261174d91906130ec565b6117579190613096565b67ffffffffffffffff811115611796577f4e487b7100000000000000000000000000000000000000000000000000000000600052604160045260246000fd5b6040519080825280601f01601f1916602001820160405280156117c85781602001600182028036833780820191505090505b5090507f300000000000000000000000000000000000000000000000000000000000000081600081518110611826577f4e487b7100000000000000000000000000000000000000000000000000000000600052603260045260246000fd5b60200101907effffffffffffffffffffffffffffffffffffffffffffffffffffffffffffff1916908160001a9053507f7800000000000000000000000000000000000000000000000000000000000000816001815181106118b0577f4e487b7100000000000000000000000000000000000000000000000000000000600052603260045260246000fd5b60200101907effffffffffffffffffffffffffffffffffffffffffffffffffffffffffffff1916908160001a905350600060018460026118f091906130ec565b6118fa9190613096565b90505b60018111156119e6577f3031323334353637383961626364656600000000000000000000000000000000600f861660108110611962577f4e487b7100000000000000000000000000000000000000000000000000000000600052603260045260246000fd5b1a60f81b82828151811061199f577f4e487b7100000000000000000000000000000000000000000000000000000000600052603260045260246000fd5b60200101907effffffffffffffffffffffffffffffffffffffffffffffffffffffffffffff1916908160001a905350600485901c9450806119df90613206565b90506118fd565b5060008414611a2a576040517f08c379a0000000000000000000000000000000000000000000000000000000008152600401611a2190612d57565b60405180910390fd5b8091505092915050565b505050505050565b611a5b8473ffffffffffffffffffffffffffffffffffffffff166120d0565b15611c1b578373ffffffffffffffffffffffffffffffffffffffff1663bc197c8187878686866040518663ffffffff1660e01b8152600401611aa1959493929190612bc4565b602060405180830381600087803b158015611abb57600080fd5b505af1925050508015611aec57506040513d601f19601f82011682018060405250810190611ae99190612763565b60015b611b9257611af8613369565b806308c379a01415611b555750611b0d613801565b80611b185750611b57565b806040517f08c379a0000000000000000000000000000000000000000000000000000000008152600401611b4c9190612d15565b60405180910390fd5b505b6040517f08c379a0000000000000000000000000000000000000000000000000000000008152600401611b8990612d37565b60405180910390fd5b63bc197c8160e01b7bffffffffffffffffffffffffffffffffffffffffffffffffffffffff1916817bffffffffffffffffffffffffffffffffffffffffffffffffffffffff191614611c19576040517f08c379a0000000000000000000000000000000000000000000000000000000008152600401611c1090612d77565b60405180910390fd5b505b505050505050565b600073ffffffffffffffffffffffffffffffffffffffff168473ffffffffffffffffffffffffffffffffffffffff161415611c93576040517f08c379a0000000000000000000000000000000000000000000000000000000008152600401611c8a90612eb7565b60405180910390fd5b6000611c9d610db8565b9050611cbe81600087611caf88611db9565b611cb888611db9565b87611a34565b8260008086815260200190815260200160002060008773ffffffffffffffffffffffffffffffffffffffff1673ffffffffffffffffffffffffffffffffffffffff1681526020019081526020016000206000828254611d1d9190613096565b925050819055508473ffffffffffffffffffffffffffffffffffffffff16600073ffffffffffffffffffffffffffffffffffffffff168273ffffffffffffffffffffffffffffffffffffffff167fc3d58168c5ae7397731d063d5bbf3d657854427343f4c083240f7aacaa2d0f628787604051611d9b929190612f12565b60405180910390a4611db281600087878787611e7f565b5050505050565b60606000600167ffffffffffffffff811115611dfe577f4e487b7100000000000000000000000000000000000000000000000000000000600052604160045260246000fd5b604051908082528060200260200182016040528015611e2c5781602001602082028036833780820191505090505b5090508281600081518110611e6a577f4e487b7100000000000000000000000000000000000000000000000000000000600052603260045260246000fd5b60200260200101818152505080915050919050565b611e9e8473ffffffffffffffffffffffffffffffffffffffff166120d0565b1561205e578373ffffffffffffffffffffffffffffffffffffffff1663f23a6e6187878686866040518663ffffffff1660e01b8152600401611ee4959493929190612c2c565b602060405180830381600087803b158015611efe57600080fd5b505af1925050508015611f2f57506040513d601f19601f82011682018060405250810190611f2c9190612763565b60015b611fd557611f3b613369565b806308c379a01415611f985750611f50613801565b80611f5b5750611f9a565b806040517f08c379a0000000000000000000000000000000000000000000000000000000008152600401611f8f9190612d15565b60405180910390fd5b505b6040517f08c379a0000000000000000000000000000000000000000000000000000000008152600401611fcc90612d37565b60405180910390fd5b63f23a6e6160e01b7bffffffffffffffffffffffffffffffffffffffffffffffffffffffff1916817bffffffffffffffffffffffffffffffffffffffffffffffffffffffff19161461205c576040517f08c379a000000000000000000000000000000000000000000000000000000000815260040161205390612d77565b60405180910390fd5b505b505050505050565b60007f01ffc9a7000000000000000000000000000000000000000000000000000000007bffffffffffffffffffffffffffffffffffffffffffffffffffffffff1916827bffffffffffffffffffffffffffffffffffffffffffffffffffffffff1916149050919050565b600080823b905060008111915050919050565b8280546120ef90613230565b90600052602060002090601f0160209004810192826121115760008555612158565b82601f1061212a57805160ff1916838001178555612158565b82800160010185558215612158579182015b8281111561215757825182559160200191906001019061213c565b5b5090506121659190612169565b5090565b5b8082111561218257600081600090555060010161216a565b5090565b600061219961219484612f60565b612f3b565b905080838252602082019050828560208602820111156121b857600080fd5b60005b858110156121e857816121ce88826122da565b8452602084019350602083019250506001810190506121bb565b5050509392505050565b600061220561220084612f8c565b612f3b565b9050808382526020820190508285602086028201111561222457600080fd5b60005b85811015612254578161223a88826123eb565b845260208401935060208301925050600181019050612227565b5050509392505050565b600061227161226c84612fb8565b612f3b565b90508281526020810184848401111561228957600080fd5b6122948482856131c4565b509392505050565b60006122af6122aa84612fe9565b612f3b565b9050828152602081018484840111156122c757600080fd5b6122d28482856131c4565b509392505050565b6000813590506122e981613897565b92915050565b600082601f83011261230057600080fd5b8135612310848260208601612186565b91505092915050565b600082601f83011261232a57600080fd5b813561233a8482602086016121f2565b91505092915050565b600081359050612352816138ae565b92915050565b600081359050612367816138c5565b92915050565b60008135905061237c816138dc565b92915050565b600081519050612391816138dc565b92915050565b600082601f8301126123a857600080fd5b81356123b884826020860161225e565b91505092915050565b600082601f8301126123d257600080fd5b81356123e284826020860161229c565b91505092915050565b6000813590506123fa816138f3565b92915050565b6000806040838503121561241357600080fd5b6000612421858286016122da565b9250506020612432858286016122da565b9150509250929050565b600080600080600060a0868803121561245457600080fd5b6000612462888289016122da565b9550506020612473888289016122da565b945050604086013567ffffffffffffffff81111561249057600080fd5b61249c88828901612319565b935050606086013567ffffffffffffffff8111156124b957600080fd5b6124c588828901612319565b925050608086013567ffffffffffffffff8111156124e257600080fd5b6124ee88828901612397565b9150509295509295909350565b600080600080600060a0868803121561251357600080fd5b6000612521888289016122da565b9550506020612532888289016122da565b9450506040612543888289016123eb565b9350506060612554888289016123eb565b925050608086013567ffffffffffffffff81111561257157600080fd5b61257d88828901612397565b9150509295509295909350565b6000806040838503121561259d57600080fd5b60006125ab858286016122da565b92505060206125bc85828601612343565b9150509250929050565b600080604083850312156125d957600080fd5b60006125e7858286016122da565b92505060206125f8858286016123eb565b9150509250929050565b60008060006060848603121561261757600080fd5b6000612625868287016122da565b9350506020612636868287016123eb565b925050604084013567ffffffffffffffff81111561265357600080fd5b61265f86828701612397565b9150509250925092565b6000806040838503121561267c57600080fd5b600083013567ffffffffffffffff81111561269657600080fd5b6126a2858286016122ef565b925050602083013567ffffffffffffffff8111156126bf57600080fd5b6126cb85828601612319565b9150509250929050565b6000602082840312156126e757600080fd5b60006126f584828501612358565b91505092915050565b6000806040838503121561271157600080fd5b600061271f85828601612358565b9250506020612730858286016122da565b9150509250929050565b60006020828403121561274c57600080fd5b600061275a8482850161236d565b91505092915050565b60006020828403121561277557600080fd5b600061278384828501612382565b91505092915050565b60006020828403121561279e57600080fd5b600082013567ffffffffffffffff8111156127b857600080fd5b6127c4848285016123c1565b91505092915050565b6000602082840312156127df57600080fd5b60006127ed848285016123eb565b91505092915050565b60006128028383612b6c565b60208301905092915050565b61281781613146565b82525050565b60006128288261302a565b6128328185613058565b935061283d8361301a565b8060005b8381101561286e57815161285588826127f6565b97506128608361304b565b925050600181019050612841565b5085935050505092915050565b61288481613158565b82525050565b61289381613164565b82525050565b60006128a482613035565b6128ae8185613069565b93506128be8185602086016131d3565b6128c78161338b565b840191505092915050565b60006128dd82613040565b6128e7818561307a565b93506128f78185602086016131d3565b6129008161338b565b840191505092915050565b600061291682613040565b612920818561308b565b93506129308185602086016131d3565b80840191505092915050565b600061294960348361307a565b9150612954826133a9565b604082019050919050565b600061296c60208361307a565b9150612977826133f8565b602082019050919050565b600061298f60288361307a565b915061299a82613421565b604082019050919050565b60006129b2600e8361307a565b91506129bd82613470565b602082019050919050565b60006129d5602b8361307a565b91506129e082613499565b604082019050919050565b60006129f860298361307a565b9150612a03826134e8565b604082019050919050565b6000612a1b60258361307a565b9150612a2682613537565b604082019050919050565b6000612a3e60328361307a565b9150612a4982613586565b604082019050919050565b6000612a61602a8361307a565b9150612a6c826135d5565b604082019050919050565b6000612a8460178361308b565b9150612a8f82613624565b601782019050919050565b6000612aa760298361307a565b9150612ab28261364d565b604082019050919050565b6000612aca60298361307a565b9150612ad58261369c565b604082019050919050565b6000612aed60288361307a565b9150612af8826136eb565b604082019050919050565b6000612b1060218361307a565b9150612b1b8261373a565b604082019050919050565b6000612b3360118361308b565b9150612b3e82613789565b601182019050919050565b6000612b56602f8361307a565b9150612b61826137b2565b604082019050919050565b612b75816131ba565b82525050565b612b84816131ba565b82525050565b6000612b9582612a77565b9150612ba1828561290b565b9150612bac82612b26565b9150612bb8828461290b565b91508190509392505050565b600060a082019050612bd9600083018861280e565b612be6602083018761280e565b8181036040830152612bf8818661281d565b90508181036060830152612c0c818561281d565b90508181036080830152612c208184612899565b90509695505050505050565b600060a082019050612c41600083018861280e565b612c4e602083018761280e565b612c5b6040830186612b7b565b612c686060830185612b7b565b8181036080830152612c7a8184612899565b90509695505050505050565b60006020820190508181036000830152612ca0818461281d565b905092915050565b60006040820190508181036000830152612cc2818561281d565b90508181036020830152612cd6818461281d565b90509392505050565b6000602082019050612cf4600083018461287b565b92915050565b6000602082019050612d0f600083018461288a565b92915050565b60006020820190508181036000830152612d2f81846128d2565b905092915050565b60006020820190508181036000830152612d508161293c565b9050919050565b60006020820190508181036000830152612d708161295f565b9050919050565b60006020820190508181036000830152612d9081612982565b9050919050565b60006020820190508181036000830152612db0816129a5565b9050919050565b60006020820190508181036000830152612dd0816129c8565b9050919050565b60006020820190508181036000830152612df0816129eb565b9050919050565b60006020820190508181036000830152612e1081612a0e565b9050919050565b60006020820190508181036000830152612e3081612a31565b9050919050565b60006020820190508181036000830152612e5081612a54565b9050919050565b60006020820190508181036000830152612e7081612a9a565b9050919050565b60006020820190508181036000830152612e9081612abd565b9050919050565b60006020820190508181036000830152612eb081612ae0565b9050919050565b60006020820190508181036000830152612ed081612b03565b9050919050565b60006020820190508181036000830152612ef081612b49565b9050919050565b6000602082019050612f0c6000830184612b7b565b92915050565b6000604082019050612f276000830185612b7b565b612f346020830184612b7b565b9392505050565b6000612f45612f56565b9050612f518282613262565b919050565b6000604051905090565b600067ffffffffffffffff821115612f7b57612f7a61333a565b5b602082029050602081019050919050565b600067ffffffffffffffff821115612fa757612fa661333a565b5b602082029050602081019050919050565b600067ffffffffffffffff821115612fd357612fd261333a565b5b612fdc8261338b565b9050602081019050919050565b600067ffffffffffffffff8211156130045761300361333a565b5b61300d8261338b565b9050602081019050919050565b6000819050602082019050919050565b600081519050919050565b600081519050919050565b600081519050919050565b6000602082019050919050565b600082825260208201905092915050565b600082825260208201905092915050565b600082825260208201905092915050565b600081905092915050565b60006130a1826131ba565b91506130ac836131ba565b9250827fffffffffffffffffffffffffffffffffffffffffffffffffffffffffffffffff038211156130e1576130e06132dc565b5b828201905092915050565b60006130f7826131ba565b9150613102836131ba565b9250817fffffffffffffffffffffffffffffffffffffffffffffffffffffffffffffffff048311821515161561313b5761313a6132dc565b5b828202905092915050565b60006131518261319a565b9050919050565b60008115159050919050565b6000819050919050565b60007fffffffff0000000000000000000000000000000000000000000000000000000082169050919050565b600073ffffffffffffffffffffffffffffffffffffffff82169050919050565b6000819050919050565b82818337600083830152505050565b60005b838110156131f15780820151818401526020810190506131d6565b83811115613200576000848401525b50505050565b6000613211826131ba565b91506000821415613225576132246132dc565b5b600182039050919050565b6000600282049050600182168061324857607f821691505b6020821081141561325c5761325b61330b565b5b50919050565b61326b8261338b565b810181811067ffffffffffffffff8211171561328a5761328961333a565b5b80604052505050565b600061329e826131ba565b91507fffffffffffffffffffffffffffffffffffffffffffffffffffffffffffffffff8214156132d1576132d06132dc565b5b600182019050919050565b7f4e487b7100000000000000000000000000000000000000000000000000000000600052601160045260246000fd5b7f4e487b7100000000000000000000000000000000000000000000000000000000600052602260045260246000fd5b7f4e487b7100000000000000000000000000000000000000000000000000000000600052604160045260246000fd5b600060033d11156133885760046000803e61338560005161339c565b90505b90565b6000601f19601f8301169050919050565b60008160e01c9050919050565b7f455243313135353a207472616e7366657220746f206e6f6e204552433131353560008201527f526563656976657220696d706c656d656e746572000000000000000000000000602082015250565b7f537472696e67733a20686578206c656e67746820696e73756666696369656e74600082015250565b7f455243313135353a204552433131353552656365697665722072656a6563746560008201527f6420746f6b656e73000000000000000000000000000000000000000000000000602082015250565b7f416c7265616479206d696e746564000000000000000000000000000000000000600082015250565b7f455243313135353a2062616c616e636520717565727920666f7220746865207a60008201527f65726f2061646472657373000000000000000000000000000000000000000000602082015250565b7f455243313135353a2063616c6c6572206973206e6f74206f776e6572206e6f7260008201527f20617070726f7665640000000000000000000000000000000000000000000000602082015250565b7f455243313135353a207472616e7366657220746f20746865207a65726f20616460008201527f6472657373000000000000000000000000000000000000000000000000000000602082015250565b7f455243313135353a207472616e736665722063616c6c6572206973206e6f742060008201527f6f776e6572206e6f7220617070726f7665640000000000000000000000000000602082015250565b7f455243313135353a20696e73756666696369656e742062616c616e636520666f60008201527f72207472616e7366657200000000000000000000000000000000000000000000602082015250565b7f416363657373436f6e74726f6c3a206163636f756e7420000000000000000000600082015250565b7f455243313135353a2073657474696e6720617070726f76616c2073746174757360008201527f20666f722073656c660000000000000000000000000000000000000000000000602082015250565b7f455243313135353a206163636f756e747320616e6420696473206c656e67746860008201527f206d69736d617463680000000000000000000000000000000000000000000000602082015250565b7f455243313135353a2069647320616e6420616d6f756e7473206c656e6774682060008201527f6d69736d61746368000000000000000000000000000000000000000000000000602082015250565b7f455243313135353a206d696e7420746f20746865207a65726f2061646472657360008201527f7300000000000000000000000000000000000000000000000000000000000000602082015250565b7f206973206d697373696e6720726f6c6520000000000000000000000000000000600082015250565b7f416363657373436f6e74726f6c3a2063616e206f6e6c792072656e6f756e636560008201527f20726f6c657320666f722073656c660000000000000000000000000000000000602082015250565b600060443d101561381157613894565b613819612f56565b60043d036004823e80513d602482011167ffffffffffffffff82111715613841575050613894565b808201805167ffffffffffffffff81111561385f5750505050613894565b80602083010160043d03850181111561387c575050505050613894565b61388b82602001850186613262565b82955050505050505b90565b6138a081613146565b81146138ab57600080fd5b50565b6138b781613158565b81146138c257600080fd5b50565b6138ce81613164565b81146138d957600080fd5b50565b6138e58161316e565b81146138f057600080fd5b50565b6138fc816131ba565b811461390757600080fd5b5056fea2646970667358221220b196c20cb7c78163fb7d97bdf17c6de77a28cae865988a28271d8bde548ed1d264736f6c63430008040033",
  "linkReferences": {},
  "deployedLinkReferences": {}
}