{
  "_format": "hh-sol-artifact-1",
  "contractName": "KaoMoji",
  "sourceName": "contracts/KaoMoji.sol",
  "abi": [
    {
      "inputs": [],
      "stateMutability": "nonpayable",
      "type": "constructor"
    },
    {
      "anonymous": false,
      "inputs": [
        {
          "indexed": false,
          "internalType": "address",
          "name": "previousAdmin",
          "type": "address"
        },
        {
          "indexed": false,
          "internalType": "address",
          "name": "newAdmin",
          "type": "address"
        }
      ],
      "name": "AdminChanged",
      "type": "event"
    },
    {
      "anonymous": false,
      "inputs": [
        {
          "indexed": true,
          "internalType": "address",
          "name": "owner",
          "type": "address"
        },
        {
          "indexed": true,
          "internalType": "address",
          "name": "approved",
          "type": "address"
        },
        {
          "indexed": true,
          "internalType": "uint256",
          "name": "tokenId",
          "type": "uint256"
        }
      ],
      "name": "Approval",
      "type": "event"
    },
    {
      "anonymous": false,
      "inputs": [
        {
          "indexed": true,
          "internalType": "address",
          "name": "owner",
          "type": "address"
        },
        {
          "indexed": true,
          "internalType": "address",
          "name": "operator",
          "type": "address"
        },
        {
          "indexed": false,
          "internalType": "bool",
          "name": "approved",
          "type": "bool"
        }
      ],
      "name": "ApprovalForAll",
      "type": "event"
    },
    {
      "anonymous": false,
      "inputs": [
        {
          "indexed": true,
          "internalType": "address",
          "name": "beacon",
          "type": "address"
        }
      ],
      "name": "BeaconUpgraded",
      "type": "event"
    },
    {
      "anonymous": false,
      "inputs": [
        {
          "indexed": true,
          "internalType": "bytes32",
          "name": "role",
          "type": "bytes32"
        },
        {
          "indexed": true,
          "internalType": "bytes32",
          "name": "previousAdminRole",
          "type": "bytes32"
        },
        {
          "indexed": true,
          "internalType": "bytes32",
          "name": "newAdminRole",
          "type": "bytes32"
        }
      ],
      "name": "RoleAdminChanged",
      "type": "event"
    },
    {
      "anonymous": false,
      "inputs": [
        {
          "indexed": true,
          "internalType": "bytes32",
          "name": "role",
          "type": "bytes32"
        },
        {
          "indexed": true,
          "internalType": "address",
          "name": "account",
          "type": "address"
        },
        {
          "indexed": true,
          "internalType": "address",
          "name": "sender",
          "type": "address"
        }
      ],
      "name": "RoleGranted",
      "type": "event"
    },
    {
      "anonymous": false,
      "inputs": [
        {
          "indexed": true,
          "internalType": "bytes32",
          "name": "role",
          "type": "bytes32"
        },
        {
          "indexed": true,
          "internalType": "address",
          "name": "account",
          "type": "address"
        },
        {
          "indexed": true,
          "internalType": "address",
          "name": "sender",
          "type": "address"
        }
      ],
      "name": "RoleRevoked",
      "type": "event"
    },
    {
      "anonymous": false,
      "inputs": [
        {
          "indexed": true,
          "internalType": "address",
          "name": "from",
          "type": "address"
        },
        {
          "indexed": true,
          "internalType": "address",
          "name": "to",
          "type": "address"
        },
        {
          "indexed": true,
          "internalType": "uint256",
          "name": "tokenId",
          "type": "uint256"
        }
      ],
      "name": "Transfer",
      "type": "event"
    },
    {
      "anonymous": false,
      "inputs": [
        {
          "indexed": true,
          "internalType": "address",
          "name": "implementation",
          "type": "address"
        }
      ],
      "name": "Upgraded",
      "type": "event"
    },
    {
      "inputs": [],
      "name": "ADDRESS_UPDATER",
      "outputs": [
        {
          "internalType": "bytes32",
          "name": "",
          "type": "bytes32"
        }
      ],
      "stateMutability": "view",
      "type": "function"
    },
    {
      "inputs": [],
      "name": "DEFAULT_ADMIN_ROLE",
      "outputs": [
        {
          "internalType": "bytes32",
          "name": "",
          "type": "bytes32"
        }
      ],
      "stateMutability": "view",
      "type": "function"
    },
    {
      "inputs": [],
      "name": "MINTER_ROLE",
      "outputs": [
        {
          "internalType": "bytes32",
          "name": "",
          "type": "bytes32"
        }
      ],
      "stateMutability": "view",
      "type": "function"
    },
    {
      "inputs": [],
      "name": "UPGRADER_ROLE",
      "outputs": [
        {
          "internalType": "bytes32",
          "name": "",
          "type": "bytes32"
        }
      ],
      "stateMutability": "view",
      "type": "function"
    },
    {
      "inputs": [
        {
          "internalType": "address",
          "name": "to",
          "type": "address"
        },
        {
          "internalType": "uint256",
          "name": "tokenId",
          "type": "uint256"
        }
      ],
      "name": "approve",
      "outputs": [],
      "stateMutability": "nonpayable",
      "type": "function"
    },
    {
      "inputs": [
        {
          "internalType": "address",
          "name": "owner",
          "type": "address"
        }
      ],
      "name": "balanceOf",
      "outputs": [
        {
          "internalType": "uint256",
          "name": "",
          "type": "uint256"
        }
      ],
      "stateMutability": "view",
      "type": "function"
    },
    {
      "inputs": [
        {
          "internalType": "uint256",
          "name": "tokenId",
          "type": "uint256"
        }
      ],
      "name": "getApproved",
      "outputs": [
        {
          "internalType": "address",
          "name": "",
          "type": "address"
        }
      ],
      "stateMutability": "view",
      "type": "function"
    },
    {
      "inputs": [
        {
          "internalType": "uint256",
          "name": "id",
          "type": "uint256"
        }
      ],
      "name": "getDataOf",
      "outputs": [
        {
          "internalType": "bytes",
          "name": "",
          "type": "bytes"
        }
      ],
      "stateMutability": "view",
      "type": "function"
    },
    {
      "inputs": [
        {
          "internalType": "bytes32",
          "name": "role",
          "type": "bytes32"
        }
      ],
      "name": "getRoleAdmin",
      "outputs": [
        {
          "internalType": "bytes32",
          "name": "",
          "type": "bytes32"
        }
      ],
      "stateMutability": "view",
      "type": "function"
    },
    {
      "inputs": [
        {
          "internalType": "bytes32",
          "name": "role",
          "type": "bytes32"
        },
        {
          "internalType": "address",
          "name": "account",
          "type": "address"
        }
      ],
      "name": "grantRole",
      "outputs": [],
      "stateMutability": "nonpayable",
      "type": "function"
    },
    {
      "inputs": [
        {
          "internalType": "bytes32",
          "name": "role",
          "type": "bytes32"
        },
        {
          "internalType": "address",
          "name": "account",
          "type": "address"
        }
      ],
      "name": "hasRole",
      "outputs": [
        {
          "internalType": "bool",
          "name": "",
          "type": "bool"
        }
      ],
      "stateMutability": "view",
      "type": "function"
    },
    {
      "inputs": [],
      "name": "initialize",
      "outputs": [],
      "stateMutability": "nonpayable",
      "type": "function"
    },
    {
      "inputs": [
        {
          "internalType": "address",
          "name": "owner",
          "type": "address"
        },
        {
          "internalType": "address",
          "name": "operator",
          "type": "address"
        }
      ],
      "name": "isApprovedForAll",
      "outputs": [
        {
          "internalType": "bool",
          "name": "",
          "type": "bool"
        }
      ],
      "stateMutability": "view",
      "type": "function"
    },
    {
      "inputs": [
        {
          "internalType": "bytes",
          "name": "data",
          "type": "bytes"
        }
      ],
      "name": "mint",
      "outputs": [],
      "stateMutability": "nonpayable",
      "type": "function"
    },
    {
      "inputs": [],
      "name": "name",
      "outputs": [
        {
          "internalType": "string",
          "name": "",
          "type": "string"
        }
      ],
      "stateMutability": "view",
      "type": "function"
    },
    {
      "inputs": [
        {
          "internalType": "address",
          "name": "",
          "type": "address"
        },
        {
          "internalType": "address",
          "name": "",
          "type": "address"
        },
        {
          "internalType": "uint256",
          "name": "",
          "type": "uint256"
        },
        {
          "internalType": "bytes",
          "name": "",
          "type": "bytes"
        }
      ],
      "name": "onERC721Received",
      "outputs": [
        {
          "internalType": "bytes4",
          "name": "",
          "type": "bytes4"
        }
      ],
      "stateMutability": "nonpayable",
      "type": "function"
    },
    {
      "inputs": [
        {
          "internalType": "uint256",
          "name": "tokenId",
          "type": "uint256"
        }
      ],
      "name": "ownerOf",
      "outputs": [
        {
          "internalType": "address",
          "name": "",
          "type": "address"
        }
      ],
      "stateMutability": "view",
      "type": "function"
    },
    {
      "inputs": [
        {
          "internalType": "bytes32",
          "name": "role",
          "type": "bytes32"
        },
        {
          "internalType": "address",
          "name": "account",
          "type": "address"
        }
      ],
      "name": "renounceRole",
      "outputs": [],
      "stateMutability": "nonpayable",
      "type": "function"
    },
    {
      "inputs": [
        {
          "internalType": "bytes32",
          "name": "role",
          "type": "bytes32"
        },
        {
          "internalType": "address",
          "name": "account",
          "type": "address"
        }
      ],
      "name": "revokeRole",
      "outputs": [],
      "stateMutability": "nonpayable",
      "type": "function"
    },
    {
      "inputs": [
        {
          "internalType": "address",
          "name": "from",
          "type": "address"
        },
        {
          "internalType": "address",
          "name": "to",
          "type": "address"
        },
        {
          "internalType": "uint256",
          "name": "tokenId",
          "type": "uint256"
        }
      ],
      "name": "safeTransferFrom",
      "outputs": [],
      "stateMutability": "nonpayable",
      "type": "function"
    },
    {
      "inputs": [
        {
          "internalType": "address",
          "name": "from",
          "type": "address"
        },
        {
          "internalType": "address",
          "name": "to",
          "type": "address"
        },
        {
          "internalType": "uint256",
          "name": "tokenId",
          "type": "uint256"
        },
        {
          "internalType": "bytes",
          "name": "_data",
          "type": "bytes"
        }
      ],
      "name": "safeTransferFrom",
      "outputs": [],
      "stateMutability": "nonpayable",
      "type": "function"
    },
    {
      "inputs": [
        {
          "internalType": "address",
          "name": "operator",
          "type": "address"
        },
        {
          "internalType": "bool",
          "name": "approved",
          "type": "bool"
        }
      ],
      "name": "setApprovalForAll",
      "outputs": [],
      "stateMutability": "nonpayable",
      "type": "function"
    },
    {
      "inputs": [
        {
          "internalType": "address",
          "name": "auctionAddress",
          "type": "address"
        }
      ],
      "name": "setAuctionAddress",
      "outputs": [],
      "stateMutability": "nonpayable",
      "type": "function"
    },
    {
      "inputs": [
        {
          "internalType": "address",
          "name": "kaoToken",
          "type": "address"
        }
      ],
      "name": "setKaoToken",
      "outputs": [],
      "stateMutability": "nonpayable",
      "type": "function"
    },
    {
      "inputs": [
        {
          "internalType": "bytes4",
          "name": "interfaceId",
          "type": "bytes4"
        }
      ],
      "name": "supportsInterface",
      "outputs": [
        {
          "internalType": "bool",
          "name": "",
          "type": "bool"
        }
      ],
      "stateMutability": "view",
      "type": "function"
    },
    {
      "inputs": [],
      "name": "symbol",
      "outputs": [
        {
          "internalType": "string",
          "name": "",
          "type": "string"
        }
      ],
      "stateMutability": "view",
      "type": "function"
    },
    {
      "inputs": [
        {
          "internalType": "uint256",
          "name": "tokenId",
          "type": "uint256"
        }
      ],
      "name": "tokenURI",
      "outputs": [
        {
          "internalType": "string",
          "name": "",
          "type": "string"
        }
      ],
      "stateMutability": "view",
      "type": "function"
    },
    {
      "inputs": [
        {
          "internalType": "address",
          "name": "from",
          "type": "address"
        },
        {
          "internalType": "address",
          "name": "to",
          "type": "address"
        },
        {
          "internalType": "uint256",
          "name": "tokenId",
          "type": "uint256"
        }
      ],
      "name": "transferFrom",
      "outputs": [],
      "stateMutability": "nonpayable",
      "type": "function"
    },
    {
      "inputs": [
        {
          "internalType": "address",
          "name": "newImplementation",
          "type": "address"
        }
      ],
      "name": "upgradeTo",
      "outputs": [],
      "stateMutability": "nonpayable",
      "type": "function"
    },
    {
      "inputs": [
        {
          "internalType": "address",
          "name": "newImplementation",
          "type": "address"
        },
        {
          "internalType": "bytes",
          "name": "data",
          "type": "bytes"
        }
      ],
      "name": "upgradeToAndCall",
      "outputs": [],
      "stateMutability": "payable",
      "type": "function"
    }
  ],
  "bytecode": "0x60a06040523060601b60805234801561001757600080fd5b50600054610100900460ff1680610031575060005460ff16155b6100985760405162461bcd60e51b815260206004820152602e60248201527f496e697469616c697a61626c653a20636f6e747261637420697320616c72656160448201526d191e481a5b9a5d1a585b1a5e995960921b606482015260840160405180910390fd5b600054610100900460ff161580156100ba576000805461ffff19166101011790555b80156100cc576000805461ff00191690555b5060805160601c612b926200010160003960008181610885015281816108c50152818161096901526109a90152612b926000f3fe60806040526004361061015d5760003560e01c806301ffc9a71461016257806306fdde0314610197578063081812fc146101b9578063095ea7b3146101e6578063150b7a021461020857806323b872dd14610241578063248a9ca3146102615780632f2ff15d1461028f57806336568abe146102af5780633659cfe6146102cf57806342842e0e146102ef5780634f1ef2861461030f5780636352211e1461032257806370a08231146103425780637ba0e2e7146103625780638129fc1c14610382578063878632451461039757806391d14854146103b957806393ac3638146103d9578063954730c1146103f957806395d89b4114610419578063a217fddf1461042e578063a22cb46514610443578063b88d4fde14610463578063b9cab03f14610483578063c87b56dd146104a3578063d5391393146104c3578063d547741f146104e5578063e985e9c514610505578063f72c0d8b14610525575b600080fd5b34801561016e57600080fd5b5061018261017d36600461248e565b610547565b60405190151581526020015b60405180910390f35b3480156101a357600080fd5b506101ac610558565b60405161018e9190612668565b3480156101c557600080fd5b506101d96101d4366004612454565b6105ea565b60405161018e9190612617565b3480156101f257600080fd5b5061020661020136600461242b565b610677565b005b34801561021457600080fd5b50610228610223366004612341565b610788565b6040516001600160e01b0319909116815260200161018e565b34801561024d57600080fd5b5061020661025c366004612306565b610799565b34801561026d57600080fd5b5061028161027c366004612454565b6107ca565b60405190815260200161018e565b34801561029b57600080fd5b506102066102aa36600461246c565b6107df565b3480156102bb57600080fd5b506102066102ca36600461246c565b6107fc565b3480156102db57600080fd5b506102066102ea3660046122ba565b61087a565b3480156102fb57600080fd5b5061020661030a366004612306565b610943565b61020661031d3660046123e0565b61095e565b34801561032e57600080fd5b506101d961033d366004612454565b610a14565b34801561034e57600080fd5b5061028161035d3660046122ba565b610a8b565b34801561036e57600080fd5b5061020661037d3660046124c6565b610b12565b34801561038e57600080fd5b50610206610cec565b3480156103a357600080fd5b50610281600080516020612b3d83398151915281565b3480156103c557600080fd5b506101826103d436600461246c565b610dfe565b3480156103e557600080fd5b506102066103f43660046122ba565b610e29565b34801561040557600080fd5b506102066104143660046122ba565b610e66565b34801561042557600080fd5b506101ac610ea3565b34801561043a57600080fd5b50610281600081565b34801561044f57600080fd5b5061020661045e3660046123a6565b610eb2565b34801561046f57600080fd5b5061020661047e366004612341565b610f73565b34801561048f57600080fd5b506101ac61049e366004612454565b610fab565b3480156104af57600080fd5b506101ac6104be366004612454565b61104e565b3480156104cf57600080fd5b50610281600080516020612afd83398151915281565b3480156104f157600080fd5b5061020661050036600461246c565b611119565b34801561051157600080fd5b506101826105203660046122d4565b611136565b34801561053157600080fd5b50610281600080516020612a5683398151915281565b600061055282611164565b92915050565b60606065805461056790612973565b80601f016020809104026020016040519081016040528092919081815260200182805461059390612973565b80156105e05780601f106105b5576101008083540402835291602001916105e0565b820191906000526020600020905b8154815290600101906020018083116105c357829003601f168201915b5050505050905090565b60006105f582611189565b61065b5760405162461bcd60e51b815260206004820152602c60248201527f4552433732313a20617070726f76656420717565727920666f72206e6f6e657860448201526b34b9ba32b73a103a37b5b2b760a11b60648201526084015b60405180910390fd5b506000908152606960205260409020546001600160a01b031690565b600061068282610a14565b9050806001600160a01b0316836001600160a01b031614156106f05760405162461bcd60e51b815260206004820152602160248201527f4552433732313a20617070726f76616c20746f2063757272656e74206f776e656044820152603960f91b6064820152608401610652565b336001600160a01b038216148061070c575061070c8133611136565b6107795760405162461bcd60e51b815260206004820152603860248201527f4552433732313a20617070726f76652063616c6c6572206973206e6f74206f776044820152771b995c881b9bdc88185c1c1c9bdd995908199bdc88185b1b60421b6064820152608401610652565b61078383836111a6565b505050565b630a85bd0160e11b5b949350505050565b6107a33382611214565b6107bf5760405162461bcd60e51b81526004016106529061278f565b6107838383836112d6565b600090815260fb602052604090206001015490565b6107e8826107ca565b6107f28133611464565b61078383836114c8565b6001600160a01b038116331461086c5760405162461bcd60e51b815260206004820152602f60248201527f416363657373436f6e74726f6c3a2063616e206f6e6c792072656e6f756e636560448201526e103937b632b9903337b91039b2b63360891b6064820152608401610652565b610876828261154e565b5050565b306001600160a01b037f00000000000000000000000000000000000000000000000000000000000000001614156108c35760405162461bcd60e51b8152600401610652906126cd565b7f00000000000000000000000000000000000000000000000000000000000000006001600160a01b03166108f56115b5565b6001600160a01b03161461091b5760405162461bcd60e51b815260040161065290612707565b610924816115d1565b60408051600080825260208201909252610940918391906115ea565b50565b61078383838360405180602001604052806000815250610f73565b306001600160a01b037f00000000000000000000000000000000000000000000000000000000000000001614156109a75760405162461bcd60e51b8152600401610652906126cd565b7f00000000000000000000000000000000000000000000000000000000000000006001600160a01b03166109d96115b5565b6001600160a01b0316146109ff5760405162461bcd60e51b815260040161065290612707565b610a08826115d1565b610876828260016115ea565b6000818152606760205260408120546001600160a01b0316806105525760405162461bcd60e51b815260206004820152602960248201527f4552433732313a206f776e657220717565727920666f72206e6f6e657869737460448201526832b73a103a37b5b2b760b91b6064820152608401610652565b60006001600160a01b038216610af65760405162461bcd60e51b815260206004820152602a60248201527f4552433732313a2062616c616e636520717565727920666f7220746865207a65604482015269726f206164647265737360b01b6064820152608401610652565b506001600160a01b031660009081526068602052604090205490565b600080516020612afd833981519152610b2b8133611464565b61012e54610b3a308285611731565b600081815261012d602090815260409091208451610b5a9286019061217f565b5061012f54610b72906001600160a01b0316826111a6565b610130546040805163313ce56760e01b815290516000926001600160a01b03169163313ce567916004808301926020929190829003018186803b158015610bb857600080fd5b505afa158015610bcc573d6000803e3d6000fd5b505050506040513d601f19601f82011682018060405250810190610bf09190612510565b61012f549091506001600160a01b03166375e9249f8330603c610c1486600a61284f565b610c1f9060016128fa565b6101305460405160e087901b6001600160e01b031916815260048101959095526001600160a01b03938416602486015260448501929092526064840152306084840152600060a48401521660c482015260e401602060405180830381600087803b158015610c8c57600080fd5b505af1158015610ca0573d6000803e3d6000fd5b505050506040513d601f19601f82011682018060405250810190610cc491906124f8565b50610cd06000836111a6565b61012e8054906000610ce1836129ae565b919050555050505050565b600054610100900460ff1680610d05575060005460ff16155b610d215760405162461bcd60e51b815260040161065290612741565b600054610100900460ff16158015610d43576000805461ffff19166101011790555b610d87604051806040016040528060078152602001664b616f4d6f6a6960c81b8152506040518060400160405280600381526020016225a6a560e91b815250611764565b610d8f6117eb565b610d9761185a565b610da26000336118b8565b610dba600080516020612afd833981519152336118b8565b610dd2600080516020612b3d833981519152336118b8565b610dea600080516020612a56833981519152336118b8565b8015610940576000805461ff001916905550565b600091825260fb602090815260408084206001600160a01b0393909316845291905290205460ff1690565b600080516020612b3d833981519152610e428133611464565b5061012f80546001600160a01b0319166001600160a01b0392909216919091179055565b600080516020612b3d833981519152610e7f8133611464565b5061013080546001600160a01b0319166001600160a01b0392909216919091179055565b60606066805461056790612973565b6001600160a01b038216331415610f075760405162461bcd60e51b815260206004820152601960248201527822a9219b99189d1030b8383937bb32903a379031b0b63632b960391b6044820152606401610652565b336000818152606a602090815260408083206001600160a01b03871680855290835292819020805460ff191686151590811790915590519081529192917f17307eab39ab6107e8899845ad3d59bd9653f200f220920489ca2b5937696c31910160405180910390a35050565b610f7d3383611214565b610f995760405162461bcd60e51b81526004016106529061278f565b610fa5848484846118c2565b50505050565b600081815261012d60205260409020805460609190610fc990612973565b80601f0160208091040260200160405190810160405280929190818152602001828054610ff590612973565b80156110425780601f1061101757610100808354040283529160200191611042565b820191906000526020600020905b81548152906001019060200180831161102557829003601f168201915b50505050509050919050565b606061105982611189565b6110bd5760405162461bcd60e51b815260206004820152602f60248201527f4552433732314d657461646174613a2055524920717565727920666f72206e6f60448201526e3732bc34b9ba32b73a103a37b5b2b760891b6064820152608401610652565b60006110c76118f5565b905060008151116110e75760405180602001604052806000815250611112565b806110f184611915565b604051602001611102929190612579565b6040516020818303038152906040525b9392505050565b611122826107ca565b61112c8133611464565b610783838361154e565b6001600160a01b039182166000908152606a6020908152604080832093909416825291909152205460ff1690565b60006001600160e01b03198216637965db0b60e01b1480610552575061055282611a2e565b6000908152606760205260409020546001600160a01b0316151590565b600081815260696020526040902080546001600160a01b0319166001600160a01b03841690811790915581906111db82610a14565b6001600160a01b03167f8c5be1e5ebec7d5bd14f71427d1e84f3dd0314c0f7b2291e5b200ac8c7c3b92560405160405180910390a45050565b600061121f82611189565b6112805760405162461bcd60e51b815260206004820152602c60248201527f4552433732313a206f70657261746f7220717565727920666f72206e6f6e657860448201526b34b9ba32b73a103a37b5b2b760a11b6064820152608401610652565b600061128b83610a14565b9050806001600160a01b0316846001600160a01b031614806112c65750836001600160a01b03166112bb846105ea565b6001600160a01b0316145b8061079157506107918185611136565b826001600160a01b03166112e982610a14565b6001600160a01b0316146113515760405162461bcd60e51b815260206004820152602960248201527f4552433732313a207472616e73666572206f6620746f6b656e2074686174206960448201526839903737ba1037bbb760b91b6064820152608401610652565b6001600160a01b0382166113b35760405162461bcd60e51b8152602060048201526024808201527f4552433732313a207472616e7366657220746f20746865207a65726f206164646044820152637265737360e01b6064820152608401610652565b6113be6000826111a6565b6001600160a01b03831660009081526068602052604081208054600192906113e7908490612919565b90915550506001600160a01b03821660009081526068602052604081208054600192906114159084906127e0565b909155505060008181526067602052604080822080546001600160a01b0319166001600160a01b038681169182179092559151849391871691600080516020612b1d83398151915291a4505050565b61146e8282610dfe565b61087657611486816001600160a01b03166014611a7e565b611491836020611a7e565b6040516020016114a29291906125a8565b60408051601f198184030181529082905262461bcd60e51b825261065291600401612668565b6114d28282610dfe565b61087657600082815260fb602090815260408083206001600160a01b03851684529091529020805460ff1916600117905561150a3390565b6001600160a01b0316816001600160a01b0316837f2f8788117e7eff1d82e926ec794901d17c78024a50270940304540a733656f0d60405160405180910390a45050565b6115588282610dfe565b1561087657600082815260fb602090815260408083206001600160a01b0385168085529252808320805460ff1916905551339285917ff6391f5c32d9c69d2a47ea670b442974b53935d1edc7fd64eb21e047a839171b9190a45050565b600080516020612a76833981519152546001600160a01b031690565b600080516020612a568339815191526108768133611464565b60006115f46115b5565b90506115ff84611c5f565b60008351118061160c5750815b1561161d5761161b8484611cf2565b505b7f4910fdfa16fed3260ed0e7147f7cc6da11a60208b5b9406d12a635614ffd9143805460ff1661172a57805460ff19166001178155604051611698908690611669908590602401612617565b60408051601f198184030181529190526020810180516001600160e01b0316631b2ce7f360e11b179052611cf2565b50805460ff191681556116a96115b5565b6001600160a01b0316826001600160a01b0316146117215760405162461bcd60e51b815260206004820152602f60248201527f45524331393637557067726164653a207570677261646520627265616b73206660448201526e75727468657220757067726164657360881b6064820152608401610652565b61172a85611ddd565b5050505050565b61173b8383611e1d565b6117486000848484611f3d565b6107835760405162461bcd60e51b81526004016106529061267b565b600054610100900460ff168061177d575060005460ff16155b6117995760405162461bcd60e51b815260040161065290612741565b600054610100900460ff161580156117bb576000805461ffff19166101011790555b6117c3612047565b6117cb612047565b6117d583836120b1565b8015610783576000805461ff0019169055505050565b600054610100900460ff1680611804575060005460ff16155b6118205760405162461bcd60e51b815260040161065290612741565b600054610100900460ff16158015611842576000805461ffff19166101011790555b61184a612047565b611852612047565b610dea612047565b600054610100900460ff1680611873575060005460ff16155b61188f5760405162461bcd60e51b815260040161065290612741565b600054610100900460ff1615801561184a576000805461ffff1916610101179055611852612047565b61087682826114c8565b6118cd8484846112d6565b6118d984848484611f3d565b610fa55760405162461bcd60e51b81526004016106529061267b565b6060604051806060016040528060408152602001612a9660409139905090565b6060816119395750506040805180820190915260018152600360fc1b602082015290565b8160005b8115611963578061194d816129ae565b915061195c9050600a836127f8565b915061193d565b6000816001600160401b0381111561198b57634e487b7160e01b600052604160045260246000fd5b6040519080825280601f01601f1916602001820160405280156119b5576020820181803683370190505b5090505b8415610791576119ca600183612919565b91506119d7600a866129c9565b6119e29060306127e0565b60f81b818381518110611a0557634e487b7160e01b600052603260045260246000fd5b60200101906001600160f81b031916908160001a905350611a27600a866127f8565b94506119b9565b60006001600160e01b031982166380ac58cd60e01b1480611a5f57506001600160e01b03198216635b5e139f60e01b145b8061055257506301ffc9a760e01b6001600160e01b0319831614610552565b60606000611a8d8360026128fa565b611a989060026127e0565b6001600160401b03811115611abd57634e487b7160e01b600052604160045260246000fd5b6040519080825280601f01601f191660200182016040528015611ae7576020820181803683370190505b509050600360fc1b81600081518110611b1057634e487b7160e01b600052603260045260246000fd5b60200101906001600160f81b031916908160001a905350600f60fb1b81600181518110611b4d57634e487b7160e01b600052603260045260246000fd5b60200101906001600160f81b031916908160001a9053506000611b718460026128fa565b611b7c9060016127e0565b90505b6001811115611c10576f181899199a1a9b1b9c1cb0b131b232b360811b85600f1660108110611bbe57634e487b7160e01b600052603260045260246000fd5b1a60f81b828281518110611be257634e487b7160e01b600052603260045260246000fd5b60200101906001600160f81b031916908160001a90535060049490941c93611c098161295c565b9050611b7f565b5083156111125760405162461bcd60e51b815260206004820181905260248201527f537472696e67733a20686578206c656e67746820696e73756666696369656e746044820152606401610652565b803b611cc35760405162461bcd60e51b815260206004820152602d60248201527f455243313936373a206e657720696d706c656d656e746174696f6e206973206e60448201526c1bdd08184818dbdb9d1c9858dd609a1b6064820152608401610652565b600080516020612a7683398151915280546001600160a01b0319166001600160a01b0392909216919091179055565b6060823b611d515760405162461bcd60e51b815260206004820152602660248201527f416464726573733a2064656c65676174652063616c6c20746f206e6f6e2d636f6044820152651b9d1c9858dd60d21b6064820152608401610652565b600080846001600160a01b031684604051611d6c919061255d565b600060405180830381855af49150503d8060008114611da7576040519150601f19603f3d011682016040523d82523d6000602084013e611dac565b606091505b5091509150611dd48282604051806060016040528060278152602001612ad660279139612146565b95945050505050565b611de681611c5f565b6040516001600160a01b038216907fbc7cd75a20ee27fd9adebab32041f755214dbc6bffa90cc0225b39da2e5c2d3b90600090a250565b6001600160a01b038216611e735760405162461bcd60e51b815260206004820181905260248201527f4552433732313a206d696e7420746f20746865207a65726f20616464726573736044820152606401610652565b611e7c81611189565b15611ec85760405162461bcd60e51b815260206004820152601c60248201527b115490cdcc8c4e881d1bdad95b88185b1c9958591e481b5a5b9d195960221b6044820152606401610652565b6001600160a01b0382166000908152606860205260408120805460019290611ef19084906127e0565b909155505060008181526067602052604080822080546001600160a01b0319166001600160a01b0386169081179091559051839290600080516020612b1d833981519152908290a45050565b60006001600160a01b0384163b1561203f57604051630a85bd0160e11b81526001600160a01b0385169063150b7a0290611f8190339089908890889060040161262b565b602060405180830381600087803b158015611f9b57600080fd5b505af1925050508015611fcb575060408051601f3d908101601f19168201909252611fc8918101906124aa565b60015b612025573d808015611ff9576040519150601f19603f3d011682016040523d82523d6000602084013e611ffe565b606091505b50805161201d5760405162461bcd60e51b81526004016106529061267b565b805181602001fd5b6001600160e01b031916630a85bd0160e11b149050610791565b506001610791565b600054610100900460ff1680612060575060005460ff16155b61207c5760405162461bcd60e51b815260040161065290612741565b600054610100900460ff16158015610dea576000805461ffff19166101011790558015610940576000805461ff001916905550565b600054610100900460ff16806120ca575060005460ff16155b6120e65760405162461bcd60e51b815260040161065290612741565b600054610100900460ff16158015612108576000805461ffff19166101011790555b825161211b90606590602086019061217f565b50815161212f90606690602085019061217f565b508015610783576000805461ff0019169055505050565b60608315612155575081611112565b8251156121655782518084602001fd5b8160405162461bcd60e51b81526004016106529190612668565b82805461218b90612973565b90600052602060002090601f0160209004810192826121ad57600085556121f3565b82601f106121c657805160ff19168380011785556121f3565b828001600101855582156121f3579182015b828111156121f35782518255916020019190600101906121d8565b506121ff929150612203565b5090565b5b808211156121ff5760008155600101612204565b80356001600160a01b038116811461222f57600080fd5b919050565b600082601f830112612244578081fd5b81356001600160401b038082111561225e5761225e612a09565b604051601f8301601f19908116603f0116810190828211818310171561228657612286612a09565b8160405283815286602085880101111561229e578485fd5b8360208701602083013792830160200193909352509392505050565b6000602082840312156122cb578081fd5b61111282612218565b600080604083850312156122e6578081fd5b6122ef83612218565b91506122fd60208401612218565b90509250929050565b60008060006060848603121561231a578081fd5b61232384612218565b925061233160208501612218565b9150604084013590509250925092565b60008060008060808587031215612356578081fd5b61235f85612218565b935061236d60208601612218565b92506040850135915060608501356001600160401b0381111561238e578182fd5b61239a87828801612234565b91505092959194509250565b600080604083850312156123b8578182fd5b6123c183612218565b9150602083013580151581146123d5578182fd5b809150509250929050565b600080604083850312156123f2578182fd5b6123fb83612218565b915060208301356001600160401b03811115612415578182fd5b61242185828601612234565b9150509250929050565b6000806040838503121561243d578182fd5b61244683612218565b946020939093013593505050565b600060208284031215612465578081fd5b5035919050565b6000806040838503121561247e578182fd5b823591506122fd60208401612218565b60006020828403121561249f578081fd5b813561111281612a1f565b6000602082840312156124bb578081fd5b815161111281612a1f565b6000602082840312156124d7578081fd5b81356001600160401b038111156124ec578182fd5b61079184828501612234565b600060208284031215612509578081fd5b5051919050565b600060208284031215612521578081fd5b815160ff81168114611112578182fd5b60008151808452612549816020860160208601612930565b601f01601f19169290920160200192915050565b6000825161256f818460208701612930565b9190910192915050565b6000835161258b818460208801612930565b83519083019061259f818360208801612930565b01949350505050565b76020b1b1b2b9b9a1b7b73a3937b61d1030b1b1b7bab73a1604d1b8152600083516125da816017850160208801612930565b7001034b99036b4b9b9b4b733903937b6329607d1b601791840191820152835161260b816028840160208801612930565b01602801949350505050565b6001600160a01b0391909116815260200190565b6001600160a01b038581168252841660208201526040810183905260806060820181905260009061265e90830184612531565b9695505050505050565b6020815260006111126020830184612531565b60208082526032908201527f4552433732313a207472616e7366657220746f206e6f6e20455243373231526560408201527131b2b4bb32b91034b6b83632b6b2b73a32b960711b606082015260800190565b6020808252602c90820152600080516020612a3683398151915260408201526b19195b1959d85d1958d85b1b60a21b606082015260800190565b6020808252602c90820152600080516020612a3683398151915260408201526b6163746976652070726f787960a01b606082015260800190565b6020808252602e908201527f496e697469616c697a61626c653a20636f6e747261637420697320616c72656160408201526d191e481a5b9a5d1a585b1a5e995960921b606082015260800190565b60208082526031908201527f4552433732313a207472616e736665722063616c6c6572206973206e6f74206f6040820152701ddb995c881b9bdc88185c1c1c9bdd9959607a1b606082015260800190565b600082198211156127f3576127f36129dd565b500190565b600082612807576128076129f3565b500490565b600181815b8085111561284757816000190482111561282d5761282d6129dd565b8085161561283a57918102915b93841c9390800290612811565b509250929050565b600061111260ff84168360008261286857506001610552565b8161287557506000610552565b816001811461288b5760028114612895576128b1565b6001915050610552565b60ff8411156128a6576128a66129dd565b50506001821b610552565b5060208310610133831016604e8410600b84101617156128d4575081810a610552565b6128de838361280c565b80600019048211156128f2576128f26129dd565b029392505050565b6000816000190483118215151615612914576129146129dd565b500290565b60008282101561292b5761292b6129dd565b500390565b60005b8381101561294b578181015183820152602001612933565b83811115610fa55750506000910152565b60008161296b5761296b6129dd565b506000190190565b600181811c9082168061298757607f821691505b602082108114156129a857634e487b7160e01b600052602260045260246000fd5b50919050565b60006000198214156129c2576129c26129dd565b5060010190565b6000826129d8576129d86129f3565b500690565b634e487b7160e01b600052601160045260246000fd5b634e487b7160e01b600052601260045260246000fd5b634e487b7160e01b600052604160045260246000fd5b6001600160e01b03198116811461094057600080fdfe46756e6374696f6e206d7573742062652063616c6c6564207468726f75676820189ab7a9244df0848122154315af71fe140f3db0fe014031783b0946b8c9d2e3360894a13ba1a3210667c828492db98dca3e2076cc3735a920a3ca505d382bbc68747470733a2f2f736f6d65636f6f6c7374756666736f6f7468657270656f706c6563616e67657470726572656e646572732e696f2f746f6b656e2f7b69647d416464726573733a206c6f772d6c6576656c2064656c65676174652063616c6c206661696c65649f2df0fed2c77648de5860a4cc508cd0818c85b8b8a1ab4ceeef8d981c8956a6ddf252ad1be2c89b69c2b068fc378daa952ba7f163c4a11628f55a4df523b3eff0e519adfa92b08162a7a5fb116ac5cc83e9e7105e2ec4ca98c50726b178375ca26469706673582212207103ddbd6a949842571d51459cf63ce10a81c631d8f6bc0987d93e2b9b8603d964736f6c63430008040033",
  "linkReferences": {},
  "deployedLinkReferences": {}
}