{
  "_format": "hh-sol-artifact-1",
  "contractName": "KaoMoji",
  "sourceName": "contracts/KaoMoji.sol",
  "abi": [
    {
      "inputs": [],
      "stateMutability": "nonpayable",
      "type": "constructor"
    },
    {
      "anonymous": false,
      "inputs": [
        {
          "indexed": true,
          "internalType": "address",
          "name": "account",
          "type": "address"
        },
        {
          "indexed": true,
          "internalType": "address",
          "name": "operator",
          "type": "address"
        },
        {
          "indexed": false,
          "internalType": "bool",
          "name": "approved",
          "type": "bool"
        }
      ],
      "name": "ApprovalForAll",
      "type": "event"
    },
    {
      "anonymous": false,
      "inputs": [
        {
          "indexed": true,
          "internalType": "bytes32",
          "name": "role",
          "type": "bytes32"
        },
        {
          "indexed": true,
          "internalType": "bytes32",
          "name": "previousAdminRole",
          "type": "bytes32"
        },
        {
          "indexed": true,
          "internalType": "bytes32",
          "name": "newAdminRole",
          "type": "bytes32"
        }
      ],
      "name": "RoleAdminChanged",
      "type": "event"
    },
    {
      "anonymous": false,
      "inputs": [
        {
          "indexed": true,
          "internalType": "bytes32",
          "name": "role",
          "type": "bytes32"
        },
        {
          "indexed": true,
          "internalType": "address",
          "name": "account",
          "type": "address"
        },
        {
          "indexed": true,
          "internalType": "address",
          "name": "sender",
          "type": "address"
        }
      ],
      "name": "RoleGranted",
      "type": "event"
    },
    {
      "anonymous": false,
      "inputs": [
        {
          "indexed": true,
          "internalType": "bytes32",
          "name": "role",
          "type": "bytes32"
        },
        {
          "indexed": true,
          "internalType": "address",
          "name": "account",
          "type": "address"
        },
        {
          "indexed": true,
          "internalType": "address",
          "name": "sender",
          "type": "address"
        }
      ],
      "name": "RoleRevoked",
      "type": "event"
    },
    {
      "anonymous": false,
      "inputs": [
        {
          "indexed": true,
          "internalType": "address",
          "name": "operator",
          "type": "address"
        },
        {
          "indexed": true,
          "internalType": "address",
          "name": "from",
          "type": "address"
        },
        {
          "indexed": true,
          "internalType": "address",
          "name": "to",
          "type": "address"
        },
        {
          "indexed": false,
          "internalType": "uint256[]",
          "name": "ids",
          "type": "uint256[]"
        },
        {
          "indexed": false,
          "internalType": "uint256[]",
          "name": "values",
          "type": "uint256[]"
        }
      ],
      "name": "TransferBatch",
      "type": "event"
    },
    {
      "anonymous": false,
      "inputs": [
        {
          "indexed": true,
          "internalType": "address",
          "name": "operator",
          "type": "address"
        },
        {
          "indexed": true,
          "internalType": "address",
          "name": "from",
          "type": "address"
        },
        {
          "indexed": true,
          "internalType": "address",
          "name": "to",
          "type": "address"
        },
        {
          "indexed": false,
          "internalType": "uint256",
          "name": "id",
          "type": "uint256"
        },
        {
          "indexed": false,
          "internalType": "uint256",
          "name": "value",
          "type": "uint256"
        }
      ],
      "name": "TransferSingle",
      "type": "event"
    },
    {
      "anonymous": false,
      "inputs": [
        {
          "indexed": false,
          "internalType": "string",
          "name": "value",
          "type": "string"
        },
        {
          "indexed": true,
          "internalType": "uint256",
          "name": "id",
          "type": "uint256"
        }
      ],
      "name": "URI",
      "type": "event"
    },
    {
      "inputs": [],
      "name": "DEFAULT_ADMIN_ROLE",
      "outputs": [
        {
          "internalType": "bytes32",
          "name": "",
          "type": "bytes32"
        }
      ],
      "stateMutability": "view",
      "type": "function"
    },
    {
      "inputs": [],
      "name": "MINTER_ROLE",
      "outputs": [
        {
          "internalType": "bytes32",
          "name": "",
          "type": "bytes32"
        }
      ],
      "stateMutability": "view",
      "type": "function"
    },
    {
      "inputs": [],
      "name": "URI_SETTER_ROLE",
      "outputs": [
        {
          "internalType": "bytes32",
          "name": "",
          "type": "bytes32"
        }
      ],
      "stateMutability": "view",
      "type": "function"
    },
    {
      "inputs": [
        {
          "internalType": "address",
          "name": "account",
          "type": "address"
        },
        {
          "internalType": "uint256",
          "name": "id",
          "type": "uint256"
        }
      ],
      "name": "balanceOf",
      "outputs": [
        {
          "internalType": "uint256",
          "name": "",
          "type": "uint256"
        }
      ],
      "stateMutability": "view",
      "type": "function"
    },
    {
      "inputs": [
        {
          "internalType": "address[]",
          "name": "accounts",
          "type": "address[]"
        },
        {
          "internalType": "uint256[]",
          "name": "ids",
          "type": "uint256[]"
        }
      ],
      "name": "balanceOfBatch",
      "outputs": [
        {
          "internalType": "uint256[]",
          "name": "",
          "type": "uint256[]"
        }
      ],
      "stateMutability": "view",
      "type": "function"
    },
    {
      "inputs": [
        {
          "internalType": "uint256",
          "name": "id",
          "type": "uint256"
        }
      ],
      "name": "exists",
      "outputs": [
        {
          "internalType": "bool",
          "name": "",
          "type": "bool"
        }
      ],
      "stateMutability": "view",
      "type": "function"
    },
    {
      "inputs": [
        {
          "internalType": "bytes32",
          "name": "role",
          "type": "bytes32"
        }
      ],
      "name": "getRoleAdmin",
      "outputs": [
        {
          "internalType": "bytes32",
          "name": "",
          "type": "bytes32"
        }
      ],
      "stateMutability": "view",
      "type": "function"
    },
    {
      "inputs": [
        {
          "internalType": "bytes32",
          "name": "role",
          "type": "bytes32"
        },
        {
          "internalType": "address",
          "name": "account",
          "type": "address"
        }
      ],
      "name": "grantRole",
      "outputs": [],
      "stateMutability": "nonpayable",
      "type": "function"
    },
    {
      "inputs": [
        {
          "internalType": "bytes32",
          "name": "role",
          "type": "bytes32"
        },
        {
          "internalType": "address",
          "name": "account",
          "type": "address"
        }
      ],
      "name": "hasRole",
      "outputs": [
        {
          "internalType": "bool",
          "name": "",
          "type": "bool"
        }
      ],
      "stateMutability": "view",
      "type": "function"
    },
    {
      "inputs": [
        {
          "internalType": "address",
          "name": "account",
          "type": "address"
        },
        {
          "internalType": "address",
          "name": "operator",
          "type": "address"
        }
      ],
      "name": "isApprovedForAll",
      "outputs": [
        {
          "internalType": "bool",
          "name": "",
          "type": "bool"
        }
      ],
      "stateMutability": "view",
      "type": "function"
    },
    {
      "inputs": [
        {
          "internalType": "address",
          "name": "account",
          "type": "address"
        },
        {
          "internalType": "uint256",
          "name": "id",
          "type": "uint256"
        },
        {
          "internalType": "bytes",
          "name": "data",
          "type": "bytes"
        }
      ],
      "name": "mint",
      "outputs": [],
      "stateMutability": "nonpayable",
      "type": "function"
    },
    {
      "inputs": [
        {
          "internalType": "bytes32",
          "name": "role",
          "type": "bytes32"
        },
        {
          "internalType": "address",
          "name": "account",
          "type": "address"
        }
      ],
      "name": "renounceRole",
      "outputs": [],
      "stateMutability": "nonpayable",
      "type": "function"
    },
    {
      "inputs": [
        {
          "internalType": "bytes32",
          "name": "role",
          "type": "bytes32"
        },
        {
          "internalType": "address",
          "name": "account",
          "type": "address"
        }
      ],
      "name": "revokeRole",
      "outputs": [],
      "stateMutability": "nonpayable",
      "type": "function"
    },
    {
      "inputs": [
        {
          "internalType": "address",
          "name": "from",
          "type": "address"
        },
        {
          "internalType": "address",
          "name": "to",
          "type": "address"
        },
        {
          "internalType": "uint256[]",
          "name": "ids",
          "type": "uint256[]"
        },
        {
          "internalType": "uint256[]",
          "name": "amounts",
          "type": "uint256[]"
        },
        {
          "internalType": "bytes",
          "name": "data",
          "type": "bytes"
        }
      ],
      "name": "safeBatchTransferFrom",
      "outputs": [],
      "stateMutability": "nonpayable",
      "type": "function"
    },
    {
      "inputs": [
        {
          "internalType": "address",
          "name": "from",
          "type": "address"
        },
        {
          "internalType": "address",
          "name": "to",
          "type": "address"
        },
        {
          "internalType": "uint256",
          "name": "id",
          "type": "uint256"
        },
        {
          "internalType": "uint256",
          "name": "amount",
          "type": "uint256"
        },
        {
          "internalType": "bytes",
          "name": "data",
          "type": "bytes"
        }
      ],
      "name": "safeTransferFrom",
      "outputs": [],
      "stateMutability": "nonpayable",
      "type": "function"
    },
    {
      "inputs": [
        {
          "internalType": "address",
          "name": "operator",
          "type": "address"
        },
        {
          "internalType": "bool",
          "name": "approved",
          "type": "bool"
        }
      ],
      "name": "setApprovalForAll",
      "outputs": [],
      "stateMutability": "nonpayable",
      "type": "function"
    },
    {
      "inputs": [
        {
          "internalType": "string",
          "name": "newuri",
          "type": "string"
        }
      ],
      "name": "setURI",
      "outputs": [],
      "stateMutability": "nonpayable",
      "type": "function"
    },
    {
      "inputs": [
        {
          "internalType": "bytes4",
          "name": "interfaceId",
          "type": "bytes4"
        }
      ],
      "name": "supportsInterface",
      "outputs": [
        {
          "internalType": "bool",
          "name": "",
          "type": "bool"
        }
      ],
      "stateMutability": "view",
      "type": "function"
    },
    {
      "inputs": [
        {
          "internalType": "uint256",
          "name": "id",
          "type": "uint256"
        }
      ],
      "name": "totalSupply",
      "outputs": [
        {
          "internalType": "uint256",
          "name": "",
          "type": "uint256"
        }
      ],
      "stateMutability": "view",
      "type": "function"
    },
    {
      "inputs": [
        {
          "internalType": "uint256",
          "name": "",
          "type": "uint256"
        }
      ],
      "name": "uri",
      "outputs": [
        {
          "internalType": "string",
          "name": "",
          "type": "string"
        }
      ],
      "stateMutability": "view",
      "type": "function"
    }
  ],
  "bytecode": "0x60806040523480156200001157600080fd5b506040518060400160405280601e81526020017f68747470733a2f2f6b616f2e66696e616e63652f746f6b656e2f7b69647d00008152506200005981620000d960201b60201c565b506200006f6000801b33620000f560201b60201c565b620000a17f7804d923f43a17d325d77e781528e0793b2edd9890ab45fc64efd7b4b427744c33620000f560201b60201c565b620000d37f9f2df0fed2c77648de5860a4cc508cd0818c85b8b8a1ab4ceeef8d981c8956a633620000f560201b60201c565b62000385565b8060029080519060200190620000f192919062000270565b5050565b6200010782826200010b60201b60201c565b5050565b6200011d8282620001fd60201b60201c565b620001f95760016004600084815260200190815260200160002060000160008373ffffffffffffffffffffffffffffffffffffffff1673ffffffffffffffffffffffffffffffffffffffff16815260200190815260200160002060006101000a81548160ff0219169083151502179055506200019e6200026860201b60201c565b73ffffffffffffffffffffffffffffffffffffffff168173ffffffffffffffffffffffffffffffffffffffff16837f2f8788117e7eff1d82e926ec794901d17c78024a50270940304540a733656f0d60405160405180910390a45b5050565b60006004600084815260200190815260200160002060000160008373ffffffffffffffffffffffffffffffffffffffff1673ffffffffffffffffffffffffffffffffffffffff16815260200190815260200160002060009054906101000a900460ff16905092915050565b600033905090565b8280546200027e9062000320565b90600052602060002090601f016020900481019282620002a25760008555620002ee565b82601f10620002bd57805160ff1916838001178555620002ee565b82800160010185558215620002ee579182015b82811115620002ed578251825591602001919060010190620002d0565b5b509050620002fd919062000301565b5090565b5b808211156200031c57600081600090555060010162000302565b5090565b600060028204905060018216806200033957607f821691505b6020821081141562000350576200034f62000356565b5b50919050565b7f4e487b7100000000000000000000000000000000000000000000000000000000600052602260045260246000fd5b61381580620003956000396000f3fe608060405234801561001057600080fd5b506004361061012b5760003560e01c80637f345710116100ad578063bd85b03911610071578063bd85b03914610364578063d539139314610394578063d547741f146103b2578063e985e9c5146103ce578063f242432a146103fe5761012b565b80637f345710146102c057806391d14854146102de57806394d008ef1461030e578063a217fddf1461032a578063a22cb465146103485761012b565b80632eb2c2d6116100f45780632eb2c2d61461020c5780632f2ff15d1461022857806336568abe146102445780634e1273f4146102605780634f558e79146102905761012b565b8062fdd58e1461013057806301ffc9a71461016057806302fe5305146101905780630e89341c146101ac578063248a9ca3146101dc575b600080fd5b61014a600480360381019061014591906124ef565b61041a565b6040516101579190612e1b565b60405180910390f35b61017a60048036038101906101759190612663565b6104e3565b6040516101879190612be5565b60405180910390f35b6101aa60048036038101906101a591906126b5565b6104f5565b005b6101c660048036038101906101c191906126f6565b610534565b6040516101d39190612c1b565b60405180910390f35b6101f660048036038101906101f191906125fe565b6105c8565b6040516102039190612c00565b60405180910390f35b61022660048036038101906102219190612365565b6105e8565b005b610242600480360381019061023d9190612627565b610689565b005b61025e60048036038101906102599190612627565b6106b2565b005b61027a60048036038101906102759190612592565b610735565b6040516102879190612b8c565b60405180910390f35b6102aa60048036038101906102a591906126f6565b6108e6565b6040516102b79190612be5565b60405180910390f35b6102c86108fa565b6040516102d59190612c00565b60405180910390f35b6102f860048036038101906102f39190612627565b61091e565b6040516103059190612be5565b60405180910390f35b6103286004803603810190610323919061252b565b610989565b005b610332610a4a565b60405161033f9190612c00565b60405180910390f35b610362600480360381019061035d91906124b3565b610a51565b005b61037e600480360381019061037991906126f6565b610bd2565b60405161038b9190612e1b565b60405180910390f35b61039c610bef565b6040516103a99190612c00565b60405180910390f35b6103cc60048036038101906103c79190612627565b610c13565b005b6103e860048036038101906103e39190612329565b610c3c565b6040516103f59190612be5565b60405180910390f35b61041860048036038101906104139190612424565b610cd0565b005b60008073ffffffffffffffffffffffffffffffffffffffff168373ffffffffffffffffffffffffffffffffffffffff16141561048b576040517f08c379a000000000000000000000000000000000000000000000000000000000815260040161048290612cfb565b60405180910390fd5b60008083815260200190815260200160002060008473ffffffffffffffffffffffffffffffffffffffff1673ffffffffffffffffffffffffffffffffffffffff16815260200190815260200160002054905092915050565b60006104ee82610d71565b9050919050565b7f7804d923f43a17d325d77e781528e0793b2edd9890ab45fc64efd7b4b427744c61052781610522610deb565b610df3565b61053082610e90565b5050565b60606002805461054390613154565b80601f016020809104026020016040519081016040528092919081815260200182805461056f90613154565b80156105bc5780601f10610591576101008083540402835291602001916105bc565b820191906000526020600020905b81548152906001019060200180831161059f57829003601f168201915b50505050509050919050565b600060046000838152602001908152602001600020600101549050919050565b6105f0610deb565b73ffffffffffffffffffffffffffffffffffffffff168573ffffffffffffffffffffffffffffffffffffffff161480610636575061063585610630610deb565b610c3c565b5b610675576040517f08c379a000000000000000000000000000000000000000000000000000000000815260040161066c90612d5b565b60405180910390fd5b6106828585858585610eaa565b5050505050565b610692826105c8565b6106a38161069e610deb565b610df3565b6106ad838361120a565b505050565b6106ba610deb565b73ffffffffffffffffffffffffffffffffffffffff168173ffffffffffffffffffffffffffffffffffffffff1614610727576040517f08c379a000000000000000000000000000000000000000000000000000000000815260040161071e90612dfb565b60405180910390fd5b61073182826112eb565b5050565b6060815183511461077b576040517f08c379a000000000000000000000000000000000000000000000000000000000815260040161077290612dbb565b60405180910390fd5b6000835167ffffffffffffffff8111156107be577f4e487b7100000000000000000000000000000000000000000000000000000000600052604160045260246000fd5b6040519080825280602002602001820160405280156107ec5781602001602082028036833780820191505090505b50905060005b84518110156108db57610885858281518110610837577f4e487b7100000000000000000000000000000000000000000000000000000000600052603260045260246000fd5b6020026020010151858381518110610878577f4e487b7100000000000000000000000000000000000000000000000000000000600052603260045260246000fd5b602002602001015161041a565b8282815181106108be577f4e487b7100000000000000000000000000000000000000000000000000000000600052603260045260246000fd5b602002602001018181525050806108d4906131b7565b90506107f2565b508091505092915050565b6000806108f283610bd2565b119050919050565b7f7804d923f43a17d325d77e781528e0793b2edd9890ab45fc64efd7b4b427744c81565b60006004600084815260200190815260200160002060000160008373ffffffffffffffffffffffffffffffffffffffff1673ffffffffffffffffffffffffffffffffffffffff16815260200190815260200160002060009054906101000a900460ff16905092915050565b7f9f2df0fed2c77648de5860a4cc508cd0818c85b8b8a1ab4ceeef8d981c8956a66109bb816109b6610deb565b610df3565b6109fb6040518060400160405280600d81526020017f4d696e74696e672025732025730000000000000000000000000000000000000081525085856113cd565b610a04836108e6565b15610a44576040517f08c379a0000000000000000000000000000000000000000000000000000000008152600401610a3b90612cdb565b60405180910390fd5b50505050565b6000801b81565b8173ffffffffffffffffffffffffffffffffffffffff16610a70610deb565b73ffffffffffffffffffffffffffffffffffffffff161415610ac7576040517f08c379a0000000000000000000000000000000000000000000000000000000008152600401610abe90612d9b565b60405180910390fd5b8060016000610ad4610deb565b73ffffffffffffffffffffffffffffffffffffffff1673ffffffffffffffffffffffffffffffffffffffff16815260200190815260200160002060008473ffffffffffffffffffffffffffffffffffffffff1673ffffffffffffffffffffffffffffffffffffffff16815260200190815260200160002060006101000a81548160ff0219169083151502179055508173ffffffffffffffffffffffffffffffffffffffff16610b81610deb565b73ffffffffffffffffffffffffffffffffffffffff167f17307eab39ab6107e8899845ad3d59bd9653f200f220920489ca2b5937696c3183604051610bc69190612be5565b60405180910390a35050565b600060036000838152602001908152602001600020549050919050565b7f9f2df0fed2c77648de5860a4cc508cd0818c85b8b8a1ab4ceeef8d981c8956a681565b610c1c826105c8565b610c2d81610c28610deb565b610df3565b610c3783836112eb565b505050565b6000600160008473ffffffffffffffffffffffffffffffffffffffff1673ffffffffffffffffffffffffffffffffffffffff16815260200190815260200160002060008373ffffffffffffffffffffffffffffffffffffffff1673ffffffffffffffffffffffffffffffffffffffff16815260200190815260200160002060009054906101000a900460ff16905092915050565b610cd8610deb565b73ffffffffffffffffffffffffffffffffffffffff168573ffffffffffffffffffffffffffffffffffffffff161480610d1e5750610d1d85610d18610deb565b610c3c565b5b610d5d576040517f08c379a0000000000000000000000000000000000000000000000000000000008152600401610d5490612d1b565b60405180910390fd5b610d6a858585858561146c565b5050505050565b60007f7965db0b000000000000000000000000000000000000000000000000000000007bffffffffffffffffffffffffffffffffffffffffffffffffffffffff1916827bffffffffffffffffffffffffffffffffffffffffffffffffffffffff19161480610de45750610de3826116ee565b5b9050919050565b600033905090565b610dfd828261091e565b610e8c57610e228173ffffffffffffffffffffffffffffffffffffffff1660146117d0565b610e308360001c60206117d0565b604051602001610e41929190612a90565b6040516020818303038152906040526040517f08c379a0000000000000000000000000000000000000000000000000000000008152600401610e839190612c1b565b60405180910390fd5b5050565b8060029080519060200190610ea692919061200c565b5050565b8151835114610eee576040517f08c379a0000000000000000000000000000000000000000000000000000000008152600401610ee590612ddb565b60405180910390fd5b600073ffffffffffffffffffffffffffffffffffffffff168473ffffffffffffffffffffffffffffffffffffffff161415610f5e576040517f08c379a0000000000000000000000000000000000000000000000000000000008152600401610f5590612d3b565b60405180910390fd5b6000610f68610deb565b9050610f78818787878787611aca565b60005b8451811015611175576000858281518110610fbf577f4e487b7100000000000000000000000000000000000000000000000000000000600052603260045260246000fd5b602002602001015190506000858381518110611004577f4e487b7100000000000000000000000000000000000000000000000000000000600052603260045260246000fd5b60200260200101519050600080600084815260200190815260200160002060008b73ffffffffffffffffffffffffffffffffffffffff1673ffffffffffffffffffffffffffffffffffffffff168152602001908152602001600020549050818110156110a5576040517f08c379a000000000000000000000000000000000000000000000000000000000815260040161109c90612d7b565b60405180910390fd5b81810360008085815260200190815260200160002060008c73ffffffffffffffffffffffffffffffffffffffff1673ffffffffffffffffffffffffffffffffffffffff168152602001908152602001600020819055508160008085815260200190815260200160002060008b73ffffffffffffffffffffffffffffffffffffffff1673ffffffffffffffffffffffffffffffffffffffff168152602001908152602001600020600082825461115a9190612fba565b925050819055505050508061116e906131b7565b9050610f7b565b508473ffffffffffffffffffffffffffffffffffffffff168673ffffffffffffffffffffffffffffffffffffffff168273ffffffffffffffffffffffffffffffffffffffff167f4a39dc06d4c0dbc64b70af90fd698a233a518aa5d07e595d983b8c0526c8f7fb87876040516111ec929190612bae565b60405180910390a4611202818787878787611ad2565b505050505050565b611214828261091e565b6112e75760016004600084815260200190815260200160002060000160008373ffffffffffffffffffffffffffffffffffffffff1673ffffffffffffffffffffffffffffffffffffffff16815260200190815260200160002060006101000a81548160ff02191690831515021790555061128c610deb565b73ffffffffffffffffffffffffffffffffffffffff168173ffffffffffffffffffffffffffffffffffffffff16837f2f8788117e7eff1d82e926ec794901d17c78024a50270940304540a733656f0d60405160405180910390a45b5050565b6112f5828261091e565b156113c95760006004600084815260200190815260200160002060000160008373ffffffffffffffffffffffffffffffffffffffff1673ffffffffffffffffffffffffffffffffffffffff16815260200190815260200160002060006101000a81548160ff02191690831515021790555061136e610deb565b73ffffffffffffffffffffffffffffffffffffffff168173ffffffffffffffffffffffffffffffffffffffff16837ff6391f5c32d9c69d2a47ea670b442974b53935d1edc7fd64eb21e047a839171b60405160405180910390a45b5050565b6114678383836040516024016113e593929190612c3d565b6040516020818303038152906040527f07c81217000000000000000000000000000000000000000000000000000000007bffffffffffffffffffffffffffffffffffffffffffffffffffffffff19166020820180517bffffffffffffffffffffffffffffffffffffffffffffffffffffffff8381831617835250505050611cb9565b505050565b600073ffffffffffffffffffffffffffffffffffffffff168473ffffffffffffffffffffffffffffffffffffffff1614156114dc576040517f08c379a00000000000000000000000000000000000000000000000000000000081526004016114d390612d3b565b60405180910390fd5b60006114e6610deb565b90506115068187876114f788611ce2565b61150088611ce2565b87611aca565b600080600086815260200190815260200160002060008873ffffffffffffffffffffffffffffffffffffffff1673ffffffffffffffffffffffffffffffffffffffff1681526020019081526020016000205490508381101561159d576040517f08c379a000000000000000000000000000000000000000000000000000000000815260040161159490612d7b565b60405180910390fd5b83810360008087815260200190815260200160002060008973ffffffffffffffffffffffffffffffffffffffff1673ffffffffffffffffffffffffffffffffffffffff168152602001908152602001600020819055508360008087815260200190815260200160002060008873ffffffffffffffffffffffffffffffffffffffff1673ffffffffffffffffffffffffffffffffffffffff16815260200190815260200160002060008282546116529190612fba565b925050819055508573ffffffffffffffffffffffffffffffffffffffff168773ffffffffffffffffffffffffffffffffffffffff168373ffffffffffffffffffffffffffffffffffffffff167fc3d58168c5ae7397731d063d5bbf3d657854427343f4c083240f7aacaa2d0f6288886040516116cf929190612e36565b60405180910390a46116e5828888888888611da8565b50505050505050565b60007fd9b67a26000000000000000000000000000000000000000000000000000000007bffffffffffffffffffffffffffffffffffffffffffffffffffffffff1916827bffffffffffffffffffffffffffffffffffffffffffffffffffffffff191614806117b957507f0e89341c000000000000000000000000000000000000000000000000000000007bffffffffffffffffffffffffffffffffffffffffffffffffffffffff1916827bffffffffffffffffffffffffffffffffffffffffffffffffffffffff1916145b806117c957506117c882611f8f565b5b9050919050565b6060600060028360026117e39190613010565b6117ed9190612fba565b67ffffffffffffffff81111561182c577f4e487b7100000000000000000000000000000000000000000000000000000000600052604160045260246000fd5b6040519080825280601f01601f19166020018201604052801561185e5781602001600182028036833780820191505090505b5090507f3000000000000000000000000000000000000000000000000000000000000000816000815181106118bc577f4e487b7100000000000000000000000000000000000000000000000000000000600052603260045260246000fd5b60200101907effffffffffffffffffffffffffffffffffffffffffffffffffffffffffffff1916908160001a9053507f780000000000000000000000000000000000000000000000000000000000000081600181518110611946577f4e487b7100000000000000000000000000000000000000000000000000000000600052603260045260246000fd5b60200101907effffffffffffffffffffffffffffffffffffffffffffffffffffffffffffff1916908160001a905350600060018460026119869190613010565b6119909190612fba565b90505b6001811115611a7c577f3031323334353637383961626364656600000000000000000000000000000000600f8616601081106119f8577f4e487b7100000000000000000000000000000000000000000000000000000000600052603260045260246000fd5b1a60f81b828281518110611a35577f4e487b7100000000000000000000000000000000000000000000000000000000600052603260045260246000fd5b60200101907effffffffffffffffffffffffffffffffffffffffffffffffffffffffffffff1916908160001a905350600485901c945080611a759061312a565b9050611993565b5060008414611ac0576040517f08c379a0000000000000000000000000000000000000000000000000000000008152600401611ab790612c9b565b60405180910390fd5b8091505092915050565b505050505050565b611af18473ffffffffffffffffffffffffffffffffffffffff16611ff9565b15611cb1578373ffffffffffffffffffffffffffffffffffffffff1663bc197c8187878686866040518663ffffffff1660e01b8152600401611b37959493929190612aca565b602060405180830381600087803b158015611b5157600080fd5b505af1925050508015611b8257506040513d601f19601f82011682018060405250810190611b7f919061268c565b60015b611c2857611b8e61328d565b806308c379a01415611beb5750611ba36136d6565b80611bae5750611bed565b806040517f08c379a0000000000000000000000000000000000000000000000000000000008152600401611be29190612c1b565b60405180910390fd5b505b6040517f08c379a0000000000000000000000000000000000000000000000000000000008152600401611c1f90612c7b565b60405180910390fd5b63bc197c8160e01b7bffffffffffffffffffffffffffffffffffffffffffffffffffffffff1916817bffffffffffffffffffffffffffffffffffffffffffffffffffffffff191614611caf576040517f08c379a0000000000000000000000000000000000000000000000000000000008152600401611ca690612cbb565b60405180910390fd5b505b505050505050565b60008151905060006a636f6e736f6c652e6c6f679050602083016000808483855afa5050505050565b60606000600167ffffffffffffffff811115611d27577f4e487b7100000000000000000000000000000000000000000000000000000000600052604160045260246000fd5b604051908082528060200260200182016040528015611d555781602001602082028036833780820191505090505b5090508281600081518110611d93577f4e487b7100000000000000000000000000000000000000000000000000000000600052603260045260246000fd5b60200260200101818152505080915050919050565b611dc78473ffffffffffffffffffffffffffffffffffffffff16611ff9565b15611f87578373ffffffffffffffffffffffffffffffffffffffff1663f23a6e6187878686866040518663ffffffff1660e01b8152600401611e0d959493929190612b32565b602060405180830381600087803b158015611e2757600080fd5b505af1925050508015611e5857506040513d601f19601f82011682018060405250810190611e55919061268c565b60015b611efe57611e6461328d565b806308c379a01415611ec15750611e796136d6565b80611e845750611ec3565b806040517f08c379a0000000000000000000000000000000000000000000000000000000008152600401611eb89190612c1b565b60405180910390fd5b505b6040517f08c379a0000000000000000000000000000000000000000000000000000000008152600401611ef590612c7b565b60405180910390fd5b63f23a6e6160e01b7bffffffffffffffffffffffffffffffffffffffffffffffffffffffff1916817bffffffffffffffffffffffffffffffffffffffffffffffffffffffff191614611f85576040517f08c379a0000000000000000000000000000000000000000000000000000000008152600401611f7c90612cbb565b60405180910390fd5b505b505050505050565b60007f01ffc9a7000000000000000000000000000000000000000000000000000000007bffffffffffffffffffffffffffffffffffffffffffffffffffffffff1916827bffffffffffffffffffffffffffffffffffffffffffffffffffffffff1916149050919050565b600080823b905060008111915050919050565b82805461201890613154565b90600052602060002090601f01602090048101928261203a5760008555612081565b82601f1061205357805160ff1916838001178555612081565b82800160010185558215612081579182015b82811115612080578251825591602001919060010190612065565b5b50905061208e9190612092565b5090565b5b808211156120ab576000816000905550600101612093565b5090565b60006120c26120bd84612e84565b612e5f565b905080838252602082019050828560208602820111156120e157600080fd5b60005b8581101561211157816120f78882612203565b8452602084019350602083019250506001810190506120e4565b5050509392505050565b600061212e61212984612eb0565b612e5f565b9050808382526020820190508285602086028201111561214d57600080fd5b60005b8581101561217d57816121638882612314565b845260208401935060208301925050600181019050612150565b5050509392505050565b600061219a61219584612edc565b612e5f565b9050828152602081018484840111156121b257600080fd5b6121bd8482856130e8565b509392505050565b60006121d86121d384612f0d565b612e5f565b9050828152602081018484840111156121f057600080fd5b6121fb8482856130e8565b509392505050565b6000813590506122128161376c565b92915050565b600082601f83011261222957600080fd5b81356122398482602086016120af565b91505092915050565b600082601f83011261225357600080fd5b813561226384826020860161211b565b91505092915050565b60008135905061227b81613783565b92915050565b6000813590506122908161379a565b92915050565b6000813590506122a5816137b1565b92915050565b6000815190506122ba816137b1565b92915050565b600082601f8301126122d157600080fd5b81356122e1848260208601612187565b91505092915050565b600082601f8301126122fb57600080fd5b813561230b8482602086016121c5565b91505092915050565b600081359050612323816137c8565b92915050565b6000806040838503121561233c57600080fd5b600061234a85828601612203565b925050602061235b85828601612203565b9150509250929050565b600080600080600060a0868803121561237d57600080fd5b600061238b88828901612203565b955050602061239c88828901612203565b945050604086013567ffffffffffffffff8111156123b957600080fd5b6123c588828901612242565b935050606086013567ffffffffffffffff8111156123e257600080fd5b6123ee88828901612242565b925050608086013567ffffffffffffffff81111561240b57600080fd5b612417888289016122c0565b9150509295509295909350565b600080600080600060a0868803121561243c57600080fd5b600061244a88828901612203565b955050602061245b88828901612203565b945050604061246c88828901612314565b935050606061247d88828901612314565b925050608086013567ffffffffffffffff81111561249a57600080fd5b6124a6888289016122c0565b9150509295509295909350565b600080604083850312156124c657600080fd5b60006124d485828601612203565b92505060206124e58582860161226c565b9150509250929050565b6000806040838503121561250257600080fd5b600061251085828601612203565b925050602061252185828601612314565b9150509250929050565b60008060006060848603121561254057600080fd5b600061254e86828701612203565b935050602061255f86828701612314565b925050604084013567ffffffffffffffff81111561257c57600080fd5b612588868287016122c0565b9150509250925092565b600080604083850312156125a557600080fd5b600083013567ffffffffffffffff8111156125bf57600080fd5b6125cb85828601612218565b925050602083013567ffffffffffffffff8111156125e857600080fd5b6125f485828601612242565b9150509250929050565b60006020828403121561261057600080fd5b600061261e84828501612281565b91505092915050565b6000806040838503121561263a57600080fd5b600061264885828601612281565b925050602061265985828601612203565b9150509250929050565b60006020828403121561267557600080fd5b600061268384828501612296565b91505092915050565b60006020828403121561269e57600080fd5b60006126ac848285016122ab565b91505092915050565b6000602082840312156126c757600080fd5b600082013567ffffffffffffffff8111156126e157600080fd5b6126ed848285016122ea565b91505092915050565b60006020828403121561270857600080fd5b600061271684828501612314565b91505092915050565b600061272b8383612a72565b60208301905092915050565b6127408161306a565b82525050565b600061275182612f4e565b61275b8185612f7c565b935061276683612f3e565b8060005b8381101561279757815161277e888261271f565b975061278983612f6f565b92505060018101905061276a565b5085935050505092915050565b6127ad8161307c565b82525050565b6127bc81613088565b82525050565b60006127cd82612f59565b6127d78185612f8d565b93506127e78185602086016130f7565b6127f0816132af565b840191505092915050565b600061280682612f64565b6128108185612f9e565b93506128208185602086016130f7565b612829816132af565b840191505092915050565b600061283f82612f64565b6128498185612faf565b93506128598185602086016130f7565b80840191505092915050565b6000612872603483612f9e565b915061287d826132cd565b604082019050919050565b6000612895602083612f9e565b91506128a08261331c565b602082019050919050565b60006128b8602883612f9e565b91506128c382613345565b604082019050919050565b60006128db600e83612f9e565b91506128e682613394565b602082019050919050565b60006128fe602b83612f9e565b9150612909826133bd565b604082019050919050565b6000612921602983612f9e565b915061292c8261340c565b604082019050919050565b6000612944602583612f9e565b915061294f8261345b565b604082019050919050565b6000612967603283612f9e565b9150612972826134aa565b604082019050919050565b600061298a602a83612f9e565b9150612995826134f9565b604082019050919050565b60006129ad601783612faf565b91506129b882613548565b601782019050919050565b60006129d0602983612f9e565b91506129db82613571565b604082019050919050565b60006129f3602983612f9e565b91506129fe826135c0565b604082019050919050565b6000612a16602883612f9e565b9150612a218261360f565b604082019050919050565b6000612a39601183612faf565b9150612a448261365e565b601182019050919050565b6000612a5c602f83612f9e565b9150612a6782613687565b604082019050919050565b612a7b816130de565b82525050565b612a8a816130de565b82525050565b6000612a9b826129a0565b9150612aa78285612834565b9150612ab282612a2c565b9150612abe8284612834565b91508190509392505050565b600060a082019050612adf6000830188612737565b612aec6020830187612737565b8181036040830152612afe8186612746565b90508181036060830152612b128185612746565b90508181036080830152612b2681846127c2565b90509695505050505050565b600060a082019050612b476000830188612737565b612b546020830187612737565b612b616040830186612a81565b612b6e6060830185612a81565b8181036080830152612b8081846127c2565b90509695505050505050565b60006020820190508181036000830152612ba68184612746565b905092915050565b60006040820190508181036000830152612bc88185612746565b90508181036020830152612bdc8184612746565b90509392505050565b6000602082019050612bfa60008301846127a4565b92915050565b6000602082019050612c1560008301846127b3565b92915050565b60006020820190508181036000830152612c3581846127fb565b905092915050565b60006060820190508181036000830152612c5781866127fb565b9050612c666020830185612737565b612c736040830184612a81565b949350505050565b60006020820190508181036000830152612c9481612865565b9050919050565b60006020820190508181036000830152612cb481612888565b9050919050565b60006020820190508181036000830152612cd4816128ab565b9050919050565b60006020820190508181036000830152612cf4816128ce565b9050919050565b60006020820190508181036000830152612d14816128f1565b9050919050565b60006020820190508181036000830152612d3481612914565b9050919050565b60006020820190508181036000830152612d5481612937565b9050919050565b60006020820190508181036000830152612d748161295a565b9050919050565b60006020820190508181036000830152612d948161297d565b9050919050565b60006020820190508181036000830152612db4816129c3565b9050919050565b60006020820190508181036000830152612dd4816129e6565b9050919050565b60006020820190508181036000830152612df481612a09565b9050919050565b60006020820190508181036000830152612e1481612a4f565b9050919050565b6000602082019050612e306000830184612a81565b92915050565b6000604082019050612e4b6000830185612a81565b612e586020830184612a81565b9392505050565b6000612e69612e7a565b9050612e758282613186565b919050565b6000604051905090565b600067ffffffffffffffff821115612e9f57612e9e61325e565b5b602082029050602081019050919050565b600067ffffffffffffffff821115612ecb57612eca61325e565b5b602082029050602081019050919050565b600067ffffffffffffffff821115612ef757612ef661325e565b5b612f00826132af565b9050602081019050919050565b600067ffffffffffffffff821115612f2857612f2761325e565b5b612f31826132af565b9050602081019050919050565b6000819050602082019050919050565b600081519050919050565b600081519050919050565b600081519050919050565b6000602082019050919050565b600082825260208201905092915050565b600082825260208201905092915050565b600082825260208201905092915050565b600081905092915050565b6000612fc5826130de565b9150612fd0836130de565b9250827fffffffffffffffffffffffffffffffffffffffffffffffffffffffffffffffff0382111561300557613004613200565b5b828201905092915050565b600061301b826130de565b9150613026836130de565b9250817fffffffffffffffffffffffffffffffffffffffffffffffffffffffffffffffff048311821515161561305f5761305e613200565b5b828202905092915050565b6000613075826130be565b9050919050565b60008115159050919050565b6000819050919050565b60007fffffffff0000000000000000000000000000000000000000000000000000000082169050919050565b600073ffffffffffffffffffffffffffffffffffffffff82169050919050565b6000819050919050565b82818337600083830152505050565b60005b838110156131155780820151818401526020810190506130fa565b83811115613124576000848401525b50505050565b6000613135826130de565b9150600082141561314957613148613200565b5b600182039050919050565b6000600282049050600182168061316c57607f821691505b602082108114156131805761317f61322f565b5b50919050565b61318f826132af565b810181811067ffffffffffffffff821117156131ae576131ad61325e565b5b80604052505050565b60006131c2826130de565b91507fffffffffffffffffffffffffffffffffffffffffffffffffffffffffffffffff8214156131f5576131f4613200565b5b600182019050919050565b7f4e487b7100000000000000000000000000000000000000000000000000000000600052601160045260246000fd5b7f4e487b7100000000000000000000000000000000000000000000000000000000600052602260045260246000fd5b7f4e487b7100000000000000000000000000000000000000000000000000000000600052604160045260246000fd5b600060033d11156132ac5760046000803e6132a96000516132c0565b90505b90565b6000601f19601f8301169050919050565b60008160e01c9050919050565b7f455243313135353a207472616e7366657220746f206e6f6e204552433131353560008201527f526563656976657220696d706c656d656e746572000000000000000000000000602082015250565b7f537472696e67733a20686578206c656e67746820696e73756666696369656e74600082015250565b7f455243313135353a204552433131353552656365697665722072656a6563746560008201527f6420746f6b656e73000000000000000000000000000000000000000000000000602082015250565b7f416c7265616479206d696e746564000000000000000000000000000000000000600082015250565b7f455243313135353a2062616c616e636520717565727920666f7220746865207a60008201527f65726f2061646472657373000000000000000000000000000000000000000000602082015250565b7f455243313135353a2063616c6c6572206973206e6f74206f776e6572206e6f7260008201527f20617070726f7665640000000000000000000000000000000000000000000000602082015250565b7f455243313135353a207472616e7366657220746f20746865207a65726f20616460008201527f6472657373000000000000000000000000000000000000000000000000000000602082015250565b7f455243313135353a207472616e736665722063616c6c6572206973206e6f742060008201527f6f776e6572206e6f7220617070726f7665640000000000000000000000000000602082015250565b7f455243313135353a20696e73756666696369656e742062616c616e636520666f60008201527f72207472616e7366657200000000000000000000000000000000000000000000602082015250565b7f416363657373436f6e74726f6c3a206163636f756e7420000000000000000000600082015250565b7f455243313135353a2073657474696e6720617070726f76616c2073746174757360008201527f20666f722073656c660000000000000000000000000000000000000000000000602082015250565b7f455243313135353a206163636f756e747320616e6420696473206c656e67746860008201527f206d69736d617463680000000000000000000000000000000000000000000000602082015250565b7f455243313135353a2069647320616e6420616d6f756e7473206c656e6774682060008201527f6d69736d61746368000000000000000000000000000000000000000000000000602082015250565b7f206973206d697373696e6720726f6c6520000000000000000000000000000000600082015250565b7f416363657373436f6e74726f6c3a2063616e206f6e6c792072656e6f756e636560008201527f20726f6c657320666f722073656c660000000000000000000000000000000000602082015250565b600060443d10156136e657613769565b6136ee612e7a565b60043d036004823e80513d602482011167ffffffffffffffff82111715613716575050613769565b808201805167ffffffffffffffff8111156137345750505050613769565b80602083010160043d038501811115613751575050505050613769565b61376082602001850186613186565b82955050505050505b90565b6137758161306a565b811461378057600080fd5b50565b61378c8161307c565b811461379757600080fd5b50565b6137a381613088565b81146137ae57600080fd5b50565b6137ba81613092565b81146137c557600080fd5b50565b6137d1816130de565b81146137dc57600080fd5b5056fea264697066735822122037efd8f1ed8fe3ee833d6a0e7cef5c0b94fb898cb437eb33c632cc9c691d75db64736f6c63430008040033",
  "linkReferences": {},
  "deployedLinkReferences": {}
}