{
  "_format": "hh-sol-artifact-1",
  "contractName": "KaoStaking",
  "sourceName": "contracts/KaoStaking.sol",
  "abi": [
    {
      "anonymous": false,
      "inputs": [
        {
          "indexed": false,
          "internalType": "address",
          "name": "previousAdmin",
          "type": "address"
        },
        {
          "indexed": false,
          "internalType": "address",
          "name": "newAdmin",
          "type": "address"
        }
      ],
      "name": "AdminChanged",
      "type": "event"
    },
    {
      "anonymous": false,
      "inputs": [
        {
          "indexed": true,
          "internalType": "address",
          "name": "beacon",
          "type": "address"
        }
      ],
      "name": "BeaconUpgraded",
      "type": "event"
    },
    {
      "anonymous": false,
      "inputs": [
        {
          "indexed": false,
          "internalType": "address",
          "name": "token",
          "type": "address"
        },
        {
          "indexed": false,
          "internalType": "uint256",
          "name": "amount",
          "type": "uint256"
        }
      ],
      "name": "Recovered",
      "type": "event"
    },
    {
      "anonymous": false,
      "inputs": [
        {
          "indexed": true,
          "internalType": "bytes32",
          "name": "role",
          "type": "bytes32"
        },
        {
          "indexed": true,
          "internalType": "bytes32",
          "name": "previousAdminRole",
          "type": "bytes32"
        },
        {
          "indexed": true,
          "internalType": "bytes32",
          "name": "newAdminRole",
          "type": "bytes32"
        }
      ],
      "name": "RoleAdminChanged",
      "type": "event"
    },
    {
      "anonymous": false,
      "inputs": [
        {
          "indexed": true,
          "internalType": "bytes32",
          "name": "role",
          "type": "bytes32"
        },
        {
          "indexed": true,
          "internalType": "address",
          "name": "account",
          "type": "address"
        },
        {
          "indexed": true,
          "internalType": "address",
          "name": "sender",
          "type": "address"
        }
      ],
      "name": "RoleGranted",
      "type": "event"
    },
    {
      "anonymous": false,
      "inputs": [
        {
          "indexed": true,
          "internalType": "bytes32",
          "name": "role",
          "type": "bytes32"
        },
        {
          "indexed": true,
          "internalType": "address",
          "name": "account",
          "type": "address"
        },
        {
          "indexed": true,
          "internalType": "address",
          "name": "sender",
          "type": "address"
        }
      ],
      "name": "RoleRevoked",
      "type": "event"
    },
    {
      "anonymous": false,
      "inputs": [
        {
          "indexed": true,
          "internalType": "address",
          "name": "user",
          "type": "address"
        },
        {
          "indexed": false,
          "internalType": "uint256",
          "name": "amount",
          "type": "uint256"
        }
      ],
      "name": "Staked",
      "type": "event"
    },
    {
      "anonymous": false,
      "inputs": [
        {
          "indexed": true,
          "internalType": "address",
          "name": "implementation",
          "type": "address"
        }
      ],
      "name": "Upgraded",
      "type": "event"
    },
    {
      "anonymous": false,
      "inputs": [
        {
          "indexed": true,
          "internalType": "address",
          "name": "user",
          "type": "address"
        },
        {
          "indexed": false,
          "internalType": "uint256",
          "name": "amount",
          "type": "uint256"
        }
      ],
      "name": "Withdrawn",
      "type": "event"
    },
    {
      "inputs": [],
      "name": "DEFAULT_ADMIN_ROLE",
      "outputs": [
        {
          "internalType": "bytes32",
          "name": "",
          "type": "bytes32"
        }
      ],
      "stateMutability": "view",
      "type": "function"
    },
    {
      "inputs": [],
      "name": "OWNER_ROLE",
      "outputs": [
        {
          "internalType": "bytes32",
          "name": "",
          "type": "bytes32"
        }
      ],
      "stateMutability": "view",
      "type": "function"
    },
    {
      "inputs": [],
      "name": "UPGRADER_ROLE",
      "outputs": [
        {
          "internalType": "bytes32",
          "name": "",
          "type": "bytes32"
        }
      ],
      "stateMutability": "view",
      "type": "function"
    },
    {
      "inputs": [
        {
          "internalType": "address",
          "name": "account",
          "type": "address"
        }
      ],
      "name": "balanceOf",
      "outputs": [
        {
          "internalType": "uint256",
          "name": "",
          "type": "uint256"
        }
      ],
      "stateMutability": "view",
      "type": "function"
    },
    {
      "inputs": [
        {
          "internalType": "address",
          "name": "account",
          "type": "address"
        }
      ],
      "name": "getRewardsMultiplier",
      "outputs": [
        {
          "internalType": "uint256",
          "name": "",
          "type": "uint256"
        }
      ],
      "stateMutability": "view",
      "type": "function"
    },
    {
      "inputs": [
        {
          "internalType": "bytes32",
          "name": "role",
          "type": "bytes32"
        }
      ],
      "name": "getRoleAdmin",
      "outputs": [
        {
          "internalType": "bytes32",
          "name": "",
          "type": "bytes32"
        }
      ],
      "stateMutability": "view",
      "type": "function"
    },
    {
      "inputs": [
        {
          "internalType": "bytes32",
          "name": "role",
          "type": "bytes32"
        },
        {
          "internalType": "address",
          "name": "account",
          "type": "address"
        }
      ],
      "name": "grantRole",
      "outputs": [],
      "stateMutability": "nonpayable",
      "type": "function"
    },
    {
      "inputs": [
        {
          "internalType": "bytes32",
          "name": "role",
          "type": "bytes32"
        },
        {
          "internalType": "address",
          "name": "account",
          "type": "address"
        }
      ],
      "name": "hasRole",
      "outputs": [
        {
          "internalType": "bool",
          "name": "",
          "type": "bool"
        }
      ],
      "stateMutability": "view",
      "type": "function"
    },
    {
      "inputs": [
        {
          "internalType": "address",
          "name": "_stakingToken",
          "type": "address"
        }
      ],
      "name": "initialize",
      "outputs": [],
      "stateMutability": "nonpayable",
      "type": "function"
    },
    {
      "inputs": [
        {
          "internalType": "address",
          "name": "tokenAddress",
          "type": "address"
        },
        {
          "internalType": "uint256",
          "name": "tokenAmount",
          "type": "uint256"
        }
      ],
      "name": "recoverERC20",
      "outputs": [],
      "stateMutability": "nonpayable",
      "type": "function"
    },
    {
      "inputs": [
        {
          "internalType": "bytes32",
          "name": "role",
          "type": "bytes32"
        },
        {
          "internalType": "address",
          "name": "account",
          "type": "address"
        }
      ],
      "name": "renounceRole",
      "outputs": [],
      "stateMutability": "nonpayable",
      "type": "function"
    },
    {
      "inputs": [
        {
          "internalType": "bytes32",
          "name": "role",
          "type": "bytes32"
        },
        {
          "internalType": "address",
          "name": "account",
          "type": "address"
        }
      ],
      "name": "revokeRole",
      "outputs": [],
      "stateMutability": "nonpayable",
      "type": "function"
    },
    {
      "inputs": [
        {
          "internalType": "uint256",
          "name": "amount",
          "type": "uint256"
        }
      ],
      "name": "stake",
      "outputs": [],
      "stateMutability": "nonpayable",
      "type": "function"
    },
    {
      "inputs": [],
      "name": "stakingToken",
      "outputs": [
        {
          "internalType": "contract IERC20Upgradeable",
          "name": "",
          "type": "address"
        }
      ],
      "stateMutability": "view",
      "type": "function"
    },
    {
      "inputs": [
        {
          "internalType": "bytes4",
          "name": "interfaceId",
          "type": "bytes4"
        }
      ],
      "name": "supportsInterface",
      "outputs": [
        {
          "internalType": "bool",
          "name": "",
          "type": "bool"
        }
      ],
      "stateMutability": "view",
      "type": "function"
    },
    {
      "inputs": [],
      "name": "totalSupply",
      "outputs": [
        {
          "internalType": "uint256",
          "name": "",
          "type": "uint256"
        }
      ],
      "stateMutability": "view",
      "type": "function"
    },
    {
      "inputs": [
        {
          "internalType": "address",
          "name": "newImplementation",
          "type": "address"
        }
      ],
      "name": "upgradeTo",
      "outputs": [],
      "stateMutability": "nonpayable",
      "type": "function"
    },
    {
      "inputs": [
        {
          "internalType": "address",
          "name": "newImplementation",
          "type": "address"
        },
        {
          "internalType": "bytes",
          "name": "data",
          "type": "bytes"
        }
      ],
      "name": "upgradeToAndCall",
      "outputs": [],
      "stateMutability": "payable",
      "type": "function"
    },
    {
      "inputs": [
        {
          "internalType": "uint256",
          "name": "amount",
          "type": "uint256"
        }
      ],
      "name": "withdraw",
      "outputs": [],
      "stateMutability": "nonpayable",
      "type": "function"
    }
  ],
  "bytecode": "0x60a06040523060601b60805234801561001757600080fd5b5060805160601c611ce361004b600039600081816104aa015281816104ea0152818161057301526105b30152611ce36000f3fe6080604052600436106100e45760003560e01c806301ffc9a7146100e957806318160ddd1461011e578063248a9ca31461013e5780632e1a7d4d1461015e5780632f2ff15d1461018057806336568abe146101a05780633659cfe6146101c05780634f1ef286146101e057806370a08231146101f357806372f702f31461022a578063818d6bbe146102585780638980f11f1461027857806391d1485414610298578063a217fddf146102b8578063a694fc3a146102cd578063c4d66de8146102ed578063d547741f1461030d578063e58378bb1461032d578063f72c0d8b1461034f575b600080fd5b3480156100f557600080fd5b5061010961010436600461191d565b610371565b60405190151581526020015b60405180910390f35b34801561012a57600080fd5b5061012e545b604051908152602001610115565b34801561014a57600080fd5b506101306101593660046118da565b6103a8565b34801561016a57600080fd5b5061017e6101793660046118da565b6103bd565b005b34801561018c57600080fd5b5061017e61019b3660046118f2565b6103ff565b3480156101ac57600080fd5b5061017e6101bb3660046118f2565b610421565b3480156101cc57600080fd5b5061017e6101db3660046117bb565b61049f565b61017e6101ee3660046117d5565b610568565b3480156101ff57600080fd5b5061013061020e3660046117bb565b6001600160a01b0316600090815261012f602052604090205490565b34801561023657600080fd5b5061012d5461024b906001600160a01b031681565b60405161011591906119d0565b34801561026457600080fd5b506101306102733660046117bb565b61061e565b34801561028457600080fd5b5061017e610293366004611891565b610661565b3480156102a457600080fd5b506101096102b33660046118f2565b610735565b3480156102c457600080fd5b50610130600081565b3480156102d957600080fd5b5061017e6102e83660046118da565b610760565b3480156102f957600080fd5b5061017e6103083660046117bb565b610792565b34801561031957600080fd5b5061017e6103283660046118f2565b61085a565b34801561033957600080fd5b50610130600080516020611c0783398151915281565b34801561035b57600080fd5b50610130600080516020611c4783398151915281565b60006001600160e01b03198216637965db0b60e01b14806103a257506301ffc9a760e01b6001600160e01b03198316145b92915050565b600090815260fb602052604090206001015490565b600260015414156103e95760405162461bcd60e51b81526004016103e090611af2565b60405180910390fd5b60026001556103f83382610877565b5060018055565b610408826103a8565b6104128133610a26565b61041c8383610a8a565b505050565b6001600160a01b03811633146104915760405162461bcd60e51b815260206004820152602f60248201527f416363657373436f6e74726f6c3a2063616e206f6e6c792072656e6f756e636560448201526e103937b632b9903337b91039b2b63360891b60648201526084016103e0565b61049b8282610b10565b5050565b306001600160a01b037f00000000000000000000000000000000000000000000000000000000000000001614156104e85760405162461bcd60e51b81526004016103e090611a30565b7f00000000000000000000000000000000000000000000000000000000000000006001600160a01b031661051a610b77565b6001600160a01b0316146105405760405162461bcd60e51b81526004016103e090611a6a565b61054981610b93565b6040805160008082526020820190925261056591839190610bac565b50565b306001600160a01b037f00000000000000000000000000000000000000000000000000000000000000001614156105b15760405162461bcd60e51b81526004016103e090611a30565b7f00000000000000000000000000000000000000000000000000000000000000006001600160a01b03166105e3610b77565b6001600160a01b0316146106095760405162461bcd60e51b81526004016103e090611a6a565b61061282610b93565b61049b82826001610bac565b6001600160a01b038116600090815261012f60209081526040808320815180830190925280548252600101549181018290529061065a90610cf3565b9392505050565b600080516020611c0783398151915261067a8133610a26565b61012d546001600160a01b03848116911614156106e35760405162461bcd60e51b815260206004820152602160248201527f43616e6e6f7420776974686472617720746865207374616b696e6720746f6b656044820152603760f91b60648201526084016103e0565b6106f76001600160a01b0384163384610e15565b7f8c1256b8896378cd5044f80c202f9772b9d77dc85c8a6eb51967210b09bfaa2883836040516107289291906119e4565b60405180910390a1505050565b600091825260fb602090815260408084206001600160a01b0393909316845291905290205460ff1690565b600260015414156107835760405162461bcd60e51b81526004016103e090611af2565b60026001556103f83382610e6b565b600054610100900460ff16806107ab575060005460ff16155b6107c75760405162461bcd60e51b81526004016103e090611aa4565b600054610100900460ff161580156107e9576000805461ffff19166101011790555b6107f1611012565b6107f961108d565b610811600080516020611c07833981519152336110ec565b610829600080516020611c47833981519152336110ec565b61012d80546001600160a01b0319166001600160a01b038416179055801561049b576000805461ff00191690555050565b610863826103a8565b61086d8133610a26565b61041c8383610b10565b6001600160a01b0382166108cd5760405162461bcd60e51b815260206004820152601d60248201527f45524332303a206275726e2066726f6d207a65726f206164647265737300000060448201526064016103e0565b6001600160a01b038216600090815261012f602090815260409182902082518084019093528054808452600190910154918301919091528211156109525760405162461bcd60e51b815260206004820152601c60248201527b45524332303a206275726e20616d6f756e74203e2062616c616e636560201b60448201526064016103e0565b61012e5461096090836110f6565b61012e556000610971600884611b41565b825161097d9190611b80565b602083015161098c9042611b80565b6109969190611b61565b82519091506000906109a89083611b41565b905060006109b68242611b80565b6001600160a01b03808816600090815261012f6020526040902060010182905561012d549192506109e991163387610e15565b60405185815233907f7084f5476618d8e60b11ef0d7d3f06914655adb8793e28ff7f018d4c76d505d59060200160405180910390a2505050505050565b610a308282610735565b61049b57610a48816001600160a01b03166014611102565b610a53836020611102565b604051602001610a64929190611961565b60408051601f198184030181529082905262461bcd60e51b82526103e0916004016119fd565b610a948282610735565b61049b57600082815260fb602090815260408083206001600160a01b03851684529091529020805460ff19166001179055610acc3390565b6001600160a01b0316816001600160a01b0316837f2f8788117e7eff1d82e926ec794901d17c78024a50270940304540a733656f0d60405160405180910390a45050565b610b1a8282610735565b1561049b57600082815260fb602090815260408083206001600160a01b0385168085529252808320805460ff1916905551339285917ff6391f5c32d9c69d2a47ea670b442974b53935d1edc7fd64eb21e047a839171b9190a45050565b600080516020611c67833981519152546001600160a01b031690565b600080516020611c4783398151915261049b8133610a26565b6000610bb6610b77565b9050610bc1846112e3565b600083511180610bce5750815b15610bdf57610bdd8484611376565b505b7f4910fdfa16fed3260ed0e7147f7cc6da11a60208b5b9406d12a635614ffd9143805460ff16610cec57805460ff19166001178155604051610c5a908690610c2b9085906024016119d0565b60408051601f198184030181529190526020810180516001600160e01b0316631b2ce7f360e11b179052611376565b50805460ff19168155610c6b610b77565b6001600160a01b0316826001600160a01b031614610ce35760405162461bcd60e51b815260206004820152602f60248201527f45524331393637557067726164653a207570677261646520627265616b73206660448201526e75727468657220757067726164657360881b60648201526084016103e0565b610cec85611461565b5050505050565b600081610d0257506000919050565b6000610d0e8342611b80565b905062015180811015610d245750600592915050565b62093a808111610d525762093a80610d3d82600f611b61565b610d479190611b41565b61065a906005611b29565b621275008111610d805762127500610d6b82600a611b61565b610d759190611b41565b61065a906014611b29565b622e24808111610dae57622e2480610d9982600a611b61565b610da39190611b41565b61065a90601e611b29565b626ebe008111610ddc57626ebe00610dc782600a611b61565b610dd19190611b41565b61065a906028611b29565b630114db008111610e0c57630114db00610df782600a611b61565b610e019190611b41565b61065a906032611b29565b50604292915050565b61041c8363a9059cbb60e01b8484604051602401610e349291906119e4565b60408051601f198184030181529190526020810180516001600160e01b03166001600160e01b0319909316929092179091526114a1565b60008111610eac5760405162461bcd60e51b815260206004820152600e60248201526d043616e6e6f74207374616b6520360941b60448201526064016103e0565b61012e54610eba9082611573565b61012e556001600160a01b038216600090815261012f60209081526040918290208251808401909352805480845260019091015491830191909152610f00908390611b29565b6001600160a01b038416600090815261012f6020908152604090912091909155810151610f4c576001600160a01b038316600090815261012f6020526040902042600190910155610fbf565b8051602082015160009190610f619042611b80565b610f6b9190611b61565b90506000610f7a600285611b41565b8351610f869190611b29565b610f909083611b41565b90506000610f9e8242611b80565b6001600160a01b038716600090815261012f60205260409020600101555050505b61012d54610fd8906001600160a01b031633308561157f565b60405182815233907f9e71bc8eea02a63969f509818f2dafb9254532904319f9dbda79b67bd34a5f3d9060200160405180910390a2505050565b600054610100900460ff168061102b575060005460ff16155b6110475760405162461bcd60e51b81526004016103e090611aa4565b600054610100900460ff16158015611069576000805461ffff19166101011790555b6110716115bd565b6110796115bd565b8015610565576000805461ff001916905550565b600054610100900460ff16806110a6575060005460ff16155b6110c25760405162461bcd60e51b81526004016103e090611aa4565b600054610100900460ff161580156110e4576000805461ffff19166101011790555b6110696115bd565b61049b8282610a8a565b600061065a8284611b80565b60606000611111836002611b61565b61111c906002611b29565b6001600160401b0381111561114157634e487b7160e01b600052604160045260246000fd5b6040519080825280601f01601f19166020018201604052801561116b576020820181803683370190505b509050600360fc1b8160008151811061119457634e487b7160e01b600052603260045260246000fd5b60200101906001600160f81b031916908160001a905350600f60fb1b816001815181106111d157634e487b7160e01b600052603260045260246000fd5b60200101906001600160f81b031916908160001a90535060006111f5846002611b61565b611200906001611b29565b90505b6001811115611294576f181899199a1a9b1b9c1cb0b131b232b360811b85600f166010811061124257634e487b7160e01b600052603260045260246000fd5b1a60f81b82828151811061126657634e487b7160e01b600052603260045260246000fd5b60200101906001600160f81b031916908160001a90535060049490941c9361128d81611bc3565b9050611203565b50831561065a5760405162461bcd60e51b815260206004820181905260248201527f537472696e67733a20686578206c656e67746820696e73756666696369656e7460448201526064016103e0565b803b6113475760405162461bcd60e51b815260206004820152602d60248201527f455243313936373a206e657720696d706c656d656e746174696f6e206973206e60448201526c1bdd08184818dbdb9d1c9858dd609a1b60648201526084016103e0565b600080516020611c6783398151915280546001600160a01b0319166001600160a01b0392909216919091179055565b6060823b6113d55760405162461bcd60e51b815260206004820152602660248201527f416464726573733a2064656c65676174652063616c6c20746f206e6f6e2d636f6044820152651b9d1c9858dd60d21b60648201526084016103e0565b600080846001600160a01b0316846040516113f09190611945565b600060405180830381855af49150503d806000811461142b576040519150601f19603f3d011682016040523d82523d6000602084013e611430565b606091505b50915091506114588282604051806060016040528060278152602001611c8760279139611627565b95945050505050565b61146a816112e3565b6040516001600160a01b038216907fbc7cd75a20ee27fd9adebab32041f755214dbc6bffa90cc0225b39da2e5c2d3b90600090a250565b60006114f6826040518060400160405280602081526020017f5361666545524332303a206c6f772d6c6576656c2063616c6c206661696c6564815250856001600160a01b03166116609092919063ffffffff16565b80519091501561041c578080602001905181019061151491906118ba565b61041c5760405162461bcd60e51b815260206004820152602a60248201527f5361666545524332303a204552433230206f7065726174696f6e20646964206e6044820152691bdd081cdd58d8d9595960b21b60648201526084016103e0565b600061065a8284611b29565b6040516001600160a01b03808516602483015283166044820152606481018290526115b79085906323b872dd60e01b90608401610e34565b50505050565b600054610100900460ff16806115d6575060005460ff16155b6115f25760405162461bcd60e51b81526004016103e090611aa4565b600054610100900460ff16158015611079576000805461ffff19166101011790558015610565576000805461ff001916905550565b6060831561163657508161065a565b8251156116465782518084602001fd5b8160405162461bcd60e51b81526004016103e091906119fd565b606061166f8484600085611677565b949350505050565b6060824710156116d85760405162461bcd60e51b815260206004820152602660248201527f416464726573733a20696e73756666696369656e742062616c616e636520666f6044820152651c8818d85b1b60d21b60648201526084016103e0565b843b6117265760405162461bcd60e51b815260206004820152601d60248201527f416464726573733a2063616c6c20746f206e6f6e2d636f6e747261637400000060448201526064016103e0565b600080866001600160a01b031685876040516117429190611945565b60006040518083038185875af1925050503d806000811461177f576040519150601f19603f3d011682016040523d82523d6000602084013e611784565b606091505b5091509150611794828286611627565b979650505050505050565b80356001600160a01b03811681146117b657600080fd5b919050565b6000602082840312156117cc578081fd5b61065a8261179f565b600080604083850312156117e7578081fd5b6117f08361179f565b915060208301356001600160401b038082111561180b578283fd5b818501915085601f83011261181e578283fd5b81358181111561183057611830611bf0565b604051601f8201601f19908116603f0116810190838211818310171561185857611858611bf0565b81604052828152886020848701011115611870578586fd5b82602086016020830137856020848301015280955050505050509250929050565b600080604083850312156118a3578182fd5b6118ac8361179f565b946020939093013593505050565b6000602082840312156118cb578081fd5b8151801515811461065a578182fd5b6000602082840312156118eb578081fd5b5035919050565b60008060408385031215611904578182fd5b823591506119146020840161179f565b90509250929050565b60006020828403121561192e578081fd5b81356001600160e01b03198116811461065a578182fd5b60008251611957818460208701611b97565b9190910192915050565b76020b1b1b2b9b9a1b7b73a3937b61d1030b1b1b7bab73a1604d1b815260008351611993816017850160208801611b97565b7001034b99036b4b9b9b4b733903937b6329607d1b60179184019182015283516119c4816028840160208801611b97565b01602801949350505050565b6001600160a01b0391909116815260200190565b6001600160a01b03929092168252602082015260400190565b6020815260008251806020840152611a1c816040850160208701611b97565b601f01601f19169190910160400192915050565b6020808252602c90820152600080516020611c2783398151915260408201526b19195b1959d85d1958d85b1b60a21b606082015260800190565b6020808252602c90820152600080516020611c2783398151915260408201526b6163746976652070726f787960a01b606082015260800190565b6020808252602e908201527f496e697469616c697a61626c653a20636f6e747261637420697320616c72656160408201526d191e481a5b9a5d1a585b1a5e995960921b606082015260800190565b6020808252601f908201527f5265656e7472616e637947756172643a207265656e7472616e742063616c6c00604082015260600190565b60008219821115611b3c57611b3c611bda565b500190565b600082611b5c57634e487b7160e01b81526012600452602481fd5b500490565b6000816000190483118215151615611b7b57611b7b611bda565b500290565b600082821015611b9257611b92611bda565b500390565b60005b83811015611bb2578181015183820152602001611b9a565b838111156115b75750506000910152565b600081611bd257611bd2611bda565b506000190190565b634e487b7160e01b600052601160045260246000fd5b634e487b7160e01b600052604160045260246000fdfeb19546dff01e856fb3f010c267a7b1c60363cf8a4664e21cc89c26224620214e46756e6374696f6e206d7573742062652063616c6c6564207468726f75676820189ab7a9244df0848122154315af71fe140f3db0fe014031783b0946b8c9d2e3360894a13ba1a3210667c828492db98dca3e2076cc3735a920a3ca505d382bbc416464726573733a206c6f772d6c6576656c2064656c65676174652063616c6c206661696c6564a2646970667358221220c5e0af3c2460f37cb83a1fd2aabd7028b1c39bb8136830ded0a6e4bb999aa23064736f6c63430008040033",
  "linkReferences": {},
  "deployedLinkReferences": {}
}