{
  "_format": "hh-sol-artifact-1",
  "contractName": "KaoToken",
  "sourceName": "contracts/KaoToken.sol",
  "abi": [
    {
      "inputs": [],
      "stateMutability": "nonpayable",
      "type": "constructor"
    },
    {
      "anonymous": false,
      "inputs": [
        {
          "indexed": true,
          "internalType": "address",
          "name": "owner",
          "type": "address"
        },
        {
          "indexed": true,
          "internalType": "address",
          "name": "spender",
          "type": "address"
        },
        {
          "indexed": false,
          "internalType": "uint256",
          "name": "value",
          "type": "uint256"
        }
      ],
      "name": "Approval",
      "type": "event"
    },
    {
      "anonymous": false,
      "inputs": [
        {
          "indexed": true,
          "internalType": "address",
          "name": "delegator",
          "type": "address"
        },
        {
          "indexed": true,
          "internalType": "address",
          "name": "fromDelegate",
          "type": "address"
        },
        {
          "indexed": true,
          "internalType": "address",
          "name": "toDelegate",
          "type": "address"
        }
      ],
      "name": "DelegateChanged",
      "type": "event"
    },
    {
      "anonymous": false,
      "inputs": [
        {
          "indexed": true,
          "internalType": "address",
          "name": "delegate",
          "type": "address"
        },
        {
          "indexed": false,
          "internalType": "uint256",
          "name": "previousBalance",
          "type": "uint256"
        },
        {
          "indexed": false,
          "internalType": "uint256",
          "name": "newBalance",
          "type": "uint256"
        }
      ],
      "name": "DelegateVotesChanged",
      "type": "event"
    },
    {
      "anonymous": false,
      "inputs": [
        {
          "indexed": true,
          "internalType": "bytes32",
          "name": "role",
          "type": "bytes32"
        },
        {
          "indexed": true,
          "internalType": "bytes32",
          "name": "previousAdminRole",
          "type": "bytes32"
        },
        {
          "indexed": true,
          "internalType": "bytes32",
          "name": "newAdminRole",
          "type": "bytes32"
        }
      ],
      "name": "RoleAdminChanged",
      "type": "event"
    },
    {
      "anonymous": false,
      "inputs": [
        {
          "indexed": true,
          "internalType": "bytes32",
          "name": "role",
          "type": "bytes32"
        },
        {
          "indexed": true,
          "internalType": "address",
          "name": "account",
          "type": "address"
        },
        {
          "indexed": true,
          "internalType": "address",
          "name": "sender",
          "type": "address"
        }
      ],
      "name": "RoleGranted",
      "type": "event"
    },
    {
      "anonymous": false,
      "inputs": [
        {
          "indexed": true,
          "internalType": "bytes32",
          "name": "role",
          "type": "bytes32"
        },
        {
          "indexed": true,
          "internalType": "address",
          "name": "account",
          "type": "address"
        },
        {
          "indexed": true,
          "internalType": "address",
          "name": "sender",
          "type": "address"
        }
      ],
      "name": "RoleRevoked",
      "type": "event"
    },
    {
      "anonymous": false,
      "inputs": [
        {
          "indexed": false,
          "internalType": "uint256",
          "name": "id",
          "type": "uint256"
        }
      ],
      "name": "Snapshot",
      "type": "event"
    },
    {
      "anonymous": false,
      "inputs": [
        {
          "indexed": true,
          "internalType": "address",
          "name": "from",
          "type": "address"
        },
        {
          "indexed": true,
          "internalType": "address",
          "name": "to",
          "type": "address"
        },
        {
          "indexed": false,
          "internalType": "uint256",
          "name": "value",
          "type": "uint256"
        }
      ],
      "name": "Transfer",
      "type": "event"
    },
    {
      "inputs": [],
      "name": "DEFAULT_ADMIN_ROLE",
      "outputs": [
        {
          "internalType": "bytes32",
          "name": "",
          "type": "bytes32"
        }
      ],
      "stateMutability": "view",
      "type": "function"
    },
    {
      "inputs": [],
      "name": "DOMAIN_SEPARATOR",
      "outputs": [
        {
          "internalType": "bytes32",
          "name": "",
          "type": "bytes32"
        }
      ],
      "stateMutability": "view",
      "type": "function"
    },
    {
      "inputs": [],
      "name": "MINTER_ROLE",
      "outputs": [
        {
          "internalType": "bytes32",
          "name": "",
          "type": "bytes32"
        }
      ],
      "stateMutability": "view",
      "type": "function"
    },
    {
      "inputs": [],
      "name": "SNAPSHOT_ROLE",
      "outputs": [
        {
          "internalType": "bytes32",
          "name": "",
          "type": "bytes32"
        }
      ],
      "stateMutability": "view",
      "type": "function"
    },
    {
      "inputs": [
        {
          "internalType": "address",
          "name": "owner",
          "type": "address"
        },
        {
          "internalType": "address",
          "name": "spender",
          "type": "address"
        }
      ],
      "name": "allowance",
      "outputs": [
        {
          "internalType": "uint256",
          "name": "",
          "type": "uint256"
        }
      ],
      "stateMutability": "view",
      "type": "function"
    },
    {
      "inputs": [
        {
          "internalType": "address",
          "name": "spender",
          "type": "address"
        },
        {
          "internalType": "uint256",
          "name": "amount",
          "type": "uint256"
        }
      ],
      "name": "approve",
      "outputs": [
        {
          "internalType": "bool",
          "name": "",
          "type": "bool"
        }
      ],
      "stateMutability": "nonpayable",
      "type": "function"
    },
    {
      "inputs": [
        {
          "internalType": "address",
          "name": "account",
          "type": "address"
        }
      ],
      "name": "balanceOf",
      "outputs": [
        {
          "internalType": "uint256",
          "name": "",
          "type": "uint256"
        }
      ],
      "stateMutability": "view",
      "type": "function"
    },
    {
      "inputs": [
        {
          "internalType": "address",
          "name": "account",
          "type": "address"
        },
        {
          "internalType": "uint256",
          "name": "snapshotId",
          "type": "uint256"
        }
      ],
      "name": "balanceOfAt",
      "outputs": [
        {
          "internalType": "uint256",
          "name": "",
          "type": "uint256"
        }
      ],
      "stateMutability": "view",
      "type": "function"
    },
    {
      "inputs": [
        {
          "internalType": "uint256",
          "name": "amount",
          "type": "uint256"
        }
      ],
      "name": "burn",
      "outputs": [],
      "stateMutability": "nonpayable",
      "type": "function"
    },
    {
      "inputs": [
        {
          "internalType": "address",
          "name": "account",
          "type": "address"
        },
        {
          "internalType": "uint32",
          "name": "pos",
          "type": "uint32"
        }
      ],
      "name": "checkpoints",
      "outputs": [
        {
          "components": [
            {
              "internalType": "uint32",
              "name": "fromBlock",
              "type": "uint32"
            },
            {
              "internalType": "uint224",
              "name": "votes",
              "type": "uint224"
            }
          ],
          "internalType": "struct ERC20Votes.Checkpoint",
          "name": "",
          "type": "tuple"
        }
      ],
      "stateMutability": "view",
      "type": "function"
    },
    {
      "inputs": [],
      "name": "decimals",
      "outputs": [
        {
          "internalType": "uint8",
          "name": "",
          "type": "uint8"
        }
      ],
      "stateMutability": "view",
      "type": "function"
    },
    {
      "inputs": [
        {
          "internalType": "address",
          "name": "spender",
          "type": "address"
        },
        {
          "internalType": "uint256",
          "name": "subtractedValue",
          "type": "uint256"
        }
      ],
      "name": "decreaseAllowance",
      "outputs": [
        {
          "internalType": "bool",
          "name": "",
          "type": "bool"
        }
      ],
      "stateMutability": "nonpayable",
      "type": "function"
    },
    {
      "inputs": [
        {
          "internalType": "address",
          "name": "delegatee",
          "type": "address"
        }
      ],
      "name": "delegate",
      "outputs": [],
      "stateMutability": "nonpayable",
      "type": "function"
    },
    {
      "inputs": [
        {
          "internalType": "address",
          "name": "delegatee",
          "type": "address"
        },
        {
          "internalType": "uint256",
          "name": "nonce",
          "type": "uint256"
        },
        {
          "internalType": "uint256",
          "name": "expiry",
          "type": "uint256"
        },
        {
          "internalType": "uint8",
          "name": "v",
          "type": "uint8"
        },
        {
          "internalType": "bytes32",
          "name": "r",
          "type": "bytes32"
        },
        {
          "internalType": "bytes32",
          "name": "s",
          "type": "bytes32"
        }
      ],
      "name": "delegateBySig",
      "outputs": [],
      "stateMutability": "nonpayable",
      "type": "function"
    },
    {
      "inputs": [
        {
          "internalType": "address",
          "name": "account",
          "type": "address"
        }
      ],
      "name": "delegates",
      "outputs": [
        {
          "internalType": "address",
          "name": "",
          "type": "address"
        }
      ],
      "stateMutability": "view",
      "type": "function"
    },
    {
      "inputs": [
        {
          "internalType": "uint256",
          "name": "blockNumber",
          "type": "uint256"
        }
      ],
      "name": "getPastTotalSupply",
      "outputs": [
        {
          "internalType": "uint256",
          "name": "",
          "type": "uint256"
        }
      ],
      "stateMutability": "view",
      "type": "function"
    },
    {
      "inputs": [
        {
          "internalType": "address",
          "name": "account",
          "type": "address"
        },
        {
          "internalType": "uint256",
          "name": "blockNumber",
          "type": "uint256"
        }
      ],
      "name": "getPastVotes",
      "outputs": [
        {
          "internalType": "uint256",
          "name": "",
          "type": "uint256"
        }
      ],
      "stateMutability": "view",
      "type": "function"
    },
    {
      "inputs": [
        {
          "internalType": "bytes32",
          "name": "role",
          "type": "bytes32"
        }
      ],
      "name": "getRoleAdmin",
      "outputs": [
        {
          "internalType": "bytes32",
          "name": "",
          "type": "bytes32"
        }
      ],
      "stateMutability": "view",
      "type": "function"
    },
    {
      "inputs": [
        {
          "internalType": "address",
          "name": "account",
          "type": "address"
        }
      ],
      "name": "getVotes",
      "outputs": [
        {
          "internalType": "uint256",
          "name": "",
          "type": "uint256"
        }
      ],
      "stateMutability": "view",
      "type": "function"
    },
    {
      "inputs": [
        {
          "internalType": "bytes32",
          "name": "role",
          "type": "bytes32"
        },
        {
          "internalType": "address",
          "name": "account",
          "type": "address"
        }
      ],
      "name": "grantRole",
      "outputs": [],
      "stateMutability": "nonpayable",
      "type": "function"
    },
    {
      "inputs": [
        {
          "internalType": "bytes32",
          "name": "role",
          "type": "bytes32"
        },
        {
          "internalType": "address",
          "name": "account",
          "type": "address"
        }
      ],
      "name": "hasRole",
      "outputs": [
        {
          "internalType": "bool",
          "name": "",
          "type": "bool"
        }
      ],
      "stateMutability": "view",
      "type": "function"
    },
    {
      "inputs": [
        {
          "internalType": "address",
          "name": "spender",
          "type": "address"
        },
        {
          "internalType": "uint256",
          "name": "addedValue",
          "type": "uint256"
        }
      ],
      "name": "increaseAllowance",
      "outputs": [
        {
          "internalType": "bool",
          "name": "",
          "type": "bool"
        }
      ],
      "stateMutability": "nonpayable",
      "type": "function"
    },
    {
      "inputs": [],
      "name": "name",
      "outputs": [
        {
          "internalType": "string",
          "name": "",
          "type": "string"
        }
      ],
      "stateMutability": "view",
      "type": "function"
    },
    {
      "inputs": [
        {
          "internalType": "address",
          "name": "owner",
          "type": "address"
        }
      ],
      "name": "nonces",
      "outputs": [
        {
          "internalType": "uint256",
          "name": "",
          "type": "uint256"
        }
      ],
      "stateMutability": "view",
      "type": "function"
    },
    {
      "inputs": [
        {
          "internalType": "address",
          "name": "account",
          "type": "address"
        }
      ],
      "name": "numCheckpoints",
      "outputs": [
        {
          "internalType": "uint32",
          "name": "",
          "type": "uint32"
        }
      ],
      "stateMutability": "view",
      "type": "function"
    },
    {
      "inputs": [
        {
          "internalType": "address",
          "name": "owner",
          "type": "address"
        },
        {
          "internalType": "address",
          "name": "spender",
          "type": "address"
        },
        {
          "internalType": "uint256",
          "name": "value",
          "type": "uint256"
        },
        {
          "internalType": "uint256",
          "name": "deadline",
          "type": "uint256"
        },
        {
          "internalType": "uint8",
          "name": "v",
          "type": "uint8"
        },
        {
          "internalType": "bytes32",
          "name": "r",
          "type": "bytes32"
        },
        {
          "internalType": "bytes32",
          "name": "s",
          "type": "bytes32"
        }
      ],
      "name": "permit",
      "outputs": [],
      "stateMutability": "nonpayable",
      "type": "function"
    },
    {
      "inputs": [
        {
          "internalType": "bytes32",
          "name": "role",
          "type": "bytes32"
        },
        {
          "internalType": "address",
          "name": "account",
          "type": "address"
        }
      ],
      "name": "renounceRole",
      "outputs": [],
      "stateMutability": "nonpayable",
      "type": "function"
    },
    {
      "inputs": [
        {
          "internalType": "bytes32",
          "name": "role",
          "type": "bytes32"
        },
        {
          "internalType": "address",
          "name": "account",
          "type": "address"
        }
      ],
      "name": "revokeRole",
      "outputs": [],
      "stateMutability": "nonpayable",
      "type": "function"
    },
    {
      "inputs": [],
      "name": "snapshot",
      "outputs": [],
      "stateMutability": "nonpayable",
      "type": "function"
    },
    {
      "inputs": [
        {
          "internalType": "bytes4",
          "name": "interfaceId",
          "type": "bytes4"
        }
      ],
      "name": "supportsInterface",
      "outputs": [
        {
          "internalType": "bool",
          "name": "",
          "type": "bool"
        }
      ],
      "stateMutability": "view",
      "type": "function"
    },
    {
      "inputs": [],
      "name": "symbol",
      "outputs": [
        {
          "internalType": "string",
          "name": "",
          "type": "string"
        }
      ],
      "stateMutability": "view",
      "type": "function"
    },
    {
      "inputs": [],
      "name": "totalSupply",
      "outputs": [
        {
          "internalType": "uint256",
          "name": "",
          "type": "uint256"
        }
      ],
      "stateMutability": "view",
      "type": "function"
    },
    {
      "inputs": [
        {
          "internalType": "uint256",
          "name": "snapshotId",
          "type": "uint256"
        }
      ],
      "name": "totalSupplyAt",
      "outputs": [
        {
          "internalType": "uint256",
          "name": "",
          "type": "uint256"
        }
      ],
      "stateMutability": "view",
      "type": "function"
    },
    {
      "inputs": [
        {
          "internalType": "address",
          "name": "recipient",
          "type": "address"
        },
        {
          "internalType": "uint256",
          "name": "amount",
          "type": "uint256"
        }
      ],
      "name": "transfer",
      "outputs": [
        {
          "internalType": "bool",
          "name": "",
          "type": "bool"
        }
      ],
      "stateMutability": "nonpayable",
      "type": "function"
    },
    {
      "inputs": [
        {
          "internalType": "address",
          "name": "sender",
          "type": "address"
        },
        {
          "internalType": "address",
          "name": "recipient",
          "type": "address"
        },
        {
          "internalType": "uint256",
          "name": "amount",
          "type": "uint256"
        }
      ],
      "name": "transferFrom",
      "outputs": [
        {
          "internalType": "bool",
          "name": "",
          "type": "bool"
        }
      ],
      "stateMutability": "nonpayable",
      "type": "function"
    }
  ],
  "bytecode": "0x6101406040527f6e71edae12b1b97f4d1f60370fef10105fa2faae0126114a169c64845d6126c9610120523480156200003757600080fd5b506040518060400160405280600781526020016626bcaa37b5b2b760c91b81525080604051806040016040528060018152602001603160f81b8152506040518060400160405280600881526020016725b0b7aa37b5b2b760c11b815250604051806040016040528060038152602001624b414f60e81b8152508160039080519060200190620000c892919062000aa9565b508051620000de90600490602084019062000aa9565b5050825160209384012082519284019290922060c083815260e08290524660a0818152604080517f8b73c3c69bb8fe3d512ecc4cf759cc79239f7b179b0ffacaa9a75d522b39400f818a018190528183019890985260608101959095526080808601939093523085830152805180860390920182529390920190925280519401939093209092526101005250620001799050600033620001ff565b620001a57f5fdbd35e8da83ee755d5e62a539e5ed7f47126abede0b8b10f9ea43dc6eed07f33620001ff565b620001d17f9f2df0fed2c77648de5860a4cc508cd0818c85b8b8a1ab4ceeef8d981c8956a633620001ff565b620001f933620001e46012600a62000ba9565b620001f390620f424062000c68565b6200020f565b62000cf7565b6200020b828262000226565b5050565b6200020b8282620002b060201b62000d9b1760201c565b62000232828262000367565b6200020b5760008281526009602090815260408083206001600160a01b03851684529091529020805460ff191660011790556200026c3390565b6001600160a01b0316816001600160a01b0316837f2f8788117e7eff1d82e926ec794901d17c78024a50270940304540a733656f0d60405160405180910390a45050565b620002c782826200039460201b62000e2b1760201c565b6001600160e01b03620002db620004918216565b1115620003485760405162461bcd60e51b815260206004820152603060248201527f4552433230566f7465733a20746f74616c20737570706c79207269736b73206f60448201526f766572666c6f77696e6720766f74657360801b60648201526084015b60405180910390fd5b62000361600d62000f0c6200049760201b1783620004ac565b50505050565b60008281526009602090815260408083206001600160a01b038516845290915290205460ff165b92915050565b6001600160a01b038216620003ec5760405162461bcd60e51b815260206004820152601f60248201527f45524332303a206d696e7420746f20746865207a65726f20616464726573730060448201526064016200033f565b620003fa6000838362000682565b80600260008282546200040e919062000b45565b90915550506001600160a01b038216600090815260208190526040812080548392906200043d90849062000b45565b90915550506040518181526001600160a01b038316906000907fddf252ad1be2c89b69c2b068fc378daa952ba7f163c4a11628f55a4df523b3ef9060200160405180910390a36200020b600083836200069f565b60025490565b6000620004a5828462000b45565b9392505050565b8254600090819080156200050a5785620004c860018362000c8a565b81548110620004e757634e487b7160e01b600052603260045260246000fd5b60009182526020909120015464010000000090046001600160e01b03166200050d565b60005b6001600160e01b031692506200052483858760201c565b915060008111801562000574575043866200054160018462000c8a565b815481106200056057634e487b7160e01b600052603260045260246000fd5b60009182526020909120015463ffffffff16145b15620005f4576200059082620006b760201b62000f181760201c565b866200059e60018462000c8a565b81548110620005bd57634e487b7160e01b600052603260045260246000fd5b9060005260206000200160000160046101000a8154816001600160e01b0302191690836001600160e01b0316021790555062000679565b85604051806040016040528062000616436200072660201b62000f851760201c565b63ffffffff1681526020016200063785620006b760201b62000f181760201c565b6001600160e01b0390811690915282546001810184556000938452602093849020835194909301519091166401000000000263ffffffff909316929092179101555b50935093915050565b6200069a8383836200078d60201b62000fea1760201c565b505050565b6200069a838383620007f960201b620010321760201c565b60006001600160e01b03821115620007225760405162461bcd60e51b815260206004820152602760248201527f53616665436173743a2076616c756520646f65736e27742066697420696e20326044820152663234206269747360c81b60648201526084016200033f565b5090565b600063ffffffff821115620007225760405162461bcd60e51b815260206004820152602660248201527f53616665436173743a2076616c756520646f65736e27742066697420696e203360448201526532206269747360d01b60648201526084016200033f565b620007a58383836200069a60201b6200067a1760201c565b6001600160a01b038316620007c957620007bf8262000832565b6200069a6200086a565b6001600160a01b038216620007e357620007bf8362000832565b620007ee8362000832565b6200069a8262000832565b620008118383836200069a60201b6200067a1760201c565b6200069a62000820846200087c565b6200082b846200087c565b836200089a565b6001600160a01b03811660009081526005602090815260408083209183905290912054620008679190620009d5565b620009d5565b50565b6200087a60066200086160025490565b565b6001600160a01b039081166000908152600b60205260409020541690565b816001600160a01b0316836001600160a01b031614158015620008bd5750600081115b156200069a576001600160a01b038316156200094a576001600160a01b0383166000908152600c602090815260408220829162000907919062000a24901b6200104d1785620004ac565b91509150846001600160a01b0316600080516020620035a783398151915283836040516200093f929190918252602082015260400190565b60405180910390a250505b6001600160a01b038216156200069a576001600160a01b0382166000908152600c60209081526040822082916200098e919062000497901b62000f0c1785620004ac565b91509150836001600160a01b0316600080516020620035a78339815191528383604051620009c6929190918252602082015260400190565b60405180910390a25050505050565b6000620009e162000a32565b905080620009ef8462000a50565b10156200069a578254600180820185556000858152602080822090930193909355938401805494850181558252902090910155565b6000620004a5828462000c8a565b600062000a4b600862000aa560201b620010591760201c565b905090565b805460009062000a6257506000919050565b8154829062000a749060019062000c8a565b8154811062000a9357634e487b7160e01b600052603260045260246000fd5b90600052602060002001549050919050565b5490565b82805462000ab79062000ca4565b90600052602060002090601f01602090048101928262000adb576000855562000b26565b82601f1062000af657805160ff191683800117855562000b26565b8280016001018555821562000b26579182015b8281111562000b2657825182559160200191906001019062000b09565b50620007229291505b8082111562000722576000815560010162000b2f565b6000821982111562000b5b5762000b5b62000ce1565b500190565b600181815b8085111562000ba157816000190482111562000b855762000b8562000ce1565b8085161562000b9357918102915b93841c939080029062000b65565b509250929050565b6000620004a560ff84168360008262000bc5575060016200038e565b8162000bd4575060006200038e565b816001811462000bed576002811462000bf85762000c18565b60019150506200038e565b60ff84111562000c0c5762000c0c62000ce1565b50506001821b6200038e565b5060208310610133831016604e8410600b841016171562000c3d575081810a6200038e565b62000c49838362000b60565b806000190482111562000c605762000c6062000ce1565b029392505050565b600081600019048311821515161562000c855762000c8562000ce1565b500290565b60008282101562000c9f5762000c9f62000ce1565b500390565b600181811c9082168062000cb957607f821691505b6020821081141562000cdb57634e487b7160e01b600052602260045260246000fd5b50919050565b634e487b7160e01b600052601160045260246000fd5b60805160a05160c05160e051610100516101205161286062000d476000396000610bdd0152600061148e015260006114dd015260006114b80152600061143c0152600061146501526128606000f3fe608060405234801561001057600080fd5b50600436106101a15760003560e01c806301ffc9a7146101a657806306fdde03146101ce578063095ea7b3146101e357806318160ddd146101f657806323b872dd14610208578063248a9ca31461021b5780632f2ff15d1461022e578063313ce567146102435780633644e5151461025257806336568abe1461025a578063395093511461026d5780633a46b1a81461028057806342966c68146102935780634ee2cd7e146102a6578063587cde1e146102b95780635c19a95c146102e45780636fcfff45146102f75780637028e2cd1461031f57806370a08231146103345780637ecebe00146103475780638e539e8c1461035a57806391d148541461036d57806395d89b41146103805780639711715a14610388578063981b24d0146103905780639ab24eb0146103a3578063a217fddf146103b6578063a457c2d7146103be578063a9059cbb146103d1578063c3cda520146103e4578063d505accf146103f7578063d53913931461040a578063d547741f14610431578063dd62ed3e14610444578063f1127ed81461047d575b600080fd5b6101b96101b43660046125cd565b6104ba565b60405190151581526020015b60405180910390f35b6101d66104f1565b6040516101c59190612664565b6101b96101f13660046124d5565b610583565b6002545b6040519081526020016101c5565b6101b9610216366004612431565b610599565b6101fa610229366004612593565b610648565b61024161023c3660046125ab565b61065d565b005b604051601281526020016101c5565b6101fa61067f565b6102416102683660046125ab565b61068e565b6101b961027b3660046124d5565b61070c565b6101fa61028e3660046124d5565b610748565b6102416102a1366004612593565b610792565b6101fa6102b43660046124d5565b61079f565b6102cc6102c73660046123e5565b6107e8565b6040516001600160a01b0390911681526020016101c5565b6102416102f23660046123e5565b610806565b61030a6103053660046123e5565b610810565b60405163ffffffff90911681526020016101c5565b6101fa6000805160206127cb83398151915281565b6101fa6103423660046123e5565b610832565b6101fa6103553660046123e5565b61084d565b6101fa610368366004612593565b61086b565b6101b961037b3660046125ab565b610897565b6101d66108c2565b6102416108d1565b6101fa61039e366004612593565b6108f2565b6101fa6103b13660046123e5565b61091d565b6101fa600081565b6101b96103cc3660046124d5565b6109b1565b6101b96103df3660046124d5565b610a4a565b6102416103f23660046124fe565b610a57565b61024161040536600461246c565b610b89565b6101fa7f9f2df0fed2c77648de5860a4cc508cd0818c85b8b8a1ab4ceeef8d981c8956a681565b61024161043f3660046125ab565b610ced565b6101fa6104523660046123ff565b6001600160a01b03918216600090815260016020908152604080832093909416825291909152205490565b61049061048b366004612555565b610d0a565b60408051825163ffffffff1681526020928301516001600160e01b031692810192909252016101c5565b60006001600160e01b03198216637965db0b60e01b14806104eb57506301ffc9a760e01b6001600160e01b03198316145b92915050565b6060600380546105009061277f565b80601f016020809104026020016040519081016040528092919081815260200182805461052c9061277f565b80156105795780601f1061054e57610100808354040283529160200191610579565b820191906000526020600020905b81548152906001019060200180831161055c57829003601f168201915b5050505050905090565b600061059033848461105d565b50600192915050565b60006105a6848484611181565b6001600160a01b0384166000908152600160209081526040808320338452909152902054828110156106305760405162461bcd60e51b815260206004820152602860248201527f45524332303a207472616e7366657220616d6f756e74206578636565647320616044820152676c6c6f77616e636560c01b60648201526084015b60405180910390fd5b61063d853385840361105d565b506001949350505050565b60009081526009602052604090206001015490565b61066682610648565b610670813361134e565b61067a83836113b2565b505050565b6000610689611438565b905090565b6001600160a01b03811633146106fe5760405162461bcd60e51b815260206004820152602f60248201527f416363657373436f6e74726f6c3a2063616e206f6e6c792072656e6f756e636560448201526e103937b632b9903337b91039b2b63360891b6064820152608401610627565b610708828261152b565b5050565b3360008181526001602090815260408083206001600160a01b038716845290915281205490916105909185906107439086906126ce565b61105d565b60004382106107695760405162461bcd60e51b815260040161062790612697565b6001600160a01b0383166000908152600c6020526040902061078b9083611592565b9392505050565b61079c338261166a565b50565b6001600160a01b0382166000908152600560205260408120819081906107c6908590611682565b91509150816107dd576107d885610832565b6107df565b805b95945050505050565b6001600160a01b039081166000908152600b60205260409020541690565b61079c3382611787565b6001600160a01b0381166000908152600c60205260408120546104eb90610f85565b6001600160a01b031660009081526020819052604090205490565b6001600160a01b0381166000908152600a60205260408120546104eb565b600043821061088c5760405162461bcd60e51b815260040161062790612697565b6104eb600d83611592565b60009182526009602090815260408084206001600160a01b0393909316845291905290205460ff1690565b6060600480546105009061277f565b6000805160206127cb8339815191526108ea813361134e565b610708611807565b6000806000610902846006611682565b915091508161091357600254610915565b805b949350505050565b6001600160a01b0381166000908152600c6020526040812054801561099e576001600160a01b0383166000908152600c6020526040902061095f600183612725565b8154811061097d57634e487b7160e01b600052603260045260246000fd5b600091825260209091200154600160201b90046001600160e01b03166109a1565b60005b6001600160e01b03169392505050565b3360009081526001602090815260408083206001600160a01b038616845290915281205482811015610a335760405162461bcd60e51b815260206004820152602560248201527f45524332303a2064656372656173656420616c6c6f77616e63652062656c6f77604482015264207a65726f60d81b6064820152608401610627565b610a40338585840361105d565b5060019392505050565b6000610590338484611181565b83421115610aa75760405162461bcd60e51b815260206004820152601d60248201527f4552433230566f7465733a207369676e617475726520657870697265640000006044820152606401610627565b604080517fe48329057bfd03d55e49b547132e39cffd9c1820ad7b9d4c5307691425d15adf60208201526001600160a01b038816918101919091526060810186905260808101859052600090610b2190610b199060a00160405160208183030381529060405280519060200120611861565b8585856118af565b9050610b2c816118d7565b8614610b765760405162461bcd60e51b81526020600482015260196024820152784552433230566f7465733a20696e76616c6964206e6f6e636560381b6044820152606401610627565b610b808188611787565b50505050505050565b83421115610bd95760405162461bcd60e51b815260206004820152601d60248201527f45524332305065726d69743a206578706972656420646561646c696e650000006044820152606401610627565b60007f0000000000000000000000000000000000000000000000000000000000000000888888610c088c6118d7565b6040805160208101969096526001600160a01b0394851690860152929091166060840152608083015260a082015260c0810186905260e0016040516020818303038152906040528051906020012090506000610c6382611861565b90506000610c73828787876118af565b9050896001600160a01b0316816001600160a01b031614610cd65760405162461bcd60e51b815260206004820152601e60248201527f45524332305065726d69743a20696e76616c6964207369676e617475726500006044820152606401610627565b610ce18a8a8a61105d565b50505050505050505050565b610cf682610648565b610d00813361134e565b61067a838361152b565b60408051808201909152600080825260208201526001600160a01b0383166000908152600c60205260409020805463ffffffff8416908110610d5c57634e487b7160e01b600052603260045260246000fd5b60009182526020918290206040805180820190915291015463ffffffff81168252600160201b90046001600160e01b0316918101919091529392505050565b610da58282610e2b565b6002546001600160e01b031015610e175760405162461bcd60e51b815260206004820152603060248201527f4552433230566f7465733a20746f74616c20737570706c79207269736b73206f60448201526f766572666c6f77696e6720766f74657360801b6064820152608401610627565b610e25600d610f0c836118ff565b50505050565b6001600160a01b038216610e815760405162461bcd60e51b815260206004820152601f60248201527f45524332303a206d696e7420746f20746865207a65726f2061646472657373006044820152606401610627565b610e8d60008383611aa0565b8060026000828254610e9f91906126ce565b90915550506001600160a01b03821660009081526020819052604081208054839290610ecc9084906126ce565b90915550506040518181526001600160a01b038316906000906000805160206127eb8339815191529060200160405180910390a361070860008383611aab565b600061078b82846126ce565b60006001600160e01b03821115610f815760405162461bcd60e51b815260206004820152602760248201527f53616665436173743a2076616c756520646f65736e27742066697420696e20326044820152663234206269747360c81b6064820152608401610627565b5090565b600063ffffffff821115610f815760405162461bcd60e51b815260206004820152602660248201527f53616665436173743a2076616c756520646f65736e27742066697420696e203360448201526532206269747360d01b6064820152608401610627565b6001600160a01b0383166110095761100182611ab6565b61067a611ae0565b6001600160a01b0382166110205761100183611ab6565b61102983611ab6565b61067a82611ab6565b61067a61103e846107e8565b611047846107e8565b83611af0565b600061078b8284612725565b5490565b6001600160a01b0383166110bf5760405162461bcd60e51b8152602060048201526024808201527f45524332303a20617070726f76652066726f6d20746865207a65726f206164646044820152637265737360e01b6064820152608401610627565b6001600160a01b0382166111205760405162461bcd60e51b815260206004820152602260248201527f45524332303a20617070726f766520746f20746865207a65726f206164647265604482015261737360f01b6064820152608401610627565b6001600160a01b0383811660008181526001602090815260408083209487168084529482529182902085905590518481527f8c5be1e5ebec7d5bd14f71427d1e84f3dd0314c0f7b2291e5b200ac8c7c3b925910160405180910390a3505050565b6001600160a01b0383166111e55760405162461bcd60e51b815260206004820152602560248201527f45524332303a207472616e736665722066726f6d20746865207a65726f206164604482015264647265737360d81b6064820152608401610627565b6001600160a01b0382166112475760405162461bcd60e51b815260206004820152602360248201527f45524332303a207472616e7366657220746f20746865207a65726f206164647260448201526265737360e81b6064820152608401610627565b611252838383611aa0565b6001600160a01b038316600090815260208190526040902054818110156112ca5760405162461bcd60e51b815260206004820152602660248201527f45524332303a207472616e7366657220616d6f756e7420657863656564732062604482015265616c616e636560d01b6064820152608401610627565b6001600160a01b038085166000908152602081905260408082208585039055918516815290812080548492906113019084906126ce565b92505081905550826001600160a01b0316846001600160a01b03166000805160206127eb8339815191528460405161133b91815260200190565b60405180910390a3610e25848484611aab565b6113588282610897565b61070857611370816001600160a01b03166014611c09565b61137b836020611c09565b60405160200161138c9291906125f5565b60408051601f198184030181529082905262461bcd60e51b825261062791600401612664565b6113bc8282610897565b6107085760008281526009602090815260408083206001600160a01b03851684529091529020805460ff191660011790556113f43390565b6001600160a01b0316816001600160a01b0316837f2f8788117e7eff1d82e926ec794901d17c78024a50270940304540a733656f0d60405160405180910390a45050565b60007f000000000000000000000000000000000000000000000000000000000000000046141561148757507f000000000000000000000000000000000000000000000000000000000000000090565b50604080517f00000000000000000000000000000000000000000000000000000000000000006020808301919091527f0000000000000000000000000000000000000000000000000000000000000000828401527f000000000000000000000000000000000000000000000000000000000000000060608301524660808301523060a0808401919091528351808403909101815260c0909201909252805191012090565b6115358282610897565b156107085760008281526009602090815260408083206001600160a01b0385168085529252808320805460ff1916905551339285917ff6391f5c32d9c69d2a47ea670b442974b53935d1edc7fd64eb21e047a839171b9190a45050565b8154600090815b818110156116045760006115ad8284611dea565b9050848682815481106115d057634e487b7160e01b600052603260045260246000fd5b60009182526020909120015463ffffffff1611156115f0578092506115fe565b6115fb8160016126ce565b91505b50611599565b81156116555784611616600184612725565b8154811061163457634e487b7160e01b600052603260045260246000fd5b600091825260209091200154600160201b90046001600160e01b0316611658565b60005b6001600160e01b031695945050505050565b6116748282611e05565b610e25600d61104d836118ff565b600080600084116116ce5760405162461bcd60e51b815260206004820152601660248201527504552433230536e617073686f743a20696420697320360541b6044820152606401610627565b6116d6611f54565b8411156117255760405162461bcd60e51b815260206004820152601d60248201527f4552433230536e617073686f743a206e6f6e6578697374656e742069640000006044820152606401610627565b60006117318486611f5f565b845490915081141561174a576000809250925050611780565b600184600101828154811061176f57634e487b7160e01b600052603260045260246000fd5b906000526020600020015492509250505b9250929050565b6000611792836107e8565b9050600061179f84610832565b6001600160a01b038581166000818152600b602052604080822080546001600160a01b031916898616908117909155905194955093928616927f3134e8a2e6d97e929a7e54011ea5485d7d196dd5f0ba4d4ef95803e8e3fc257f9190a4610e25828483611af0565b6000611817600880546001019055565b6000611821611f54565b90507f8030e83b04d87bef53480e26263266d6ca66863aa8506aca6f2559d18aa1cb678160405161185491815260200190565b60405180910390a1919050565b60006104eb61186e611438565b8360405161190160f01b6020820152602281018390526042810182905260009060620160405160208183030381529060405280519060200120905092915050565b60008060006118c08787878761203e565b915091506118cd81612121565b5095945050505050565b6001600160a01b0381166000908152600a602052604090208054600181018255905b50919050565b8254600090819080156119575785611918600183612725565b8154811061193657634e487b7160e01b600052603260045260246000fd5b600091825260209091200154600160201b90046001600160e01b031661195a565b60005b6001600160e01b0316925061197383858763ffffffff16565b91506000811180156119bf5750438661198d600184612725565b815481106119ab57634e487b7160e01b600052603260045260246000fd5b60009182526020909120015463ffffffff16145b15611a2d576119cd82610f18565b866119d9600184612725565b815481106119f757634e487b7160e01b600052603260045260246000fd5b9060005260206000200160000160046101000a8154816001600160e01b0302191690836001600160e01b03160217905550611a97565b856040518060400160405280611a4243610f85565b63ffffffff168152602001611a5685610f18565b6001600160e01b039081169091528254600181018455600093845260209384902083519490930151909116600160201b0263ffffffff909316929092179101555b50935093915050565b61067a838383610fea565b61067a838383611032565b6001600160a01b038116600090815260056020526040902061079c90611adb83610832565b61231d565b611aee6006611adb60025490565b565b816001600160a01b0316836001600160a01b031614158015611b125750600081115b1561067a576001600160a01b03831615611b8e576001600160a01b0383166000908152600c602052604081208190611b4d9061104d856118ff565b91509150846001600160a01b031660008051602061280b8339815191528383604051611b83929190918252602082015260400190565b60405180910390a250505b6001600160a01b0382161561067a576001600160a01b0382166000908152600c602052604081208190611bc490610f0c856118ff565b91509150836001600160a01b031660008051602061280b8339815191528383604051611bfa929190918252602082015260400190565b60405180910390a25050505050565b60606000611c18836002612706565b611c239060026126ce565b6001600160401b03811115611c4857634e487b7160e01b600052604160045260246000fd5b6040519080825280601f01601f191660200182016040528015611c72576020820181803683370190505b509050600360fc1b81600081518110611c9b57634e487b7160e01b600052603260045260246000fd5b60200101906001600160f81b031916908160001a905350600f60fb1b81600181518110611cd857634e487b7160e01b600052603260045260246000fd5b60200101906001600160f81b031916908160001a9053506000611cfc846002612706565b611d079060016126ce565b90505b6001811115611d9b576f181899199a1a9b1b9c1cb0b131b232b360811b85600f1660108110611d4957634e487b7160e01b600052603260045260246000fd5b1a60f81b828281518110611d6d57634e487b7160e01b600052603260045260246000fd5b60200101906001600160f81b031916908160001a90535060049490941c93611d9481612768565b9050611d0a565b50831561078b5760405162461bcd60e51b815260206004820181905260248201527f537472696e67733a20686578206c656e67746820696e73756666696369656e746044820152606401610627565b6000611df960028484186126e6565b61078b908484166126ce565b6001600160a01b038216611e655760405162461bcd60e51b815260206004820152602160248201527f45524332303a206275726e2066726f6d20746865207a65726f206164647265736044820152607360f81b6064820152608401610627565b611e7182600083611aa0565b6001600160a01b03821660009081526020819052604090205481811015611ee55760405162461bcd60e51b815260206004820152602260248201527f45524332303a206275726e20616d6f756e7420657863656564732062616c616e604482015261636560f01b6064820152608401610627565b6001600160a01b0383166000908152602081905260408120838303905560028054849290611f14908490612725565b90915550506040518281526000906001600160a01b038516906000805160206127eb8339815191529060200160405180910390a361067a83600084611aab565b600061068960085490565b8154600090611f70575060006104eb565b82546000905b80821015611fda576000611f8a8383611dea565b905084868281548110611fad57634e487b7160e01b600052603260045260246000fd5b90600052602060002001541115611fc657809150611fd4565b611fd18160016126ce565b92505b50611f76565b60008211801561201d57508385611ff2600185612725565b8154811061201057634e487b7160e01b600052603260045260246000fd5b9060005260206000200154145b156120365761202d600183612725565b925050506104eb565b5090506104eb565b6000806fa2a8918ca85bafe22016d0b997e4df60600160ff1b0383111561206b5750600090506003612118565b8460ff16601b1415801561208357508460ff16601c14155b156120945750600090506004612118565b6040805160008082526020820180845289905260ff881692820192909252606081018690526080810185905260019060a0016020604051602081039080840390855afa1580156120e8573d6000803e3d6000fd5b5050604051601f1901519150506001600160a01b03811661211157600060019250925050612118565b9150600090505b94509492505050565b600081600481111561214357634e487b7160e01b600052602160045260246000fd5b141561214c5750565b600181600481111561216e57634e487b7160e01b600052602160045260246000fd5b14156121b75760405162461bcd60e51b815260206004820152601860248201527745434453413a20696e76616c6964207369676e617475726560401b6044820152606401610627565b60028160048111156121d957634e487b7160e01b600052602160045260246000fd5b14156122275760405162461bcd60e51b815260206004820152601f60248201527f45434453413a20696e76616c6964207369676e6174757265206c656e677468006044820152606401610627565b600381600481111561224957634e487b7160e01b600052602160045260246000fd5b14156122a25760405162461bcd60e51b815260206004820152602260248201527f45434453413a20696e76616c6964207369676e6174757265202773272076616c604482015261756560f01b6064820152608401610627565b60048160048111156122c457634e487b7160e01b600052602160045260246000fd5b141561079c5760405162461bcd60e51b815260206004820152602260248201527f45434453413a20696e76616c6964207369676e6174757265202776272076616c604482015261756560f01b6064820152608401610627565b6000612327611f54565b90508061233384612367565b101561067a578254600180820185556000858152602080822090930193909355938401805494850181558252902090910155565b805460009061237857506000919050565b8154829061238890600190612725565b815481106123a657634e487b7160e01b600052603260045260246000fd5b90600052602060002001549050919050565b919050565b80356001600160a01b03811681146123b857600080fd5b803560ff811681146123b857600080fd5b6000602082840312156123f6578081fd5b61078b826123bd565b60008060408385031215612411578081fd5b61241a836123bd565b9150612428602084016123bd565b90509250929050565b600080600060608486031215612445578081fd5b61244e846123bd565b925061245c602085016123bd565b9150604084013590509250925092565b600080600080600080600060e0888a031215612486578283fd5b61248f886123bd565b965061249d602089016123bd565b955060408801359450606088013593506124b9608089016123d4565b925060a0880135915060c0880135905092959891949750929550565b600080604083850312156124e7578182fd5b6124f0836123bd565b946020939093013593505050565b60008060008060008060c08789031215612516578182fd5b61251f876123bd565b9550602087013594506040870135935061253b606088016123d4565b92506080870135915060a087013590509295509295509295565b60008060408385031215612567578182fd5b612570836123bd565b9150602083013563ffffffff81168114612588578182fd5b809150509250929050565b6000602082840312156125a4578081fd5b5035919050565b600080604083850312156125bd578182fd5b82359150612428602084016123bd565b6000602082840312156125de578081fd5b81356001600160e01b03198116811461078b578182fd5b76020b1b1b2b9b9a1b7b73a3937b61d1030b1b1b7bab73a1604d1b81526000835161262781601785016020880161273c565b7001034b99036b4b9b9b4b733903937b6329607d1b601791840191820152835161265881602884016020880161273c565b01602801949350505050565b602081526000825180602084015261268381604085016020870161273c565b601f01601f19169190910160400192915050565b6020808252601f908201527f4552433230566f7465733a20626c6f636b206e6f7420796574206d696e656400604082015260600190565b600082198211156126e1576126e16127b4565b500190565b60008261270157634e487b7160e01b81526012600452602481fd5b500490565b6000816000190483118215151615612720576127206127b4565b500290565b600082821015612737576127376127b4565b500390565b60005b8381101561275757818101518382015260200161273f565b83811115610e255750506000910152565b600081612777576127776127b4565b506000190190565b600181811c9082168061279357607f821691505b602082108114156118f957634e487b7160e01b600052602260045260246000fd5b634e487b7160e01b600052601160045260246000fdfe5fdbd35e8da83ee755d5e62a539e5ed7f47126abede0b8b10f9ea43dc6eed07fddf252ad1be2c89b69c2b068fc378daa952ba7f163c4a11628f55a4df523b3efdec2bacdd2f05b59de34da9b523dff8be42e5e38e818c82fdb0bae774387a724a26469706673582212208870520bafbd4b44ca284705f80c5f637ac3125cbfd6e6fed86e93705cece50164736f6c63430008040033dec2bacdd2f05b59de34da9b523dff8be42e5e38e818c82fdb0bae774387a724",
  "linkReferences": {},
  "deployedLinkReferences": {}
}