{
  "_format": "hh-sol-artifact-1",
  "contractName": "KaoToken",
  "sourceName": "contracts/KaoToken.sol",
  "abi": [
    {
      "inputs": [],
      "stateMutability": "nonpayable",
      "type": "constructor"
    },
    {
      "anonymous": false,
      "inputs": [
        {
          "indexed": true,
          "internalType": "address",
          "name": "owner",
          "type": "address"
        },
        {
          "indexed": true,
          "internalType": "address",
          "name": "spender",
          "type": "address"
        },
        {
          "indexed": false,
          "internalType": "uint256",
          "name": "value",
          "type": "uint256"
        }
      ],
      "name": "Approval",
      "type": "event"
    },
    {
      "anonymous": false,
      "inputs": [
        {
          "indexed": true,
          "internalType": "address",
          "name": "delegator",
          "type": "address"
        },
        {
          "indexed": true,
          "internalType": "address",
          "name": "fromDelegate",
          "type": "address"
        },
        {
          "indexed": true,
          "internalType": "address",
          "name": "toDelegate",
          "type": "address"
        }
      ],
      "name": "DelegateChanged",
      "type": "event"
    },
    {
      "anonymous": false,
      "inputs": [
        {
          "indexed": true,
          "internalType": "address",
          "name": "delegate",
          "type": "address"
        },
        {
          "indexed": false,
          "internalType": "uint256",
          "name": "previousBalance",
          "type": "uint256"
        },
        {
          "indexed": false,
          "internalType": "uint256",
          "name": "newBalance",
          "type": "uint256"
        }
      ],
      "name": "DelegateVotesChanged",
      "type": "event"
    },
    {
      "anonymous": false,
      "inputs": [
        {
          "indexed": true,
          "internalType": "bytes32",
          "name": "role",
          "type": "bytes32"
        },
        {
          "indexed": true,
          "internalType": "bytes32",
          "name": "previousAdminRole",
          "type": "bytes32"
        },
        {
          "indexed": true,
          "internalType": "bytes32",
          "name": "newAdminRole",
          "type": "bytes32"
        }
      ],
      "name": "RoleAdminChanged",
      "type": "event"
    },
    {
      "anonymous": false,
      "inputs": [
        {
          "indexed": true,
          "internalType": "bytes32",
          "name": "role",
          "type": "bytes32"
        },
        {
          "indexed": true,
          "internalType": "address",
          "name": "account",
          "type": "address"
        },
        {
          "indexed": true,
          "internalType": "address",
          "name": "sender",
          "type": "address"
        }
      ],
      "name": "RoleGranted",
      "type": "event"
    },
    {
      "anonymous": false,
      "inputs": [
        {
          "indexed": true,
          "internalType": "bytes32",
          "name": "role",
          "type": "bytes32"
        },
        {
          "indexed": true,
          "internalType": "address",
          "name": "account",
          "type": "address"
        },
        {
          "indexed": true,
          "internalType": "address",
          "name": "sender",
          "type": "address"
        }
      ],
      "name": "RoleRevoked",
      "type": "event"
    },
    {
      "anonymous": false,
      "inputs": [
        {
          "indexed": false,
          "internalType": "uint256",
          "name": "id",
          "type": "uint256"
        }
      ],
      "name": "Snapshot",
      "type": "event"
    },
    {
      "anonymous": false,
      "inputs": [
        {
          "indexed": true,
          "internalType": "address",
          "name": "from",
          "type": "address"
        },
        {
          "indexed": true,
          "internalType": "address",
          "name": "to",
          "type": "address"
        },
        {
          "indexed": false,
          "internalType": "uint256",
          "name": "value",
          "type": "uint256"
        }
      ],
      "name": "Transfer",
      "type": "event"
    },
    {
      "inputs": [],
      "name": "DEFAULT_ADMIN_ROLE",
      "outputs": [
        {
          "internalType": "bytes32",
          "name": "",
          "type": "bytes32"
        }
      ],
      "stateMutability": "view",
      "type": "function"
    },
    {
      "inputs": [],
      "name": "DOMAIN_SEPARATOR",
      "outputs": [
        {
          "internalType": "bytes32",
          "name": "",
          "type": "bytes32"
        }
      ],
      "stateMutability": "view",
      "type": "function"
    },
    {
      "inputs": [],
      "name": "MINTER_ROLE",
      "outputs": [
        {
          "internalType": "bytes32",
          "name": "",
          "type": "bytes32"
        }
      ],
      "stateMutability": "view",
      "type": "function"
    },
    {
      "inputs": [],
      "name": "SNAPSHOT_ROLE",
      "outputs": [
        {
          "internalType": "bytes32",
          "name": "",
          "type": "bytes32"
        }
      ],
      "stateMutability": "view",
      "type": "function"
    },
    {
      "inputs": [
        {
          "internalType": "address",
          "name": "owner",
          "type": "address"
        },
        {
          "internalType": "address",
          "name": "spender",
          "type": "address"
        }
      ],
      "name": "allowance",
      "outputs": [
        {
          "internalType": "uint256",
          "name": "",
          "type": "uint256"
        }
      ],
      "stateMutability": "view",
      "type": "function"
    },
    {
      "inputs": [
        {
          "internalType": "address",
          "name": "spender",
          "type": "address"
        },
        {
          "internalType": "uint256",
          "name": "amount",
          "type": "uint256"
        }
      ],
      "name": "approve",
      "outputs": [
        {
          "internalType": "bool",
          "name": "",
          "type": "bool"
        }
      ],
      "stateMutability": "nonpayable",
      "type": "function"
    },
    {
      "inputs": [
        {
          "internalType": "address",
          "name": "account",
          "type": "address"
        }
      ],
      "name": "balanceOf",
      "outputs": [
        {
          "internalType": "uint256",
          "name": "",
          "type": "uint256"
        }
      ],
      "stateMutability": "view",
      "type": "function"
    },
    {
      "inputs": [
        {
          "internalType": "address",
          "name": "account",
          "type": "address"
        },
        {
          "internalType": "uint256",
          "name": "snapshotId",
          "type": "uint256"
        }
      ],
      "name": "balanceOfAt",
      "outputs": [
        {
          "internalType": "uint256",
          "name": "",
          "type": "uint256"
        }
      ],
      "stateMutability": "view",
      "type": "function"
    },
    {
      "inputs": [
        {
          "internalType": "address",
          "name": "account",
          "type": "address"
        },
        {
          "internalType": "uint32",
          "name": "pos",
          "type": "uint32"
        }
      ],
      "name": "checkpoints",
      "outputs": [
        {
          "components": [
            {
              "internalType": "uint32",
              "name": "fromBlock",
              "type": "uint32"
            },
            {
              "internalType": "uint224",
              "name": "votes",
              "type": "uint224"
            }
          ],
          "internalType": "struct ERC20Votes.Checkpoint",
          "name": "",
          "type": "tuple"
        }
      ],
      "stateMutability": "view",
      "type": "function"
    },
    {
      "inputs": [],
      "name": "decimals",
      "outputs": [
        {
          "internalType": "uint8",
          "name": "",
          "type": "uint8"
        }
      ],
      "stateMutability": "view",
      "type": "function"
    },
    {
      "inputs": [
        {
          "internalType": "address",
          "name": "spender",
          "type": "address"
        },
        {
          "internalType": "uint256",
          "name": "subtractedValue",
          "type": "uint256"
        }
      ],
      "name": "decreaseAllowance",
      "outputs": [
        {
          "internalType": "bool",
          "name": "",
          "type": "bool"
        }
      ],
      "stateMutability": "nonpayable",
      "type": "function"
    },
    {
      "inputs": [
        {
          "internalType": "address",
          "name": "delegatee",
          "type": "address"
        }
      ],
      "name": "delegate",
      "outputs": [],
      "stateMutability": "nonpayable",
      "type": "function"
    },
    {
      "inputs": [
        {
          "internalType": "address",
          "name": "delegatee",
          "type": "address"
        },
        {
          "internalType": "uint256",
          "name": "nonce",
          "type": "uint256"
        },
        {
          "internalType": "uint256",
          "name": "expiry",
          "type": "uint256"
        },
        {
          "internalType": "uint8",
          "name": "v",
          "type": "uint8"
        },
        {
          "internalType": "bytes32",
          "name": "r",
          "type": "bytes32"
        },
        {
          "internalType": "bytes32",
          "name": "s",
          "type": "bytes32"
        }
      ],
      "name": "delegateBySig",
      "outputs": [],
      "stateMutability": "nonpayable",
      "type": "function"
    },
    {
      "inputs": [
        {
          "internalType": "address",
          "name": "account",
          "type": "address"
        }
      ],
      "name": "delegates",
      "outputs": [
        {
          "internalType": "address",
          "name": "",
          "type": "address"
        }
      ],
      "stateMutability": "view",
      "type": "function"
    },
    {
      "inputs": [
        {
          "internalType": "uint256",
          "name": "blockNumber",
          "type": "uint256"
        }
      ],
      "name": "getPastTotalSupply",
      "outputs": [
        {
          "internalType": "uint256",
          "name": "",
          "type": "uint256"
        }
      ],
      "stateMutability": "view",
      "type": "function"
    },
    {
      "inputs": [
        {
          "internalType": "address",
          "name": "account",
          "type": "address"
        },
        {
          "internalType": "uint256",
          "name": "blockNumber",
          "type": "uint256"
        }
      ],
      "name": "getPastVotes",
      "outputs": [
        {
          "internalType": "uint256",
          "name": "",
          "type": "uint256"
        }
      ],
      "stateMutability": "view",
      "type": "function"
    },
    {
      "inputs": [
        {
          "internalType": "bytes32",
          "name": "role",
          "type": "bytes32"
        }
      ],
      "name": "getRoleAdmin",
      "outputs": [
        {
          "internalType": "bytes32",
          "name": "",
          "type": "bytes32"
        }
      ],
      "stateMutability": "view",
      "type": "function"
    },
    {
      "inputs": [
        {
          "internalType": "address",
          "name": "account",
          "type": "address"
        }
      ],
      "name": "getVotes",
      "outputs": [
        {
          "internalType": "uint256",
          "name": "",
          "type": "uint256"
        }
      ],
      "stateMutability": "view",
      "type": "function"
    },
    {
      "inputs": [
        {
          "internalType": "bytes32",
          "name": "role",
          "type": "bytes32"
        },
        {
          "internalType": "address",
          "name": "account",
          "type": "address"
        }
      ],
      "name": "grantRole",
      "outputs": [],
      "stateMutability": "nonpayable",
      "type": "function"
    },
    {
      "inputs": [
        {
          "internalType": "bytes32",
          "name": "role",
          "type": "bytes32"
        },
        {
          "internalType": "address",
          "name": "account",
          "type": "address"
        }
      ],
      "name": "hasRole",
      "outputs": [
        {
          "internalType": "bool",
          "name": "",
          "type": "bool"
        }
      ],
      "stateMutability": "view",
      "type": "function"
    },
    {
      "inputs": [
        {
          "internalType": "address",
          "name": "spender",
          "type": "address"
        },
        {
          "internalType": "uint256",
          "name": "addedValue",
          "type": "uint256"
        }
      ],
      "name": "increaseAllowance",
      "outputs": [
        {
          "internalType": "bool",
          "name": "",
          "type": "bool"
        }
      ],
      "stateMutability": "nonpayable",
      "type": "function"
    },
    {
      "inputs": [],
      "name": "name",
      "outputs": [
        {
          "internalType": "string",
          "name": "",
          "type": "string"
        }
      ],
      "stateMutability": "view",
      "type": "function"
    },
    {
      "inputs": [
        {
          "internalType": "address",
          "name": "owner",
          "type": "address"
        }
      ],
      "name": "nonces",
      "outputs": [
        {
          "internalType": "uint256",
          "name": "",
          "type": "uint256"
        }
      ],
      "stateMutability": "view",
      "type": "function"
    },
    {
      "inputs": [
        {
          "internalType": "address",
          "name": "account",
          "type": "address"
        }
      ],
      "name": "numCheckpoints",
      "outputs": [
        {
          "internalType": "uint32",
          "name": "",
          "type": "uint32"
        }
      ],
      "stateMutability": "view",
      "type": "function"
    },
    {
      "inputs": [
        {
          "internalType": "address",
          "name": "owner",
          "type": "address"
        },
        {
          "internalType": "address",
          "name": "spender",
          "type": "address"
        },
        {
          "internalType": "uint256",
          "name": "value",
          "type": "uint256"
        },
        {
          "internalType": "uint256",
          "name": "deadline",
          "type": "uint256"
        },
        {
          "internalType": "uint8",
          "name": "v",
          "type": "uint8"
        },
        {
          "internalType": "bytes32",
          "name": "r",
          "type": "bytes32"
        },
        {
          "internalType": "bytes32",
          "name": "s",
          "type": "bytes32"
        }
      ],
      "name": "permit",
      "outputs": [],
      "stateMutability": "nonpayable",
      "type": "function"
    },
    {
      "inputs": [
        {
          "internalType": "bytes32",
          "name": "role",
          "type": "bytes32"
        },
        {
          "internalType": "address",
          "name": "account",
          "type": "address"
        }
      ],
      "name": "renounceRole",
      "outputs": [],
      "stateMutability": "nonpayable",
      "type": "function"
    },
    {
      "inputs": [
        {
          "internalType": "bytes32",
          "name": "role",
          "type": "bytes32"
        },
        {
          "internalType": "address",
          "name": "account",
          "type": "address"
        }
      ],
      "name": "revokeRole",
      "outputs": [],
      "stateMutability": "nonpayable",
      "type": "function"
    },
    {
      "inputs": [],
      "name": "snapshot",
      "outputs": [],
      "stateMutability": "nonpayable",
      "type": "function"
    },
    {
      "inputs": [
        {
          "internalType": "bytes4",
          "name": "interfaceId",
          "type": "bytes4"
        }
      ],
      "name": "supportsInterface",
      "outputs": [
        {
          "internalType": "bool",
          "name": "",
          "type": "bool"
        }
      ],
      "stateMutability": "view",
      "type": "function"
    },
    {
      "inputs": [],
      "name": "symbol",
      "outputs": [
        {
          "internalType": "string",
          "name": "",
          "type": "string"
        }
      ],
      "stateMutability": "view",
      "type": "function"
    },
    {
      "inputs": [],
      "name": "totalSupply",
      "outputs": [
        {
          "internalType": "uint256",
          "name": "",
          "type": "uint256"
        }
      ],
      "stateMutability": "view",
      "type": "function"
    },
    {
      "inputs": [
        {
          "internalType": "uint256",
          "name": "snapshotId",
          "type": "uint256"
        }
      ],
      "name": "totalSupplyAt",
      "outputs": [
        {
          "internalType": "uint256",
          "name": "",
          "type": "uint256"
        }
      ],
      "stateMutability": "view",
      "type": "function"
    },
    {
      "inputs": [
        {
          "internalType": "address",
          "name": "recipient",
          "type": "address"
        },
        {
          "internalType": "uint256",
          "name": "amount",
          "type": "uint256"
        }
      ],
      "name": "transfer",
      "outputs": [
        {
          "internalType": "bool",
          "name": "",
          "type": "bool"
        }
      ],
      "stateMutability": "nonpayable",
      "type": "function"
    },
    {
      "inputs": [
        {
          "internalType": "address",
          "name": "sender",
          "type": "address"
        },
        {
          "internalType": "address",
          "name": "recipient",
          "type": "address"
        },
        {
          "internalType": "uint256",
          "name": "amount",
          "type": "uint256"
        }
      ],
      "name": "transferFrom",
      "outputs": [
        {
          "internalType": "bool",
          "name": "",
          "type": "bool"
        }
      ],
      "stateMutability": "nonpayable",
      "type": "function"
    }
  ],
  "bytecode": "0x6101406040527f6e71edae12b1b97f4d1f60370fef10105fa2faae0126114a169c64845d6126c9610120523480156200003757600080fd5b506040518060400160405280600781526020016626bcaa37b5b2b760c91b81525080604051806040016040528060018152602001603160f81b8152506040518060400160405280600881526020016725b0b7aa37b5b2b760c11b815250604051806040016040528060038152602001624b414f60e81b8152508160039080519060200190620000c892919062000aa9565b508051620000de90600490602084019062000aa9565b5050825160209384012082519284019290922060c083815260e08290524660a0818152604080517f8b73c3c69bb8fe3d512ecc4cf759cc79239f7b179b0ffacaa9a75d522b39400f818a018190528183019890985260608101959095526080808601939093523085830152805180860390920182529390920190925280519401939093209092526101005250620001799050600033620001ff565b620001a57f5fdbd35e8da83ee755d5e62a539e5ed7f47126abede0b8b10f9ea43dc6eed07f33620001ff565b620001d17f9f2df0fed2c77648de5860a4cc508cd0818c85b8b8a1ab4ceeef8d981c8956a633620001ff565b620001f933620001e46012600a62000ba9565b620001f390620f424062000c68565b6200020f565b62000cf7565b6200020b828262000226565b5050565b6200020b8282620002b060201b62000d731760201c565b62000232828262000367565b6200020b5760008281526009602090815260408083206001600160a01b03851684529091529020805460ff191660011790556200026c3390565b6001600160a01b0316816001600160a01b0316837f2f8788117e7eff1d82e926ec794901d17c78024a50270940304540a733656f0d60405160405180910390a45050565b620002c782826200039460201b62000e031760201c565b6001600160e01b03620002db620004918216565b1115620003485760405162461bcd60e51b815260206004820152603060248201527f4552433230566f7465733a20746f74616c20737570706c79207269736b73206f60448201526f766572666c6f77696e6720766f74657360801b60648201526084015b60405180910390fd5b62000361600d62000ee46200049760201b1783620004ac565b50505050565b60008281526009602090815260408083206001600160a01b038516845290915290205460ff165b92915050565b6001600160a01b038216620003ec5760405162461bcd60e51b815260206004820152601f60248201527f45524332303a206d696e7420746f20746865207a65726f20616464726573730060448201526064016200033f565b620003fa6000838362000682565b80600260008282546200040e919062000b45565b90915550506001600160a01b038216600090815260208190526040812080548392906200043d90849062000b45565b90915550506040518181526001600160a01b038316906000907fddf252ad1be2c89b69c2b068fc378daa952ba7f163c4a11628f55a4df523b3ef9060200160405180910390a36200020b600083836200069f565b60025490565b6000620004a5828462000b45565b9392505050565b8254600090819080156200050a5785620004c860018362000c8a565b81548110620004e757634e487b7160e01b600052603260045260246000fd5b60009182526020909120015464010000000090046001600160e01b03166200050d565b60005b6001600160e01b031692506200052483858760201c565b915060008111801562000574575043866200054160018462000c8a565b815481106200056057634e487b7160e01b600052603260045260246000fd5b60009182526020909120015463ffffffff16145b15620005f4576200059082620006b760201b62000ef01760201c565b866200059e60018462000c8a565b81548110620005bd57634e487b7160e01b600052603260045260246000fd5b9060005260206000200160000160046101000a8154816001600160e01b0302191690836001600160e01b0316021790555062000679565b85604051806040016040528062000616436200072660201b62000f5d1760201c565b63ffffffff1681526020016200063785620006b760201b62000ef01760201c565b6001600160e01b0390811690915282546001810184556000938452602093849020835194909301519091166401000000000263ffffffff909316929092179101555b50935093915050565b6200069a8383836200078d60201b62000fc21760201c565b505050565b6200069a838383620007f960201b6200100a1760201c565b60006001600160e01b03821115620007225760405162461bcd60e51b815260206004820152602760248201527f53616665436173743a2076616c756520646f65736e27742066697420696e20326044820152663234206269747360c81b60648201526084016200033f565b5090565b600063ffffffff821115620007225760405162461bcd60e51b815260206004820152602660248201527f53616665436173743a2076616c756520646f65736e27742066697420696e203360448201526532206269747360d01b60648201526084016200033f565b620007a58383836200069a60201b6200065c1760201c565b6001600160a01b038316620007c957620007bf8262000832565b6200069a6200086a565b6001600160a01b038216620007e357620007bf8362000832565b620007ee8362000832565b6200069a8262000832565b620008118383836200069a60201b6200065c1760201c565b6200069a62000820846200087c565b6200082b846200087c565b836200089a565b6001600160a01b03811660009081526005602090815260408083209183905290912054620008679190620009d5565b620009d5565b50565b6200087a60066200086160025490565b565b6001600160a01b039081166000908152600b60205260409020541690565b816001600160a01b0316836001600160a01b031614158015620008bd5750600081115b156200069a576001600160a01b038316156200094a576001600160a01b0383166000908152600c602090815260408220829162000907919062000a24901b620010251785620004ac565b91509150846001600160a01b03166000805160206200341883398151915283836040516200093f929190918252602082015260400190565b60405180910390a250505b6001600160a01b038216156200069a576001600160a01b0382166000908152600c60209081526040822082916200098e919062000497901b62000ee41785620004ac565b91509150836001600160a01b0316600080516020620034188339815191528383604051620009c6929190918252602082015260400190565b60405180910390a25050505050565b6000620009e162000a32565b905080620009ef8462000a50565b10156200069a578254600180820185556000858152602080822090930193909355938401805494850181558252902090910155565b6000620004a5828462000c8a565b600062000a4b600862000aa560201b620010311760201c565b905090565b805460009062000a6257506000919050565b8154829062000a749060019062000c8a565b8154811062000a9357634e487b7160e01b600052603260045260246000fd5b90600052602060002001549050919050565b5490565b82805462000ab79062000ca4565b90600052602060002090601f01602090048101928262000adb576000855562000b26565b82601f1062000af657805160ff191683800117855562000b26565b8280016001018555821562000b26579182015b8281111562000b2657825182559160200191906001019062000b09565b50620007229291505b8082111562000722576000815560010162000b2f565b6000821982111562000b5b5762000b5b62000ce1565b500190565b600181815b8085111562000ba157816000190482111562000b855762000b8562000ce1565b8085161562000b9357918102915b93841c939080029062000b65565b509250929050565b6000620004a560ff84168360008262000bc5575060016200038e565b8162000bd4575060006200038e565b816001811462000bed576002811462000bf85762000c18565b60019150506200038e565b60ff84111562000c0c5762000c0c62000ce1565b50506001821b6200038e565b5060208310610133831016604e8410600b841016171562000c3d575081810a6200038e565b62000c49838362000b60565b806000190482111562000c605762000c6062000ce1565b029392505050565b600081600019048311821515161562000c855762000c8562000ce1565b500290565b60008282101562000c9f5762000c9f62000ce1565b500390565b600181811c9082168062000cb957607f821691505b6020821081141562000cdb57634e487b7160e01b600052602260045260246000fd5b50919050565b634e487b7160e01b600052601160045260246000fd5b60805160a05160c05160e05161010051610120516126d162000d476000396000610bb501526000611466015260006114b501526000611490015260006114140152600061143d01526126d16000f3fe608060405234801561001057600080fd5b50600436106101965760003560e01c806301ffc9a71461019b57806306fdde03146101c3578063095ea7b3146101d857806318160ddd146101eb57806323b872dd146101fd578063248a9ca3146102105780632f2ff15d14610223578063313ce567146102385780633644e5151461024757806336568abe1461024f57806339509351146102625780633a46b1a8146102755780634ee2cd7e14610288578063587cde1e1461029b5780635c19a95c146102c65780636fcfff45146102d95780637028e2cd1461030157806370a08231146103165780637ecebe00146103295780638e539e8c1461033c57806391d148541461034f57806395d89b41146103625780639711715a1461036a578063981b24d0146103725780639ab24eb014610385578063a217fddf14610398578063a457c2d7146103a0578063a9059cbb146103b3578063c3cda520146103c6578063d505accf146103d9578063d5391393146103ec578063d547741f14610413578063dd62ed3e14610426578063f1127ed81461045f575b600080fd5b6101ae6101a936600461243e565b61049c565b60405190151581526020015b60405180910390f35b6101cb6104d3565b6040516101ba91906124d5565b6101ae6101e6366004612346565b610565565b6002545b6040519081526020016101ba565b6101ae61020b3660046122a2565b61057b565b6101ef61021e366004612404565b61062a565b61023661023136600461241c565b61063f565b005b604051601281526020016101ba565b6101ef610661565b61023661025d36600461241c565b610670565b6101ae610270366004612346565b6106ee565b6101ef610283366004612346565b61072a565b6101ef610296366004612346565b610774565b6102ae6102a9366004612256565b6107bd565b6040516001600160a01b0390911681526020016101ba565b6102366102d4366004612256565b6107db565b6102ec6102e7366004612256565b6107e8565b60405163ffffffff90911681526020016101ba565b6101ef60008051602061263c83398151915281565b6101ef610324366004612256565b61080a565b6101ef610337366004612256565b610825565b6101ef61034a366004612404565b610843565b6101ae61035d36600461241c565b61086f565b6101cb61089a565b6102366108a9565b6101ef610380366004612404565b6108ca565b6101ef610393366004612256565b6108f5565b6101ef600081565b6101ae6103ae366004612346565b610989565b6101ae6103c1366004612346565b610a22565b6102366103d436600461236f565b610a2f565b6102366103e73660046122dd565b610b61565b6101ef7f9f2df0fed2c77648de5860a4cc508cd0818c85b8b8a1ab4ceeef8d981c8956a681565b61023661042136600461241c565b610cc5565b6101ef610434366004612270565b6001600160a01b03918216600090815260016020908152604080832093909416825291909152205490565b61047261046d3660046123c6565b610ce2565b60408051825163ffffffff1681526020928301516001600160e01b031692810192909252016101ba565b60006001600160e01b03198216637965db0b60e01b14806104cd57506301ffc9a760e01b6001600160e01b03198316145b92915050565b6060600380546104e2906125f0565b80601f016020809104026020016040519081016040528092919081815260200182805461050e906125f0565b801561055b5780601f106105305761010080835404028352916020019161055b565b820191906000526020600020905b81548152906001019060200180831161053e57829003601f168201915b5050505050905090565b6000610572338484611035565b50600192915050565b6000610588848484611159565b6001600160a01b0384166000908152600160209081526040808320338452909152902054828110156106125760405162461bcd60e51b815260206004820152602860248201527f45524332303a207472616e7366657220616d6f756e74206578636565647320616044820152676c6c6f77616e636560c01b60648201526084015b60405180910390fd5b61061f8533858403611035565b506001949350505050565b60009081526009602052604090206001015490565b6106488261062a565b6106528133611326565b61065c838361138a565b505050565b600061066b611410565b905090565b6001600160a01b03811633146106e05760405162461bcd60e51b815260206004820152602f60248201527f416363657373436f6e74726f6c3a2063616e206f6e6c792072656e6f756e636560448201526e103937b632b9903337b91039b2b63360891b6064820152608401610609565b6106ea8282611503565b5050565b3360008181526001602090815260408083206001600160a01b0387168452909152812054909161057291859061072590869061253f565b611035565b600043821061074b5760405162461bcd60e51b815260040161060990612508565b6001600160a01b0383166000908152600c6020526040902061076d908361156a565b9392505050565b6001600160a01b03821660009081526005602052604081208190819061079b908590611642565b91509150816107b2576107ad8561080a565b6107b4565b805b95945050505050565b6001600160a01b039081166000908152600b60205260409020541690565b6107e53382611747565b50565b6001600160a01b0381166000908152600c60205260408120546104cd90610f5d565b6001600160a01b031660009081526020819052604090205490565b6001600160a01b0381166000908152600a60205260408120546104cd565b60004382106108645760405162461bcd60e51b815260040161060990612508565b6104cd600d8361156a565b60009182526009602090815260408084206001600160a01b0393909316845291905290205460ff1690565b6060600480546104e2906125f0565b60008051602061263c8339815191526108c28133611326565b6106ea6117c7565b60008060006108da846006611642565b91509150816108eb576002546108ed565b805b949350505050565b6001600160a01b0381166000908152600c60205260408120548015610976576001600160a01b0383166000908152600c60205260409020610937600183612596565b8154811061095557634e487b7160e01b600052603260045260246000fd5b600091825260209091200154600160201b90046001600160e01b0316610979565b60005b6001600160e01b03169392505050565b3360009081526001602090815260408083206001600160a01b038616845290915281205482811015610a0b5760405162461bcd60e51b815260206004820152602560248201527f45524332303a2064656372656173656420616c6c6f77616e63652062656c6f77604482015264207a65726f60d81b6064820152608401610609565b610a183385858403611035565b5060019392505050565b6000610572338484611159565b83421115610a7f5760405162461bcd60e51b815260206004820152601d60248201527f4552433230566f7465733a207369676e617475726520657870697265640000006044820152606401610609565b604080517fe48329057bfd03d55e49b547132e39cffd9c1820ad7b9d4c5307691425d15adf60208201526001600160a01b038816918101919091526060810186905260808101859052600090610af990610af19060a00160405160208183030381529060405280519060200120611821565b85858561186f565b9050610b0481611897565b8614610b4e5760405162461bcd60e51b81526020600482015260196024820152784552433230566f7465733a20696e76616c6964206e6f6e636560381b6044820152606401610609565b610b588188611747565b50505050505050565b83421115610bb15760405162461bcd60e51b815260206004820152601d60248201527f45524332305065726d69743a206578706972656420646561646c696e650000006044820152606401610609565b60007f0000000000000000000000000000000000000000000000000000000000000000888888610be08c611897565b6040805160208101969096526001600160a01b0394851690860152929091166060840152608083015260a082015260c0810186905260e0016040516020818303038152906040528051906020012090506000610c3b82611821565b90506000610c4b8287878761186f565b9050896001600160a01b0316816001600160a01b031614610cae5760405162461bcd60e51b815260206004820152601e60248201527f45524332305065726d69743a20696e76616c6964207369676e617475726500006044820152606401610609565b610cb98a8a8a611035565b50505050505050505050565b610cce8261062a565b610cd88133611326565b61065c8383611503565b60408051808201909152600080825260208201526001600160a01b0383166000908152600c60205260409020805463ffffffff8416908110610d3457634e487b7160e01b600052603260045260246000fd5b60009182526020918290206040805180820190915291015463ffffffff81168252600160201b90046001600160e01b0316918101919091529392505050565b610d7d8282610e03565b6002546001600160e01b031015610def5760405162461bcd60e51b815260206004820152603060248201527f4552433230566f7465733a20746f74616c20737570706c79207269736b73206f60448201526f766572666c6f77696e6720766f74657360801b6064820152608401610609565b610dfd600d610ee4836118bf565b50505050565b6001600160a01b038216610e595760405162461bcd60e51b815260206004820152601f60248201527f45524332303a206d696e7420746f20746865207a65726f2061646472657373006044820152606401610609565b610e6560008383611a60565b8060026000828254610e77919061253f565b90915550506001600160a01b03821660009081526020819052604081208054839290610ea490849061253f565b90915550506040518181526001600160a01b0383169060009060008051602061265c8339815191529060200160405180910390a36106ea60008383611a6b565b600061076d828461253f565b60006001600160e01b03821115610f595760405162461bcd60e51b815260206004820152602760248201527f53616665436173743a2076616c756520646f65736e27742066697420696e20326044820152663234206269747360c81b6064820152608401610609565b5090565b600063ffffffff821115610f595760405162461bcd60e51b815260206004820152602660248201527f53616665436173743a2076616c756520646f65736e27742066697420696e203360448201526532206269747360d01b6064820152608401610609565b6001600160a01b038316610fe157610fd982611a76565b61065c611aa0565b6001600160a01b038216610ff857610fd983611a76565b61100183611a76565b61065c82611a76565b61065c611016846107bd565b61101f846107bd565b83611ab0565b600061076d8284612596565b5490565b6001600160a01b0383166110975760405162461bcd60e51b8152602060048201526024808201527f45524332303a20617070726f76652066726f6d20746865207a65726f206164646044820152637265737360e01b6064820152608401610609565b6001600160a01b0382166110f85760405162461bcd60e51b815260206004820152602260248201527f45524332303a20617070726f766520746f20746865207a65726f206164647265604482015261737360f01b6064820152608401610609565b6001600160a01b0383811660008181526001602090815260408083209487168084529482529182902085905590518481527f8c5be1e5ebec7d5bd14f71427d1e84f3dd0314c0f7b2291e5b200ac8c7c3b925910160405180910390a3505050565b6001600160a01b0383166111bd5760405162461bcd60e51b815260206004820152602560248201527f45524332303a207472616e736665722066726f6d20746865207a65726f206164604482015264647265737360d81b6064820152608401610609565b6001600160a01b03821661121f5760405162461bcd60e51b815260206004820152602360248201527f45524332303a207472616e7366657220746f20746865207a65726f206164647260448201526265737360e81b6064820152608401610609565b61122a838383611a60565b6001600160a01b038316600090815260208190526040902054818110156112a25760405162461bcd60e51b815260206004820152602660248201527f45524332303a207472616e7366657220616d6f756e7420657863656564732062604482015265616c616e636560d01b6064820152608401610609565b6001600160a01b038085166000908152602081905260408082208585039055918516815290812080548492906112d990849061253f565b92505081905550826001600160a01b0316846001600160a01b031660008051602061265c8339815191528460405161131391815260200190565b60405180910390a3610dfd848484611a6b565b611330828261086f565b6106ea57611348816001600160a01b03166014611bc9565b611353836020611bc9565b604051602001611364929190612466565b60408051601f198184030181529082905262461bcd60e51b8252610609916004016124d5565b611394828261086f565b6106ea5760008281526009602090815260408083206001600160a01b03851684529091529020805460ff191660011790556113cc3390565b6001600160a01b0316816001600160a01b0316837f2f8788117e7eff1d82e926ec794901d17c78024a50270940304540a733656f0d60405160405180910390a45050565b60007f000000000000000000000000000000000000000000000000000000000000000046141561145f57507f000000000000000000000000000000000000000000000000000000000000000090565b50604080517f00000000000000000000000000000000000000000000000000000000000000006020808301919091527f0000000000000000000000000000000000000000000000000000000000000000828401527f000000000000000000000000000000000000000000000000000000000000000060608301524660808301523060a0808401919091528351808403909101815260c0909201909252805191012090565b61150d828261086f565b156106ea5760008281526009602090815260408083206001600160a01b0385168085529252808320805460ff1916905551339285917ff6391f5c32d9c69d2a47ea670b442974b53935d1edc7fd64eb21e047a839171b9190a45050565b8154600090815b818110156115dc5760006115858284611daa565b9050848682815481106115a857634e487b7160e01b600052603260045260246000fd5b60009182526020909120015463ffffffff1611156115c8578092506115d6565b6115d381600161253f565b91505b50611571565b811561162d57846115ee600184612596565b8154811061160c57634e487b7160e01b600052603260045260246000fd5b600091825260209091200154600160201b90046001600160e01b0316611630565b60005b6001600160e01b031695945050505050565b6000806000841161168e5760405162461bcd60e51b815260206004820152601660248201527504552433230536e617073686f743a20696420697320360541b6044820152606401610609565b611696611dc5565b8411156116e55760405162461bcd60e51b815260206004820152601d60248201527f4552433230536e617073686f743a206e6f6e6578697374656e742069640000006044820152606401610609565b60006116f18486611dd0565b845490915081141561170a576000809250925050611740565b600184600101828154811061172f57634e487b7160e01b600052603260045260246000fd5b906000526020600020015492509250505b9250929050565b6000611752836107bd565b9050600061175f8461080a565b6001600160a01b038581166000818152600b602052604080822080546001600160a01b031916898616908117909155905194955093928616927f3134e8a2e6d97e929a7e54011ea5485d7d196dd5f0ba4d4ef95803e8e3fc257f9190a4610dfd828483611ab0565b60006117d7600880546001019055565b60006117e1611dc5565b90507f8030e83b04d87bef53480e26263266d6ca66863aa8506aca6f2559d18aa1cb678160405161181491815260200190565b60405180910390a1919050565b60006104cd61182e611410565b8360405161190160f01b6020820152602281018390526042810182905260009060620160405160208183030381529060405280519060200120905092915050565b600080600061188087878787611eaf565b9150915061188d81611f92565b5095945050505050565b6001600160a01b0381166000908152600a602052604090208054600181018255905b50919050565b82546000908190801561191757856118d8600183612596565b815481106118f657634e487b7160e01b600052603260045260246000fd5b600091825260209091200154600160201b90046001600160e01b031661191a565b60005b6001600160e01b0316925061193383858763ffffffff16565b915060008111801561197f5750438661194d600184612596565b8154811061196b57634e487b7160e01b600052603260045260246000fd5b60009182526020909120015463ffffffff16145b156119ed5761198d82610ef0565b86611999600184612596565b815481106119b757634e487b7160e01b600052603260045260246000fd5b9060005260206000200160000160046101000a8154816001600160e01b0302191690836001600160e01b03160217905550611a57565b856040518060400160405280611a0243610f5d565b63ffffffff168152602001611a1685610ef0565b6001600160e01b039081169091528254600181018455600093845260209384902083519490930151909116600160201b0263ffffffff909316929092179101555b50935093915050565b61065c838383610fc2565b61065c83838361100a565b6001600160a01b03811660009081526005602052604090206107e590611a9b8361080a565b61218e565b611aae6006611a9b60025490565b565b816001600160a01b0316836001600160a01b031614158015611ad25750600081115b1561065c576001600160a01b03831615611b4e576001600160a01b0383166000908152600c602052604081208190611b0d90611025856118bf565b91509150846001600160a01b031660008051602061267c8339815191528383604051611b43929190918252602082015260400190565b60405180910390a250505b6001600160a01b0382161561065c576001600160a01b0382166000908152600c602052604081208190611b8490610ee4856118bf565b91509150836001600160a01b031660008051602061267c8339815191528383604051611bba929190918252602082015260400190565b60405180910390a25050505050565b60606000611bd8836002612577565b611be390600261253f565b6001600160401b03811115611c0857634e487b7160e01b600052604160045260246000fd5b6040519080825280601f01601f191660200182016040528015611c32576020820181803683370190505b509050600360fc1b81600081518110611c5b57634e487b7160e01b600052603260045260246000fd5b60200101906001600160f81b031916908160001a905350600f60fb1b81600181518110611c9857634e487b7160e01b600052603260045260246000fd5b60200101906001600160f81b031916908160001a9053506000611cbc846002612577565b611cc790600161253f565b90505b6001811115611d5b576f181899199a1a9b1b9c1cb0b131b232b360811b85600f1660108110611d0957634e487b7160e01b600052603260045260246000fd5b1a60f81b828281518110611d2d57634e487b7160e01b600052603260045260246000fd5b60200101906001600160f81b031916908160001a90535060049490941c93611d54816125d9565b9050611cca565b50831561076d5760405162461bcd60e51b815260206004820181905260248201527f537472696e67733a20686578206c656e67746820696e73756666696369656e746044820152606401610609565b6000611db96002848418612557565b61076d9084841661253f565b600061066b60085490565b8154600090611de1575060006104cd565b82546000905b80821015611e4b576000611dfb8383611daa565b905084868281548110611e1e57634e487b7160e01b600052603260045260246000fd5b90600052602060002001541115611e3757809150611e45565b611e4281600161253f565b92505b50611de7565b600082118015611e8e57508385611e63600185612596565b81548110611e8157634e487b7160e01b600052603260045260246000fd5b9060005260206000200154145b15611ea757611e9e600183612596565b925050506104cd565b5090506104cd565b6000806fa2a8918ca85bafe22016d0b997e4df60600160ff1b03831115611edc5750600090506003611f89565b8460ff16601b14158015611ef457508460ff16601c14155b15611f055750600090506004611f89565b6040805160008082526020820180845289905260ff881692820192909252606081018690526080810185905260019060a0016020604051602081039080840390855afa158015611f59573d6000803e3d6000fd5b5050604051601f1901519150506001600160a01b038116611f8257600060019250925050611f89565b9150600090505b94509492505050565b6000816004811115611fb457634e487b7160e01b600052602160045260246000fd5b1415611fbd5750565b6001816004811115611fdf57634e487b7160e01b600052602160045260246000fd5b14156120285760405162461bcd60e51b815260206004820152601860248201527745434453413a20696e76616c6964207369676e617475726560401b6044820152606401610609565b600281600481111561204a57634e487b7160e01b600052602160045260246000fd5b14156120985760405162461bcd60e51b815260206004820152601f60248201527f45434453413a20696e76616c6964207369676e6174757265206c656e677468006044820152606401610609565b60038160048111156120ba57634e487b7160e01b600052602160045260246000fd5b14156121135760405162461bcd60e51b815260206004820152602260248201527f45434453413a20696e76616c6964207369676e6174757265202773272076616c604482015261756560f01b6064820152608401610609565b600481600481111561213557634e487b7160e01b600052602160045260246000fd5b14156107e55760405162461bcd60e51b815260206004820152602260248201527f45434453413a20696e76616c6964207369676e6174757265202776272076616c604482015261756560f01b6064820152608401610609565b6000612198611dc5565b9050806121a4846121d8565b101561065c578254600180820185556000858152602080822090930193909355938401805494850181558252902090910155565b80546000906121e957506000919050565b815482906121f990600190612596565b8154811061221757634e487b7160e01b600052603260045260246000fd5b90600052602060002001549050919050565b919050565b80356001600160a01b038116811461222957600080fd5b803560ff8116811461222957600080fd5b600060208284031215612267578081fd5b61076d8261222e565b60008060408385031215612282578081fd5b61228b8361222e565b91506122996020840161222e565b90509250929050565b6000806000606084860312156122b6578081fd5b6122bf8461222e565b92506122cd6020850161222e565b9150604084013590509250925092565b600080600080600080600060e0888a0312156122f7578283fd5b6123008861222e565b965061230e6020890161222e565b9550604088013594506060880135935061232a60808901612245565b925060a0880135915060c0880135905092959891949750929550565b60008060408385031215612358578182fd5b6123618361222e565b946020939093013593505050565b60008060008060008060c08789031215612387578182fd5b6123908761222e565b955060208701359450604087013593506123ac60608801612245565b92506080870135915060a087013590509295509295509295565b600080604083850312156123d8578182fd5b6123e18361222e565b9150602083013563ffffffff811681146123f9578182fd5b809150509250929050565b600060208284031215612415578081fd5b5035919050565b6000806040838503121561242e578182fd5b823591506122996020840161222e565b60006020828403121561244f578081fd5b81356001600160e01b03198116811461076d578182fd5b76020b1b1b2b9b9a1b7b73a3937b61d1030b1b1b7bab73a1604d1b8152600083516124988160178501602088016125ad565b7001034b99036b4b9b9b4b733903937b6329607d1b60179184019182015283516124c98160288401602088016125ad565b01602801949350505050565b60208152600082518060208401526124f48160408501602087016125ad565b601f01601f19169190910160400192915050565b6020808252601f908201527f4552433230566f7465733a20626c6f636b206e6f7420796574206d696e656400604082015260600190565b6000821982111561255257612552612625565b500190565b60008261257257634e487b7160e01b81526012600452602481fd5b500490565b600081600019048311821515161561259157612591612625565b500290565b6000828210156125a8576125a8612625565b500390565b60005b838110156125c85781810151838201526020016125b0565b83811115610dfd5750506000910152565b6000816125e8576125e8612625565b506000190190565b600181811c9082168061260457607f821691505b602082108114156118b957634e487b7160e01b600052602260045260246000fd5b634e487b7160e01b600052601160045260246000fdfe5fdbd35e8da83ee755d5e62a539e5ed7f47126abede0b8b10f9ea43dc6eed07fddf252ad1be2c89b69c2b068fc378daa952ba7f163c4a11628f55a4df523b3efdec2bacdd2f05b59de34da9b523dff8be42e5e38e818c82fdb0bae774387a724a2646970667358221220e80fa722de57e6dab30896cbdaaf3cd1910421d4331e9cdd3dd3ff3a1aa5420864736f6c63430008040033dec2bacdd2f05b59de34da9b523dff8be42e5e38e818c82fdb0bae774387a724",
  "linkReferences": {},
  "deployedLinkReferences": {}
}